{
  "contractName": "GlowSale",
  "abi": [
    {
      "constant": true,
      "inputs": [],
      "name": "MainSalePrice",
      "outputs": [
        {
          "name": "",
          "type": "uint256"
        }
      ],
      "payable": false,
      "stateMutability": "view",
      "type": "function"
    },
    {
      "constant": true,
      "inputs": [],
      "name": "backEndOperator",
      "outputs": [
        {
          "name": "",
          "type": "address"
        }
      ],
      "payable": false,
      "stateMutability": "view",
      "type": "function"
    },
    {
      "constant": true,
      "inputs": [],
      "name": "dollarPrice",
      "outputs": [
        {
          "name": "",
          "type": "uint256"
        }
      ],
      "payable": false,
      "stateMutability": "view",
      "type": "function"
    },
    {
      "constant": true,
      "inputs": [],
      "name": "startPreSale",
      "outputs": [
        {
          "name": "",
          "type": "uint256"
        }
      ],
      "payable": false,
      "stateMutability": "view",
      "type": "function"
    },
    {
      "constant": true,
      "inputs": [],
      "name": "startMainSale",
      "outputs": [
        {
          "name": "",
          "type": "uint256"
        }
      ],
      "payable": false,
      "stateMutability": "view",
      "type": "function"
    },
    {
      "constant": true,
      "inputs": [],
      "name": "endMainSale",
      "outputs": [
        {
          "name": "",
          "type": "uint256"
        }
      ],
      "payable": false,
      "stateMutability": "view",
      "type": "function"
    },
    {
      "constant": true,
      "inputs": [],
      "name": "investors",
      "outputs": [
        {
          "name": "",
          "type": "uint256"
        }
      ],
      "payable": false,
      "stateMutability": "view",
      "type": "function"
    },
    {
      "constant": true,
      "inputs": [],
      "name": "owner",
      "outputs": [
        {
          "name": "",
          "type": "address"
        }
      ],
      "payable": false,
      "stateMutability": "view",
      "type": "function"
    },
    {
      "constant": true,
      "inputs": [
        {
          "name": "",
          "type": "address"
        }
      ],
      "name": "whitelist",
      "outputs": [
        {
          "name": "",
          "type": "bool"
        }
      ],
      "payable": false,
      "stateMutability": "view",
      "type": "function"
    },
    {
      "constant": true,
      "inputs": [],
      "name": "soldTokensSale",
      "outputs": [
        {
          "name": "",
          "type": "uint256"
        }
      ],
      "payable": false,
      "stateMutability": "view",
      "type": "function"
    },
    {
      "constant": true,
      "inputs": [],
      "name": "soldTokensPreSale",
      "outputs": [
        {
          "name": "",
          "type": "uint256"
        }
      ],
      "payable": false,
      "stateMutability": "view",
      "type": "function"
    },
    {
      "constant": true,
      "inputs": [],
      "name": "weisRaised",
      "outputs": [
        {
          "name": "",
          "type": "uint256"
        }
      ],
      "payable": false,
      "stateMutability": "view",
      "type": "function"
    },
    {
      "constant": true,
      "inputs": [],
      "name": "preSalePrice",
      "outputs": [
        {
          "name": "",
          "type": "uint256"
        }
      ],
      "payable": false,
      "stateMutability": "view",
      "type": "function"
    },
    {
      "constant": true,
      "inputs": [],
      "name": "endPreSale",
      "outputs": [
        {
          "name": "",
          "type": "uint256"
        }
      ],
      "payable": false,
      "stateMutability": "view",
      "type": "function"
    },
    {
      "constant": false,
      "inputs": [
        {
          "name": "newOwner",
          "type": "address"
        }
      ],
      "name": "transferOwnership",
      "outputs": [],
      "payable": false,
      "stateMutability": "nonpayable",
      "type": "function"
    },
    {
      "constant": true,
      "inputs": [],
      "name": "token",
      "outputs": [
        {
          "name": "",
          "type": "address"
        }
      ],
      "payable": false,
      "stateMutability": "view",
      "type": "function"
    },
    {
      "inputs": [
        {
          "name": "_dollareth",
          "type": "uint256"
        }
      ],
      "payable": false,
      "stateMutability": "nonpayable",
      "type": "constructor"
    },
    {
      "payable": true,
      "stateMutability": "payable",
      "type": "fallback"
    },
    {
      "anonymous": false,
      "inputs": [],
      "name": "Finalized",
      "type": "event"
    },
    {
      "anonymous": false,
      "inputs": [
        {
          "indexed": false,
          "name": "wlCandidate",
          "type": "address"
        },
        {
          "indexed": false,
          "name": "timestamp",
          "type": "uint256"
        }
      ],
      "name": "Authorized",
      "type": "event"
    },
    {
      "anonymous": false,
      "inputs": [
        {
          "indexed": false,
          "name": "wlCandidate",
          "type": "address"
        },
        {
          "indexed": false,
          "name": "timestamp",
          "type": "uint256"
        }
      ],
      "name": "Revoked",
      "type": "event"
    },
    {
      "anonymous": false,
      "inputs": [
        {
          "indexed": true,
          "name": "previousOwner",
          "type": "address"
        },
        {
          "indexed": true,
          "name": "newOwner",
          "type": "address"
        }
      ],
      "name": "OwnershipTransferred",
      "type": "event"
    },
    {
      "constant": false,
      "inputs": [
        {
          "name": "_token",
          "type": "address"
        }
      ],
      "name": "setToken",
      "outputs": [],
      "payable": false,
      "stateMutability": "nonpayable",
      "type": "function"
    },
    {
      "constant": false,
      "inputs": [
        {
          "name": "_usdether",
          "type": "uint256"
        }
      ],
      "name": "setDollarRate",
      "outputs": [],
      "payable": false,
      "stateMutability": "nonpayable",
      "type": "function"
    },
    {
      "constant": false,
      "inputs": [
        {
          "name": "newStartPreSale",
          "type": "uint256"
        }
      ],
      "name": "setStartPreSale",
      "outputs": [],
      "payable": false,
      "stateMutability": "nonpayable",
      "type": "function"
    },
    {
      "constant": false,
      "inputs": [
        {
          "name": "newEndPreSaled",
          "type": "uint256"
        }
      ],
      "name": "setEndPreSale",
      "outputs": [],
      "payable": false,
      "stateMutability": "nonpayable",
      "type": "function"
    },
    {
      "constant": false,
      "inputs": [
        {
          "name": "newStartSale",
          "type": "uint256"
        }
      ],
      "name": "setStartSale",
      "outputs": [],
      "payable": false,
      "stateMutability": "nonpayable",
      "type": "function"
    },
    {
      "constant": false,
      "inputs": [
        {
          "name": "newEndSaled",
          "type": "uint256"
        }
      ],
      "name": "setEndSale",
      "outputs": [],
      "payable": false,
      "stateMutability": "nonpayable",
      "type": "function"
    },
    {
      "constant": false,
      "inputs": [
        {
          "name": "newBackEndOperator",
          "type": "address"
        }
      ],
      "name": "setBackEndAddress",
      "outputs": [],
      "payable": false,
      "stateMutability": "nonpayable",
      "type": "function"
    },
    {
      "constant": false,
      "inputs": [
        {
          "name": "wlCandidate",
          "type": "address"
        }
      ],
      "name": "authorize",
      "outputs": [],
      "payable": false,
      "stateMutability": "nonpayable",
      "type": "function"
    },
    {
      "constant": false,
      "inputs": [
        {
          "name": "wlCandidate",
          "type": "address"
        }
      ],
      "name": "revoke",
      "outputs": [],
      "payable": false,
      "stateMutability": "nonpayable",
      "type": "function"
    },
    {
      "constant": true,
      "inputs": [],
      "name": "isPreSale",
      "outputs": [
        {
          "name": "",
          "type": "bool"
        }
      ],
      "payable": false,
      "stateMutability": "view",
      "type": "function"
    },
    {
      "constant": true,
      "inputs": [],
      "name": "isMainSale",
      "outputs": [
        {
          "name": "",
          "type": "bool"
        }
      ],
      "payable": false,
      "stateMutability": "view",
      "type": "function"
    },
    {
      "constant": false,
      "inputs": [
        {
          "name": "_recipient",
          "type": "address"
        },
        {
          "name": "_value",
          "type": "uint256"
        }
      ],
      "name": "mintManual",
      "outputs": [],
      "payable": false,
      "stateMutability": "nonpayable",
      "type": "function"
    },
    {
      "constant": false,
      "inputs": [
        {
          "name": "_to",
          "type": "address"
        },
        {
          "name": "amount",
          "type": "uint256"
        }
      ],
      "name": "transferEthFromContract",
      "outputs": [],
      "payable": false,
      "stateMutability": "nonpayable",
      "type": "function"
    }
  ],
  "bytecode": "0x608060405233600260006101000a81548173ffffffffffffffffffffffffffffffffffffffff021916908373ffffffffffffffffffffffffffffffffffffffff160217905550737ede8260e573d3a3ddfc058f19309df5a1f7397e600360006101000a81548173ffffffffffffffffffffffffffffffffffffffff021916908373ffffffffffffffffffffffffffffffffffffffff160217905550730cdb839b52404d49417c8ded6c3e2157a06cdd37600460006101000a81548173ffffffffffffffffffffffffffffffffffffffff021916908373ffffffffffffffffffffffffffffffffffffffff16021790555073ce66e79f59eafacaf4cabaa317cab4857487e3a1600560006101000a81548173ffffffffffffffffffffffffffffffffffffffff021916908373ffffffffffffffffffffffffffffffffffffffff16021790555042600755635b89d67f600855635bb16381600955635ca1547f600a556502e90edd0000600d55652a9079602000600e5534801561018057600080fd5b506040516020806124ff83398101806040528101908080519060200190929190505050336000806101000a81548173ffffffffffffffffffffffffffffffffffffffff021916908373ffffffffffffffffffffffffffffffffffffffff160217905550806011819055506002601154670de0b6b3a764000081151561020157fe5b0481151561020b57fe5b04600f81905550601154670de0b6b3a764000081151561022757fe5b04601081905550506122c18061023e6000396000f300608060405260043610610174576000357c0100000000000000000000000000000000000000000000000000000000900463ffffffff1680625b42cb146101c8578063050895ff146101f3578063144fa6d71461024a57806331198d191461028d578063384a6494146102da57806340d7b7b8146103075780634ced47341461033257806355dd574c14610361578063580e77d41461038c5780636ee64345146103b757806374a8f103146103e25780638ac27f5f146104255780638ca5da35146104505780638da5cb5b1461049d5780639b19251a146104f4578063b6a5d7de1461054f578063b701dc1414610592578063ba8029bb146105d5578063c6178a6514610602578063d1f2efd51461062d578063d2c877f81461065c578063d893b9f114610689578063da5f838d146106b4578063e0462547146106df578063e757c17d1461070c578063ee889ed014610737578063f2fde38b14610762578063fb3ab12b146107a5578063fc0c546a146107d2575b61017d33610829565b151561018857600080fd5b61019061087f565b156101a45761019f333461089a565b6101c6565b6101ac610ddc565b156101c0576101bb3334610df7565b6101c5565b600080fd5b5b005b3480156101d457600080fd5b506101dd611339565b6040518082815260200191505060405180910390f35b3480156101ff57600080fd5b5061020861133f565b604051808273ffffffffffffffffffffffffffffffffffffffff1673ffffffffffffffffffffffffffffffffffffffff16815260200191505060405180910390f35b34801561025657600080fd5b5061028b600480360381019080803573ffffffffffffffffffffffffffffffffffffffff169060200190929190505050611365565b005b34801561029957600080fd5b506102d8600480360381019080803573ffffffffffffffffffffffffffffffffffffffff16906020019092919080359060200190929190505050611404565b005b3480156102e657600080fd5b50610305600480360381019080803590602001909291905050506114aa565b005b34801561031357600080fd5b5061031c61150f565b6040518082815260200191505060405180910390f35b34801561033e57600080fd5b5061034761087f565b604051808215151515815260200191505060405180910390f35b34801561036d57600080fd5b50610376611515565b6040518082815260200191505060405180910390f35b34801561039857600080fd5b506103a161151b565b6040518082815260200191505060405180910390f35b3480156103c357600080fd5b506103cc611521565b6040518082815260200191505060405180910390f35b3480156103ee57600080fd5b50610423600480360381019080803573ffffffffffffffffffffffffffffffffffffffff169060200190929190505050611527565b005b34801561043157600080fd5b5061043a61165b565b6040518082815260200191505060405180910390f35b34801561045c57600080fd5b5061049b600480360381019080803573ffffffffffffffffffffffffffffffffffffffff16906020019092919080359060200190929190505050611661565b005b3480156104a957600080fd5b506104b2611bfa565b604051808273ffffffffffffffffffffffffffffffffffffffff1673ffffffffffffffffffffffffffffffffffffffff16815260200191505060405180910390f35b34801561050057600080fd5b50610535600480360381019080803573ffffffffffffffffffffffffffffffffffffffff169060200190929190505050611c1f565b604051808215151515815260200191505060405180910390f35b34801561055b57600080fd5b50610590600480360381019080803573ffffffffffffffffffffffffffffffffffffffff169060200190929190505050611c3f565b005b34801561059e57600080fd5b506105d3600480360381019080803573ffffffffffffffffffffffffffffffffffffffff169060200190929190505050611e1b565b005b3480156105e157600080fd5b5061060060048036038101908080359060200190929190505050611eba565b005b34801561060e57600080fd5b50610617611f1f565b6040518082815260200191505060405180910390f35b34801561063957600080fd5b50610642610ddc565b604051808215151515815260200191505060405180910390f35b34801561066857600080fd5b5061068760048036038101908080359060200190929190505050611f25565b005b34801561069557600080fd5b5061069e611fce565b6040518082815260200191505060405180910390f35b3480156106c057600080fd5b506106c9611fd4565b6040518082815260200191505060405180910390f35b3480156106eb57600080fd5b5061070a60048036038101908080359060200190929190505050611fda565b005b34801561071857600080fd5b5061072161203f565b6040518082815260200191505060405180910390f35b34801561074357600080fd5b5061074c612045565b6040518082815260200191505060405180910390f35b34801561076e57600080fd5b506107a3600480360381019080803573ffffffffffffffffffffffffffffffffffffffff16906020019092919050505061204b565b005b3480156107b157600080fd5b506107d0600480360381019080803590602001909291905050506121a0565b005b3480156107de57600080fd5b506107e7612205565b604051808273ffffffffffffffffffffffffffffffffffffffff1673ffffffffffffffffffffffffffffffffffffffff16815260200191505060405180910390f35b6000600660008373ffffffffffffffffffffffffffffffffffffffff1673ffffffffffffffffffffffffffffffffffffffff16815260200190815260200160002060009054906101000a900460ff169050919050565b6000600754421015801561089557506008544211155b905090565b6000806000806108ca600f546108bc620f42408861222b90919063ffffffff16565b61226390919063ffffffff16565b9350600160009054906101000a900473ffffffffffffffffffffffffffffffffffffffff1673ffffffffffffffffffffffffffffffffffffffff16633aa0396a87866040518363ffffffff167c0100000000000000000000000000000000000000000000000000000000028152600401808373ffffffffffffffffffffffffffffffffffffffff1673ffffffffffffffffffffffffffffffffffffffff16815260200182815260200192505050602060405180830381600087803b15801561099157600080fd5b505af11580156109a5573d6000803e3d6000fd5b505050506040513d60208110156109bb57600080fd5b8101908080519060200190929190505050506109f460056109e660038761222b90919063ffffffff16565b61226390919063ffffffff16565b9250600160009054906101000a900473ffffffffffffffffffffffffffffffffffffffff1673ffffffffffffffffffffffffffffffffffffffff16633aa0396a600360009054906101000a900473ffffffffffffffffffffffffffffffffffffffff16856040518363ffffffff167c0100000000000000000000000000000000000000000000000000000000028152600401808373ffffffffffffffffffffffffffffffffffffffff1673ffffffffffffffffffffffffffffffffffffffff16815260200182815260200192505050602060405180830381600087803b158015610add57600080fd5b505af1158015610af1573d6000803e3d6000fd5b505050506040513d6020811015610b0757600080fd5b810190808051906020019092919050505050610b2d60058561226390919063ffffffff16565b9150600160009054906101000a900473ffffffffffffffffffffffffffffffffffffffff1673ffffffffffffffffffffffffffffffffffffffff16633aa0396a600460009054906101000a900473ffffffffffffffffffffffffffffffffffffffff16846040518363ffffffff167c0100000000000000000000000000000000000000000000000000000000028152600401808373ffffffffffffffffffffffffffffffffffffffff1673ffffffffffffffffffffffffffffffffffffffff16815260200182815260200192505050602060405180830381600087803b158015610c1657600080fd5b505af1158015610c2a573d6000803e3d6000fd5b505050506040513d6020811015610c4057600080fd5b810190808051906020019092919050505050610c6660058561226390919063ffffffff16565b9050600160009054906101000a900473ffffffffffffffffffffffffffffffffffffffff1673ffffffffffffffffffffffffffffffffffffffff16633aa0396a600560009054906101000a900473ffffffffffffffffffffffffffffffffffffffff16836040518363ffffffff167c0100000000000000000000000000000000000000000000000000000000028152600401808373ffffffffffffffffffffffffffffffffffffffff1673ffffffffffffffffffffffffffffffffffffffff16815260200182815260200192505050602060405180830381600087803b158015610d4f57600080fd5b505af1158015610d63573d6000803e3d6000fd5b505050506040513d6020811015610d7957600080fd5b810190808051906020019092919050505050610da034600c5461227990919063ffffffff16565b600c81905550610dbb8460125461227990919063ffffffff16565b601281905550600d5460125411151515610dd457600080fd5b505050505050565b60006009544210158015610df25750600a544211155b905090565b600080600080610e27601054610e19620f42408861222b90919063ffffffff16565b61226390919063ffffffff16565b9350600160009054906101000a900473ffffffffffffffffffffffffffffffffffffffff1673ffffffffffffffffffffffffffffffffffffffff16633aa0396a87866040518363ffffffff167c0100000000000000000000000000000000000000000000000000000000028152600401808373ffffffffffffffffffffffffffffffffffffffff1673ffffffffffffffffffffffffffffffffffffffff16815260200182815260200192505050602060405180830381600087803b158015610eee57600080fd5b505af1158015610f02573d6000803e3d6000fd5b505050506040513d6020811015610f1857600080fd5b810190808051906020019092919050505050610f516005610f4360038761222b90919063ffffffff16565b61226390919063ffffffff16565b9250600160009054906101000a900473ffffffffffffffffffffffffffffffffffffffff1673ffffffffffffffffffffffffffffffffffffffff16633aa0396a600360009054906101000a900473ffffffffffffffffffffffffffffffffffffffff16856040518363ffffffff167c0100000000000000000000000000000000000000000000000000000000028152600401808373ffffffffffffffffffffffffffffffffffffffff1673ffffffffffffffffffffffffffffffffffffffff16815260200182815260200192505050602060405180830381600087803b15801561103a57600080fd5b505af115801561104e573d6000803e3d6000fd5b505050506040513d602081101561106457600080fd5b81019080805190602001909291905050505061108a60058561226390919063ffffffff16565b9150600160009054906101000a900473ffffffffffffffffffffffffffffffffffffffff1673ffffffffffffffffffffffffffffffffffffffff16633aa0396a600460009054906101000a900473ffffffffffffffffffffffffffffffffffffffff16846040518363ffffffff167c0100000000000000000000000000000000000000000000000000000000028152600401808373ffffffffffffffffffffffffffffffffffffffff1673ffffffffffffffffffffffffffffffffffffffff16815260200182815260200192505050602060405180830381600087803b15801561117357600080fd5b505af1158015611187573d6000803e3d6000fd5b505050506040513d602081101561119d57600080fd5b8101908080519060200190929190505050506111c360058561226390919063ffffffff16565b9050600160009054906101000a900473ffffffffffffffffffffffffffffffffffffffff1673ffffffffffffffffffffffffffffffffffffffff16633aa0396a600560009054906101000a900473ffffffffffffffffffffffffffffffffffffffff16836040518363ffffffff167c0100000000000000000000000000000000000000000000000000000000028152600401808373ffffffffffffffffffffffffffffffffffffffff1673ffffffffffffffffffffffffffffffffffffffff16815260200182815260200192505050602060405180830381600087803b1580156112ac57600080fd5b505af11580156112c0573d6000803e3d6000fd5b505050506040513d60208110156112d657600080fd5b8101908080519060200190929190505050506112fd34600c5461227990919063ffffffff16565b600c819055506113188460135461227990919063ffffffff16565b601381905550600e546013541115151561133157600080fd5b505050505050565b60105481565b600260009054906101000a900473ffffffffffffffffffffffffffffffffffffffff1681565b6000809054906101000a900473ffffffffffffffffffffffffffffffffffffffff1673ffffffffffffffffffffffffffffffffffffffff163373ffffffffffffffffffffffffffffffffffffffff161415156113c057600080fd5b80600160006101000a81548173ffffffffffffffffffffffffffffffffffffffff021916908373ffffffffffffffffffffffffffffffffffffffff16021790555050565b6000809054906101000a900473ffffffffffffffffffffffffffffffffffffffff1673ffffffffffffffffffffffffffffffffffffffff163373ffffffffffffffffffffffffffffffffffffffff1614151561145f57600080fd5b8173ffffffffffffffffffffffffffffffffffffffff166108fc829081150290604051600060405180830381858888f193505050501580156114a5573d6000803e3d6000fd5b505050565b6000809054906101000a900473ffffffffffffffffffffffffffffffffffffffff1673ffffffffffffffffffffffffffffffffffffffff163373ffffffffffffffffffffffffffffffffffffffff1614151561150557600080fd5b8060078190555050565b60115481565b60075481565b60095481565b600a5481565b6000809054906101000a900473ffffffffffffffffffffffffffffffffffffffff1673ffffffffffffffffffffffffffffffffffffffff163373ffffffffffffffffffffffffffffffffffffffff1614151561158257600080fd5b6000600660008373ffffffffffffffffffffffffffffffffffffffff1673ffffffffffffffffffffffffffffffffffffffff16815260200190815260200160002060006101000a81548160ff021916908315150217905550600b60008154809291906001900391905055507f713b90881ad62c4fa8ab6bd9197fa86481fc0c11b2edba60026514281b2dbac48142604051808373ffffffffffffffffffffffffffffffffffffffff1673ffffffffffffffffffffffffffffffffffffffff1681526020018281526020019250505060405180910390a150565b600b5481565b6000806000600260009054906101000a900473ffffffffffffffffffffffffffffffffffffffff1673ffffffffffffffffffffffffffffffffffffffff163373ffffffffffffffffffffffffffffffffffffffff16148061170e57506000809054906101000a900473ffffffffffffffffffffffffffffffffffffffff1673ffffffffffffffffffffffffffffffffffffffff163373ffffffffffffffffffffffffffffffffffffffff16145b151561171957600080fd5b600160009054906101000a900473ffffffffffffffffffffffffffffffffffffffff1673ffffffffffffffffffffffffffffffffffffffff16633aa0396a86866040518363ffffffff167c0100000000000000000000000000000000000000000000000000000000028152600401808373ffffffffffffffffffffffffffffffffffffffff1673ffffffffffffffffffffffffffffffffffffffff16815260200182815260200192505050602060405180830381600087803b1580156117de57600080fd5b505af11580156117f2573d6000803e3d6000fd5b505050506040513d602081101561180857600080fd5b810190808051906020019092919050505050611841600561183360038761222b90919063ffffffff16565b61226390919063ffffffff16565b9250600160009054906101000a900473ffffffffffffffffffffffffffffffffffffffff1673ffffffffffffffffffffffffffffffffffffffff16633aa0396a600360009054906101000a900473ffffffffffffffffffffffffffffffffffffffff16856040518363ffffffff167c0100000000000000000000000000000000000000000000000000000000028152600401808373ffffffffffffffffffffffffffffffffffffffff1673ffffffffffffffffffffffffffffffffffffffff16815260200182815260200192505050602060405180830381600087803b15801561192a57600080fd5b505af115801561193e573d6000803e3d6000fd5b505050506040513d602081101561195457600080fd5b81019080805190602001909291905050505061197a60058561226390919063ffffffff16565b9150600160009054906101000a900473ffffffffffffffffffffffffffffffffffffffff1673ffffffffffffffffffffffffffffffffffffffff16633aa0396a600460009054906101000a900473ffffffffffffffffffffffffffffffffffffffff16846040518363ffffffff167c0100000000000000000000000000000000000000000000000000000000028152600401808373ffffffffffffffffffffffffffffffffffffffff1673ffffffffffffffffffffffffffffffffffffffff16815260200182815260200192505050602060405180830381600087803b158015611a6357600080fd5b505af1158015611a77573d6000803e3d6000fd5b505050506040513d6020811015611a8d57600080fd5b810190808051906020019092919050505050611ab360058561226390919063ffffffff16565b9050600160009054906101000a900473ffffffffffffffffffffffffffffffffffffffff1673ffffffffffffffffffffffffffffffffffffffff16633aa0396a600560009054906101000a900473ffffffffffffffffffffffffffffffffffffffff16836040518363ffffffff167c0100000000000000000000000000000000000000000000000000000000028152600401808373ffffffffffffffffffffffffffffffffffffffff1673ffffffffffffffffffffffffffffffffffffffff16815260200182815260200192505050602060405180830381600087803b158015611b9c57600080fd5b505af1158015611bb0573d6000803e3d6000fd5b505050506040513d6020811015611bc657600080fd5b810190808051906020019092919050505050611bed8460135461227990919063ffffffff16565b6013819055505050505050565b6000809054906101000a900473ffffffffffffffffffffffffffffffffffffffff1681565b60066020528060005260406000206000915054906101000a900460ff1681565b600260009054906101000a900473ffffffffffffffffffffffffffffffffffffffff1673ffffffffffffffffffffffffffffffffffffffff163373ffffffffffffffffffffffffffffffffffffffff161480611ce757506000809054906101000a900473ffffffffffffffffffffffffffffffffffffffff1673ffffffffffffffffffffffffffffffffffffffff163373ffffffffffffffffffffffffffffffffffffffff16145b1515611cf257600080fd5b600073ffffffffffffffffffffffffffffffffffffffff168173ffffffffffffffffffffffffffffffffffffffff1614151515611d2e57600080fd5b611d3781610829565b151515611d4357600080fd5b6001600660008373ffffffffffffffffffffffffffffffffffffffff1673ffffffffffffffffffffffffffffffffffffffff16815260200190815260200160002060006101000a81548160ff021916908315150217905550600b600081548092919060010191905055507fb39b5f240c7440b58c1c6cfd328b09ff9aa18b3c8ef4b829774e4f5bad0394168142604051808373ffffffffffffffffffffffffffffffffffffffff1673ffffffffffffffffffffffffffffffffffffffff1681526020018281526020019250505060405180910390a150565b6000809054906101000a900473ffffffffffffffffffffffffffffffffffffffff1673ffffffffffffffffffffffffffffffffffffffff163373ffffffffffffffffffffffffffffffffffffffff16141515611e7657600080fd5b80600260006101000a81548173ffffffffffffffffffffffffffffffffffffffff021916908373ffffffffffffffffffffffffffffffffffffffff16021790555050565b6000809054906101000a900473ffffffffffffffffffffffffffffffffffffffff1673ffffffffffffffffffffffffffffffffffffffff163373ffffffffffffffffffffffffffffffffffffffff16141515611f1557600080fd5b8060098190555050565b60135481565b6000809054906101000a900473ffffffffffffffffffffffffffffffffffffffff1673ffffffffffffffffffffffffffffffffffffffff163373ffffffffffffffffffffffffffffffffffffffff16141515611f8057600080fd5b806011819055506002601154670de0b6b3a7640000811515611f9e57fe5b04811515611fa857fe5b04600f81905550601154670de0b6b3a7640000811515611fc457fe5b0460108190555050565b60125481565b600c5481565b6000809054906101000a900473ffffffffffffffffffffffffffffffffffffffff1673ffffffffffffffffffffffffffffffffffffffff163373ffffffffffffffffffffffffffffffffffffffff1614151561203557600080fd5b8060088190555050565b600f5481565b60085481565b6000809054906101000a900473ffffffffffffffffffffffffffffffffffffffff1673ffffffffffffffffffffffffffffffffffffffff163373ffffffffffffffffffffffffffffffffffffffff161415156120a657600080fd5b600073ffffffffffffffffffffffffffffffffffffffff168173ffffffffffffffffffffffffffffffffffffffff16141515156120e257600080fd5b8073ffffffffffffffffffffffffffffffffffffffff166000809054906101000a900473ffffffffffffffffffffffffffffffffffffffff1673ffffffffffffffffffffffffffffffffffffffff167f8be0079c531659141344cd1fd0a4f28419497f9722a3daafe3b4186f6b6457e060405160405180910390a3806000806101000a81548173ffffffffffffffffffffffffffffffffffffffff021916908373ffffffffffffffffffffffffffffffffffffffff16021790555050565b6000809054906101000a900473ffffffffffffffffffffffffffffffffffffffff1673ffffffffffffffffffffffffffffffffffffffff163373ffffffffffffffffffffffffffffffffffffffff161415156121fb57600080fd5b80600a8190555050565b600160009054906101000a900473ffffffffffffffffffffffffffffffffffffffff1681565b60008083141561223e576000905061225d565b818302905081838281151561224f57fe5b0414151561225957fe5b8090505b92915050565b6000818381151561227057fe5b04905092915050565b6000818301905082811015151561228c57fe5b809050929150505600a165627a7a723058200fb805c71a4fde68328ce8715d56ef8ff97ebc94b916af83cb88b07e8e9d10ba0029",
  "source": "pragma solidity ^0.4.23;\n/**\n * @title SafeMath\n * @dev https://github.com/OpenZeppelin/openzeppelin-solidity/blob/master/contracts/math/SafeMath.sol\n */\nlibrary SafeMath {\n\n    function mul(uint256 a, uint256 b) internal pure returns (uint256 c) {\n        if (a == 0) {\n            return 0;\n        }\n        c = a * b;\n        assert(c / a == b);\n        return c;\n    }\n\n    function div(uint256 a, uint256 b) internal pure returns (uint256) {\n        return a / b;\n    }\n\n    function sub(uint256 a, uint256 b) internal pure returns (uint256) {\n        assert(b <= a);\n        return a - b;\n    }\n\n    function add(uint256 a, uint256 b) internal pure returns (uint256 c) {\n        c = a + b;\n        assert(c >= a);\n        return c;\n    }\n}\n\ninterface ERC20 {\n    function transfer (address _beneficiary, uint256 _tokenAmount) external returns (bool);\n    function mintFromICO(address _to, uint256 _amount) external  returns(bool);\n}\n/**\n * @title Ownable\n * @dev https://github.com/OpenZeppelin/openzeppelin-solidity/blob/master/contracts/ownership/Ownable.sol\n */\ncontract Ownable {\n    address public owner;\n\n    event OwnershipTransferred(\n        address indexed previousOwner,\n        address indexed newOwner\n    );\n\n    constructor() public {\n        owner = msg.sender;\n    }\n\n    modifier onlyOwner() {\n        require(msg.sender == owner);\n        _;\n    }\n\n    function transferOwnership(address newOwner) public onlyOwner {\n        require(newOwner != address(0));\n        emit OwnershipTransferred(owner, newOwner);\n        owner = newOwner;\n    }\n}\n\ncontract GlowSale is Ownable {\n\n    ERC20 public token;\n\n    using SafeMath for uint;\n\n    address public backEndOperator = msg.sender;\n    address founders = 0x7eDE8260e573d3A3dDfc058f19309DF5a1f7397E; // 30% -  \n    address bounty = 0x0cdb839B52404d49417C8Ded6c3E2157A06CdD37; // 10% -   \n    address reserve = 0xCe66E79f59eafACaf4CaBaA317CaB4857487E3a1; // 10% -  \n\n    mapping(address=>bool) public whitelist;\n\n    uint256 public startPreSale = now; //1527811201; // Friday, 01-Jun-18 00:00:01 UTC\n    uint256 public endPreSale = 1535759999; // Friday, 31-Aug-18 23:59:59 UTC\n    uint256 public startMainSale = 1538352001; // Monday, 01-Oct-18 00:00:01 UTC\n    uint256 public endMainSale = 1554076799; // Sunday, 31-Mar-19 23:59:59 UTC\n\n    uint256 public investors; //   \n    uint256 public weisRaised; // -       \n\n    uint256 hardCapPreSale = 3200000*1e6; //  3 200 000 tokens\n    uint256 hardCapSale = 46800000*1e6; // 46 800 000 tokens\n\n    uint256 public preSalePrice; // 0.50 $ -     \n    uint256 public MainSalePrice; //1.00 $ -     \n    uint256 public dollarPrice; //  Ether  USD\n\n    uint256 public soldTokensPreSale; // 3 200 000 -      \n    uint256 public soldTokensSale; // 46 800 000 -      \n\n    event Finalized();\n    event Authorized(address wlCandidate, uint timestamp);\n    event Revoked(address wlCandidate, uint timestamp);\n\n    modifier isUnderHardCap() {\n        require(weisRaised <= hardCapSale);\n        _;\n    }\n\n    modifier backEnd() {\n        require(msg.sender == backEndOperator || msg.sender == owner);\n        _;\n    }\n    //  \n    constructor(uint256 _dollareth) public {\n        dollarPrice = _dollareth;\n        preSalePrice = (1e18/dollarPrice)/2; // 16    1  !!!!!!!!!!!!\n        MainSalePrice = 1e18/dollarPrice;\n    }\n    //  /   \n    function setToken (ERC20 _token) public onlyOwner {\n        token = _token;\n    }\n    //   Ether  USD\n    function setDollarRate(uint256 _usdether) public onlyOwner {\n        dollarPrice = _usdether;\n        preSalePrice = (1e18/dollarPrice)/2; // 16    1  !!!!!!!!!!!!\n        MainSalePrice = 1e18/dollarPrice;\n    }\n    //     \n    function setStartPreSale(uint256 newStartPreSale) public onlyOwner {\n        startPreSale = newStartPreSale;\n    }\n    //     \n    function setEndPreSale(uint256 newEndPreSaled) public onlyOwner {\n        endPreSale = newEndPreSaled;\n    }\n    //     \n    function setStartSale(uint256 newStartSale) public onlyOwner {\n        startMainSale = newStartSale;\n    }\n    //     \n    function setEndSale(uint256 newEndSaled) public onlyOwner {\n        endMainSale = newEndSaled;\n    }\n    //    \n    function setBackEndAddress(address newBackEndOperator) public onlyOwner {\n        backEndOperator = newBackEndOperator;\n    }\n\n    /*******************************************************************************\n     * Whitelist's section\n     */\n    //   backEndOperator  \n    function authorize(address wlCandidate) public backEnd  {\n\n        require(wlCandidate != address(0x0));\n        require(!isWhitelisted(wlCandidate));\n        whitelist[wlCandidate] = true;\n        investors++;\n        emit Authorized(wlCandidate, now);\n    }\n    //     WL(  )\n    function revoke(address wlCandidate) public  onlyOwner {\n        whitelist[wlCandidate] = false;\n        investors--;\n        emit Revoked(wlCandidate, now);\n    }\n    //       WL\n    function isWhitelisted(address wlCandidate) internal view returns(bool) {\n        return whitelist[wlCandidate];\n    }\n    /*******************************************************************************\n     * Payable's section\n     */\n\n    function isPreSale() public constant returns(bool) {\n        return now >= startPreSale && now <= endPreSale;\n    }\n\n    function isMainSale() public constant returns(bool) {\n        return now >= startMainSale && now <= endMainSale;\n    }\n    // callback  \n    function () public payable //isUnderHardCap\n    {\n        require(isWhitelisted(msg.sender));\n\n        if(isPreSale()) {\n            preSale(msg.sender, msg.value);\n        }\n\n        else if (isMainSale()) {\n            mainSale(msg.sender, msg.value);\n        }\n\n        else {\n            revert();\n        }\n    }\n\n    //      \n    function preSale(address _investor, uint256 _value) internal {\n\n        uint256 tokens = _value.mul(1e6).div(preSalePrice); // 1e18*1e18/\n\n        token.mintFromICO(_investor, tokens);\n\n        uint256 tokensFounders = tokens.mul(3).div(5); // 3/5\n        token.mintFromICO(founders, tokensFounders);\n\n        uint256 tokensBoynty = tokens.div(5); // 1/5\n        token.mintFromICO(bounty, tokensBoynty);\n\n        uint256 tokenReserve = tokens.div(5); // 1/5\n        token.mintFromICO(reserve, tokenReserve);\n\n        weisRaised = weisRaised.add(msg.value);\n        soldTokensPreSale = soldTokensPreSale.add(tokens);\n\n        require(soldTokensPreSale <= hardCapPreSale);\n    }\n\n    //      \n    function mainSale(address _investor, uint256 _value) internal {\n        uint256 tokens = _value.mul(1e6).div(MainSalePrice); // 1e18*1e18/\n\n        token.mintFromICO(_investor, tokens);\n\n        uint256 tokensFounders = tokens.mul(3).div(5); //3/5\n        token.mintFromICO(founders, tokensFounders);\n\n        uint256 tokensBoynty = tokens.div(5); // 1/5\n        token.mintFromICO(bounty, tokensBoynty);\n\n        uint256 tokenReserve = tokens.div(5); // 1/5\n        token.mintFromICO(reserve, tokenReserve);\n\n        weisRaised = weisRaised.add(msg.value);\n        soldTokensSale = soldTokensSale.add(tokens);\n\n        require(soldTokensSale <= hardCapSale);\n    }\n\n    //       (  )\n    function mintManual(address _recipient, uint256 _value) public backEnd {\n        token.mintFromICO(_recipient, _value);\n\n        uint256 tokensFounders = _value.mul(3).div(5);  // 3/5\n        token.mintFromICO(founders, tokensFounders);\n\n        uint256 tokensBoynty = _value.div(5);  // 1/5\n        token.mintFromICO(bounty, tokensBoynty);\n\n        uint256 tokenReserve = _value.div(5); // 1/5\n        token.mintFromICO(reserve, tokenReserve);\n        soldTokensSale = soldTokensSale.add(_value);\n        //require(soldTokensPreSale <= hardCapPreSale);\n        //require(soldTokensSale <= hardCapSale);\n    }\n\n    //    \n    function transferEthFromContract(address _to, uint256 amount) public onlyOwner {\n        _to.transfer(amount);\n    }\n}",
  "sourcePath": "/Users/ivanborisov/Yandex.Disk.localized/IT/WorkProjects/Portfolio/GLOBAL Smart/contracts/GloWSale.sol",
  "compiler": {
    "name": "solc",
    "version": "0.4.24+commit.e67f0147.Emscripten.clang"
  },
  "schemaVersion": "2.0.0",
  "updatedAt": "2018-06-19T11:59:47.724Z"
}