{
  "contractName": "MainSale",
  "abi": [
    {
      "constant": true,
      "inputs": [],
      "name": "backEndOperator",
      "outputs": [
        {
          "name": "",
          "type": "address"
        }
      ],
      "payable": false,
      "stateMutability": "view",
      "type": "function"
    },
    {
      "constant": true,
      "inputs": [
        {
          "name": "",
          "type": "address"
        }
      ],
      "name": "investedEther",
      "outputs": [
        {
          "name": "",
          "type": "uint256"
        }
      ],
      "payable": false,
      "stateMutability": "view",
      "type": "function"
    },
    {
      "constant": true,
      "inputs": [],
      "name": "endSale",
      "outputs": [
        {
          "name": "",
          "type": "uint256"
        }
      ],
      "payable": false,
      "stateMutability": "view",
      "type": "function"
    },
    {
      "constant": true,
      "inputs": [],
      "name": "dollarPrice",
      "outputs": [
        {
          "name": "",
          "type": "uint256"
        }
      ],
      "payable": false,
      "stateMutability": "view",
      "type": "function"
    },
    {
      "constant": true,
      "inputs": [],
      "name": "soldTokens",
      "outputs": [
        {
          "name": "",
          "type": "uint256"
        }
      ],
      "payable": false,
      "stateMutability": "view",
      "type": "function"
    },
    {
      "constant": true,
      "inputs": [],
      "name": "dollarRaised",
      "outputs": [
        {
          "name": "",
          "type": "uint256"
        }
      ],
      "payable": false,
      "stateMutability": "view",
      "type": "function"
    },
    {
      "constant": true,
      "inputs": [],
      "name": "buyPrice",
      "outputs": [
        {
          "name": "",
          "type": "uint256"
        }
      ],
      "payable": false,
      "stateMutability": "view",
      "type": "function"
    },
    {
      "constant": true,
      "inputs": [],
      "name": "investors",
      "outputs": [
        {
          "name": "",
          "type": "uint256"
        }
      ],
      "payable": false,
      "stateMutability": "view",
      "type": "function"
    },
    {
      "constant": true,
      "inputs": [],
      "name": "owner",
      "outputs": [
        {
          "name": "",
          "type": "address"
        }
      ],
      "payable": false,
      "stateMutability": "view",
      "type": "function"
    },
    {
      "constant": true,
      "inputs": [],
      "name": "softCap",
      "outputs": [
        {
          "name": "",
          "type": "uint256"
        }
      ],
      "payable": false,
      "stateMutability": "view",
      "type": "function"
    },
    {
      "constant": true,
      "inputs": [
        {
          "name": "",
          "type": "address"
        }
      ],
      "name": "whitelist",
      "outputs": [
        {
          "name": "",
          "type": "bool"
        }
      ],
      "payable": false,
      "stateMutability": "view",
      "type": "function"
    },
    {
      "constant": true,
      "inputs": [],
      "name": "startSale",
      "outputs": [
        {
          "name": "",
          "type": "uint256"
        }
      ],
      "payable": false,
      "stateMutability": "view",
      "type": "function"
    },
    {
      "constant": true,
      "inputs": [],
      "name": "weisRaised",
      "outputs": [
        {
          "name": "",
          "type": "uint256"
        }
      ],
      "payable": false,
      "stateMutability": "view",
      "type": "function"
    },
    {
      "constant": true,
      "inputs": [],
      "name": "hardCap",
      "outputs": [
        {
          "name": "",
          "type": "uint256"
        }
      ],
      "payable": false,
      "stateMutability": "view",
      "type": "function"
    },
    {
      "constant": true,
      "inputs": [],
      "name": "token",
      "outputs": [
        {
          "name": "",
          "type": "address"
        }
      ],
      "payable": false,
      "stateMutability": "view",
      "type": "function"
    },
    {
      "inputs": [
        {
          "name": "_dollareth",
          "type": "uint256"
        }
      ],
      "payable": false,
      "stateMutability": "nonpayable",
      "type": "constructor"
    },
    {
      "payable": true,
      "stateMutability": "payable",
      "type": "fallback"
    },
    {
      "anonymous": false,
      "inputs": [
        {
          "indexed": false,
          "name": "wlCandidate",
          "type": "address"
        },
        {
          "indexed": false,
          "name": "timestamp",
          "type": "uint256"
        }
      ],
      "name": "Authorized",
      "type": "event"
    },
    {
      "anonymous": false,
      "inputs": [
        {
          "indexed": false,
          "name": "wlCandidate",
          "type": "address"
        },
        {
          "indexed": false,
          "name": "timestamp",
          "type": "uint256"
        }
      ],
      "name": "Revoked",
      "type": "event"
    },
    {
      "anonymous": false,
      "inputs": [
        {
          "indexed": false,
          "name": "rate",
          "type": "uint256"
        },
        {
          "indexed": false,
          "name": "investor",
          "type": "address"
        }
      ],
      "name": "Refund",
      "type": "event"
    },
    {
      "constant": false,
      "inputs": [
        {
          "name": "_token",
          "type": "address"
        }
      ],
      "name": "setToken",
      "outputs": [],
      "payable": false,
      "stateMutability": "nonpayable",
      "type": "function"
    },
    {
      "constant": false,
      "inputs": [
        {
          "name": "_usdether",
          "type": "uint256"
        }
      ],
      "name": "setDollarRate",
      "outputs": [],
      "payable": false,
      "stateMutability": "nonpayable",
      "type": "function"
    },
    {
      "constant": false,
      "inputs": [
        {
          "name": "newBuyPrice",
          "type": "uint256"
        }
      ],
      "name": "setPrice",
      "outputs": [],
      "payable": false,
      "stateMutability": "nonpayable",
      "type": "function"
    },
    {
      "constant": false,
      "inputs": [
        {
          "name": "newStartSale",
          "type": "uint256"
        }
      ],
      "name": "setStartSale",
      "outputs": [],
      "payable": false,
      "stateMutability": "nonpayable",
      "type": "function"
    },
    {
      "constant": false,
      "inputs": [
        {
          "name": "newEndSaled",
          "type": "uint256"
        }
      ],
      "name": "setEndSale",
      "outputs": [],
      "payable": false,
      "stateMutability": "nonpayable",
      "type": "function"
    },
    {
      "constant": false,
      "inputs": [
        {
          "name": "newBackEndOperator",
          "type": "address"
        }
      ],
      "name": "setBackEndAddress",
      "outputs": [],
      "payable": false,
      "stateMutability": "nonpayable",
      "type": "function"
    },
    {
      "constant": false,
      "inputs": [
        {
          "name": "wlCandidate",
          "type": "address"
        }
      ],
      "name": "authorize",
      "outputs": [],
      "payable": false,
      "stateMutability": "nonpayable",
      "type": "function"
    },
    {
      "constant": false,
      "inputs": [
        {
          "name": "wlCandidate",
          "type": "address"
        }
      ],
      "name": "revoke",
      "outputs": [],
      "payable": false,
      "stateMutability": "nonpayable",
      "type": "function"
    },
    {
      "constant": true,
      "inputs": [],
      "name": "isMainSale",
      "outputs": [
        {
          "name": "",
          "type": "bool"
        }
      ],
      "payable": false,
      "stateMutability": "view",
      "type": "function"
    },
    {
      "constant": false,
      "inputs": [
        {
          "name": "_investor",
          "type": "address"
        },
        {
          "name": "_value",
          "type": "uint256"
        }
      ],
      "name": "mintManual",
      "outputs": [],
      "payable": false,
      "stateMutability": "nonpayable",
      "type": "function"
    },
    {
      "constant": false,
      "inputs": [
        {
          "name": "_to",
          "type": "address"
        },
        {
          "name": "amount",
          "type": "uint256"
        }
      ],
      "name": "transferEthFromContract",
      "outputs": [],
      "payable": false,
      "stateMutability": "nonpayable",
      "type": "function"
    },
    {
      "constant": false,
      "inputs": [],
      "name": "refundSale",
      "outputs": [],
      "payable": false,
      "stateMutability": "nonpayable",
      "type": "function"
    }
  ],
  "bytecode": "0x608060405233600260006101000a81548173ffffffffffffffffffffffffffffffffffffffff021916908373ffffffffffffffffffffffffffffffffffffffff160217905550730cdb839b52404d49417c8ded6c3e2157a06cdd37600360006101000a81548173ffffffffffffffffffffffffffffffffffffffff021916908373ffffffffffffffffffffffffffffffffffffffff16021790555073ce66e79f59eafacaf4cabaa317cab4857487e3a1600460006101000a81548173ffffffffffffffffffffffffffffffffffffffff021916908373ffffffffffffffffffffffffffffffffffffffff160217905550635ba04001600755635c1989ff6008556b06765c793fa10079d0000000600c556b169e43a85eb381aa58000000600d556a027b46536c66c8e30000006011556a084595161401484a0000006012556a108b2a2c280290940000006013556a18d0bf423c03d8de00000060145534801561016757600080fd5b50604051602080611e8683398101806040528101908080519060200190929190505050336000806101000a81548173ffffffffffffffffffffffffffffffffffffffff021916908373ffffffffffffffffffffffffffffffffffffffff16021790555080600f81905550600f54662386f26fc100008115156101e557fe5b04600e81905550600e546401bf08eb0002600d8190555050611c7a8061020c6000396000f30060806040526004361061015f576000357c0100000000000000000000000000000000000000000000000000000000900463ffffffff168063050895ff14610250578063144fa6d7146102a7578063274448ff146102ea57806331198d1914610341578063380d831b1461038e57806340d7b7b8146103b95780635ed9ebfc146103e457806369a1bca91461040f57806373980d691461042657806374a8f103146104515780638620410b146104945780638ac27f5f146104bf5780638ca5da35146104ea5780638da5cb5b14610537578063906a26e01461058e57806391b7f5ed146105b95780639b19251a146105e6578063b66a0e5d14610641578063b6a5d7de1461066c578063b701dc14146106af578063ba8029bb146106f2578063d1f2efd51461071f578063d2c877f81461074e578063da5f838d1461077b578063fb3ab12b146107a6578063fb86a404146107d3578063fc0c546a146107fe575b600d54600a541115151561017257600080fd5b61017a610855565b151561018557600080fd5b61018e33610870565b151561019957600080fd5b662386f26fc1000034101515156101af57600080fd5b6101b933346108c6565b61020b34600660003373ffffffffffffffffffffffffffffffffffffffff1673ffffffffffffffffffffffffffffffffffffffff16815260200190815260200160002054610d7e90919063ffffffff16565b600660003373ffffffffffffffffffffffffffffffffffffffff1673ffffffffffffffffffffffffffffffffffffffff16815260200190815260200160002081905550005b34801561025c57600080fd5b50610265610d9c565b604051808273ffffffffffffffffffffffffffffffffffffffff1673ffffffffffffffffffffffffffffffffffffffff16815260200191505060405180910390f35b3480156102b357600080fd5b506102e8600480360381019080803573ffffffffffffffffffffffffffffffffffffffff169060200190929190505050610dc2565b005b3480156102f657600080fd5b5061032b600480360381019080803573ffffffffffffffffffffffffffffffffffffffff169060200190929190505050610e61565b6040518082815260200191505060405180910390f35b34801561034d57600080fd5b5061038c600480360381019080803573ffffffffffffffffffffffffffffffffffffffff16906020019092919080359060200190929190505050610e79565b005b34801561039a57600080fd5b506103a3610f55565b6040518082815260200191505060405180910390f35b3480156103c557600080fd5b506103ce610f5b565b6040518082815260200191505060405180910390f35b3480156103f057600080fd5b506103f9610f61565b6040518082815260200191505060405180910390f35b34801561041b57600080fd5b50610424610f67565b005b34801561043257600080fd5b5061043b61112e565b6040518082815260200191505060405180910390f35b34801561045d57600080fd5b50610492600480360381019080803573ffffffffffffffffffffffffffffffffffffffff169060200190929190505050611134565b005b3480156104a057600080fd5b506104a9611268565b6040518082815260200191505060405180910390f35b3480156104cb57600080fd5b506104d461126e565b6040518082815260200191505060405180910390f35b3480156104f657600080fd5b50610535600480360381019080803573ffffffffffffffffffffffffffffffffffffffff16906020019092919080359060200190929190505050611274565b005b34801561054357600080fd5b5061054c61165e565b604051808273ffffffffffffffffffffffffffffffffffffffff1673ffffffffffffffffffffffffffffffffffffffff16815260200191505060405180910390f35b34801561059a57600080fd5b506105a3611683565b6040518082815260200191505060405180910390f35b3480156105c557600080fd5b506105e460048036038101908080359060200190929190505050611689565b005b3480156105f257600080fd5b50610627600480360381019080803573ffffffffffffffffffffffffffffffffffffffff1690602001909291905050506116ee565b604051808215151515815260200191505060405180910390f35b34801561064d57600080fd5b5061065661170e565b6040518082815260200191505060405180910390f35b34801561067857600080fd5b506106ad600480360381019080803573ffffffffffffffffffffffffffffffffffffffff169060200190929190505050611714565b005b3480156106bb57600080fd5b506106f0600480360381019080803573ffffffffffffffffffffffffffffffffffffffff1690602001909291905050506118f0565b005b3480156106fe57600080fd5b5061071d6004803603810190808035906020019092919050505061198f565b005b34801561072b57600080fd5b50610734610855565b604051808215151515815260200191505060405180910390f35b34801561075a57600080fd5b50610779600480360381019080803590602001909291905050506119f4565b005b34801561078757600080fd5b50610790611a84565b6040518082815260200191505060405180910390f35b3480156107b257600080fd5b506107d160048036038101908080359060200190929190505050611a8a565b005b3480156107df57600080fd5b506107e8611aef565b6040518082815260200191505060405180910390f35b34801561080a57600080fd5b50610813611af5565b604051808273ffffffffffffffffffffffffffffffffffffffff1673ffffffffffffffffffffffffffffffffffffffff16815260200191505060405180910390f35b6000600754421015801561086b57506008544211155b905090565b6000600560008373ffffffffffffffffffffffffffffffffffffffff1673ffffffffffffffffffffffffffffffffffffffff16815260200190815260200160002060009054906101000a900460ff169050919050565b6000806000806000806108fe600e546108f0670de0b6b3a76400008a611b1b90919063ffffffff16565b611b5690919063ffffffff16565b955061092e606461092061091134611b71565b89611b1b90919063ffffffff16565b611b5690919063ffffffff16565b945061095d606461094f610940611bd3565b89611b1b90919063ffffffff16565b611b5690919063ffffffff16565b9350610984846109768789610d7e90919063ffffffff16565b610d7e90919063ffffffff16565b9550600160009054906101000a900473ffffffffffffffffffffffffffffffffffffffff1673ffffffffffffffffffffffffffffffffffffffff16633aa0396a89886040518363ffffffff167c0100000000000000000000000000000000000000000000000000000000028152600401808373ffffffffffffffffffffffffffffffffffffffff1673ffffffffffffffffffffffffffffffffffffffff16815260200182815260200192505050602060405180830381600087803b158015610a4b57600080fd5b505af1158015610a5f573d6000803e3d6000fd5b505050506040513d6020811015610a7557600080fd5b810190808051906020019092919050505050610aae600c610aa0600589611b1b90919063ffffffff16565b611b5690919063ffffffff16565b9250600160009054906101000a900473ffffffffffffffffffffffffffffffffffffffff1673ffffffffffffffffffffffffffffffffffffffff16633aa0396a600360009054906101000a900473ffffffffffffffffffffffffffffffffffffffff16856040518363ffffffff167c0100000000000000000000000000000000000000000000000000000000028152600401808373ffffffffffffffffffffffffffffffffffffffff1673ffffffffffffffffffffffffffffffffffffffff16815260200182815260200192505050602060405180830381600087803b158015610b9757600080fd5b505af1158015610bab573d6000803e3d6000fd5b505050506040513d6020811015610bc157600080fd5b810190808051906020019092919050505050610be7600487611b5690919063ffffffff16565b9150600160009054906101000a900473ffffffffffffffffffffffffffffffffffffffff1673ffffffffffffffffffffffffffffffffffffffff16633aa0396a600460009054906101000a900473ffffffffffffffffffffffffffffffffffffffff16846040518363ffffffff167c0100000000000000000000000000000000000000000000000000000000028152600401808373ffffffffffffffffffffffffffffffffffffffff1673ffffffffffffffffffffffffffffffffffffffff16815260200182815260200192505050602060405180830381600087803b158015610cd057600080fd5b505af1158015610ce4573d6000803e3d6000fd5b505050506040513d6020811015610cfa57600080fd5b810190808051906020019092919050505050610d2134600a54610d7e90919063ffffffff16565b600a81905550610d3c600f5434611b1b90919063ffffffff16565b9050610d5381600b54610d7e90919063ffffffff16565b600b81905550610d6e86601054610d7e90919063ffffffff16565b6010819055505050505050505050565b6000808284019050838110151515610d9257fe5b8091505092915050565b600260009054906101000a900473ffffffffffffffffffffffffffffffffffffffff1681565b6000809054906101000a900473ffffffffffffffffffffffffffffffffffffffff1673ffffffffffffffffffffffffffffffffffffffff163373ffffffffffffffffffffffffffffffffffffffff16141515610e1d57600080fd5b80600160006101000a81548173ffffffffffffffffffffffffffffffffffffffff021916908373ffffffffffffffffffffffffffffffffffffffff16021790555050565b60066020528060005260406000206000915090505481565b6000809054906101000a900473ffffffffffffffffffffffffffffffffffffffff1673ffffffffffffffffffffffffffffffffffffffff163373ffffffffffffffffffffffffffffffffffffffff16141515610ed457600080fd5b60008114151515610ee457600080fd5b60008273ffffffffffffffffffffffffffffffffffffffff1614151515610f0a57600080fd5b8173ffffffffffffffffffffffffffffffffffffffff166108fc829081150290604051600060405180830381858888f19350505050158015610f50573d6000803e3d6000fd5b505050565b60085481565b600f5481565b60105481565b6000600c54601054108015610f7d575060085442115b1515610f8857600080fd5b600660003373ffffffffffffffffffffffffffffffffffffffff1673ffffffffffffffffffffffffffffffffffffffff1681526020019081526020016000205490506000600660003373ffffffffffffffffffffffffffffffffffffffff1673ffffffffffffffffffffffffffffffffffffffff168152602001908152602001600020541015151561101957600080fd5b6000600660003373ffffffffffffffffffffffffffffffffffffffff1673ffffffffffffffffffffffffffffffffffffffff168152602001908152602001600020819055503373ffffffffffffffffffffffffffffffffffffffff166108fc829081150290604051600060405180830381858888f193505050501580156110a4573d6000803e3d6000fd5b506110ba81600a54611c3590919063ffffffff16565b600a819055507f510b82fea70ff89a8cc73cd7f29db2d7b480134c160cb52a258797b42d1989ad8133604051808381526020018273ffffffffffffffffffffffffffffffffffffffff1673ffffffffffffffffffffffffffffffffffffffff1681526020019250505060405180910390a150565b600b5481565b6000809054906101000a900473ffffffffffffffffffffffffffffffffffffffff1673ffffffffffffffffffffffffffffffffffffffff163373ffffffffffffffffffffffffffffffffffffffff1614151561118f57600080fd5b6000600560008373ffffffffffffffffffffffffffffffffffffffff1673ffffffffffffffffffffffffffffffffffffffff16815260200190815260200160002060006101000a81548160ff021916908315150217905550600960008154809291906001900391905055507f713b90881ad62c4fa8ab6bd9197fa86481fc0c11b2edba60026514281b2dbac48142604051808373ffffffffffffffffffffffffffffffffffffffff1673ffffffffffffffffffffffffffffffffffffffff1681526020018281526020019250505060405180910390a150565b600e5481565b60095481565b6000806000809054906101000a900473ffffffffffffffffffffffffffffffffffffffff1673ffffffffffffffffffffffffffffffffffffffff163373ffffffffffffffffffffffffffffffffffffffff161415156112d257600080fd5b600160009054906101000a900473ffffffffffffffffffffffffffffffffffffffff1673ffffffffffffffffffffffffffffffffffffffff16633aa0396a85856040518363ffffffff167c0100000000000000000000000000000000000000000000000000000000028152600401808373ffffffffffffffffffffffffffffffffffffffff1673ffffffffffffffffffffffffffffffffffffffff16815260200182815260200192505050602060405180830381600087803b15801561139757600080fd5b505af11580156113ab573d6000803e3d6000fd5b505050506040513d60208110156113c157600080fd5b8101908080519060200190929190505050506113fa600c6113ec600586611b1b90919063ffffffff16565b611b5690919063ffffffff16565b9150600160009054906101000a900473ffffffffffffffffffffffffffffffffffffffff1673ffffffffffffffffffffffffffffffffffffffff16633aa0396a600360009054906101000a900473ffffffffffffffffffffffffffffffffffffffff16846040518363ffffffff167c0100000000000000000000000000000000000000000000000000000000028152600401808373ffffffffffffffffffffffffffffffffffffffff1673ffffffffffffffffffffffffffffffffffffffff16815260200182815260200192505050602060405180830381600087803b1580156114e357600080fd5b505af11580156114f7573d6000803e3d6000fd5b505050506040513d602081101561150d57600080fd5b810190808051906020019092919050505050611533600484611b5690919063ffffffff16565b9050600160009054906101000a900473ffffffffffffffffffffffffffffffffffffffff1673ffffffffffffffffffffffffffffffffffffffff16633aa0396a600460009054906101000a900473ffffffffffffffffffffffffffffffffffffffff16836040518363ffffffff167c0100000000000000000000000000000000000000000000000000000000028152600401808373ffffffffffffffffffffffffffffffffffffffff1673ffffffffffffffffffffffffffffffffffffffff16815260200182815260200192505050602060405180830381600087803b15801561161c57600080fd5b505af1158015611630573d6000803e3d6000fd5b505050506040513d602081101561164657600080fd5b81019080805190602001909291905050505050505050565b6000809054906101000a900473ffffffffffffffffffffffffffffffffffffffff1681565b600c5481565b6000809054906101000a900473ffffffffffffffffffffffffffffffffffffffff1673ffffffffffffffffffffffffffffffffffffffff163373ffffffffffffffffffffffffffffffffffffffff161415156116e457600080fd5b80600e8190555050565b60056020528060005260406000206000915054906101000a900460ff1681565b60075481565b600260009054906101000a900473ffffffffffffffffffffffffffffffffffffffff1673ffffffffffffffffffffffffffffffffffffffff163373ffffffffffffffffffffffffffffffffffffffff1614806117bc57506000809054906101000a900473ffffffffffffffffffffffffffffffffffffffff1673ffffffffffffffffffffffffffffffffffffffff163373ffffffffffffffffffffffffffffffffffffffff16145b15156117c757600080fd5b600073ffffffffffffffffffffffffffffffffffffffff168173ffffffffffffffffffffffffffffffffffffffff161415151561180357600080fd5b61180c81610870565b15151561181857600080fd5b6001600560008373ffffffffffffffffffffffffffffffffffffffff1673ffffffffffffffffffffffffffffffffffffffff16815260200190815260200160002060006101000a81548160ff0219169083151502179055506009600081548092919060010191905055507fb39b5f240c7440b58c1c6cfd328b09ff9aa18b3c8ef4b829774e4f5bad0394168142604051808373ffffffffffffffffffffffffffffffffffffffff1673ffffffffffffffffffffffffffffffffffffffff1681526020018281526020019250505060405180910390a150565b6000809054906101000a900473ffffffffffffffffffffffffffffffffffffffff1673ffffffffffffffffffffffffffffffffffffffff163373ffffffffffffffffffffffffffffffffffffffff1614151561194b57600080fd5b80600260006101000a81548173ffffffffffffffffffffffffffffffffffffffff021916908373ffffffffffffffffffffffffffffffffffffffff16021790555050565b6000809054906101000a900473ffffffffffffffffffffffffffffffffffffffff1673ffffffffffffffffffffffffffffffffffffffff163373ffffffffffffffffffffffffffffffffffffffff161415156119ea57600080fd5b8060078190555050565b6000809054906101000a900473ffffffffffffffffffffffffffffffffffffffff1673ffffffffffffffffffffffffffffffffffffffff163373ffffffffffffffffffffffffffffffffffffffff16141515611a4f57600080fd5b80600f81905550600f54662386f26fc10000811515611a6a57fe5b04600e81905550600e546401bf08eb0002600d8190555050565b600a5481565b6000809054906101000a900473ffffffffffffffffffffffffffffffffffffffff1673ffffffffffffffffffffffffffffffffffffffff163373ffffffffffffffffffffffffffffffffffffffff16141515611ae557600080fd5b8060088190555050565b600d5481565b600160009054906101000a900473ffffffffffffffffffffffffffffffffffffffff1681565b6000806000841415611b305760009150611b4f565b8284029050828482811515611b4157fe5b04141515611b4b57fe5b8091505b5092915050565b6000808284811515611b6457fe5b0490508091505092915050565b60006a084595161401484a00000082101515611b905760079050611bce565b6a0422ca8b0a00a42500000082101515611bad5760059050611bce565b69d3c21bcecceda100000082101515611bc95760039050611bce565b600090505b919050565b6000601154600b54111515611beb5760149050611c32565b601254600b54111515611c0157600f9050611c32565b601354600b54111515611c1757600a9050611c32565b601454600b54111515611c2d5760059050611c32565b600090505b90565b6000828211151515611c4357fe5b8183039050929150505600a165627a7a723058203b5d041f3ed82ded5a64a02771366a94f17e367dbe9be38e01bef2ea1e99a2ae0029",
  "source": "pragma solidity ^0.4.24;\n\nlibrary SafeMath {\n    function mul(uint256 a, uint256 b) internal pure returns (uint256) {\n        if (a == 0) {\n            return 0;\n        }\n        uint256 c = a * b;\n        assert(c / a == b);\n        return c;\n    }\n    function div(uint256 a, uint256 b) internal pure returns (uint256) {\n        uint256 c = a / b;\n        return c;\n    }\n    function sub(uint256 a, uint256 b) internal pure returns (uint256) {\n        assert(b <= a);\n        return a - b;\n    }\n    function add(uint256 a, uint256 b) internal pure returns (uint256) {\n        uint256 c = a + b;\n        assert(c >= a);\n        return c;\n    }\n}\n\ninterface ERC20 {\n    function transfer (address _beneficiary, uint256 _tokenAmount) external returns (bool);\n    function mintFromICO(address _to, uint256 _amount) external  returns(bool);\n}\n\ncontract Ownable {\n    \n    address public owner;\n    \n    constructor() public {\n        owner = msg.sender;\n    }\n    \n    modifier onlyOwner() {\n        require(msg.sender == owner);\n        _;\n    }\n}\n\ncontract MainSale is Ownable {\n    \n    ERC20 public token;\n    \n    using SafeMath for uint;\n    \n    address public backEndOperator = msg.sender;\n    \n    address team = 0x0cdb839B52404d49417C8Ded6c3E2157A06CdD37; // 25% all\n    \n    address reserve = 0xCe66E79f59eafACaf4CaBaA317CaB4857487E3a1; // 15% all\n    \n    mapping(address=>bool) public whitelist;\n    \n    mapping(address => uint256) public investedEther;\n    \n    uint256 public startSale = 1537228801; // Tuesday, 18-Sep-18 00:00:01 UTC\n    \n    uint256 public endSale = 1545177599; // Tuesday, 18-Dec-18 23:59:59 UTC\n    \n    uint256 public investors;\n    \n    uint256 public weisRaised;\n    \n    uint256 public dollarRaised; // collected USD\n    \n    uint256 public softCap = 2000000000*1e18; // 20,000,000 USD\n    \n    uint256 public hardCap = 7000000000*1e18; // 70,000,000 USD\n    \n    uint256 public buyPrice; //0.01 USD\n    \n    uint256 public dollarPrice;\n    \n    uint256 public soldTokens;\n    \n    uint256 step1Sum = 3000000*1e18; // 3 mln $\n    \n    uint256 step2Sum = 10000000*1e18; // 10 mln $\n    \n    uint256 step3Sum = 20000000*1e18; // 20 mln $\n    \n    uint256 step4Sum = 30000000*1e18; // 30 mln $\n    \n    \n    event Authorized(address wlCandidate, uint timestamp);\n    \n    event Revoked(address wlCandidate, uint timestamp);\n    \n    event Refund(uint rate, address investor);\n    \n    \n    modifier isUnderHardCap() {\n        require(weisRaised <= hardCap);\n        _;\n    }\n    \n    modifier backEnd() {\n        require(msg.sender == backEndOperator || msg.sender == owner);\n        _;\n    }\n    \n    \n    constructor(uint256 _dollareth) public {\n        dollarPrice = _dollareth;\n        buyPrice = 1e16/dollarPrice; // 16 decimals because 1 cent\n        hardCap = 7500000000*buyPrice;\n    }\n    \n    \n    function setToken (ERC20 _token) public onlyOwner {\n        token = _token;\n    }\n    \n    function setDollarRate(uint256 _usdether) public onlyOwner {\n        dollarPrice = _usdether;\n        buyPrice = 1e16/dollarPrice; // 16 decimals because 1 cent\n        hardCap = 7500000000*buyPrice;\n    }\n    \n    \n    function setPrice(uint256 newBuyPrice) public onlyOwner {\n        buyPrice = newBuyPrice;\n    }\n    \n    function setStartSale(uint256 newStartSale) public onlyOwner {\n        startSale = newStartSale;\n    }\n    \n    function setEndSale(uint256 newEndSaled) public onlyOwner {\n        endSale = newEndSaled;\n    }\n    \n    function setBackEndAddress(address newBackEndOperator) public onlyOwner {\n        backEndOperator = newBackEndOperator;\n    }\n    \n    /*******************************************************************************\n     * Whitelist's section */\n    \n    function authorize(address wlCandidate) public backEnd {\n        require(wlCandidate != address(0x0));\n        require(!isWhitelisted(wlCandidate));\n        whitelist[wlCandidate] = true;\n        investors++;\n        emit Authorized(wlCandidate, now);\n    }\n    \n    function revoke(address wlCandidate) public  onlyOwner {\n        whitelist[wlCandidate] = false;\n        investors--;\n        emit Revoked(wlCandidate, now);\n    }\n    \n    function isWhitelisted(address wlCandidate) internal view returns(bool) {\n        return whitelist[wlCandidate];\n    }\n    \n    /*******************************************************************************\n     * Payable's section */\n    \n    function isMainSale() public constant returns(bool) {\n        return now >= startSale && now <= endSale;\n    }\n    \n    function () public payable isUnderHardCap {\n        require(isMainSale());\n        require(isWhitelisted(msg.sender));\n        require(msg.value >= 10000000000000000);\n        mainSale(msg.sender, msg.value);\n        investedEther[msg.sender] = investedEther[msg.sender].add(msg.value);\n    }\n    \n    function mainSale(address _investor, uint256 _value) internal {\n        uint256 tokens = _value.mul(1e18).div(buyPrice);\n        uint256 tokensSum = tokens.mul(discountSum(msg.value)).div(100);\n        uint256 tokensCollect = tokens.mul(discountCollect()).div(100);\n        tokens = tokens.add(tokensSum).add(tokensCollect);\n        token.mintFromICO(_investor, tokens);\n        uint256 tokensFounders = tokens.mul(5).div(12);\n        token.mintFromICO(team, tokensFounders);\n        uint256 tokensDevelopers = tokens.div(4);\n        token.mintFromICO(reserve, tokensDevelopers);\n        weisRaised = weisRaised.add(msg.value);\n        uint256 valueInUSD = msg.value.mul(dollarPrice);\n        dollarRaised = dollarRaised.add(valueInUSD);\n        soldTokens = soldTokens.add(tokens);\n    }\n    \n    \n    function discountSum(uint256 _tokens) pure private returns(uint256) {\n        if(_tokens >= 10000000*1e18) { // > 100k$ = 10,000,000 TAL\n            return 7;\n        }\n        if(_tokens >= 5000000*1e18) { // 50-100k$ = 5,000,000 TAL\n            return 5;\n        }\n        if(_tokens >= 1000000*1e18) { // 10-50k$ = 1,000,000 TAL\n            return 3;\n        } else\n            return 0;\n    }\n    \n    \n    function discountCollect() view private returns(uint256) {\n        // 20% bonus, if collected sum < 3 mln $\n        if(dollarRaised <= step1Sum) {\n            return 20;\n        } // 15% bonus, if collected sum < 10 mln $\n        if(dollarRaised <= step2Sum) {\n            return 15;\n        } // 10% bonus, if collected sum < 20 mln $\n        if(dollarRaised <= step3Sum) {\n            return 10;\n        } // 5% bonus, if collected sum < 30 mln $\n        if(dollarRaised <= step4Sum) {\n            return 5;\n        }\n        return 0;\n    }\n    \n    \n    function mintManual(address _investor, uint256 _value) public onlyOwner {\n        token.mintFromICO(_investor, _value);\n        uint256 tokensFounders = _value.mul(5).div(12);\n        token.mintFromICO(team, tokensFounders);\n        uint256 tokensDevelopers = _value.div(4);\n        token.mintFromICO(reserve, tokensDevelopers);\n    }\n    \n    \n    function transferEthFromContract(address _to, uint256 amount) public onlyOwner {\n        require(amount != 0);\n        require(_to != 0x0);\n        _to.transfer(amount);\n    }\n    \n    \n    function refundSale() public {\n        require(soldTokens < softCap && now > endSale);\n        uint256 rate = investedEther[msg.sender];\n        require(investedEther[msg.sender] >= 0);\n        investedEther[msg.sender] = 0;\n        msg.sender.transfer(rate);\n        weisRaised = weisRaised.sub(rate);\n        emit Refund(rate, msg.sender);\n    }\n}",
  "sourcePath": "/Users/ivanborisov/Yandex.Disk.localized/IT/WorkProjects/Portfolio/TalentCoin/contracts/MainSale.sol",
  "compiler": {
    "name": "solc",
    "version": "0.4.24+commit.e67f0147.Emscripten.clang"
  },
  "schemaVersion": "2.0.0",
  "updatedAt": "2018-06-19T11:53:22.579Z"
}