{
  "contractName": "TalantCoin",
  "abi": [
    {
      "constant": true,
      "inputs": [],
      "name": "mintingFinished",
      "outputs": [
        {
          "name": "",
          "type": "bool"
        }
      ],
      "payable": false,
      "stateMutability": "view",
      "type": "function"
    },
    {
      "constant": true,
      "inputs": [],
      "name": "name",
      "outputs": [
        {
          "name": "",
          "type": "string"
        }
      ],
      "payable": false,
      "stateMutability": "view",
      "type": "function"
    },
    {
      "constant": true,
      "inputs": [],
      "name": "totalSupply",
      "outputs": [
        {
          "name": "",
          "type": "uint256"
        }
      ],
      "payable": false,
      "stateMutability": "view",
      "type": "function"
    },
    {
      "constant": true,
      "inputs": [],
      "name": "decimals",
      "outputs": [
        {
          "name": "",
          "type": "uint256"
        }
      ],
      "payable": false,
      "stateMutability": "view",
      "type": "function"
    },
    {
      "constant": true,
      "inputs": [],
      "name": "crowdsaleAddress",
      "outputs": [
        {
          "name": "",
          "type": "address"
        }
      ],
      "payable": false,
      "stateMutability": "view",
      "type": "function"
    },
    {
      "constant": true,
      "inputs": [],
      "name": "initialSupply",
      "outputs": [
        {
          "name": "",
          "type": "uint256"
        }
      ],
      "payable": false,
      "stateMutability": "view",
      "type": "function"
    },
    {
      "constant": false,
      "inputs": [],
      "name": "unpause",
      "outputs": [],
      "payable": false,
      "stateMutability": "nonpayable",
      "type": "function"
    },
    {
      "constant": false,
      "inputs": [
        {
          "name": "_to",
          "type": "address"
        },
        {
          "name": "_amount",
          "type": "uint256"
        }
      ],
      "name": "mint",
      "outputs": [
        {
          "name": "",
          "type": "bool"
        }
      ],
      "payable": false,
      "stateMutability": "nonpayable",
      "type": "function"
    },
    {
      "constant": false,
      "inputs": [
        {
          "name": "_value",
          "type": "uint256"
        }
      ],
      "name": "burn",
      "outputs": [],
      "payable": false,
      "stateMutability": "nonpayable",
      "type": "function"
    },
    {
      "constant": true,
      "inputs": [],
      "name": "paused",
      "outputs": [
        {
          "name": "",
          "type": "bool"
        }
      ],
      "payable": false,
      "stateMutability": "view",
      "type": "function"
    },
    {
      "constant": true,
      "inputs": [
        {
          "name": "_owner",
          "type": "address"
        }
      ],
      "name": "balanceOf",
      "outputs": [
        {
          "name": "balance",
          "type": "uint256"
        }
      ],
      "payable": false,
      "stateMutability": "view",
      "type": "function"
    },
    {
      "constant": false,
      "inputs": [],
      "name": "finishMinting",
      "outputs": [
        {
          "name": "",
          "type": "bool"
        }
      ],
      "payable": false,
      "stateMutability": "nonpayable",
      "type": "function"
    },
    {
      "constant": false,
      "inputs": [],
      "name": "pause",
      "outputs": [],
      "payable": false,
      "stateMutability": "nonpayable",
      "type": "function"
    },
    {
      "constant": true,
      "inputs": [],
      "name": "owner",
      "outputs": [
        {
          "name": "",
          "type": "address"
        }
      ],
      "payable": false,
      "stateMutability": "view",
      "type": "function"
    },
    {
      "constant": true,
      "inputs": [],
      "name": "symbol",
      "outputs": [
        {
          "name": "",
          "type": "string"
        }
      ],
      "payable": false,
      "stateMutability": "view",
      "type": "function"
    },
    {
      "constant": true,
      "inputs": [
        {
          "name": "_owner",
          "type": "address"
        },
        {
          "name": "_spender",
          "type": "address"
        }
      ],
      "name": "allowance",
      "outputs": [
        {
          "name": "",
          "type": "uint256"
        }
      ],
      "payable": false,
      "stateMutability": "view",
      "type": "function"
    },
    {
      "constant": false,
      "inputs": [
        {
          "name": "newOwner",
          "type": "address"
        }
      ],
      "name": "transferOwnership",
      "outputs": [],
      "payable": false,
      "stateMutability": "nonpayable",
      "type": "function"
    },
    {
      "inputs": [],
      "payable": false,
      "stateMutability": "nonpayable",
      "type": "constructor"
    },
    {
      "anonymous": false,
      "inputs": [],
      "name": "Pause",
      "type": "event"
    },
    {
      "anonymous": false,
      "inputs": [],
      "name": "Unpause",
      "type": "event"
    },
    {
      "anonymous": false,
      "inputs": [
        {
          "indexed": true,
          "name": "burner",
          "type": "address"
        },
        {
          "indexed": false,
          "name": "value",
          "type": "uint256"
        }
      ],
      "name": "Burn",
      "type": "event"
    },
    {
      "anonymous": false,
      "inputs": [
        {
          "indexed": true,
          "name": "to",
          "type": "address"
        },
        {
          "indexed": false,
          "name": "amount",
          "type": "uint256"
        }
      ],
      "name": "Mint",
      "type": "event"
    },
    {
      "anonymous": false,
      "inputs": [],
      "name": "MintFinished",
      "type": "event"
    },
    {
      "anonymous": false,
      "inputs": [
        {
          "indexed": true,
          "name": "previousOwner",
          "type": "address"
        },
        {
          "indexed": true,
          "name": "newOwner",
          "type": "address"
        }
      ],
      "name": "OwnershipTransferred",
      "type": "event"
    },
    {
      "anonymous": false,
      "inputs": [
        {
          "indexed": true,
          "name": "owner",
          "type": "address"
        },
        {
          "indexed": true,
          "name": "spender",
          "type": "address"
        },
        {
          "indexed": false,
          "name": "value",
          "type": "uint256"
        }
      ],
      "name": "Approval",
      "type": "event"
    },
    {
      "anonymous": false,
      "inputs": [
        {
          "indexed": true,
          "name": "from",
          "type": "address"
        },
        {
          "indexed": true,
          "name": "to",
          "type": "address"
        },
        {
          "indexed": false,
          "name": "value",
          "type": "uint256"
        }
      ],
      "name": "Transfer",
      "type": "event"
    },
    {
      "constant": false,
      "inputs": [
        {
          "name": "_saleaddress",
          "type": "address"
        }
      ],
      "name": "setSaleAddress",
      "outputs": [],
      "payable": false,
      "stateMutability": "nonpayable",
      "type": "function"
    },
    {
      "constant": false,
      "inputs": [
        {
          "name": "_to",
          "type": "address"
        },
        {
          "name": "_amount",
          "type": "uint256"
        }
      ],
      "name": "mintFromICO",
      "outputs": [
        {
          "name": "",
          "type": "bool"
        }
      ],
      "payable": false,
      "stateMutability": "nonpayable",
      "type": "function"
    },
    {
      "constant": false,
      "inputs": [
        {
          "name": "_to",
          "type": "address"
        },
        {
          "name": "_value",
          "type": "uint256"
        }
      ],
      "name": "transfer",
      "outputs": [
        {
          "name": "",
          "type": "bool"
        }
      ],
      "payable": false,
      "stateMutability": "nonpayable",
      "type": "function"
    },
    {
      "constant": false,
      "inputs": [
        {
          "name": "_from",
          "type": "address"
        },
        {
          "name": "_to",
          "type": "address"
        },
        {
          "name": "_value",
          "type": "uint256"
        }
      ],
      "name": "transferFrom",
      "outputs": [
        {
          "name": "",
          "type": "bool"
        }
      ],
      "payable": false,
      "stateMutability": "nonpayable",
      "type": "function"
    },
    {
      "constant": false,
      "inputs": [
        {
          "name": "_spender",
          "type": "address"
        },
        {
          "name": "_value",
          "type": "uint256"
        }
      ],
      "name": "approve",
      "outputs": [
        {
          "name": "",
          "type": "bool"
        }
      ],
      "payable": false,
      "stateMutability": "nonpayable",
      "type": "function"
    },
    {
      "constant": false,
      "inputs": [
        {
          "name": "_spender",
          "type": "address"
        },
        {
          "name": "_addedValue",
          "type": "uint256"
        }
      ],
      "name": "increaseApproval",
      "outputs": [
        {
          "name": "success",
          "type": "bool"
        }
      ],
      "payable": false,
      "stateMutability": "nonpayable",
      "type": "function"
    },
    {
      "constant": false,
      "inputs": [
        {
          "name": "_spender",
          "type": "address"
        },
        {
          "name": "_subtractedValue",
          "type": "uint256"
        }
      ],
      "name": "decreaseApproval",
      "outputs": [
        {
          "name": "success",
          "type": "bool"
        }
      ],
      "payable": false,
      "stateMutability": "nonpayable",
      "type": "function"
    }
  ],
  "bytecode": "0x60806040526000600360146101000a81548160ff0219169083151502179055506000600360156101000a81548160ff0219169083151502179055506040805190810160405280600981526020017f54414c454e5449434f0000000000000000000000000000000000000000000000815250600490805190602001906200008792919062000207565b506040805190810160405280600381526020017f54414c000000000000000000000000000000000000000000000000000000000081525060059080519060200190620000d592919062000207565b50348015620000e357600080fd5b5033600360006101000a81548173ffffffffffffffffffffffffffffffffffffffff021916908373ffffffffffffffffffffffffffffffffffffffff1602179055506200013e62000144640100000000026401000000009004565b620002b6565b600360009054906101000a900473ffffffffffffffffffffffffffffffffffffffff1673ffffffffffffffffffffffffffffffffffffffff163373ffffffffffffffffffffffffffffffffffffffff16141515620001a157600080fd5b600360159054906101000a900460ff16151515620001be57600080fd5b6001600360156101000a81548160ff0219169083151502179055507f6985a02210a168e66602d3235cb6db0e70f92b3ba4d376a33c0f3d9434bff62560405160405180910390a1565b828054600181600116156101000203166002900490600052602060002090601f016020900481019282601f106200024a57805160ff19168380011785556200027b565b828001600101855582156200027b579182015b828111156200027a5782518255916020019190600101906200025d565b5b5090506200028a91906200028e565b5090565b620002b391905b80821115620002af57600081600090555060010162000295565b5090565b90565b6122de80620002c66000396000f30060806040526004361061013e576000357c0100000000000000000000000000000000000000000000000000000000900463ffffffff16806305d2035b1461014357806306fdde0314610172578063095ea7b31461020257806318160ddd1461026757806323b872dd14610292578063313ce5671461031757806331d2f89114610342578063378dc3dc146103995780633aa0396a146103c45780633f4ba83a1461042957806340c10f191461044057806342966c68146104a55780635c975abb146104d2578063661884631461050157806370a08231146105665780637d64bcb4146105bd5780638456cb59146105ec5780638da5cb5b1461060357806395d89b411461065a578063a9059cbb146106ea578063d73dd6231461074f578063dd62ed3e146107b4578063f2fde38b1461082b578063f8fb491f1461086e575b600080fd5b34801561014f57600080fd5b506101586108b1565b604051808215151515815260200191505060405180910390f35b34801561017e57600080fd5b506101876108c4565b6040518080602001828103825283818151815260200191508051906020019080838360005b838110156101c75780820151818401526020810190506101ac565b50505050905090810190601f1680156101f45780820380516001836020036101000a031916815260200191505b509250505060405180910390f35b34801561020e57600080fd5b5061024d600480360381019080803573ffffffffffffffffffffffffffffffffffffffff16906020019092919080359060200190929190505050610962565b604051808215151515815260200191505060405180910390f35b34801561027357600080fd5b5061027c610992565b6040518082815260200191505060405180910390f35b34801561029e57600080fd5b506102fd600480360381019080803573ffffffffffffffffffffffffffffffffffffffff169060200190929190803573ffffffffffffffffffffffffffffffffffffffff1690602001909291908035906020019092919050505061099c565b604051808215151515815260200191505060405180910390f35b34801561032357600080fd5b5061032c6109ce565b6040518082815260200191505060405180910390f35b34801561034e57600080fd5b506103576109d3565b604051808273ffffffffffffffffffffffffffffffffffffffff1673ffffffffffffffffffffffffffffffffffffffff16815260200191505060405180910390f35b3480156103a557600080fd5b506103ae6109f9565b6040518082815260200191505060405180910390f35b3480156103d057600080fd5b5061040f600480360381019080803573ffffffffffffffffffffffffffffffffffffffff16906020019092919080359060200190929190505050610a08565b604051808215151515815260200191505060405180910390f35b34801561043557600080fd5b5061043e610d06565b005b34801561044c57600080fd5b5061048b600480360381019080803573ffffffffffffffffffffffffffffffffffffffff16906020019092919080359060200190929190505050610dc6565b604051808215151515815260200191505060405180910390f35b3480156104b157600080fd5b506104d060048036038101908080359060200190929190505050610fac565b005b3480156104de57600080fd5b506104e7610fb9565b604051808215151515815260200191505060405180910390f35b34801561050d57600080fd5b5061054c600480360381019080803573ffffffffffffffffffffffffffffffffffffffff16906020019092919080359060200190929190505050610fcc565b604051808215151515815260200191505060405180910390f35b34801561057257600080fd5b506105a7600480360381019080803573ffffffffffffffffffffffffffffffffffffffff169060200190929190505050610ffc565b6040518082815260200191505060405180910390f35b3480156105c957600080fd5b506105d2611044565b604051808215151515815260200191505060405180910390f35b3480156105f857600080fd5b5061060161110c565b005b34801561060f57600080fd5b506106186111cd565b604051808273ffffffffffffffffffffffffffffffffffffffff1673ffffffffffffffffffffffffffffffffffffffff16815260200191505060405180910390f35b34801561066657600080fd5b5061066f6111f3565b6040518080602001828103825283818151815260200191508051906020019080838360005b838110156106af578082015181840152602081019050610694565b50505050905090810190601f1680156106dc5780820380516001836020036101000a031916815260200191505b509250505060405180910390f35b3480156106f657600080fd5b50610735600480360381019080803573ffffffffffffffffffffffffffffffffffffffff16906020019092919080359060200190929190505050611291565b604051808215151515815260200191505060405180910390f35b34801561075b57600080fd5b5061079a600480360381019080803573ffffffffffffffffffffffffffffffffffffffff169060200190929190803590602001909291905050506112c1565b604051808215151515815260200191505060405180910390f35b3480156107c057600080fd5b50610815600480360381019080803573ffffffffffffffffffffffffffffffffffffffff169060200190929190803573ffffffffffffffffffffffffffffffffffffffff1690602001909291905050506112f1565b6040518082815260200191505060405180910390f35b34801561083757600080fd5b5061086c600480360381019080803573ffffffffffffffffffffffffffffffffffffffff169060200190929190505050611378565b005b34801561087a57600080fd5b506108af600480360381019080803573ffffffffffffffffffffffffffffffffffffffff1690602001909291905050506114d0565b005b600360149054906101000a900460ff1681565b60048054600181600116156101000203166002900480601f01602080910402602001604051908101604052809291908181526020018280546001816001161561010002031660029004801561095a5780601f1061092f5761010080835404028352916020019161095a565b820191906000526020600020905b81548152906001019060200180831161093d57829003601f168201915b505050505081565b6000600360159054906101000a900460ff1615151561098057600080fd5b61098a8383611570565b905092915050565b6000600154905090565b6000600360159054906101000a900460ff161515156109ba57600080fd5b6109c5848484611662565b90509392505050565b601281565b600660009054906101000a900473ffffffffffffffffffffffffffffffffffffffff1681565b6012600a0a6402cb4178000281565b6000600660009054906101000a900473ffffffffffffffffffffffffffffffffffffffff1673ffffffffffffffffffffffffffffffffffffffff163373ffffffffffffffffffffffffffffffffffffffff16141515610a6657600080fd5b600360149054906101000a900460ff16151515610a8257600080fd5b6012600a0a6402cb4178000260015411151515610a9e57600080fd5b6000610af1836000808773ffffffffffffffffffffffffffffffffffffffff1673ffffffffffffffffffffffffffffffffffffffff16815260200190815260200160002054611a1c90919063ffffffff16565b14151515610afe57600080fd5b6000808473ffffffffffffffffffffffffffffffffffffffff1673ffffffffffffffffffffffffffffffffffffffff16815260200190815260200160002054610b8e836000808773ffffffffffffffffffffffffffffffffffffffff1673ffffffffffffffffffffffffffffffffffffffff16815260200190815260200160002054611a1c90919063ffffffff16565b111515610b9a57600080fd5b610baf82600154611a1c90919063ffffffff16565b600181905550610c06826000808673ffffffffffffffffffffffffffffffffffffffff1673ffffffffffffffffffffffffffffffffffffffff16815260200190815260200160002054611a1c90919063ffffffff16565b6000808573ffffffffffffffffffffffffffffffffffffffff1673ffffffffffffffffffffffffffffffffffffffff168152602001908152602001600020819055508273ffffffffffffffffffffffffffffffffffffffff167f0f6798a560793a54c3bcfe86a93cde1e73087d944c0ea20544137d4121396885836040518082815260200191505060405180910390a28273ffffffffffffffffffffffffffffffffffffffff16600073ffffffffffffffffffffffffffffffffffffffff167fddf252ad1be2c89b69c2b068fc378daa952ba7f163c4a11628f55a4df523b3ef846040518082815260200191505060405180910390a36001905092915050565b600360009054906101000a900473ffffffffffffffffffffffffffffffffffffffff1673ffffffffffffffffffffffffffffffffffffffff163373ffffffffffffffffffffffffffffffffffffffff16141515610d6257600080fd5b600360159054906101000a900460ff161515610d7d57600080fd5b6000600360156101000a81548160ff0219169083151502179055507f7805862f689e2f13df9f062ff482ad3ad112aca9e0847911ed832e158c525b3360405160405180910390a1565b6000600360009054906101000a900473ffffffffffffffffffffffffffffffffffffffff1673ffffffffffffffffffffffffffffffffffffffff163373ffffffffffffffffffffffffffffffffffffffff16141515610e2457600080fd5b600360149054906101000a900460ff16151515610e4057600080fd5b610e5582600154611a1c90919063ffffffff16565b600181905550610eac826000808673ffffffffffffffffffffffffffffffffffffffff1673ffffffffffffffffffffffffffffffffffffffff16815260200190815260200160002054611a1c90919063ffffffff16565b6000808573ffffffffffffffffffffffffffffffffffffffff1673ffffffffffffffffffffffffffffffffffffffff168152602001908152602001600020819055508273ffffffffffffffffffffffffffffffffffffffff167f0f6798a560793a54c3bcfe86a93cde1e73087d944c0ea20544137d4121396885836040518082815260200191505060405180910390a28273ffffffffffffffffffffffffffffffffffffffff16600073ffffffffffffffffffffffffffffffffffffffff167fddf252ad1be2c89b69c2b068fc378daa952ba7f163c4a11628f55a4df523b3ef846040518082815260200191505060405180910390a36001905092915050565b610fb63382611a3a565b50565b600360159054906101000a900460ff1681565b6000600360159054906101000a900460ff16151515610fea57600080fd5b610ff48383611bed565b905092915050565b60008060008373ffffffffffffffffffffffffffffffffffffffff1673ffffffffffffffffffffffffffffffffffffffff168152602001908152602001600020549050919050565b6000600360009054906101000a900473ffffffffffffffffffffffffffffffffffffffff1673ffffffffffffffffffffffffffffffffffffffff163373ffffffffffffffffffffffffffffffffffffffff161415156110a257600080fd5b600360149054906101000a900460ff161515156110be57600080fd5b6001600360146101000a81548160ff0219169083151502179055507fae5184fba832cb2b1f702aca6117b8d265eaf03ad33eb133f19dde0f5920fa0860405160405180910390a16001905090565b600360009054906101000a900473ffffffffffffffffffffffffffffffffffffffff1673ffffffffffffffffffffffffffffffffffffffff163373ffffffffffffffffffffffffffffffffffffffff1614151561116857600080fd5b600360159054906101000a900460ff1615151561118457600080fd5b6001600360156101000a81548160ff0219169083151502179055507f6985a02210a168e66602d3235cb6db0e70f92b3ba4d376a33c0f3d9434bff62560405160405180910390a1565b600360009054906101000a900473ffffffffffffffffffffffffffffffffffffffff1681565b60058054600181600116156101000203166002900480601f0160208091040260200160405190810160405280929190818152602001828054600181600116156101000203166002900480156112895780601f1061125e57610100808354040283529160200191611289565b820191906000526020600020905b81548152906001019060200180831161126c57829003601f168201915b505050505081565b6000600360159054906101000a900460ff161515156112af57600080fd5b6112b98383611e7e565b905092915050565b6000600360159054906101000a900460ff161515156112df57600080fd5b6112e9838361209d565b905092915050565b6000600260008473ffffffffffffffffffffffffffffffffffffffff1673ffffffffffffffffffffffffffffffffffffffff16815260200190815260200160002060008373ffffffffffffffffffffffffffffffffffffffff1673ffffffffffffffffffffffffffffffffffffffff16815260200190815260200160002054905092915050565b600360009054906101000a900473ffffffffffffffffffffffffffffffffffffffff1673ffffffffffffffffffffffffffffffffffffffff163373ffffffffffffffffffffffffffffffffffffffff161415156113d457600080fd5b600073ffffffffffffffffffffffffffffffffffffffff168173ffffffffffffffffffffffffffffffffffffffff161415151561141057600080fd5b8073ffffffffffffffffffffffffffffffffffffffff16600360009054906101000a900473ffffffffffffffffffffffffffffffffffffffff1673ffffffffffffffffffffffffffffffffffffffff167f8be0079c531659141344cd1fd0a4f28419497f9722a3daafe3b4186f6b6457e060405160405180910390a380600360006101000a81548173ffffffffffffffffffffffffffffffffffffffff021916908373ffffffffffffffffffffffffffffffffffffffff16021790555050565b600360009054906101000a900473ffffffffffffffffffffffffffffffffffffffff1673ffffffffffffffffffffffffffffffffffffffff163373ffffffffffffffffffffffffffffffffffffffff1614151561152c57600080fd5b80600660006101000a81548173ffffffffffffffffffffffffffffffffffffffff021916908373ffffffffffffffffffffffffffffffffffffffff16021790555050565b600081600260003373ffffffffffffffffffffffffffffffffffffffff1673ffffffffffffffffffffffffffffffffffffffff16815260200190815260200160002060008573ffffffffffffffffffffffffffffffffffffffff1673ffffffffffffffffffffffffffffffffffffffff168152602001908152602001600020819055508273ffffffffffffffffffffffffffffffffffffffff163373ffffffffffffffffffffffffffffffffffffffff167f8c5be1e5ebec7d5bd14f71427d1e84f3dd0314c0f7b2291e5b200ac8c7c3b925846040518082815260200191505060405180910390a36001905092915050565b60008073ffffffffffffffffffffffffffffffffffffffff168373ffffffffffffffffffffffffffffffffffffffff161415151561169f57600080fd5b6000808573ffffffffffffffffffffffffffffffffffffffff1673ffffffffffffffffffffffffffffffffffffffff1681526020019081526020016000205482111515156116ec57600080fd5b600260008573ffffffffffffffffffffffffffffffffffffffff1673ffffffffffffffffffffffffffffffffffffffff16815260200190815260200160002060003373ffffffffffffffffffffffffffffffffffffffff1673ffffffffffffffffffffffffffffffffffffffff16815260200190815260200160002054821115151561177757600080fd5b6117c8826000808773ffffffffffffffffffffffffffffffffffffffff1673ffffffffffffffffffffffffffffffffffffffff1681526020019081526020016000205461229990919063ffffffff16565b6000808673ffffffffffffffffffffffffffffffffffffffff1673ffffffffffffffffffffffffffffffffffffffff1681526020019081526020016000208190555061185b826000808673ffffffffffffffffffffffffffffffffffffffff1673ffffffffffffffffffffffffffffffffffffffff16815260200190815260200160002054611a1c90919063ffffffff16565b6000808573ffffffffffffffffffffffffffffffffffffffff1673ffffffffffffffffffffffffffffffffffffffff1681526020019081526020016000208190555061192c82600260008773ffffffffffffffffffffffffffffffffffffffff1673ffffffffffffffffffffffffffffffffffffffff16815260200190815260200160002060003373ffffffffffffffffffffffffffffffffffffffff1673ffffffffffffffffffffffffffffffffffffffff1681526020019081526020016000205461229990919063ffffffff16565b600260008673ffffffffffffffffffffffffffffffffffffffff1673ffffffffffffffffffffffffffffffffffffffff16815260200190815260200160002060003373ffffffffffffffffffffffffffffffffffffffff1673ffffffffffffffffffffffffffffffffffffffff168152602001908152602001600020819055508273ffffffffffffffffffffffffffffffffffffffff168473ffffffffffffffffffffffffffffffffffffffff167fddf252ad1be2c89b69c2b068fc378daa952ba7f163c4a11628f55a4df523b3ef846040518082815260200191505060405180910390a3600190509392505050565b6000808284019050838110151515611a3057fe5b8091505092915050565b6000808373ffffffffffffffffffffffffffffffffffffffff1673ffffffffffffffffffffffffffffffffffffffff168152602001908152602001600020548111151515611a8757600080fd5b611ad8816000808573ffffffffffffffffffffffffffffffffffffffff1673ffffffffffffffffffffffffffffffffffffffff1681526020019081526020016000205461229990919063ffffffff16565b6000808473ffffffffffffffffffffffffffffffffffffffff1673ffffffffffffffffffffffffffffffffffffffff16815260200190815260200160002081905550611b2f8160015461229990919063ffffffff16565b6001819055508173ffffffffffffffffffffffffffffffffffffffff167fcc16f5dbb4873280815c1ee09dbd06736cffcc184412cf7a71a0fdb75d397ca5826040518082815260200191505060405180910390a2600073ffffffffffffffffffffffffffffffffffffffff168273ffffffffffffffffffffffffffffffffffffffff167fddf252ad1be2c89b69c2b068fc378daa952ba7f163c4a11628f55a4df523b3ef836040518082815260200191505060405180910390a35050565b600080600260003373ffffffffffffffffffffffffffffffffffffffff1673ffffffffffffffffffffffffffffffffffffffff16815260200190815260200160002060008573ffffffffffffffffffffffffffffffffffffffff1673ffffffffffffffffffffffffffffffffffffffff16815260200190815260200160002054905080831115611cfe576000600260003373ffffffffffffffffffffffffffffffffffffffff1673ffffffffffffffffffffffffffffffffffffffff16815260200190815260200160002060008673ffffffffffffffffffffffffffffffffffffffff1673ffffffffffffffffffffffffffffffffffffffff16815260200190815260200160002081905550611d92565b611d11838261229990919063ffffffff16565b600260003373ffffffffffffffffffffffffffffffffffffffff1673ffffffffffffffffffffffffffffffffffffffff16815260200190815260200160002060008673ffffffffffffffffffffffffffffffffffffffff1673ffffffffffffffffffffffffffffffffffffffff168152602001908152602001600020819055505b8373ffffffffffffffffffffffffffffffffffffffff163373ffffffffffffffffffffffffffffffffffffffff167f8c5be1e5ebec7d5bd14f71427d1e84f3dd0314c0f7b2291e5b200ac8c7c3b925600260003373ffffffffffffffffffffffffffffffffffffffff1673ffffffffffffffffffffffffffffffffffffffff16815260200190815260200160002060008873ffffffffffffffffffffffffffffffffffffffff1673ffffffffffffffffffffffffffffffffffffffff168152602001908152602001600020546040518082815260200191505060405180910390a3600191505092915050565b60008073ffffffffffffffffffffffffffffffffffffffff168373ffffffffffffffffffffffffffffffffffffffff1614151515611ebb57600080fd5b6000803373ffffffffffffffffffffffffffffffffffffffff1673ffffffffffffffffffffffffffffffffffffffff168152602001908152602001600020548211151515611f0857600080fd5b611f59826000803373ffffffffffffffffffffffffffffffffffffffff1673ffffffffffffffffffffffffffffffffffffffff1681526020019081526020016000205461229990919063ffffffff16565b6000803373ffffffffffffffffffffffffffffffffffffffff1673ffffffffffffffffffffffffffffffffffffffff16815260200190815260200160002081905550611fec826000808673ffffffffffffffffffffffffffffffffffffffff1673ffffffffffffffffffffffffffffffffffffffff16815260200190815260200160002054611a1c90919063ffffffff16565b6000808573ffffffffffffffffffffffffffffffffffffffff1673ffffffffffffffffffffffffffffffffffffffff168152602001908152602001600020819055508273ffffffffffffffffffffffffffffffffffffffff163373ffffffffffffffffffffffffffffffffffffffff167fddf252ad1be2c89b69c2b068fc378daa952ba7f163c4a11628f55a4df523b3ef846040518082815260200191505060405180910390a36001905092915050565b600061212e82600260003373ffffffffffffffffffffffffffffffffffffffff1673ffffffffffffffffffffffffffffffffffffffff16815260200190815260200160002060008673ffffffffffffffffffffffffffffffffffffffff1673ffffffffffffffffffffffffffffffffffffffff16815260200190815260200160002054611a1c90919063ffffffff16565b600260003373ffffffffffffffffffffffffffffffffffffffff1673ffffffffffffffffffffffffffffffffffffffff16815260200190815260200160002060008573ffffffffffffffffffffffffffffffffffffffff1673ffffffffffffffffffffffffffffffffffffffff168152602001908152602001600020819055508273ffffffffffffffffffffffffffffffffffffffff163373ffffffffffffffffffffffffffffffffffffffff167f8c5be1e5ebec7d5bd14f71427d1e84f3dd0314c0f7b2291e5b200ac8c7c3b925600260003373ffffffffffffffffffffffffffffffffffffffff1673ffffffffffffffffffffffffffffffffffffffff16815260200190815260200160002060008773ffffffffffffffffffffffffffffffffffffffff1673ffffffffffffffffffffffffffffffffffffffff168152602001908152602001600020546040518082815260200191505060405180910390a36001905092915050565b60008282111515156122a757fe5b8183039050929150505600a165627a7a72305820df021a8315f3d8ca0772140f6b36dbee37b9f6cff238bda3c6d598caba3eb98c0029",
  "source": "pragma solidity ^0.4.24;\n\nlibrary SafeMath {\n    \n    function mul(uint256 a, uint256 b) internal pure returns (uint256) {\n        if (a == 0) {\n            return 0;\n        }\n        uint256 c = a * b;\n        assert(c / a == b);\n        return c;\n    }\n    \n    function div(uint256 a, uint256 b) internal pure returns (uint256) {\n        assert(b > 0);\n        uint256 c = a / b;\n        assert(a == b * c + a % b);\n        return a / b;\n    }\n    \n    function sub(uint256 a, uint256 b) internal pure returns (uint256) {\n        assert(b <= a);\n        return a - b;\n    }\n    \n    function add(uint256 a, uint256 b) internal pure returns (uint256) {\n        uint256 c = a + b;\n        assert(c >= a);\n        return c;\n    }\n}\n\ncontract Ownable {\n    address public owner;\n    \n    event OwnershipTransferred(address indexed previousOwner, address indexed newOwner);\n    \n    constructor() public {\n        owner = msg.sender;\n    }\n    \n    modifier onlyOwner() {\n        require(msg.sender == owner);\n        _;\n    }\n    \n    function transferOwnership(address newOwner) public onlyOwner {\n        require(newOwner != address(0));\n        emit OwnershipTransferred(owner, newOwner);\n        owner = newOwner;\n    }\n}\n\ncontract Pausable is Ownable {\n    event Pause();\n    event Unpause();\n    \n    bool public paused = false;\n    \n    modifier whenNotPaused() {\n        require(!paused);\n        _;\n    }\n    \n    modifier whenPaused() {\n        require(paused);\n        _;\n    }\n    \n    function pause() onlyOwner whenNotPaused public {\n        paused = true;\n        emit Pause();\n    }\n    \n    function unpause() onlyOwner whenPaused public {\n        paused = false;\n        emit Unpause();\n    }\n}\n\ncontract ERC20Basic {\n    function totalSupply() public view returns (uint256);\n    function balanceOf(address who) public view returns (uint256);\n    function transfer(address to, uint256 value) public returns (bool);\n    event Transfer(address indexed from, address indexed to, uint256 value);\n}\n\ncontract BasicToken is ERC20Basic {\n    using SafeMath for uint256;\n    \n    mapping(address => uint256) balances;\n    uint256 totalSupply_;\n    \n    function totalSupply() public view returns (uint256) {\n        return totalSupply_;\n    }\n    \n    function transfer(address _to, uint256 _value) public returns (bool) {\n        require(_to != address(0));\n        require(_value <= balances[msg.sender]);\n        \n        balances[msg.sender] = balances[msg.sender].sub(_value);\n        balances[_to] = balances[_to].add(_value);\n        emit Transfer(msg.sender, _to, _value);\n        return true;\n    }\n    \n    function balanceOf(address _owner) public view returns (uint256 balance) {\n        return balances[_owner];\n    }\n}\n\ncontract ERC20 is ERC20Basic {\n    function allowance(address owner, address spender) public view returns (uint256);\n    function transferFrom(address from, address to, uint256 value) public returns (bool);\n    function approve(address spender, uint256 value) public returns (bool);\n    event Approval(address indexed owner, address indexed spender, uint256 value);\n}\n\ncontract StandardToken is ERC20, BasicToken {\n    \n    mapping (address => mapping (address => uint256)) internal allowed;\n    \n    function transferFrom(address _from, address _to, uint256 _value) public returns (bool) {\n        require(_to != address(0));\n        require(_value <= balances[_from]);\n        require(_value <= allowed[_from][msg.sender]);\n        balances[_from] = balances[_from].sub(_value);\n        balances[_to] = balances[_to].add(_value);\n        allowed[_from][msg.sender] = allowed[_from][msg.sender].sub(_value);\n        emit Transfer(_from, _to, _value);\n        return true;\n    }\n    \n    function approve(address _spender, uint256 _value) public returns (bool) {\n        allowed[msg.sender][_spender] = _value;\n        emit Approval(msg.sender, _spender, _value);\n        return true;\n    }\n    \n    function allowance(address _owner, address _spender) public view returns (uint256) {\n        return allowed[_owner][_spender];\n    }\n    \n    function increaseApproval(address _spender, uint _addedValue) public returns (bool) {\n        allowed[msg.sender][_spender] = allowed[msg.sender][_spender].add(_addedValue);\n        emit Approval(msg.sender, _spender, allowed[msg.sender][_spender]);\n        return true;\n    }\n    \n    function decreaseApproval(address _spender, uint _subtractedValue) public returns (bool) {\n        uint oldValue = allowed[msg.sender][_spender];\n        if (_subtractedValue > oldValue) {\n            allowed[msg.sender][_spender] = 0;\n        } else {\n            allowed[msg.sender][_spender] = oldValue.sub(_subtractedValue);\n        }\n        emit Approval(msg.sender, _spender, allowed[msg.sender][_spender]);\n        return true;\n    }\n}\n\ncontract BurnableToken is BasicToken, Ownable {\n    \n    event Burn(address indexed burner, uint256 value);\n    \n    function burn(uint256 _value) public {\n        _burn(msg.sender, _value);\n    }\n    \n    function _burn(address _who, uint256 _value) internal {\n        require(_value <= balances[_who]);\n        balances[_who] = balances[_who].sub(_value);\n        totalSupply_ = totalSupply_.sub(_value);\n        emit Burn(_who, _value);\n        emit Transfer(_who, address(0), _value);\n    }\n}\n\ncontract MintableToken is StandardToken, Ownable {\n    \n    event Mint(address indexed to, uint256 amount);\n    event MintFinished();\n    \n    bool public mintingFinished = false;\n    \n    modifier canMint() {\n        require(!mintingFinished);\n        _;\n    }\n    \n    function mint(address _to, uint256 _amount) onlyOwner canMint public returns (bool) {\n        totalSupply_ = totalSupply_.add(_amount);\n        balances[_to] = balances[_to].add(_amount);\n        emit Mint(_to, _amount);\n        emit Transfer(address(0), _to, _amount);\n        return true;\n    }\n    \n    function finishMinting() onlyOwner canMint public returns (bool) {\n        mintingFinished = true;\n        emit MintFinished();\n        return true;\n    }\n}\n\ncontract TalantCoin is MintableToken, BurnableToken, Pausable {\n    \n    using SafeMath for uint256;\n    \n    string  public name = \"TALENTICO\";\n    string  public symbol = \"TAL\";\n    uint256 constant public decimals = 18;\n    uint256 constant dec = 10**decimals;\n    uint256 public constant initialSupply = 12000000000*dec;\n    address public crowdsaleAddress;\n    \n    modifier onlyICO() {\n        require(msg.sender == crowdsaleAddress);\n        _;\n    }\n    \n    constructor( ) public {\n        pause();\n    }\n    \n    \n    function setSaleAddress(address _saleaddress) public onlyOwner{\n        crowdsaleAddress = _saleaddress;\n    }\n    \n    \n    function mintFromICO(address _to, uint256 _amount) onlyICO canMint public returns (bool) {\n        require(totalSupply_ <= initialSupply);\n        require(balances[_to].add(_amount) != 0);\n        require(balances[_to].add(_amount) > balances[_to]);\n        totalSupply_ = totalSupply_.add(_amount);\n        balances[_to] = balances[_to].add(_amount);\n        emit Mint(_to, _amount);\n        emit Transfer(address(0), _to, _amount);\n        return true;\n    }\n    \n    function transfer(address _to, uint256 _value) public whenNotPaused returns (bool) {\n        return super.transfer(_to, _value);\n    }\n    \n    function transferFrom(address _from, address _to, uint256 _value) public whenNotPaused returns (bool) {\n        return super.transferFrom(_from, _to, _value);\n    }\n    \n    function approve(address _spender, uint256 _value) public whenNotPaused returns (bool) {\n        return super.approve(_spender, _value);\n    }\n    \n    function increaseApproval(address _spender, uint _addedValue) public whenNotPaused returns (bool success) {\n        return super.increaseApproval(_spender, _addedValue);\n    }\n    \n    function decreaseApproval(address _spender, uint _subtractedValue) public whenNotPaused returns (bool success) {\n        return super.decreaseApproval(_spender, _subtractedValue);\n    }\n}",
  "sourcePath": "/Users/ivanborisov/Yandex.Disk.localized/IT/WorkProjects/Portfolio/TalentCoin/contracts/TalantToken.sol",
  "compiler": {
    "name": "solc",
    "version": "0.4.24+commit.e67f0147.Emscripten.clang"
  },
  "schemaVersion": "2.0.0",
  "updatedAt": "2018-06-19T11:53:22.671Z"
}