{
  "contractName": "OneStageMainSale",
  "abi": [
    {
      "constant": true,
      "inputs": [],
      "name": "backEndOperator",
      "outputs": [
        {
          "name": "",
          "type": "address"
        }
      ],
      "payable": false,
      "stateMutability": "view",
      "type": "function"
    },
    {
      "constant": true,
      "inputs": [
        {
          "name": "",
          "type": "address"
        }
      ],
      "name": "investedEther",
      "outputs": [
        {
          "name": "",
          "type": "uint256"
        }
      ],
      "payable": false,
      "stateMutability": "view",
      "type": "function"
    },
    {
      "constant": true,
      "inputs": [],
      "name": "dollarPrice",
      "outputs": [
        {
          "name": "",
          "type": "uint256"
        }
      ],
      "payable": false,
      "stateMutability": "view",
      "type": "function"
    },
    {
      "constant": true,
      "inputs": [],
      "name": "soldTokens",
      "outputs": [
        {
          "name": "",
          "type": "uint256"
        }
      ],
      "payable": false,
      "stateMutability": "view",
      "type": "function"
    },
    {
      "constant": true,
      "inputs": [],
      "name": "softCap1Stage",
      "outputs": [
        {
          "name": "",
          "type": "uint256"
        }
      ],
      "payable": false,
      "stateMutability": "view",
      "type": "function"
    },
    {
      "constant": true,
      "inputs": [],
      "name": "buyPrice",
      "outputs": [
        {
          "name": "",
          "type": "uint256"
        }
      ],
      "payable": false,
      "stateMutability": "view",
      "type": "function"
    },
    {
      "constant": true,
      "inputs": [],
      "name": "investors",
      "outputs": [
        {
          "name": "",
          "type": "uint256"
        }
      ],
      "payable": false,
      "stateMutability": "view",
      "type": "function"
    },
    {
      "constant": true,
      "inputs": [],
      "name": "owner",
      "outputs": [
        {
          "name": "",
          "type": "address"
        }
      ],
      "payable": false,
      "stateMutability": "view",
      "type": "function"
    },
    {
      "constant": true,
      "inputs": [
        {
          "name": "",
          "type": "address"
        }
      ],
      "name": "whitelist",
      "outputs": [
        {
          "name": "",
          "type": "bool"
        }
      ],
      "payable": false,
      "stateMutability": "view",
      "type": "function"
    },
    {
      "constant": true,
      "inputs": [],
      "name": "end1StageSale",
      "outputs": [
        {
          "name": "",
          "type": "uint256"
        }
      ],
      "payable": false,
      "stateMutability": "view",
      "type": "function"
    },
    {
      "constant": true,
      "inputs": [],
      "name": "hardCap1Stage",
      "outputs": [
        {
          "name": "",
          "type": "uint256"
        }
      ],
      "payable": false,
      "stateMutability": "view",
      "type": "function"
    },
    {
      "constant": true,
      "inputs": [],
      "name": "weisRaised",
      "outputs": [
        {
          "name": "",
          "type": "uint256"
        }
      ],
      "payable": false,
      "stateMutability": "view",
      "type": "function"
    },
    {
      "constant": true,
      "inputs": [],
      "name": "start1StageSale",
      "outputs": [
        {
          "name": "",
          "type": "uint256"
        }
      ],
      "payable": false,
      "stateMutability": "view",
      "type": "function"
    },
    {
      "constant": true,
      "inputs": [],
      "name": "token",
      "outputs": [
        {
          "name": "",
          "type": "address"
        }
      ],
      "payable": false,
      "stateMutability": "view",
      "type": "function"
    },
    {
      "inputs": [
        {
          "name": "_token",
          "type": "address"
        },
        {
          "name": "usdETH",
          "type": "uint256"
        }
      ],
      "payable": false,
      "stateMutability": "nonpayable",
      "type": "constructor"
    },
    {
      "payable": true,
      "stateMutability": "payable",
      "type": "fallback"
    },
    {
      "anonymous": false,
      "inputs": [
        {
          "indexed": false,
          "name": "wlCandidate",
          "type": "address"
        },
        {
          "indexed": false,
          "name": "timestamp",
          "type": "uint256"
        }
      ],
      "name": "Authorized",
      "type": "event"
    },
    {
      "anonymous": false,
      "inputs": [
        {
          "indexed": false,
          "name": "wlCandidate",
          "type": "address"
        },
        {
          "indexed": false,
          "name": "timestamp",
          "type": "uint256"
        }
      ],
      "name": "Revoked",
      "type": "event"
    },
    {
      "anonymous": false,
      "inputs": [
        {
          "indexed": false,
          "name": "time",
          "type": "uint256"
        },
        {
          "indexed": false,
          "name": "_rate",
          "type": "uint256"
        }
      ],
      "name": "UpdateDollar",
      "type": "event"
    },
    {
      "constant": false,
      "inputs": [
        {
          "name": "newStart1Sale",
          "type": "uint256"
        }
      ],
      "name": "setStartOneSale",
      "outputs": [],
      "payable": false,
      "stateMutability": "nonpayable",
      "type": "function"
    },
    {
      "constant": false,
      "inputs": [
        {
          "name": "newEnd1Sale",
          "type": "uint256"
        }
      ],
      "name": "setEndOneSale",
      "outputs": [],
      "payable": false,
      "stateMutability": "nonpayable",
      "type": "function"
    },
    {
      "constant": false,
      "inputs": [
        {
          "name": "newBackEndOperator",
          "type": "address"
        }
      ],
      "name": "setBackEndAddress",
      "outputs": [],
      "payable": false,
      "stateMutability": "nonpayable",
      "type": "function"
    },
    {
      "constant": false,
      "inputs": [
        {
          "name": "_dollar",
          "type": "uint256"
        }
      ],
      "name": "setBuyPrice",
      "outputs": [],
      "payable": false,
      "stateMutability": "nonpayable",
      "type": "function"
    },
    {
      "constant": false,
      "inputs": [
        {
          "name": "wlCandidate",
          "type": "address"
        }
      ],
      "name": "authorize",
      "outputs": [],
      "payable": false,
      "stateMutability": "nonpayable",
      "type": "function"
    },
    {
      "constant": false,
      "inputs": [
        {
          "name": "wlCandidate",
          "type": "address"
        }
      ],
      "name": "revoke",
      "outputs": [],
      "payable": false,
      "stateMutability": "nonpayable",
      "type": "function"
    },
    {
      "constant": true,
      "inputs": [],
      "name": "isOneStageSale",
      "outputs": [
        {
          "name": "",
          "type": "bool"
        }
      ],
      "payable": false,
      "stateMutability": "view",
      "type": "function"
    },
    {
      "constant": false,
      "inputs": [
        {
          "name": "_to",
          "type": "address"
        },
        {
          "name": "amount",
          "type": "uint256"
        }
      ],
      "name": "transferEthFromContract",
      "outputs": [],
      "payable": false,
      "stateMutability": "nonpayable",
      "type": "function"
    },
    {
      "constant": false,
      "inputs": [],
      "name": "refund1ICO",
      "outputs": [],
      "payable": false,
      "stateMutability": "nonpayable",
      "type": "function"
    }
  ],
  "bytecode": "0x608060405233600260006101000a81548173ffffffffffffffffffffffffffffffffffffffff021916908373ffffffffffffffffffffffffffffffffffffffff160217905550737ede8260e573d3a3ddfc058f19309df5a1f7397e600360006101000a81548173ffffffffffffffffffffffffffffffffffffffff021916908373ffffffffffffffffffffffffffffffffffffffff160217905550730cdb839b52404d49417c8ded6c3e2157a06cdd37600460006101000a81548173ffffffffffffffffffffffffffffffffffffffff021916908373ffffffffffffffffffffffffffffffffffffffff16021790555073c032d3fca001b73e8cc3be0b75772329395caa49600560006101000a81548173ffffffffffffffffffffffffffffffffffffffff021916908373ffffffffffffffffffffffffffffffffffffffff160217905550635bc3d881600855635bee087f60095569d3c21bcecceda1000000600c556a0167fd2f45f5fa5e800000600d5534801561017d57600080fd5b506040516040806118fd8339810180604052810190808051906020019092919080519060200190929190505050336000806101000a81548173ffffffffffffffffffffffffffffffffffffffff021916908373ffffffffffffffffffffffffffffffffffffffff16021790555081600160006101000a81548173ffffffffffffffffffffffffffffffffffffffff021916908373ffffffffffffffffffffffffffffffffffffffff16021790555080600f81905550601a600f5467016345785d8a000081151561024957fe5b0402600e81905550505061169b806102626000396000f300608060405260043610610133576000357c0100000000000000000000000000000000000000000000000000000000900463ffffffff168063050895ff14610222578063274448ff1461027957806331198d19146102d057806340d7b7b81461031d5780635ed9ebfc1461034857806363ae8d6c1461037357806374a8f103146103a057806384722e20146103e35780638620410b1461040e57806387d19b1d146104395780638ac27f5f146104665780638da5cb5b146104915780639b19251a146104e8578063b6a5d7de14610543578063b701dc1414610586578063c151a749146105c9578063cb76b172146105f4578063d9db65471461061f578063da5f838d14610636578063f0c3ffc314610661578063f33a62191461068c578063f45ddfe5146106b9578063fc0c546a146106e8575b61013c3361073f565b151561014757600080fd5b61014f610795565b151561015a57600080fd5b600e54601302341015151561016e57600080fd5b61017833346107b0565b600d546010541115151561018b57600080fd5b6101dd34600760003373ffffffffffffffffffffffffffffffffffffffff1673ffffffffffffffffffffffffffffffffffffffff16815260200190815260200160002054610d5690919063ffffffff16565b600760003373ffffffffffffffffffffffffffffffffffffffff1673ffffffffffffffffffffffffffffffffffffffff16815260200190815260200160002081905550005b34801561022e57600080fd5b50610237610d72565b604051808273ffffffffffffffffffffffffffffffffffffffff1673ffffffffffffffffffffffffffffffffffffffff16815260200191505060405180910390f35b34801561028557600080fd5b506102ba600480360381019080803573ffffffffffffffffffffffffffffffffffffffff169060200190929190505050610d98565b6040518082815260200191505060405180910390f35b3480156102dc57600080fd5b5061031b600480360381019080803573ffffffffffffffffffffffffffffffffffffffff16906020019092919080359060200190929190505050610db0565b005b34801561032957600080fd5b50610332610e56565b6040518082815260200191505060405180910390f35b34801561035457600080fd5b5061035d610e5c565b6040518082815260200191505060405180910390f35b34801561037f57600080fd5b5061039e60048036038101908080359060200190929190505050610e62565b005b3480156103ac57600080fd5b506103e1600480360381019080803573ffffffffffffffffffffffffffffffffffffffff169060200190929190505050610f27565b005b3480156103ef57600080fd5b506103f861105b565b6040518082815260200191505060405180910390f35b34801561041a57600080fd5b50610423611061565b6040518082815260200191505060405180910390f35b34801561044557600080fd5b5061046460048036038101908080359060200190929190505050611067565b005b34801561047257600080fd5b5061047b6110cc565b6040518082815260200191505060405180910390f35b34801561049d57600080fd5b506104a66110d2565b604051808273ffffffffffffffffffffffffffffffffffffffff1673ffffffffffffffffffffffffffffffffffffffff16815260200191505060405180910390f35b3480156104f457600080fd5b50610529600480360381019080803573ffffffffffffffffffffffffffffffffffffffff1690602001909291905050506110f7565b604051808215151515815260200191505060405180910390f35b34801561054f57600080fd5b50610584600480360381019080803573ffffffffffffffffffffffffffffffffffffffff169060200190929190505050611117565b005b34801561059257600080fd5b506105c7600480360381019080803573ffffffffffffffffffffffffffffffffffffffff1690602001909291905050506112f3565b005b3480156105d557600080fd5b506105de611392565b6040518082815260200191505060405180910390f35b34801561060057600080fd5b50610609611398565b6040518082815260200191505060405180910390f35b34801561062b57600080fd5b5061063461139e565b005b34801561064257600080fd5b5061064b6114fa565b6040518082815260200191505060405180910390f35b34801561066d57600080fd5b50610676611500565b6040518082815260200191505060405180910390f35b34801561069857600080fd5b506106b760048036038101908080359060200190929190505050611506565b005b3480156106c557600080fd5b506106ce610795565b604051808215151515815260200191505060405180910390f35b3480156106f457600080fd5b506106fd61156b565b604051808273ffffffffffffffffffffffffffffffffffffffff1673ffffffffffffffffffffffffffffffffffffffff16815260200191505060405180910390f35b6000600660008373ffffffffffffffffffffffffffffffffffffffff1673ffffffffffffffffffffffffffffffffffffffff16815260200190815260200160002060009054906101000a900460ff169050919050565b600060085442101580156107ab57506009544211155b905090565b6000806000806000806107e8600e546107da670de0b6b3a76400008a61159190919063ffffffff16565b6115c990919063ffffffff16565b95506107fe600a876115c990919063ffffffff16565b945061082e6064610820610811896115df565b8961159190919063ffffffff16565b6115c990919063ffffffff16565b9350610855846108478789610d5690919063ffffffff16565b610d5690919063ffffffff16565b9550600160009054906101000a900473ffffffffffffffffffffffffffffffffffffffff1673ffffffffffffffffffffffffffffffffffffffff16633aa0396a89886040518363ffffffff167c0100000000000000000000000000000000000000000000000000000000028152600401808373ffffffffffffffffffffffffffffffffffffffff1673ffffffffffffffffffffffffffffffffffffffff16815260200182815260200192505050602060405180830381600087803b15801561091c57600080fd5b505af1158015610930573d6000803e3d6000fd5b505050506040513d602081101561094657600080fd5b81019080805190602001909291905050505061096d86601054610d5690919063ffffffff16565b60108190555061099a601461098c600b8961159190919063ffffffff16565b6115c990919063ffffffff16565b9250600160009054906101000a900473ffffffffffffffffffffffffffffffffffffffff1673ffffffffffffffffffffffffffffffffffffffff16633aa0396a600360009054906101000a900473ffffffffffffffffffffffffffffffffffffffff16856040518363ffffffff167c0100000000000000000000000000000000000000000000000000000000028152600401808373ffffffffffffffffffffffffffffffffffffffff1673ffffffffffffffffffffffffffffffffffffffff16815260200182815260200192505050602060405180830381600087803b158015610a8357600080fd5b505af1158015610a97573d6000803e3d6000fd5b505050506040513d6020811015610aad57600080fd5b810190808051906020019092919050505050610ad3601e876115c990919063ffffffff16565b9150600160009054906101000a900473ffffffffffffffffffffffffffffffffffffffff1673ffffffffffffffffffffffffffffffffffffffff16633aa0396a600460009054906101000a900473ffffffffffffffffffffffffffffffffffffffff16846040518363ffffffff167c0100000000000000000000000000000000000000000000000000000000028152600401808373ffffffffffffffffffffffffffffffffffffffff1673ffffffffffffffffffffffffffffffffffffffff16815260200182815260200192505050602060405180830381600087803b158015610bbc57600080fd5b505af1158015610bd0573d6000803e3d6000fd5b505050506040513d6020811015610be657600080fd5b810190808051906020019092919050505050610c0c600c876115c990919063ffffffff16565b9050600160009054906101000a900473ffffffffffffffffffffffffffffffffffffffff1673ffffffffffffffffffffffffffffffffffffffff16633aa0396a600560009054906101000a900473ffffffffffffffffffffffffffffffffffffffff16836040518363ffffffff167c0100000000000000000000000000000000000000000000000000000000028152600401808373ffffffffffffffffffffffffffffffffffffffff1673ffffffffffffffffffffffffffffffffffffffff16815260200182815260200192505050602060405180830381600087803b158015610cf557600080fd5b505af1158015610d09573d6000803e3d6000fd5b505050506040513d6020811015610d1f57600080fd5b810190808051906020019092919050505050610d4687600b54610d5690919063ffffffff16565b600b819055505050505050505050565b60008183019050828110151515610d6957fe5b80905092915050565b600260009054906101000a900473ffffffffffffffffffffffffffffffffffffffff1681565b60076020528060005260406000206000915090505481565b6000809054906101000a900473ffffffffffffffffffffffffffffffffffffffff1673ffffffffffffffffffffffffffffffffffffffff163373ffffffffffffffffffffffffffffffffffffffff16141515610e0b57600080fd5b8173ffffffffffffffffffffffffffffffffffffffff166108fc829081150290604051600060405180830381858888f19350505050158015610e51573d6000803e3d6000fd5b505050565b600f5481565b60105481565b6000809054906101000a900473ffffffffffffffffffffffffffffffffffffffff1673ffffffffffffffffffffffffffffffffffffffff163373ffffffffffffffffffffffffffffffffffffffff16141515610ebd57600080fd5b80600f81905550601a600f5467016345785d8a0000811515610edb57fe5b0402600e819055507f8e5d322ef7050e99e3845ad9d8b2608b9512de19853d4215b71b7a4ee2993d4f42600f54604051808381526020018281526020019250505060405180910390a150565b6000809054906101000a900473ffffffffffffffffffffffffffffffffffffffff1673ffffffffffffffffffffffffffffffffffffffff163373ffffffffffffffffffffffffffffffffffffffff16141515610f8257600080fd5b6000600660008373ffffffffffffffffffffffffffffffffffffffff1673ffffffffffffffffffffffffffffffffffffffff16815260200190815260200160002060006101000a81548160ff021916908315150217905550600a60008154809291906001900391905055507f713b90881ad62c4fa8ab6bd9197fa86481fc0c11b2edba60026514281b2dbac48142604051808373ffffffffffffffffffffffffffffffffffffffff1673ffffffffffffffffffffffffffffffffffffffff1681526020018281526020019250505060405180910390a150565b600c5481565b600e5481565b6000809054906101000a900473ffffffffffffffffffffffffffffffffffffffff1673ffffffffffffffffffffffffffffffffffffffff163373ffffffffffffffffffffffffffffffffffffffff161415156110c257600080fd5b8060098190555050565b600a5481565b6000809054906101000a900473ffffffffffffffffffffffffffffffffffffffff1681565b60066020528060005260406000206000915054906101000a900460ff1681565b600260009054906101000a900473ffffffffffffffffffffffffffffffffffffffff1673ffffffffffffffffffffffffffffffffffffffff163373ffffffffffffffffffffffffffffffffffffffff1614806111bf57506000809054906101000a900473ffffffffffffffffffffffffffffffffffffffff1673ffffffffffffffffffffffffffffffffffffffff163373ffffffffffffffffffffffffffffffffffffffff16145b15156111ca57600080fd5b600073ffffffffffffffffffffffffffffffffffffffff168173ffffffffffffffffffffffffffffffffffffffff161415151561120657600080fd5b61120f8161073f565b15151561121b57600080fd5b6001600660008373ffffffffffffffffffffffffffffffffffffffff1673ffffffffffffffffffffffffffffffffffffffff16815260200190815260200160002060006101000a81548160ff021916908315150217905550600a600081548092919060010191905055507fb39b5f240c7440b58c1c6cfd328b09ff9aa18b3c8ef4b829774e4f5bad0394168142604051808373ffffffffffffffffffffffffffffffffffffffff1673ffffffffffffffffffffffffffffffffffffffff1681526020018281526020019250505060405180910390a150565b6000809054906101000a900473ffffffffffffffffffffffffffffffffffffffff1673ffffffffffffffffffffffffffffffffffffffff163373ffffffffffffffffffffffffffffffffffffffff1614151561134e57600080fd5b80600260006101000a81548173ffffffffffffffffffffffffffffffffffffffff021916908373ffffffffffffffffffffffffffffffffffffffff16021790555050565b60095481565b600d5481565b6000600c546010541080156113b4575060095442115b15156113bf57600080fd5b600760003373ffffffffffffffffffffffffffffffffffffffff1673ffffffffffffffffffffffffffffffffffffffff1681526020019081526020016000205490506000600760003373ffffffffffffffffffffffffffffffffffffffff1673ffffffffffffffffffffffffffffffffffffffff168152602001908152602001600020541015151561145057600080fd5b6000600760003373ffffffffffffffffffffffffffffffffffffffff1673ffffffffffffffffffffffffffffffffffffffff168152602001908152602001600020819055503373ffffffffffffffffffffffffffffffffffffffff166108fc829081150290604051600060405180830381858888f193505050501580156114db573d6000803e3d6000fd5b506114f181600b5461165690919063ffffffff16565b600b8190555050565b600b5481565b60085481565b6000809054906101000a900473ffffffffffffffffffffffffffffffffffffffff1673ffffffffffffffffffffffffffffffffffffffff163373ffffffffffffffffffffffffffffffffffffffff1614151561156157600080fd5b8060088190555050565b600160009054906101000a900473ffffffffffffffffffffffffffffffffffffffff1681565b6000808314156115a457600090506115c3565b81830290508183828115156115b557fe5b041415156115bf57fe5b8090505b92915050565b600081838115156115d657fe5b04905092915050565b600069104a0112507a9d0c00008211156115fc57600a9050611651565b69041275dc0b17e9b800008211156116175760079050611651565b6901a0fbf19e0990b000008211156116325760059050611651565b68683efc6782642c000082111561164c5760039050611651565b600090505b919050565b600082821115151561166457fe5b8183039050929150505600a165627a7a7230582026d43bcc058444d7b86d900d249b04b24b0e9eebbb95d363e7bb4cf9bd8a98130029",
  "source": "pragma solidity ^0.4.23;\n\n/*** @title SafeMath\n * @dev https://github.com/OpenZeppelin/openzeppelin-solidity/blob/master/contracts/math/SafeMath.sol */\nlibrary SafeMath {\n\n    function mul(uint256 a, uint256 b) internal pure returns (uint256 c) {\n        if (a == 0) {\n            return 0;\n        }\n        c = a * b;\n        assert(c / a == b);\n        return c;\n    }\n\n    function div(uint256 a, uint256 b) internal pure returns (uint256) {\n        return a / b;\n    }\n\n    function sub(uint256 a, uint256 b) internal pure returns (uint256) {\n        assert(b <= a);\n        return a - b;\n    }\n\n    function add(uint256 a, uint256 b) internal pure returns (uint256 c) {\n        c = a + b;\n        assert(c >= a);\n        return c;\n    }\n}\n\ninterface ERC20 {\n    function transfer (address _beneficiary, uint256 _tokenAmount) external returns (bool);\n    function mintFromICO(address _to, uint256 _amount) external  returns(bool);\n}\n/**\n * @title Ownable\n * @dev https://github.com/OpenZeppelin/openzeppelin-solidity/blob/master/contracts/ownership/Ownable.sol\n */\ncontract Ownable {\n    address public owner;\n\n    constructor() public {\n        owner = msg.sender;\n    }\n\n    modifier onlyOwner() {\n        require(msg.sender == owner);\n        _;\n    }\n}\n\n/**\n * @title CrowdSale\n * @dev https://github.com/\n */\ncontract OneStageMainSale is Ownable {\n\n    ERC20 public token;\n\n    using SafeMath for uint;\n\n    address public backEndOperator = msg.sender;\n    address team = 0x7eDE8260e573d3A3dDfc058f19309DF5a1f7397E; // 33% - team и ранние инвесторы проекта\n    address bounty = 0x0cdb839B52404d49417C8Ded6c3E2157A06CdD37; // 2% - для баунти программы\n    address reserve = 0xC032D3fCA001b73e8cC3be0B75772329395caA49; // 5%  - для резерва\n\n    mapping(address=>bool) public whitelist;\n\n    mapping(address => uint256) public investedEther;\n\n    uint256 public start1StageSale = 1539561601; // Monday, 15-Oct-18 00:00:01 UTC\n    uint256 public end1StageSale = 1542326399; // Thursday, 15-Nov-18 23:59:59 UTC\n\n    uint256 public investors; // общее количество инвесторов\n    uint256 public weisRaised; // общее колиество собранных Ether\n\n    uint256 public softCap1Stage = 1000000*1e18; // $2,600,000 = 1,000,000 INM\n    uint256 public hardCap1Stage = 1700000*1e18; // 1,700,000 INM = $4,420,000 USD\n\n    uint256 public buyPrice; // 2.6 USD\n    uint256 public dollarPrice; // Ether by USD\n\n    uint256 public soldTokens; // solded tokens - > 1,700,000 INM\n\n    event Authorized(address wlCandidate, uint timestamp);\n    event Revoked(address wlCandidate, uint timestamp);\n    event UpdateDollar(uint256 time, uint256 _rate);\n\n    modifier backEnd() {\n        require(msg.sender == backEndOperator || msg.sender == owner);\n        _;\n    }\n\n    // конструктор контракта\n    constructor(ERC20 _token, uint256 usdETH) public {\n        token = _token;\n        dollarPrice = usdETH;\n        buyPrice = (1e17/dollarPrice)*26; // 2.60 usd\n    }\n\n    // изменение даты начала предварительной распродажи\n    function setStartOneSale(uint256 newStart1Sale) public onlyOwner {\n        start1StageSale = newStart1Sale;\n    }\n\n    // изменение даты окончания предварительной распродажи\n    function setEndOneSale(uint256 newEnd1Sale) public onlyOwner {\n        end1StageSale = newEnd1Sale;\n    }\n\n    // Изменение адреса оператора бекэнда\n    function setBackEndAddress(address newBackEndOperator) public onlyOwner {\n        backEndOperator = newBackEndOperator;\n    }\n\n    // Изменение курса доллра к эфиру\n    function setBuyPrice(uint256 _dollar) public onlyOwner {\n        dollarPrice = _dollar;\n        buyPrice = (1e17/dollarPrice)*26; // 2.60 usd\n        emit UpdateDollar(now, dollarPrice);\n    }\n\n    /*******************************************************************************\n     * Whitelist's section\n     */\n    // с сайта backEndOperator авторизует инвестора\n    function authorize(address wlCandidate) public backEnd  {\n        require(wlCandidate != address(0x0));\n        require(!isWhitelisted(wlCandidate));\n        whitelist[wlCandidate] = true;\n        investors++;\n        emit Authorized(wlCandidate, now);\n    }\n\n    // отмена авторизации инвестора в WL(только владелец контракта)\n    function revoke(address wlCandidate) public  onlyOwner {\n        whitelist[wlCandidate] = false;\n        investors--;\n        emit Revoked(wlCandidate, now);\n    }\n\n    // проверка на нахождение адреса инвестора в WL\n    function isWhitelisted(address wlCandidate) internal view returns(bool) {\n        return whitelist[wlCandidate];\n    }\n\n    /*******************************************************************************\n     * Payable's section\n     */\n\n    function isOneStageSale() public constant returns(bool) {\n        return now >= start1StageSale && now <= end1StageSale;\n    }\n\n    // callback функция контракта\n    function () public payable {\n        require(isWhitelisted(msg.sender));\n        require(isOneStageSale());\n        require(msg.value >= 19*buyPrice); // ~ 50 USD\n        SaleOneStage(msg.sender, msg.value);\n        require(soldTokens<=hardCap1Stage);\n        investedEther[msg.sender] = investedEther[msg.sender].add(msg.value);\n    }\n\n    // выпуск токенов в период предварительной распродажи\n    function SaleOneStage(address _investor, uint256 _value) internal {\n        uint256 tokens = _value.mul(1e18).div(buyPrice);\n        uint256 tokensByDate = tokens.div(10);\n        uint256 bonusSumTokens = tokens.mul(bonusSum(tokens)).div(100);\n        tokens = tokens.add(tokensByDate).add(bonusSumTokens); // 60%\n        token.mintFromICO(_investor, tokens);\n        soldTokens = soldTokens.add(tokens);\n\n        uint256 tokensTeam = tokens.mul(11).div(20); // 33 %\n        token.mintFromICO(team, tokensTeam);\n\n        uint256 tokensBoynty = tokens.div(30); // 2 %\n        token.mintFromICO(bounty, tokensBoynty);\n\n        uint256 tokensReserve = tokens.div(12);  // 5 %\n        token.mintFromICO(reserve, tokensReserve);\n\n        weisRaised = weisRaised.add(_value);\n    }\n\n    function bonusSum(uint256 _amount) pure private returns(uint256) {\n        if (_amount > 76923*1e18) { // 200k+\t10% INMCoin\n            return 10;\n        } else if (_amount > 19230*1e18) { // 50k - 200k\t7% INMCoin\n            return 7;\n        } else if (_amount > 7692*1e18) { // 20k - 50k\t5% INMCoin\n            return 5;\n        } else if (_amount > 1923*1e18) { // 5k - 20k\t3% INMCoin\n            return 3;\n        } else {\n            return 0;\n        }\n    }\n\n    // Отправка эфира с контракта\n    function transferEthFromContract(address _to, uint256 amount) public onlyOwner {\n        _to.transfer(amount);\n    }\n\n    /*******************************************************************************\n     * Refundable\n     */\n    function refund1ICO() public {\n        require(soldTokens < softCap1Stage && now > end1StageSale);\n        uint rate = investedEther[msg.sender];\n        require(investedEther[msg.sender] >= 0);\n        investedEther[msg.sender] = 0;\n        msg.sender.transfer(rate);\n        weisRaised = weisRaised.sub(rate);\n    }\n}",
  "sourcePath": "/Users/ivanborisov/Yandex.Disk.localized/IT/WorkProjects/Portfolio/Innovative Minerals/contracts/ICO_stage1.sol",
  "compiler": {
    "name": "solc",
    "version": "0.4.24+commit.e67f0147.Emscripten.clang"
  },
  "schemaVersion": "2.0.0",
  "updatedAt": "2018-06-19T12:19:32.683Z"
}