{
  "contractName": "PreICOSale",
  "abi": [
    {
      "constant": true,
      "inputs": [],
      "name": "backEndOperator",
      "outputs": [
        {
          "name": "",
          "type": "address"
        }
      ],
      "payable": false,
      "stateMutability": "view",
      "type": "function"
    },
    {
      "constant": true,
      "inputs": [
        {
          "name": "",
          "type": "address"
        }
      ],
      "name": "investedEther",
      "outputs": [
        {
          "name": "",
          "type": "uint256"
        }
      ],
      "payable": false,
      "stateMutability": "view",
      "type": "function"
    },
    {
      "constant": true,
      "inputs": [],
      "name": "dollarPrice",
      "outputs": [
        {
          "name": "",
          "type": "uint256"
        }
      ],
      "payable": false,
      "stateMutability": "view",
      "type": "function"
    },
    {
      "constant": true,
      "inputs": [],
      "name": "startPreSale",
      "outputs": [
        {
          "name": "",
          "type": "uint256"
        }
      ],
      "payable": false,
      "stateMutability": "view",
      "type": "function"
    },
    {
      "constant": true,
      "inputs": [],
      "name": "soldTokens",
      "outputs": [
        {
          "name": "",
          "type": "uint256"
        }
      ],
      "payable": false,
      "stateMutability": "view",
      "type": "function"
    },
    {
      "constant": true,
      "inputs": [],
      "name": "buyPrice",
      "outputs": [
        {
          "name": "",
          "type": "uint256"
        }
      ],
      "payable": false,
      "stateMutability": "view",
      "type": "function"
    },
    {
      "constant": true,
      "inputs": [],
      "name": "investors",
      "outputs": [
        {
          "name": "",
          "type": "uint256"
        }
      ],
      "payable": false,
      "stateMutability": "view",
      "type": "function"
    },
    {
      "constant": true,
      "inputs": [],
      "name": "owner",
      "outputs": [
        {
          "name": "",
          "type": "address"
        }
      ],
      "payable": false,
      "stateMutability": "view",
      "type": "function"
    },
    {
      "constant": true,
      "inputs": [
        {
          "name": "",
          "type": "address"
        }
      ],
      "name": "whitelist",
      "outputs": [
        {
          "name": "",
          "type": "bool"
        }
      ],
      "payable": false,
      "stateMutability": "view",
      "type": "function"
    },
    {
      "constant": true,
      "inputs": [],
      "name": "weisRaised",
      "outputs": [
        {
          "name": "",
          "type": "uint256"
        }
      ],
      "payable": false,
      "stateMutability": "view",
      "type": "function"
    },
    {
      "constant": true,
      "inputs": [],
      "name": "softCapPreSale",
      "outputs": [
        {
          "name": "",
          "type": "uint256"
        }
      ],
      "payable": false,
      "stateMutability": "view",
      "type": "function"
    },
    {
      "constant": true,
      "inputs": [],
      "name": "endPreSale",
      "outputs": [
        {
          "name": "",
          "type": "uint256"
        }
      ],
      "payable": false,
      "stateMutability": "view",
      "type": "function"
    },
    {
      "constant": true,
      "inputs": [],
      "name": "hardCapPreSale",
      "outputs": [
        {
          "name": "",
          "type": "uint256"
        }
      ],
      "payable": false,
      "stateMutability": "view",
      "type": "function"
    },
    {
      "constant": true,
      "inputs": [],
      "name": "token",
      "outputs": [
        {
          "name": "",
          "type": "address"
        }
      ],
      "payable": false,
      "stateMutability": "view",
      "type": "function"
    },
    {
      "inputs": [
        {
          "name": "_token",
          "type": "address"
        },
        {
          "name": "usdETH",
          "type": "uint256"
        }
      ],
      "payable": false,
      "stateMutability": "nonpayable",
      "type": "constructor"
    },
    {
      "payable": true,
      "stateMutability": "payable",
      "type": "fallback"
    },
    {
      "anonymous": false,
      "inputs": [
        {
          "indexed": false,
          "name": "wlCandidate",
          "type": "address"
        },
        {
          "indexed": false,
          "name": "timestamp",
          "type": "uint256"
        }
      ],
      "name": "Authorized",
      "type": "event"
    },
    {
      "anonymous": false,
      "inputs": [
        {
          "indexed": false,
          "name": "wlCandidate",
          "type": "address"
        },
        {
          "indexed": false,
          "name": "timestamp",
          "type": "uint256"
        }
      ],
      "name": "Revoked",
      "type": "event"
    },
    {
      "anonymous": false,
      "inputs": [
        {
          "indexed": false,
          "name": "time",
          "type": "uint256"
        },
        {
          "indexed": false,
          "name": "_rate",
          "type": "uint256"
        }
      ],
      "name": "UpdateDollar",
      "type": "event"
    },
    {
      "constant": false,
      "inputs": [
        {
          "name": "newStartPreSale",
          "type": "uint256"
        }
      ],
      "name": "setStartPreSale",
      "outputs": [],
      "payable": false,
      "stateMutability": "nonpayable",
      "type": "function"
    },
    {
      "constant": false,
      "inputs": [
        {
          "name": "newEndPreSale",
          "type": "uint256"
        }
      ],
      "name": "setEndPreSale",
      "outputs": [],
      "payable": false,
      "stateMutability": "nonpayable",
      "type": "function"
    },
    {
      "constant": false,
      "inputs": [
        {
          "name": "newBackEndOperator",
          "type": "address"
        }
      ],
      "name": "setBackEndAddress",
      "outputs": [],
      "payable": false,
      "stateMutability": "nonpayable",
      "type": "function"
    },
    {
      "constant": false,
      "inputs": [
        {
          "name": "_dollar",
          "type": "uint256"
        }
      ],
      "name": "setBuyPrice",
      "outputs": [],
      "payable": false,
      "stateMutability": "nonpayable",
      "type": "function"
    },
    {
      "constant": false,
      "inputs": [
        {
          "name": "wlCandidate",
          "type": "address"
        }
      ],
      "name": "authorize",
      "outputs": [],
      "payable": false,
      "stateMutability": "nonpayable",
      "type": "function"
    },
    {
      "constant": false,
      "inputs": [
        {
          "name": "wlCandidate",
          "type": "address"
        }
      ],
      "name": "revoke",
      "outputs": [],
      "payable": false,
      "stateMutability": "nonpayable",
      "type": "function"
    },
    {
      "constant": true,
      "inputs": [],
      "name": "isPreSale",
      "outputs": [
        {
          "name": "",
          "type": "bool"
        }
      ],
      "payable": false,
      "stateMutability": "view",
      "type": "function"
    },
    {
      "constant": false,
      "inputs": [
        {
          "name": "_to",
          "type": "address"
        },
        {
          "name": "amount",
          "type": "uint256"
        }
      ],
      "name": "transferEthFromContract",
      "outputs": [],
      "payable": false,
      "stateMutability": "nonpayable",
      "type": "function"
    },
    {
      "constant": false,
      "inputs": [],
      "name": "refundPreICO",
      "outputs": [],
      "payable": false,
      "stateMutability": "nonpayable",
      "type": "function"
    }
  ],
  "bytecode": "0x608060405233600260006101000a81548173ffffffffffffffffffffffffffffffffffffffff021916908373ffffffffffffffffffffffffffffffffffffffff160217905550737ede8260e573d3a3ddfc058f19309df5a1f7397e600360006101000a81548173ffffffffffffffffffffffffffffffffffffffff021916908373ffffffffffffffffffffffffffffffffffffffff160217905550730cdb839b52404d49417c8ded6c3e2157a06cdd37600460006101000a81548173ffffffffffffffffffffffffffffffffffffffff021916908373ffffffffffffffffffffffffffffffffffffffff16021790555073c032d3fca001b73e8cc3be0b75772329395caa49600560006101000a81548173ffffffffffffffffffffffffffffffffffffffff021916908373ffffffffffffffffffffffffffffffffffffffff160217905550635b4be001600855635b760fff600955691e405902b9e081e80000600c55693f870857a3e0e3800000600d5534801561017c57600080fd5b5060405160408061190f8339810180604052810190808051906020019092919080519060200190929190505050336000806101000a81548173ffffffffffffffffffffffffffffffffffffffff021916908373ffffffffffffffffffffffffffffffffffffffff16021790555081600160006101000a81548173ffffffffffffffffffffffffffffffffffffffff021916908373ffffffffffffffffffffffffffffffffffffffff16021790555080600f819055506015600f5467016345785d8a000081151561024857fe5b0402600e8190555050506116ae806102616000396000f300608060405260043610610133576000357c0100000000000000000000000000000000000000000000000000000000900463ffffffff168063050895ff14610222578063274448ff1461027957806331198d19146102d0578063384a64941461031d57806340d7b7b81461034a5780634ced47341461037557806355dd574c146103a45780635ed9ebfc146103cf57806363ae8d6c146103fa57806374a8f103146104275780638620410b1461046a5780638ac27f5f146104955780638da5cb5b146104c05780639b19251a14610517578063b6a5d7de14610572578063b701dc14146105b5578063da5f838d146105f8578063e046254714610623578063e591253c14610650578063eb2ff2d214610667578063ee889ed014610692578063f7e4a4a9146106bd578063fc0c546a146106e8575b61013c3361073f565b151561014757600080fd5b61014f610795565b151561015a57600080fd5b600e54601702341015151561016e57600080fd5b61017833346107b0565b600d546010541115151561018b57600080fd5b6101dd34600760003373ffffffffffffffffffffffffffffffffffffffff1673ffffffffffffffffffffffffffffffffffffffff16815260200190815260200160002054610d6990919063ffffffff16565b600760003373ffffffffffffffffffffffffffffffffffffffff1673ffffffffffffffffffffffffffffffffffffffff16815260200190815260200160002081905550005b34801561022e57600080fd5b50610237610d85565b604051808273ffffffffffffffffffffffffffffffffffffffff1673ffffffffffffffffffffffffffffffffffffffff16815260200191505060405180910390f35b34801561028557600080fd5b506102ba600480360381019080803573ffffffffffffffffffffffffffffffffffffffff169060200190929190505050610dab565b6040518082815260200191505060405180910390f35b3480156102dc57600080fd5b5061031b600480360381019080803573ffffffffffffffffffffffffffffffffffffffff16906020019092919080359060200190929190505050610dc3565b005b34801561032957600080fd5b5061034860048036038101908080359060200190929190505050610e69565b005b34801561035657600080fd5b5061035f610ece565b6040518082815260200191505060405180910390f35b34801561038157600080fd5b5061038a610795565b604051808215151515815260200191505060405180910390f35b3480156103b057600080fd5b506103b9610ed4565b6040518082815260200191505060405180910390f35b3480156103db57600080fd5b506103e4610eda565b6040518082815260200191505060405180910390f35b34801561040657600080fd5b5061042560048036038101908080359060200190929190505050610ee0565b005b34801561043357600080fd5b50610468600480360381019080803573ffffffffffffffffffffffffffffffffffffffff169060200190929190505050610fa5565b005b34801561047657600080fd5b5061047f6110d9565b6040518082815260200191505060405180910390f35b3480156104a157600080fd5b506104aa6110df565b6040518082815260200191505060405180910390f35b3480156104cc57600080fd5b506104d56110e5565b604051808273ffffffffffffffffffffffffffffffffffffffff1673ffffffffffffffffffffffffffffffffffffffff16815260200191505060405180910390f35b34801561052357600080fd5b50610558600480360381019080803573ffffffffffffffffffffffffffffffffffffffff16906020019092919050505061110a565b604051808215151515815260200191505060405180910390f35b34801561057e57600080fd5b506105b3600480360381019080803573ffffffffffffffffffffffffffffffffffffffff16906020019092919050505061112a565b005b3480156105c157600080fd5b506105f6600480360381019080803573ffffffffffffffffffffffffffffffffffffffff169060200190929190505050611306565b005b34801561060457600080fd5b5061060d6113a5565b6040518082815260200191505060405180910390f35b34801561062f57600080fd5b5061064e600480360381019080803590602001909291905050506113ab565b005b34801561065c57600080fd5b50610665611410565b005b34801561067357600080fd5b5061067c61156c565b6040518082815260200191505060405180910390f35b34801561069e57600080fd5b506106a7611572565b6040518082815260200191505060405180910390f35b3480156106c957600080fd5b506106d2611578565b6040518082815260200191505060405180910390f35b3480156106f457600080fd5b506106fd61157e565b604051808273ffffffffffffffffffffffffffffffffffffffff1673ffffffffffffffffffffffffffffffffffffffff16815260200191505060405180910390f35b6000600660008373ffffffffffffffffffffffffffffffffffffffff1673ffffffffffffffffffffffffffffffffffffffff16815260200190815260200160002060009054906101000a900460ff169050919050565b600060085442101580156107ab57506009544211155b905090565b6000806000806000806107e8600e546107da670de0b6b3a76400008a6115a490919063ffffffff16565b6115dc90919063ffffffff16565b95506108116064610803600f896115a490919063ffffffff16565b6115dc90919063ffffffff16565b94506108416064610833610824896115f2565b896115a490919063ffffffff16565b6115dc90919063ffffffff16565b93506108688461085a8789610d6990919063ffffffff16565b610d6990919063ffffffff16565b9550600160009054906101000a900473ffffffffffffffffffffffffffffffffffffffff1673ffffffffffffffffffffffffffffffffffffffff16633aa0396a89886040518363ffffffff167c0100000000000000000000000000000000000000000000000000000000028152600401808373ffffffffffffffffffffffffffffffffffffffff1673ffffffffffffffffffffffffffffffffffffffff16815260200182815260200192505050602060405180830381600087803b15801561092f57600080fd5b505af1158015610943573d6000803e3d6000fd5b505050506040513d602081101561095957600080fd5b81019080805190602001909291905050505061098086601054610d6990919063ffffffff16565b6010819055506109ad601461099f600b896115a490919063ffffffff16565b6115dc90919063ffffffff16565b9250600160009054906101000a900473ffffffffffffffffffffffffffffffffffffffff1673ffffffffffffffffffffffffffffffffffffffff16633aa0396a600360009054906101000a900473ffffffffffffffffffffffffffffffffffffffff16856040518363ffffffff167c0100000000000000000000000000000000000000000000000000000000028152600401808373ffffffffffffffffffffffffffffffffffffffff1673ffffffffffffffffffffffffffffffffffffffff16815260200182815260200192505050602060405180830381600087803b158015610a9657600080fd5b505af1158015610aaa573d6000803e3d6000fd5b505050506040513d6020811015610ac057600080fd5b810190808051906020019092919050505050610ae6601e876115dc90919063ffffffff16565b9150600160009054906101000a900473ffffffffffffffffffffffffffffffffffffffff1673ffffffffffffffffffffffffffffffffffffffff16633aa0396a600460009054906101000a900473ffffffffffffffffffffffffffffffffffffffff16846040518363ffffffff167c0100000000000000000000000000000000000000000000000000000000028152600401808373ffffffffffffffffffffffffffffffffffffffff1673ffffffffffffffffffffffffffffffffffffffff16815260200182815260200192505050602060405180830381600087803b158015610bcf57600080fd5b505af1158015610be3573d6000803e3d6000fd5b505050506040513d6020811015610bf957600080fd5b810190808051906020019092919050505050610c1f600c876115dc90919063ffffffff16565b9050600160009054906101000a900473ffffffffffffffffffffffffffffffffffffffff1673ffffffffffffffffffffffffffffffffffffffff16633aa0396a600560009054906101000a900473ffffffffffffffffffffffffffffffffffffffff16836040518363ffffffff167c0100000000000000000000000000000000000000000000000000000000028152600401808373ffffffffffffffffffffffffffffffffffffffff1673ffffffffffffffffffffffffffffffffffffffff16815260200182815260200192505050602060405180830381600087803b158015610d0857600080fd5b505af1158015610d1c573d6000803e3d6000fd5b505050506040513d6020811015610d3257600080fd5b810190808051906020019092919050505050610d5987600b54610d6990919063ffffffff16565b600b819055505050505050505050565b60008183019050828110151515610d7c57fe5b80905092915050565b600260009054906101000a900473ffffffffffffffffffffffffffffffffffffffff1681565b60076020528060005260406000206000915090505481565b6000809054906101000a900473ffffffffffffffffffffffffffffffffffffffff1673ffffffffffffffffffffffffffffffffffffffff163373ffffffffffffffffffffffffffffffffffffffff16141515610e1e57600080fd5b8173ffffffffffffffffffffffffffffffffffffffff166108fc829081150290604051600060405180830381858888f19350505050158015610e64573d6000803e3d6000fd5b505050565b6000809054906101000a900473ffffffffffffffffffffffffffffffffffffffff1673ffffffffffffffffffffffffffffffffffffffff163373ffffffffffffffffffffffffffffffffffffffff16141515610ec457600080fd5b8060088190555050565b600f5481565b60085481565b60105481565b6000809054906101000a900473ffffffffffffffffffffffffffffffffffffffff1673ffffffffffffffffffffffffffffffffffffffff163373ffffffffffffffffffffffffffffffffffffffff16141515610f3b57600080fd5b80600f819055506015600f5467016345785d8a0000811515610f5957fe5b0402600e819055507f8e5d322ef7050e99e3845ad9d8b2608b9512de19853d4215b71b7a4ee2993d4f42600f54604051808381526020018281526020019250505060405180910390a150565b6000809054906101000a900473ffffffffffffffffffffffffffffffffffffffff1673ffffffffffffffffffffffffffffffffffffffff163373ffffffffffffffffffffffffffffffffffffffff1614151561100057600080fd5b6000600660008373ffffffffffffffffffffffffffffffffffffffff1673ffffffffffffffffffffffffffffffffffffffff16815260200190815260200160002060006101000a81548160ff021916908315150217905550600a60008154809291906001900391905055507f713b90881ad62c4fa8ab6bd9197fa86481fc0c11b2edba60026514281b2dbac48142604051808373ffffffffffffffffffffffffffffffffffffffff1673ffffffffffffffffffffffffffffffffffffffff1681526020018281526020019250505060405180910390a150565b600e5481565b600a5481565b6000809054906101000a900473ffffffffffffffffffffffffffffffffffffffff1681565b60066020528060005260406000206000915054906101000a900460ff1681565b600260009054906101000a900473ffffffffffffffffffffffffffffffffffffffff1673ffffffffffffffffffffffffffffffffffffffff163373ffffffffffffffffffffffffffffffffffffffff1614806111d257506000809054906101000a900473ffffffffffffffffffffffffffffffffffffffff1673ffffffffffffffffffffffffffffffffffffffff163373ffffffffffffffffffffffffffffffffffffffff16145b15156111dd57600080fd5b600073ffffffffffffffffffffffffffffffffffffffff168173ffffffffffffffffffffffffffffffffffffffff161415151561121957600080fd5b6112228161073f565b15151561122e57600080fd5b6001600660008373ffffffffffffffffffffffffffffffffffffffff1673ffffffffffffffffffffffffffffffffffffffff16815260200190815260200160002060006101000a81548160ff021916908315150217905550600a600081548092919060010191905055507fb39b5f240c7440b58c1c6cfd328b09ff9aa18b3c8ef4b829774e4f5bad0394168142604051808373ffffffffffffffffffffffffffffffffffffffff1673ffffffffffffffffffffffffffffffffffffffff1681526020018281526020019250505060405180910390a150565b6000809054906101000a900473ffffffffffffffffffffffffffffffffffffffff1673ffffffffffffffffffffffffffffffffffffffff163373ffffffffffffffffffffffffffffffffffffffff1614151561136157600080fd5b80600260006101000a81548173ffffffffffffffffffffffffffffffffffffffff021916908373ffffffffffffffffffffffffffffffffffffffff16021790555050565b600b5481565b6000809054906101000a900473ffffffffffffffffffffffffffffffffffffffff1673ffffffffffffffffffffffffffffffffffffffff163373ffffffffffffffffffffffffffffffffffffffff1614151561140657600080fd5b8060098190555050565b6000600c54601054108015611426575060095442115b151561143157600080fd5b600760003373ffffffffffffffffffffffffffffffffffffffff1673ffffffffffffffffffffffffffffffffffffffff1681526020019081526020016000205490506000600760003373ffffffffffffffffffffffffffffffffffffffff1673ffffffffffffffffffffffffffffffffffffffff16815260200190815260200160002054101515156114c257600080fd5b6000600760003373ffffffffffffffffffffffffffffffffffffffff1673ffffffffffffffffffffffffffffffffffffffff168152602001908152602001600020819055503373ffffffffffffffffffffffffffffffffffffffff166108fc829081150290604051600060405180830381858888f1935050505015801561154d573d6000803e3d6000fd5b5061156381600b5461166990919063ffffffff16565b600b8190555050565b600c5481565b60095481565b600d5481565b600160009054906101000a900473ffffffffffffffffffffffffffffffffffffffff1681565b6000808314156115b757600090506115d6565b81830290508183828115156115c857fe5b041415156115d257fe5b8090505b92915050565b600081838115156115e957fe5b04905092915050565b600069142adcc157733c58000082111561160f57600a9050611664565b69050ab03ffa82fb64000082111561162a5760079050611664565b6902043e2c5cfbccec00008211156116455760059050611664565b688105228e3835b0000082111561165f5760039050611664565b600090505b919050565b600082821115151561167757fe5b8183039050929150505600a165627a7a7230582053d4ddab1b7ebc9d293d023c9e57803dffe98965c84dbcd35f25c4d4585bd5d40029",
  "source": "pragma solidity ^0.4.23;\n\n/*** @title SafeMath\n * @dev https://github.com/OpenZeppelin/openzeppelin-solidity/blob/master/contracts/math/SafeMath.sol */\nlibrary SafeMath {\n\n    function mul(uint256 a, uint256 b) internal pure returns (uint256 c) {\n        if (a == 0) {\n            return 0;\n        }\n        c = a * b;\n        assert(c / a == b);\n        return c;\n    }\n\n    function div(uint256 a, uint256 b) internal pure returns (uint256) {\n        return a / b;\n    }\n\n    function sub(uint256 a, uint256 b) internal pure returns (uint256) {\n        assert(b <= a);\n        return a - b;\n    }\n\n    function add(uint256 a, uint256 b) internal pure returns (uint256 c) {\n        c = a + b;\n        assert(c >= a);\n        return c;\n    }\n}\n\ninterface ERC20 {\n    function transfer (address _beneficiary, uint256 _tokenAmount) external returns (bool);\n    function mintFromICO(address _to, uint256 _amount) external  returns(bool);\n}\n/**\n * @title Ownable\n * @dev https://github.com/OpenZeppelin/openzeppelin-solidity/blob/master/contracts/ownership/Ownable.sol\n */\ncontract Ownable {\n    address public owner;\n\n    constructor() public {\n        owner = msg.sender;\n    }\n\n    modifier onlyOwner() {\n        require(msg.sender == owner);\n        _;\n    }\n}\n\n/**\n * @title CrowdSale\n * @dev https://github.com/\n */\ncontract PreICOSale is Ownable {\n\n    ERC20 public token;\n\n    using SafeMath for uint;\n\n    address public backEndOperator = msg.sender;\n    address team = 0x7eDE8260e573d3A3dDfc058f19309DF5a1f7397E; // 33% - team и ранние инвесторы проекта\n    address bounty = 0x0cdb839B52404d49417C8Ded6c3E2157A06CdD37; // 2% - для баунти программы\n    address reserve = 0xC032D3fCA001b73e8cC3be0B75772329395caA49; // 5%  - для резерва\n\n    mapping(address=>bool) public whitelist;\n\n    mapping(address => uint256) public investedEther;\n\n    uint256 public startPreSale = 1531699201; // Monday, 16-Jul-18 00:00:01 UTC\n\n    uint256 public endPreSale = 1534463999; // Thursday, 16-Aug-18 23:59:59 UTC\n\n    uint256 public investors; // общее количество инвесторов\n    uint256 public weisRaised; // общее колиество собранных Ether\n\n    uint256 public softCapPreSale = 142858*1e18; // $300,000 = 142,858 INM\n    uint256 public hardCapPreSale = 300000*1e18; // 300,000 INM = 630,000 USD\n\n    uint256 public buyPrice; // 2.1 USD\n    uint256 public dollarPrice; // Ether by USD\n\n    uint256 public soldTokens; // solded tokens - > 300000 INM\n\n    event Authorized(address wlCandidate, uint timestamp);\n    event Revoked(address wlCandidate, uint timestamp);\n    event UpdateDollar(uint256 time, uint256 _rate);\n\n    modifier backEnd() {\n        require(msg.sender == backEndOperator || msg.sender == owner);\n        _;\n    }\n\n    // конструктор контракта\n    constructor(ERC20 _token, uint256 usdETH) public {\n        token = _token;\n        dollarPrice = usdETH;\n        buyPrice = (1e17/dollarPrice)*21; // 2.10 usd\n    }\n\n    // изменение даты начала предварительной распродажи\n    function setStartPreSale(uint256 newStartPreSale) public onlyOwner {\n        startPreSale = newStartPreSale;\n    }\n\n    // изменение даты окончания предварительной распродажи\n    function setEndPreSale(uint256 newEndPreSale) public onlyOwner {\n        endPreSale = newEndPreSale;\n    }\n\n    // Изменение адреса оператора бекэнда\n    function setBackEndAddress(address newBackEndOperator) public onlyOwner {\n        backEndOperator = newBackEndOperator;\n    }\n\n    // Изменение курса доллра к эфиру\n    function setBuyPrice(uint256 _dollar) public onlyOwner {\n        dollarPrice = _dollar;\n        buyPrice = (1e17/dollarPrice)*21; // 2.10 usd\n        emit UpdateDollar(now, dollarPrice);\n    }\n\n    /*******************************************************************************\n     * Whitelist's section\n     */\n    // с сайта backEndOperator авторизует инвестора\n    function authorize(address wlCandidate) public backEnd  {\n        require(wlCandidate != address(0x0));\n        require(!isWhitelisted(wlCandidate));\n        whitelist[wlCandidate] = true;\n        investors++;\n        emit Authorized(wlCandidate, now);\n    }\n\n    // отмена авторизации инвестора в WL(только владелец контракта)\n    function revoke(address wlCandidate) public  onlyOwner {\n        whitelist[wlCandidate] = false;\n        investors--;\n        emit Revoked(wlCandidate, now);\n    }\n\n    // проверка на нахождение адреса инвестора в WL\n    function isWhitelisted(address wlCandidate) internal view returns(bool) {\n        return whitelist[wlCandidate];\n    }\n\n    /*******************************************************************************\n     * Payable's section\n     */\n\n    function isPreSale() public constant returns(bool) {\n        return now >= startPreSale && now <= endPreSale;\n    }\n\n    // callback функция контракта\n    function () public payable {\n        require(isWhitelisted(msg.sender));\n        require(isPreSale());\n        require(msg.value >= 23*buyPrice); // ~ 50 USD\n        preSale(msg.sender, msg.value);\n        require(soldTokens<=hardCapPreSale);\n        investedEther[msg.sender] = investedEther[msg.sender].add(msg.value);\n    }\n\n    // выпуск токенов в период предварительной распродажи\n    function preSale(address _investor, uint256 _value) internal {\n        uint256 tokens = _value.mul(1e18).div(buyPrice);\n        uint256 tokensByDate = tokens.mul(15).div(100);\n        uint256 bonusSumTokens = tokens.mul(bonusSum(tokens)).div(100);\n        tokens = tokens.add(tokensByDate).add(bonusSumTokens); // 60%\n        token.mintFromICO(_investor, tokens);\n        soldTokens = soldTokens.add(tokens);\n\n        uint256 tokensTeam = tokens.mul(11).div(20); // 33 %\n        token.mintFromICO(team, tokensTeam);\n\n        uint256 tokensBoynty = tokens.div(30); // 2 %\n        token.mintFromICO(bounty, tokensBoynty);\n\n        uint256 tokensReserve = tokens.div(12);  // 5 %\n        token.mintFromICO(reserve, tokensReserve);\n\n        weisRaised = weisRaised.add(_value);\n    }\n\n    function bonusSum(uint256 _amount) pure private returns(uint256) {\n        if (_amount > 95238*1e18) { // 200k+\t10% INMCoin\n            return 10;\n        } else if (_amount > 23809*1e18) { // 50k - 200k\t7% INMCoin\n            return 7;\n        } else if (_amount > 9523*1e18) { // 20k - 50k\t5% INMCoin\n            return 5;\n        } else if (_amount > 2380*1e18) { // 5k - 20k\t3% INMCoin\n            return 3;\n        } else {\n            return 0;\n        }\n    }\n\n    // Отправка эфира с контракта\n    function transferEthFromContract(address _to, uint256 amount) public onlyOwner {\n        _to.transfer(amount);\n    }\n\n    /*******************************************************************************\n     * Refundable\n     */\n    function refundPreICO() public {\n        require(soldTokens < softCapPreSale && now > endPreSale);\n        uint rate = investedEther[msg.sender];\n        require(investedEther[msg.sender] >= 0);\n        investedEther[msg.sender] = 0;\n        msg.sender.transfer(rate);\n        weisRaised = weisRaised.sub(rate);\n    }\n}",
  "sourcePath": "/Users/ivanborisov/Yandex.Disk.localized/IT/WorkProjects/Portfolio/Innovative Minerals/contracts/PreICO.sol",
  "compiler": {
    "name": "solc",
    "version": "0.4.24+commit.e67f0147.Emscripten.clang"
  },
  "schemaVersion": "2.0.0",
  "updatedAt": "2018-06-19T12:19:32.704Z"
}