{
  "contractName": "PreSale",
  "abi": [
    {
      "constant": true,
      "inputs": [],
      "name": "backEndOperator",
      "outputs": [
        {
          "name": "",
          "type": "address"
        }
      ],
      "payable": false,
      "stateMutability": "view",
      "type": "function"
    },
    {
      "constant": true,
      "inputs": [
        {
          "name": "",
          "type": "address"
        }
      ],
      "name": "investedEther",
      "outputs": [
        {
          "name": "",
          "type": "uint256"
        }
      ],
      "payable": false,
      "stateMutability": "view",
      "type": "function"
    },
    {
      "constant": true,
      "inputs": [],
      "name": "dollarPrice",
      "outputs": [
        {
          "name": "",
          "type": "uint256"
        }
      ],
      "payable": false,
      "stateMutability": "view",
      "type": "function"
    },
    {
      "constant": true,
      "inputs": [],
      "name": "startPreSale",
      "outputs": [
        {
          "name": "",
          "type": "uint256"
        }
      ],
      "payable": false,
      "stateMutability": "view",
      "type": "function"
    },
    {
      "constant": true,
      "inputs": [],
      "name": "buyPrice",
      "outputs": [
        {
          "name": "",
          "type": "uint256"
        }
      ],
      "payable": false,
      "stateMutability": "view",
      "type": "function"
    },
    {
      "constant": true,
      "inputs": [],
      "name": "investors",
      "outputs": [
        {
          "name": "",
          "type": "uint256"
        }
      ],
      "payable": false,
      "stateMutability": "view",
      "type": "function"
    },
    {
      "constant": true,
      "inputs": [],
      "name": "owner",
      "outputs": [
        {
          "name": "",
          "type": "address"
        }
      ],
      "payable": false,
      "stateMutability": "view",
      "type": "function"
    },
    {
      "constant": true,
      "inputs": [
        {
          "name": "",
          "type": "address"
        }
      ],
      "name": "whitelist",
      "outputs": [
        {
          "name": "",
          "type": "bool"
        }
      ],
      "payable": false,
      "stateMutability": "view",
      "type": "function"
    },
    {
      "constant": true,
      "inputs": [],
      "name": "soldTokensPreSale",
      "outputs": [
        {
          "name": "",
          "type": "uint256"
        }
      ],
      "payable": false,
      "stateMutability": "view",
      "type": "function"
    },
    {
      "constant": true,
      "inputs": [],
      "name": "weisRaised",
      "outputs": [
        {
          "name": "",
          "type": "uint256"
        }
      ],
      "payable": false,
      "stateMutability": "view",
      "type": "function"
    },
    {
      "constant": true,
      "inputs": [],
      "name": "softCapPreSale",
      "outputs": [
        {
          "name": "",
          "type": "uint256"
        }
      ],
      "payable": false,
      "stateMutability": "view",
      "type": "function"
    },
    {
      "constant": true,
      "inputs": [],
      "name": "endPreSale",
      "outputs": [
        {
          "name": "",
          "type": "uint256"
        }
      ],
      "payable": false,
      "stateMutability": "view",
      "type": "function"
    },
    {
      "constant": true,
      "inputs": [],
      "name": "hardCapPreSale",
      "outputs": [
        {
          "name": "",
          "type": "uint256"
        }
      ],
      "payable": false,
      "stateMutability": "view",
      "type": "function"
    },
    {
      "constant": true,
      "inputs": [],
      "name": "token",
      "outputs": [
        {
          "name": "",
          "type": "address"
        }
      ],
      "payable": false,
      "stateMutability": "view",
      "type": "function"
    },
    {
      "inputs": [
        {
          "name": "_token",
          "type": "address"
        },
        {
          "name": "usdETH",
          "type": "uint256"
        }
      ],
      "payable": false,
      "stateMutability": "nonpayable",
      "type": "constructor"
    },
    {
      "payable": true,
      "stateMutability": "payable",
      "type": "fallback"
    },
    {
      "anonymous": false,
      "inputs": [
        {
          "indexed": false,
          "name": "wlCandidate",
          "type": "address"
        },
        {
          "indexed": false,
          "name": "timestamp",
          "type": "uint256"
        }
      ],
      "name": "Authorized",
      "type": "event"
    },
    {
      "anonymous": false,
      "inputs": [
        {
          "indexed": false,
          "name": "wlCandidate",
          "type": "address"
        },
        {
          "indexed": false,
          "name": "timestamp",
          "type": "uint256"
        }
      ],
      "name": "Revoked",
      "type": "event"
    },
    {
      "anonymous": false,
      "inputs": [
        {
          "indexed": false,
          "name": "time",
          "type": "uint256"
        },
        {
          "indexed": false,
          "name": "_rate",
          "type": "uint256"
        }
      ],
      "name": "UpdateDollar",
      "type": "event"
    },
    {
      "anonymous": false,
      "inputs": [
        {
          "indexed": false,
          "name": "time",
          "type": "uint256"
        },
        {
          "indexed": false,
          "name": "events",
          "type": "string"
        }
      ],
      "name": "UpdateDataContract",
      "type": "event"
    },
    {
      "anonymous": false,
      "inputs": [
        {
          "indexed": false,
          "name": "sum",
          "type": "uint256"
        },
        {
          "indexed": false,
          "name": "investor",
          "type": "address"
        }
      ],
      "name": "Refund",
      "type": "event"
    },
    {
      "constant": false,
      "inputs": [
        {
          "name": "newStartPreSale",
          "type": "uint256"
        }
      ],
      "name": "setStartPreSale",
      "outputs": [],
      "payable": false,
      "stateMutability": "nonpayable",
      "type": "function"
    },
    {
      "constant": false,
      "inputs": [
        {
          "name": "newEndPreSale",
          "type": "uint256"
        }
      ],
      "name": "setEndPreSale",
      "outputs": [],
      "payable": false,
      "stateMutability": "nonpayable",
      "type": "function"
    },
    {
      "constant": false,
      "inputs": [
        {
          "name": "newBackEndOperator",
          "type": "address"
        }
      ],
      "name": "setBackEndAddress",
      "outputs": [],
      "payable": false,
      "stateMutability": "nonpayable",
      "type": "function"
    },
    {
      "constant": false,
      "inputs": [
        {
          "name": "_dollar",
          "type": "uint256"
        }
      ],
      "name": "setBuyPrice",
      "outputs": [],
      "payable": false,
      "stateMutability": "nonpayable",
      "type": "function"
    },
    {
      "constant": false,
      "inputs": [
        {
          "name": "wlCandidate",
          "type": "address"
        }
      ],
      "name": "authorize",
      "outputs": [],
      "payable": false,
      "stateMutability": "nonpayable",
      "type": "function"
    },
    {
      "constant": false,
      "inputs": [
        {
          "name": "wlCandidate",
          "type": "address"
        }
      ],
      "name": "revoke",
      "outputs": [],
      "payable": false,
      "stateMutability": "nonpayable",
      "type": "function"
    },
    {
      "constant": true,
      "inputs": [],
      "name": "isPreSale",
      "outputs": [
        {
          "name": "",
          "type": "bool"
        }
      ],
      "payable": false,
      "stateMutability": "view",
      "type": "function"
    },
    {
      "constant": false,
      "inputs": [
        {
          "name": "receiver",
          "type": "address"
        },
        {
          "name": "_tokens",
          "type": "uint256"
        }
      ],
      "name": "mintManual",
      "outputs": [],
      "payable": false,
      "stateMutability": "nonpayable",
      "type": "function"
    },
    {
      "constant": false,
      "inputs": [
        {
          "name": "_to",
          "type": "address"
        },
        {
          "name": "amount",
          "type": "uint256"
        }
      ],
      "name": "transferEthFromContract",
      "outputs": [],
      "payable": false,
      "stateMutability": "nonpayable",
      "type": "function"
    },
    {
      "constant": false,
      "inputs": [],
      "name": "refundPreICO",
      "outputs": [],
      "payable": false,
      "stateMutability": "nonpayable",
      "type": "function"
    }
  ],
  "bytecode": "0x608060405233600260006101000a81548173ffffffffffffffffffffffffffffffffffffffff021916908373ffffffffffffffffffffffffffffffffffffffff160217905550737ede8260e573d3a3ddfc058f19309df5a1f7397e600360006101000a81548173ffffffffffffffffffffffffffffffffffffffff021916908373ffffffffffffffffffffffffffffffffffffffff160217905550730cdb839b52404d49417c8ded6c3e2157a06cdd37600460006101000a81548173ffffffffffffffffffffffffffffffffffffffff021916908373ffffffffffffffffffffffffffffffffffffffff160217905550635b9c4b80600755635bc529ff6008556202a30060075401600955620d2f0060075401600a556217bb0060075401600b556222470060075401600c556a03796274caf64c71000000600f556a1c4a21b706fa254f00000060105534801561015557600080fd5b50604051604080611e328339810180604052810190808051906020019092919080519060200190929190505050336000806101000a81548173ffffffffffffffffffffffffffffffffffffffff021916908373ffffffffffffffffffffffffffffffffffffffff16021790555081600160006101000a81548173ffffffffffffffffffffffffffffffffffffffff021916908373ffffffffffffffffffffffffffffffffffffffff1602179055508060128190555060125467016345785d8a000081151561021f57fe5b046011819055505050611bfb806102376000396000f30060806040526004361061013e576000357c0100000000000000000000000000000000000000000000000000000000900463ffffffff168063050895ff14610219578063274448ff1461027057806331198d19146102c7578063384a64941461031457806340d7b7b8146103415780634ced47341461036c57806355dd574c1461039b57806363ae8d6c146103c657806374a8f103146103f35780638620410b146104365780638ac27f5f146104615780638ca5da351461048c5780638da5cb5b146104d95780639b19251a14610530578063b6a5d7de1461058b578063b701dc14146105ce578063d893b9f114610611578063da5f838d1461063c578063e046254714610667578063e591253c14610694578063eb2ff2d2146106ab578063ee889ed0146106d6578063f7e4a4a914610701578063fc0c546a1461072c575b61014733610783565b151561015257600080fd5b61015a6107d9565b151561016557600080fd5b61016f33346107f4565b6010546013541115151561018257600080fd5b6101d434600660003373ffffffffffffffffffffffffffffffffffffffff1673ffffffffffffffffffffffffffffffffffffffff16815260200190815260200160002054610c4690919063ffffffff16565b600660003373ffffffffffffffffffffffffffffffffffffffff1673ffffffffffffffffffffffffffffffffffffffff16815260200190815260200160002081905550005b34801561022557600080fd5b5061022e610c62565b604051808273ffffffffffffffffffffffffffffffffffffffff1673ffffffffffffffffffffffffffffffffffffffff16815260200191505060405180910390f35b34801561027c57600080fd5b506102b1600480360381019080803573ffffffffffffffffffffffffffffffffffffffff169060200190929190505050610c88565b6040518082815260200191505060405180910390f35b3480156102d357600080fd5b50610312600480360381019080803573ffffffffffffffffffffffffffffffffffffffff16906020019092919080359060200190929190505050610ca0565b005b34801561032057600080fd5b5061033f60048036038101908080359060200190929190505050610d46565b005b34801561034d57600080fd5b50610356610e1b565b6040518082815260200191505060405180910390f35b34801561037857600080fd5b506103816107d9565b604051808215151515815260200191505060405180910390f35b3480156103a757600080fd5b506103b0610e21565b6040518082815260200191505060405180910390f35b3480156103d257600080fd5b506103f160048036038101908080359060200190929190505050610e27565b005b3480156103ff57600080fd5b50610434600480360381019080803573ffffffffffffffffffffffffffffffffffffffff169060200190929190505050610ee9565b005b34801561044257600080fd5b5061044b61101d565b6040518082815260200191505060405180910390f35b34801561046d57600080fd5b50610476611023565b6040518082815260200191505060405180910390f35b34801561049857600080fd5b506104d7600480360381019080803573ffffffffffffffffffffffffffffffffffffffff16906020019092919080359060200190929190505050611029565b005b3480156104e557600080fd5b506104ee6114ac565b604051808273ffffffffffffffffffffffffffffffffffffffff1673ffffffffffffffffffffffffffffffffffffffff16815260200191505060405180910390f35b34801561053c57600080fd5b50610571600480360381019080803573ffffffffffffffffffffffffffffffffffffffff1690602001909291905050506114d1565b604051808215151515815260200191505060405180910390f35b34801561059757600080fd5b506105cc600480360381019080803573ffffffffffffffffffffffffffffffffffffffff1690602001909291905050506114f1565b005b3480156105da57600080fd5b5061060f600480360381019080803573ffffffffffffffffffffffffffffffffffffffff1690602001909291905050506116cd565b005b34801561061d57600080fd5b506106266117dc565b6040518082815260200191505060405180910390f35b34801561064857600080fd5b506106516117e2565b6040518082815260200191505060405180910390f35b34801561067357600080fd5b50610692600480360381019080803590602001909291905050506117e8565b005b3480156106a057600080fd5b506106a96118bd565b005b3480156106b757600080fd5b506106c0611a84565b6040518082815260200191505060405180910390f35b3480156106e257600080fd5b506106eb611a8a565b6040518082815260200191505060405180910390f35b34801561070d57600080fd5b50610716611a90565b6040518082815260200191505060405180910390f35b34801561073857600080fd5b50610741611a96565b604051808273ffffffffffffffffffffffffffffffffffffffff1673ffffffffffffffffffffffffffffffffffffffff16815260200191505060405180910390f35b6000600560008373ffffffffffffffffffffffffffffffffffffffff1673ffffffffffffffffffffffffffffffffffffffff16815260200190815260200160002060009054906101000a900460ff169050919050565b600060075442101580156107ef57506008544211155b905090565b60008060008061082960115461081b670de0b6b3a764000088611abc90919063ffffffff16565b611af490919063ffffffff16565b9350610858606461084a61083b611b0a565b87611abc90919063ffffffff16565b611af490919063ffffffff16565b925061086d8385610c4690919063ffffffff16565b9350600160009054906101000a900473ffffffffffffffffffffffffffffffffffffffff1673ffffffffffffffffffffffffffffffffffffffff16633aa0396a87866040518363ffffffff167c0100000000000000000000000000000000000000000000000000000000028152600401808373ffffffffffffffffffffffffffffffffffffffff1673ffffffffffffffffffffffffffffffffffffffff16815260200182815260200192505050602060405180830381600087803b15801561093457600080fd5b505af1158015610948573d6000803e3d6000fd5b505050506040513d602081101561095e57600080fd5b81019080805190602001909291905050505061098584601354610c4690919063ffffffff16565b6013819055506109b2609d6109a4602887611abc90919063ffffffff16565b611af490919063ffffffff16565b9150600160009054906101000a900473ffffffffffffffffffffffffffffffffffffffff1673ffffffffffffffffffffffffffffffffffffffff16633aa0396a600360009054906101000a900473ffffffffffffffffffffffffffffffffffffffff16846040518363ffffffff167c0100000000000000000000000000000000000000000000000000000000028152600401808373ffffffffffffffffffffffffffffffffffffffff1673ffffffffffffffffffffffffffffffffffffffff16815260200182815260200192505050602060405180830381600087803b158015610a9b57600080fd5b505af1158015610aaf573d6000803e3d6000fd5b505050506040513d6020811015610ac557600080fd5b810190808051906020019092919050505050610afe609d610af0600387611abc90919063ffffffff16565b611af490919063ffffffff16565b9050600160009054906101000a900473ffffffffffffffffffffffffffffffffffffffff1673ffffffffffffffffffffffffffffffffffffffff16633aa0396a600460009054906101000a900473ffffffffffffffffffffffffffffffffffffffff16836040518363ffffffff167c0100000000000000000000000000000000000000000000000000000000028152600401808373ffffffffffffffffffffffffffffffffffffffff1673ffffffffffffffffffffffffffffffffffffffff16815260200182815260200192505050602060405180830381600087803b158015610be757600080fd5b505af1158015610bfb573d6000803e3d6000fd5b505050506040513d6020811015610c1157600080fd5b810190808051906020019092919050505050610c3885600e54610c4690919063ffffffff16565b600e81905550505050505050565b60008183019050828110151515610c5957fe5b80905092915050565b600260009054906101000a900473ffffffffffffffffffffffffffffffffffffffff1681565b60066020528060005260406000206000915090505481565b6000809054906101000a900473ffffffffffffffffffffffffffffffffffffffff1673ffffffffffffffffffffffffffffffffffffffff163373ffffffffffffffffffffffffffffffffffffffff16141515610cfb57600080fd5b8173ffffffffffffffffffffffffffffffffffffffff166108fc829081150290604051600060405180830381858888f19350505050158015610d41573d6000803e3d6000fd5b505050565b6000809054906101000a900473ffffffffffffffffffffffffffffffffffffffff1673ffffffffffffffffffffffffffffffffffffffff163373ffffffffffffffffffffffffffffffffffffffff16141515610da157600080fd5b806007819055507f4b7e4537abcb0ee3158ebb43d3750f7d7716f1b7dd9942753f67916be39c995d426040518082815260200180602001828103825260118152602001807f75706461746520737461727420646174650000000000000000000000000000008152506020019250505060405180910390a150565b60125481565b60075481565b6000809054906101000a900473ffffffffffffffffffffffffffffffffffffffff1673ffffffffffffffffffffffffffffffffffffffff163373ffffffffffffffffffffffffffffffffffffffff16141515610e8257600080fd5b8060128190555060125467016345785d8a0000811515610e9e57fe5b046011819055507f8e5d322ef7050e99e3845ad9d8b2608b9512de19853d4215b71b7a4ee2993d4f42601254604051808381526020018281526020019250505060405180910390a150565b6000809054906101000a900473ffffffffffffffffffffffffffffffffffffffff1673ffffffffffffffffffffffffffffffffffffffff163373ffffffffffffffffffffffffffffffffffffffff16141515610f4457600080fd5b6000600560008373ffffffffffffffffffffffffffffffffffffffff1673ffffffffffffffffffffffffffffffffffffffff16815260200190815260200160002060006101000a81548160ff021916908315150217905550600d60008154809291906001900391905055507f713b90881ad62c4fa8ab6bd9197fa86481fc0c11b2edba60026514281b2dbac48142604051808373ffffffffffffffffffffffffffffffffffffffff1673ffffffffffffffffffffffffffffffffffffffff1681526020018281526020019250505060405180910390a150565b60115481565b600d5481565b600080600260009054906101000a900473ffffffffffffffffffffffffffffffffffffffff1673ffffffffffffffffffffffffffffffffffffffff163373ffffffffffffffffffffffffffffffffffffffff1614806110d457506000809054906101000a900473ffffffffffffffffffffffffffffffffffffffff1673ffffffffffffffffffffffffffffffffffffffff163373ffffffffffffffffffffffffffffffffffffffff16145b15156110df57600080fd5b600160009054906101000a900473ffffffffffffffffffffffffffffffffffffffff1673ffffffffffffffffffffffffffffffffffffffff16633aa0396a85856040518363ffffffff167c0100000000000000000000000000000000000000000000000000000000028152600401808373ffffffffffffffffffffffffffffffffffffffff1673ffffffffffffffffffffffffffffffffffffffff16815260200182815260200192505050602060405180830381600087803b1580156111a457600080fd5b505af11580156111b8573d6000803e3d6000fd5b505050506040513d60208110156111ce57600080fd5b8101908080519060200190929190505050506111f583601354610c4690919063ffffffff16565b6013819055506010546013541115151561120e57600080fd5b611235609d611227602886611abc90919063ffffffff16565b611af490919063ffffffff16565b9150600160009054906101000a900473ffffffffffffffffffffffffffffffffffffffff1673ffffffffffffffffffffffffffffffffffffffff16633aa0396a600360009054906101000a900473ffffffffffffffffffffffffffffffffffffffff16846040518363ffffffff167c0100000000000000000000000000000000000000000000000000000000028152600401808373ffffffffffffffffffffffffffffffffffffffff1673ffffffffffffffffffffffffffffffffffffffff16815260200182815260200192505050602060405180830381600087803b15801561131e57600080fd5b505af1158015611332573d6000803e3d6000fd5b505050506040513d602081101561134857600080fd5b810190808051906020019092919050505050611381609d611373600386611abc90919063ffffffff16565b611af490919063ffffffff16565b9050600160009054906101000a900473ffffffffffffffffffffffffffffffffffffffff1673ffffffffffffffffffffffffffffffffffffffff16633aa0396a600460009054906101000a900473ffffffffffffffffffffffffffffffffffffffff16836040518363ffffffff167c0100000000000000000000000000000000000000000000000000000000028152600401808373ffffffffffffffffffffffffffffffffffffffff1673ffffffffffffffffffffffffffffffffffffffff16815260200182815260200192505050602060405180830381600087803b15801561146a57600080fd5b505af115801561147e573d6000803e3d6000fd5b505050506040513d602081101561149457600080fd5b81019080805190602001909291905050505050505050565b6000809054906101000a900473ffffffffffffffffffffffffffffffffffffffff1681565b60056020528060005260406000206000915054906101000a900460ff1681565b600260009054906101000a900473ffffffffffffffffffffffffffffffffffffffff1673ffffffffffffffffffffffffffffffffffffffff163373ffffffffffffffffffffffffffffffffffffffff16148061159957506000809054906101000a900473ffffffffffffffffffffffffffffffffffffffff1673ffffffffffffffffffffffffffffffffffffffff163373ffffffffffffffffffffffffffffffffffffffff16145b15156115a457600080fd5b600073ffffffffffffffffffffffffffffffffffffffff168173ffffffffffffffffffffffffffffffffffffffff16141515156115e057600080fd5b6115e981610783565b1515156115f557600080fd5b6001600560008373ffffffffffffffffffffffffffffffffffffffff1673ffffffffffffffffffffffffffffffffffffffff16815260200190815260200160002060006101000a81548160ff021916908315150217905550600d600081548092919060010191905055507fb39b5f240c7440b58c1c6cfd328b09ff9aa18b3c8ef4b829774e4f5bad0394168142604051808373ffffffffffffffffffffffffffffffffffffffff1673ffffffffffffffffffffffffffffffffffffffff1681526020018281526020019250505060405180910390a150565b6000809054906101000a900473ffffffffffffffffffffffffffffffffffffffff1673ffffffffffffffffffffffffffffffffffffffff163373ffffffffffffffffffffffffffffffffffffffff1614151561172857600080fd5b80600260006101000a81548173ffffffffffffffffffffffffffffffffffffffff021916908373ffffffffffffffffffffffffffffffffffffffff1602179055507f4b7e4537abcb0ee3158ebb43d3750f7d7716f1b7dd9942753f67916be39c995d426040518082815260200180602001828103825260158152602001807f757064617465206261636b456e644164647265737300000000000000000000008152506020019250505060405180910390a150565b60135481565b600e5481565b6000809054906101000a900473ffffffffffffffffffffffffffffffffffffffff1673ffffffffffffffffffffffffffffffffffffffff163373ffffffffffffffffffffffffffffffffffffffff1614151561184357600080fd5b806008819055507f4b7e4537abcb0ee3158ebb43d3750f7d7716f1b7dd9942753f67916be39c995d4260405180828152602001806020018281038252600f8152602001807f75706461746520656e64206461746500000000000000000000000000000000008152506020019250505060405180910390a150565b6000600f546013541080156118d3575060085442115b15156118de57600080fd5b600660003373ffffffffffffffffffffffffffffffffffffffff1673ffffffffffffffffffffffffffffffffffffffff1681526020019081526020016000205490506000600660003373ffffffffffffffffffffffffffffffffffffffff1673ffffffffffffffffffffffffffffffffffffffff168152602001908152602001600020541015151561196f57600080fd5b6000600660003373ffffffffffffffffffffffffffffffffffffffff1673ffffffffffffffffffffffffffffffffffffffff168152602001908152602001600020819055503373ffffffffffffffffffffffffffffffffffffffff166108fc829081150290604051600060405180830381858888f193505050501580156119fa573d6000803e3d6000fd5b50611a1081600e54611bb690919063ffffffff16565b600e819055507f510b82fea70ff89a8cc73cd7f29db2d7b480134c160cb52a258797b42d1989ad8133604051808381526020018273ffffffffffffffffffffffffffffffffffffffff1673ffffffffffffffffffffffffffffffffffffffff1681526020019250505060405180910390a150565b600f5481565b60085481565b60105481565b600160009054906101000a900473ffffffffffffffffffffffffffffffffffffffff1681565b600080831415611acf5760009050611aee565b8183029050818382811515611ae057fe5b04141515611aea57fe5b8090505b92915050565b60008183811515611b0157fe5b04905092915050565b60006007544210158015611b1f575060095442105b15611b2d5760329050611bb3565b60095442118015611b3f5750600a5442105b15611b4d5760289050611bb3565b600a5442118015611b5f5750600b5442105b15611b6d5760219050611bb3565b600b5442118015611b7f575060075442105b15611b8d57601e9050611bb3565b600c5442118015611ba057506008544211155b15611bae5760199050611bb3565b600090505b90565b6000828211151515611bc457fe5b8183039050929150505600a165627a7a72305820e09fa89d201aa30dceeb5b25f68e5414b864d348640a5bf267ec69a1b67ffac40029",
  "source": "pragma solidity ^0.4.24;\n\n/*** @title SafeMath\n * @dev https://github.com/OpenZeppelin/openzeppelin-solidity/blob/master/contracts/math/SafeMath.sol */\nlibrary SafeMath {\n  \n  function mul(uint256 a, uint256 b) internal pure returns (uint256 c) {\n    if (a == 0) {\n      return 0;\n    }\n    c = a * b;\n    assert(c / a == b);\n    return c;\n  }\n  \n  function div(uint256 a, uint256 b) internal pure returns (uint256) {\n    return a / b;\n  }\n  \n  function sub(uint256 a, uint256 b) internal pure returns (uint256) {\n    assert(b <= a);\n    return a - b;\n  }\n  \n  function add(uint256 a, uint256 b) internal pure returns (uint256 c) {\n    c = a + b;\n    assert(c >= a);\n    return c;\n  }\n}\n\ninterface ERC20 {\n  function transfer (address _beneficiary, uint256 _tokenAmount) external returns (bool);\n  function mintFromICO(address _to, uint256 _amount) external  returns(bool);\n}\n\n/**\n * @title Ownable\n * @dev https://github.com/OpenZeppelin/openzeppelin-solidity/blob/master/contracts/ownership/Ownable.sol\n */\ncontract Ownable {\n  address public owner;\n  \n  constructor() public {\n    owner = msg.sender;\n  }\n  \n  modifier onlyOwner() {\n    require(msg.sender == owner);\n    _;\n  }\n}\n\n/**\n * @title PreSale Contract\n * @dev https://github.com/elephant-marketing/VION_smart/blob/master/project/contracts/PreSale.sol\n */\ncontract PreSale is Ownable {\n  \n  ERC20 public token;\n  \n  using SafeMath for uint256;\n  \n  address public backEndOperator = msg.sender;\n  address founders = 0x7eDE8260e573d3A3dDfc058f19309DF5a1f7397E; // 20 % - for founders\n  address bounty = 0x0cdb839B52404d49417C8Ded6c3E2157A06CdD37; // 1,5 % - for boynty\n  \n  mapping(address=>bool) public whitelist;\n  \n  mapping(address => uint256) public investedEther;\n  \n  uint256 public startPreSale = 1536969600; // Saturday, 15-Sep-18 00:00:00 UTC\n  uint256 public endPreSale = 1539647999; // Monday, 15-Oct-18 23:59:59 UTC\n  \n  uint256 stage1Sale = startPreSale + 2 days; // 2 day\n  uint256 stage2Sale = startPreSale + 10 days; // 10 day\n  uint256 stage3Sale = startPreSale + 18 days; // 18 day\n  uint256 stage4Sale = startPreSale + 26 days; // 26 day\n  \n  uint256 public investors;\n  uint256 public weisRaised;\n  \n  uint256 public softCapPreSale = 4200000*1e18; // 4,200,000 Vion\n  uint256 public hardCapPreSale = 34200000*1e18; // 34 200 000 Vion\n  \n  uint256 public buyPrice; // 0.1 USD\n  uint256 public dollarPrice;\n  \n  uint256 public soldTokensPreSale;\n  \n  event Authorized(address wlCandidate, uint256 timestamp);\n  event Revoked(address wlCandidate, uint256 timestamp);\n  event UpdateDollar(uint256 time, uint256 _rate);\n  event UpdateDataContract(uint256 time, string events);\n  event Refund(uint256 sum, address investor);\n  \n  modifier backEnd() {\n    require(msg.sender == backEndOperator || msg.sender == owner);\n    _;\n  }\n  \n  constructor(ERC20 _token, uint256 usdETH) public {\n    token = _token;\n    dollarPrice = usdETH;\n    buyPrice = (1e17/dollarPrice); // 0.1 USD\n  }\n  \n  function setStartPreSale(uint256 newStartPreSale) public onlyOwner {\n    startPreSale = newStartPreSale;\n    emit UpdateDataContract(block.timestamp, \"update start date\");\n  }\n  \n  function setEndPreSale(uint256 newEndPreSale) public onlyOwner {\n    endPreSale = newEndPreSale;\n    emit UpdateDataContract(block.timestamp, \"update end date\");\n  }\n  \n  function setBackEndAddress(address newBackEndOperator) public onlyOwner {\n    backEndOperator = newBackEndOperator;\n    emit UpdateDataContract(block.timestamp, \"update backEndAddress\");\n  }\n  \n  function setBuyPrice(uint256 _dollar) public onlyOwner {\n    dollarPrice = _dollar;\n    buyPrice = (1e17/dollarPrice); // 0.1 usd\n    emit UpdateDollar(block.timestamp, dollarPrice);\n  }\n  \n  /*******************************************************************************\n   * Whitelist's section     */\n  \n  function authorize(address wlCandidate) public backEnd  {\n    require(wlCandidate != address(0x0));\n    require(!isWhitelisted(wlCandidate));\n    whitelist[wlCandidate] = true;\n    investors++;\n    emit Authorized(wlCandidate, block.timestamp);\n  }\n  \n  function revoke(address wlCandidate) public  onlyOwner {\n    whitelist[wlCandidate] = false;\n    investors--;\n    emit Revoked(wlCandidate, block.timestamp);\n  }\n  \n  function isWhitelisted(address wlCandidate) internal view returns(bool) {\n    return whitelist[wlCandidate];\n  }\n  \n  /*******************************************************************************\n   * Payable's section */\n  \n  function isPreSale() public view returns(bool) {\n    return block.timestamp >= startPreSale && block.timestamp <= endPreSale;\n  }\n  \n  function () public payable {\n    require(isWhitelisted(msg.sender));\n    require(isPreSale());\n    preSale(msg.sender, msg.value);\n    require(soldTokensPreSale<=hardCapPreSale);\n    investedEther[msg.sender] = investedEther[msg.sender].add(msg.value);\n  }\n  \n  function preSale(address _investor, uint256 _value) internal {\n    uint256 tokens = _value.mul(1e18).div(buyPrice);\n    uint256 tokensByDate = tokens.mul(bonusDate()).div(100);\n    tokens = tokens.add(tokensByDate); // 78,5%\n    token.mintFromICO(_investor, tokens);\n    soldTokensPreSale = soldTokensPreSale.add(tokens);\n    \n    uint256 tokensFounders = tokens.mul(40).div(157); // 20%\n    token.mintFromICO(founders, tokensFounders);\n    \n    uint256 tokensBoynty = tokens.mul(3).div(157); // 1,5%\n    token.mintFromICO(bounty, tokensBoynty);\n    \n    weisRaised = weisRaised.add(_value);\n  }\n  \n  function bonusDate() private view returns (uint256){\n    if (block.timestamp >= startPreSale && block.timestamp < stage1Sale) {  // 0 - 2 days mainSale\n      return 50;\n    }\n    else if (block.timestamp > stage1Sale && block.timestamp < stage2Sale) { // 3 - 10 days mainSale\n      return 40;\n    }\n    else if (block.timestamp > stage2Sale && block.timestamp < stage3Sale) { // 11 - 18 days mainSale\n      return 33;\n    }\n    else if (block.timestamp > stage3Sale && block.timestamp < startPreSale) { // 19 - 26 days mainSale\n      return 30;\n    }\n    else if(block.timestamp > stage4Sale && block.timestamp <= endPreSale) { // 27 - 31 days\n      return 25;\n    }\n    else {\n      return 0;\n    }\n  }\n  \n  function mintManual(address receiver, uint256 _tokens) public backEnd {\n    token.mintFromICO(receiver, _tokens);\n    soldTokensPreSale = soldTokensPreSale.add(_tokens);\n    require(soldTokensPreSale<=hardCapPreSale);\n    \n    uint256 tokensFounders = _tokens.mul(40).div(157); // 20%\n    token.mintFromICO(founders, tokensFounders);\n    \n    uint256 tokensBoynty = _tokens.mul(3).div(157); // 1,5%\n    token.mintFromICO(bounty, tokensBoynty);\n  }\n  \n  function transferEthFromContract(address _to, uint256 amount) public onlyOwner {\n    _to.transfer(amount);\n  }\n  \n  function refundPreICO() public {\n    require(soldTokensPreSale < softCapPreSale && block.timestamp > endPreSale);\n    uint256 rate = investedEther[msg.sender];\n    require(investedEther[msg.sender] >= 0);\n    investedEther[msg.sender] = 0;\n    msg.sender.transfer(rate);\n    weisRaised = weisRaised.sub(rate);\n    emit Refund(rate, msg.sender);\n  }\n}",
  "sourcePath": "/Users/ivanborisov/Yandex.Disk.localized/IT/WorkProjects/Portfolio/VION/contracts/PreSale.sol",
  "compiler": {
    "name": "solc",
    "version": "0.4.24+commit.e67f0147.Emscripten.clang"
  },
  "schemaVersion": "2.0.0",
  "updatedAt": "2018-06-19T12:15:11.216Z"
}