{
  "contractName": "MarkSale",
  "abi": [
    {
      "constant": true,
      "inputs": [],
      "name": "MainSalePrice",
      "outputs": [
        {
          "name": "",
          "type": "uint256"
        }
      ],
      "payable": false,
      "stateMutability": "view",
      "type": "function"
    },
    {
      "constant": true,
      "inputs": [],
      "name": "backEndOperator",
      "outputs": [
        {
          "name": "",
          "type": "address"
        }
      ],
      "payable": false,
      "stateMutability": "view",
      "type": "function"
    },
    {
      "constant": true,
      "inputs": [
        {
          "name": "",
          "type": "address"
        }
      ],
      "name": "investedEther",
      "outputs": [
        {
          "name": "",
          "type": "uint256"
        }
      ],
      "payable": false,
      "stateMutability": "view",
      "type": "function"
    },
    {
      "constant": true,
      "inputs": [],
      "name": "endSale",
      "outputs": [
        {
          "name": "",
          "type": "uint256"
        }
      ],
      "payable": false,
      "stateMutability": "view",
      "type": "function"
    },
    {
      "constant": true,
      "inputs": [],
      "name": "soldTokens",
      "outputs": [
        {
          "name": "",
          "type": "uint256"
        }
      ],
      "payable": false,
      "stateMutability": "view",
      "type": "function"
    },
    {
      "constant": true,
      "inputs": [],
      "name": "investors",
      "outputs": [
        {
          "name": "",
          "type": "uint256"
        }
      ],
      "payable": false,
      "stateMutability": "view",
      "type": "function"
    },
    {
      "constant": true,
      "inputs": [],
      "name": "owner",
      "outputs": [
        {
          "name": "",
          "type": "address"
        }
      ],
      "payable": false,
      "stateMutability": "view",
      "type": "function"
    },
    {
      "constant": true,
      "inputs": [],
      "name": "softCap",
      "outputs": [
        {
          "name": "",
          "type": "uint256"
        }
      ],
      "payable": false,
      "stateMutability": "view",
      "type": "function"
    },
    {
      "constant": true,
      "inputs": [
        {
          "name": "",
          "type": "address"
        }
      ],
      "name": "whitelist",
      "outputs": [
        {
          "name": "",
          "type": "bool"
        }
      ],
      "payable": false,
      "stateMutability": "view",
      "type": "function"
    },
    {
      "constant": true,
      "inputs": [],
      "name": "startSale",
      "outputs": [
        {
          "name": "",
          "type": "uint256"
        }
      ],
      "payable": false,
      "stateMutability": "view",
      "type": "function"
    },
    {
      "constant": true,
      "inputs": [],
      "name": "weisRaised",
      "outputs": [
        {
          "name": "",
          "type": "uint256"
        }
      ],
      "payable": false,
      "stateMutability": "view",
      "type": "function"
    },
    {
      "constant": true,
      "inputs": [],
      "name": "hardCap",
      "outputs": [
        {
          "name": "",
          "type": "uint256"
        }
      ],
      "payable": false,
      "stateMutability": "view",
      "type": "function"
    },
    {
      "constant": true,
      "inputs": [],
      "name": "token",
      "outputs": [
        {
          "name": "",
          "type": "address"
        }
      ],
      "payable": false,
      "stateMutability": "view",
      "type": "function"
    },
    {
      "inputs": [],
      "payable": false,
      "stateMutability": "nonpayable",
      "type": "constructor"
    },
    {
      "payable": true,
      "stateMutability": "payable",
      "type": "fallback"
    },
    {
      "anonymous": false,
      "inputs": [],
      "name": "Finalized",
      "type": "event"
    },
    {
      "anonymous": false,
      "inputs": [
        {
          "indexed": false,
          "name": "wlCandidate",
          "type": "address"
        },
        {
          "indexed": false,
          "name": "timestamp",
          "type": "uint256"
        }
      ],
      "name": "Authorized",
      "type": "event"
    },
    {
      "anonymous": false,
      "inputs": [
        {
          "indexed": false,
          "name": "wlCandidate",
          "type": "address"
        },
        {
          "indexed": false,
          "name": "timestamp",
          "type": "uint256"
        }
      ],
      "name": "Revoked",
      "type": "event"
    },
    {
      "constant": false,
      "inputs": [
        {
          "name": "_token",
          "type": "address"
        }
      ],
      "name": "setToken",
      "outputs": [],
      "payable": false,
      "stateMutability": "nonpayable",
      "type": "function"
    },
    {
      "constant": false,
      "inputs": [
        {
          "name": "newStartSale",
          "type": "uint256"
        }
      ],
      "name": "setStartSale",
      "outputs": [],
      "payable": false,
      "stateMutability": "nonpayable",
      "type": "function"
    },
    {
      "constant": false,
      "inputs": [
        {
          "name": "newEndSaled",
          "type": "uint256"
        }
      ],
      "name": "setEndSale",
      "outputs": [],
      "payable": false,
      "stateMutability": "nonpayable",
      "type": "function"
    },
    {
      "constant": false,
      "inputs": [
        {
          "name": "newBackEndOperator",
          "type": "address"
        }
      ],
      "name": "setBackEndAddress",
      "outputs": [],
      "payable": false,
      "stateMutability": "nonpayable",
      "type": "function"
    },
    {
      "constant": false,
      "inputs": [
        {
          "name": "wlCandidate",
          "type": "address"
        }
      ],
      "name": "authorize",
      "outputs": [],
      "payable": false,
      "stateMutability": "nonpayable",
      "type": "function"
    },
    {
      "constant": false,
      "inputs": [
        {
          "name": "wlCandidate",
          "type": "address"
        }
      ],
      "name": "revoke",
      "outputs": [],
      "payable": false,
      "stateMutability": "nonpayable",
      "type": "function"
    },
    {
      "constant": true,
      "inputs": [],
      "name": "isMainSale",
      "outputs": [
        {
          "name": "",
          "type": "bool"
        }
      ],
      "payable": false,
      "stateMutability": "view",
      "type": "function"
    },
    {
      "constant": false,
      "inputs": [
        {
          "name": "_recipient",
          "type": "address"
        },
        {
          "name": "_value",
          "type": "uint256"
        }
      ],
      "name": "mintManual",
      "outputs": [],
      "payable": false,
      "stateMutability": "nonpayable",
      "type": "function"
    },
    {
      "constant": false,
      "inputs": [
        {
          "name": "_to",
          "type": "address"
        },
        {
          "name": "amount",
          "type": "uint256"
        }
      ],
      "name": "transferEthFromContract",
      "outputs": [],
      "payable": false,
      "stateMutability": "nonpayable",
      "type": "function"
    },
    {
      "constant": false,
      "inputs": [],
      "name": "refundICO",
      "outputs": [],
      "payable": false,
      "stateMutability": "nonpayable",
      "type": "function"
    }
  ],
  "bytecode": "0x608060405233600260006101000a81548173ffffffffffffffffffffffffffffffffffffffff021916908373ffffffffffffffffffffffffffffffffffffffff160217905550737ede8260e573d3a3ddfc058f19309df5a1f7397e600360006101000a81548173ffffffffffffffffffffffffffffffffffffffff021916908373ffffffffffffffffffffffffffffffffffffffff160217905550730cdb839b52404d49417c8ded6c3e2157a06cdd37600460006101000a81548173ffffffffffffffffffffffffffffffffffffffff021916908373ffffffffffffffffffffffffffffffffffffffff16021790555073ce66e79f59eafacaf4cabaa317cab4857487e3a1600560006101000a81548173ffffffffffffffffffffffffffffffffffffffff021916908373ffffffffffffffffffffffffffffffffffffffff16021790555042600855635b88850060095568a2a15d09519be00000600c5569021e19e0c9bab2400000600d5569043c33c1937564800000600e55690878678326eac9000000600f5565d217e0f1700060105534801561019d57600080fd5b50336000806101000a81548173ffffffffffffffffffffffffffffffffffffffff021916908373ffffffffffffffffffffffffffffffffffffffff160217905550611baa806101ed6000396000f300608060405260043610610132576000357c0100000000000000000000000000000000000000000000000000000000900463ffffffff1680625b42cb1461020d578063050895ff14610238578063144fa6d71461028f578063274448ff146102d257806331198d1914610329578063380d831b146103765780635ed9ebfc146103a157806374a8f103146103cc5780638ac27f5f1461040f5780638ca5da351461043a5780638da5cb5b14610487578063906a26e0146104de5780639b19251a14610509578063b66a0e5d14610564578063b6a5d7de1461058f578063b701dc14146105d2578063ba8029bb14610615578063d1f2efd514610642578063da5f838d14610671578063db32be981461069c578063fb3ab12b146106b3578063fb86a404146106e0578063fc0c546a1461070b575b600f54600b541115151561014557600080fd5b61014e33610762565b151561015957600080fd5b6101616107b8565b151561016c57600080fd5b61017633346107d3565b6101c834600760003373ffffffffffffffffffffffffffffffffffffffff1673ffffffffffffffffffffffffffffffffffffffff16815260200190815260200160002054610d3690919063ffffffff16565b600760003373ffffffffffffffffffffffffffffffffffffffff1673ffffffffffffffffffffffffffffffffffffffff16815260200190815260200160002081905550005b34801561021957600080fd5b50610222610d52565b6040518082815260200191505060405180910390f35b34801561024457600080fd5b5061024d610d58565b604051808273ffffffffffffffffffffffffffffffffffffffff1673ffffffffffffffffffffffffffffffffffffffff16815260200191505060405180910390f35b34801561029b57600080fd5b506102d0600480360381019080803573ffffffffffffffffffffffffffffffffffffffff169060200190929190505050610d7e565b005b3480156102de57600080fd5b50610313600480360381019080803573ffffffffffffffffffffffffffffffffffffffff169060200190929190505050610e1d565b6040518082815260200191505060405180910390f35b34801561033557600080fd5b50610374600480360381019080803573ffffffffffffffffffffffffffffffffffffffff16906020019092919080359060200190929190505050610e35565b005b34801561038257600080fd5b5061038b610edb565b6040518082815260200191505060405180910390f35b3480156103ad57600080fd5b506103b6610ee1565b6040518082815260200191505060405180910390f35b3480156103d857600080fd5b5061040d600480360381019080803573ffffffffffffffffffffffffffffffffffffffff169060200190929190505050610ee7565b005b34801561041b57600080fd5b5061042461101b565b6040518082815260200191505060405180910390f35b34801561044657600080fd5b50610485600480360381019080803573ffffffffffffffffffffffffffffffffffffffff16906020019092919080359060200190929190505050611021565b005b34801561049357600080fd5b5061049c6115a7565b604051808273ffffffffffffffffffffffffffffffffffffffff1673ffffffffffffffffffffffffffffffffffffffff16815260200191505060405180910390f35b3480156104ea57600080fd5b506104f36115cc565b6040518082815260200191505060405180910390f35b34801561051557600080fd5b5061054a600480360381019080803573ffffffffffffffffffffffffffffffffffffffff1690602001909291905050506115d2565b604051808215151515815260200191505060405180910390f35b34801561057057600080fd5b506105796115f2565b6040518082815260200191505060405180910390f35b34801561059b57600080fd5b506105d0600480360381019080803573ffffffffffffffffffffffffffffffffffffffff1690602001909291905050506115f8565b005b3480156105de57600080fd5b50610613600480360381019080803573ffffffffffffffffffffffffffffffffffffffff1690602001909291905050506117d4565b005b34801561062157600080fd5b5061064060048036038101908080359060200190929190505050611873565b005b34801561064e57600080fd5b506106576107b8565b604051808215151515815260200191505060405180910390f35b34801561067d57600080fd5b506106866118d8565b6040518082815260200191505060405180910390f35b3480156106a857600080fd5b506106b16118de565b005b3480156106bf57600080fd5b506106de60048036038101908080359060200190929190505050611a3a565b005b3480156106ec57600080fd5b506106f5611a9f565b6040518082815260200191505060405180910390f35b34801561071757600080fd5b50610720611aa5565b604051808273ffffffffffffffffffffffffffffffffffffffff1673ffffffffffffffffffffffffffffffffffffffff16815260200191505060405180910390f35b6000600660008373ffffffffffffffffffffffffffffffffffffffff1673ffffffffffffffffffffffffffffffffffffffff16815260200190815260200160002060009054906101000a900460ff169050919050565b600060085442101580156107ce57506009544211155b905090565b60008060008060006108056010546107f7620f424089611acb90919063ffffffff16565b611b0390919063ffffffff16565b94506108346064610826610817611b19565b88611acb90919063ffffffff16565b611b0390919063ffffffff16565b93506108498486610d3690919063ffffffff16565b9450600160009054906101000a900473ffffffffffffffffffffffffffffffffffffffff1673ffffffffffffffffffffffffffffffffffffffff16633aa0396a88876040518363ffffffff167c0100000000000000000000000000000000000000000000000000000000028152600401808373ffffffffffffffffffffffffffffffffffffffff1673ffffffffffffffffffffffffffffffffffffffff16815260200182815260200192505050602060405180830381600087803b15801561091057600080fd5b505af1158015610924573d6000803e3d6000fd5b505050506040513d602081101561093a57600080fd5b810190808051906020019092919050505050610960600586611b0390919063ffffffff16565b9250600160009054906101000a900473ffffffffffffffffffffffffffffffffffffffff1673ffffffffffffffffffffffffffffffffffffffff16633aa0396a600360009054906101000a900473ffffffffffffffffffffffffffffffffffffffff16856040518363ffffffff167c0100000000000000000000000000000000000000000000000000000000028152600401808373ffffffffffffffffffffffffffffffffffffffff1673ffffffffffffffffffffffffffffffffffffffff16815260200182815260200192505050602060405180830381600087803b158015610a4957600080fd5b505af1158015610a5d573d6000803e3d6000fd5b505050506040513d6020811015610a7357600080fd5b810190808051906020019092919050505050610a99600f86611b0390919063ffffffff16565b9150600160009054906101000a900473ffffffffffffffffffffffffffffffffffffffff1673ffffffffffffffffffffffffffffffffffffffff16633aa0396a600460009054906101000a900473ffffffffffffffffffffffffffffffffffffffff16846040518363ffffffff167c0100000000000000000000000000000000000000000000000000000000028152600401808373ffffffffffffffffffffffffffffffffffffffff1673ffffffffffffffffffffffffffffffffffffffff16815260200182815260200192505050602060405180830381600087803b158015610b8257600080fd5b505af1158015610b96573d6000803e3d6000fd5b505050506040513d6020811015610bac57600080fd5b810190808051906020019092919050505050610bd2600f86611b0390919063ffffffff16565b9050600160009054906101000a900473ffffffffffffffffffffffffffffffffffffffff1673ffffffffffffffffffffffffffffffffffffffff16633aa0396a600560009054906101000a900473ffffffffffffffffffffffffffffffffffffffff16836040518363ffffffff167c0100000000000000000000000000000000000000000000000000000000028152600401808373ffffffffffffffffffffffffffffffffffffffff1673ffffffffffffffffffffffffffffffffffffffff16815260200182815260200192505050602060405180830381600087803b158015610cbb57600080fd5b505af1158015610ccf573d6000803e3d6000fd5b505050506040513d6020811015610ce557600080fd5b810190808051906020019092919050505050610d0c34600b54610d3690919063ffffffff16565b600b81905550610d2785601154610d3690919063ffffffff16565b60118190555050505050505050565b60008183019050828110151515610d4957fe5b80905092915050565b60105481565b600260009054906101000a900473ffffffffffffffffffffffffffffffffffffffff1681565b6000809054906101000a900473ffffffffffffffffffffffffffffffffffffffff1673ffffffffffffffffffffffffffffffffffffffff163373ffffffffffffffffffffffffffffffffffffffff16141515610dd957600080fd5b80600160006101000a81548173ffffffffffffffffffffffffffffffffffffffff021916908373ffffffffffffffffffffffffffffffffffffffff16021790555050565b60076020528060005260406000206000915090505481565b6000809054906101000a900473ffffffffffffffffffffffffffffffffffffffff1673ffffffffffffffffffffffffffffffffffffffff163373ffffffffffffffffffffffffffffffffffffffff16141515610e9057600080fd5b8173ffffffffffffffffffffffffffffffffffffffff166108fc829081150290604051600060405180830381858888f19350505050158015610ed6573d6000803e3d6000fd5b505050565b60095481565b60115481565b6000809054906101000a900473ffffffffffffffffffffffffffffffffffffffff1673ffffffffffffffffffffffffffffffffffffffff163373ffffffffffffffffffffffffffffffffffffffff16141515610f4257600080fd5b6000600660008373ffffffffffffffffffffffffffffffffffffffff1673ffffffffffffffffffffffffffffffffffffffff16815260200190815260200160002060006101000a81548160ff021916908315150217905550600a60008154809291906001900391905055507f713b90881ad62c4fa8ab6bd9197fa86481fc0c11b2edba60026514281b2dbac48142604051808373ffffffffffffffffffffffffffffffffffffffff1673ffffffffffffffffffffffffffffffffffffffff1681526020018281526020019250505060405180910390a150565b600a5481565b6000806000600260009054906101000a900473ffffffffffffffffffffffffffffffffffffffff1673ffffffffffffffffffffffffffffffffffffffff163373ffffffffffffffffffffffffffffffffffffffff1614806110ce57506000809054906101000a900473ffffffffffffffffffffffffffffffffffffffff1673ffffffffffffffffffffffffffffffffffffffff163373ffffffffffffffffffffffffffffffffffffffff16145b15156110d957600080fd5b600160009054906101000a900473ffffffffffffffffffffffffffffffffffffffff1673ffffffffffffffffffffffffffffffffffffffff16633aa0396a86866040518363ffffffff167c0100000000000000000000000000000000000000000000000000000000028152600401808373ffffffffffffffffffffffffffffffffffffffff1673ffffffffffffffffffffffffffffffffffffffff16815260200182815260200192505050602060405180830381600087803b15801561119e57600080fd5b505af11580156111b2573d6000803e3d6000fd5b505050506040513d60208110156111c857600080fd5b8101908080519060200190929190505050506111ee600585611b0390919063ffffffff16565b9250600160009054906101000a900473ffffffffffffffffffffffffffffffffffffffff1673ffffffffffffffffffffffffffffffffffffffff16633aa0396a600360009054906101000a900473ffffffffffffffffffffffffffffffffffffffff16856040518363ffffffff167c0100000000000000000000000000000000000000000000000000000000028152600401808373ffffffffffffffffffffffffffffffffffffffff1673ffffffffffffffffffffffffffffffffffffffff16815260200182815260200192505050602060405180830381600087803b1580156112d757600080fd5b505af11580156112eb573d6000803e3d6000fd5b505050506040513d602081101561130157600080fd5b810190808051906020019092919050505050611327600f85611b0390919063ffffffff16565b9150600160009054906101000a900473ffffffffffffffffffffffffffffffffffffffff1673ffffffffffffffffffffffffffffffffffffffff16633aa0396a600460009054906101000a900473ffffffffffffffffffffffffffffffffffffffff16846040518363ffffffff167c0100000000000000000000000000000000000000000000000000000000028152600401808373ffffffffffffffffffffffffffffffffffffffff1673ffffffffffffffffffffffffffffffffffffffff16815260200182815260200192505050602060405180830381600087803b15801561141057600080fd5b505af1158015611424573d6000803e3d6000fd5b505050506040513d602081101561143a57600080fd5b810190808051906020019092919050505050611460600f85611b0390919063ffffffff16565b9050600160009054906101000a900473ffffffffffffffffffffffffffffffffffffffff1673ffffffffffffffffffffffffffffffffffffffff16633aa0396a600560009054906101000a900473ffffffffffffffffffffffffffffffffffffffff16836040518363ffffffff167c0100000000000000000000000000000000000000000000000000000000028152600401808373ffffffffffffffffffffffffffffffffffffffff1673ffffffffffffffffffffffffffffffffffffffff16815260200182815260200192505050602060405180830381600087803b15801561154957600080fd5b505af115801561155d573d6000803e3d6000fd5b505050506040513d602081101561157357600080fd5b81019080805190602001909291905050505061159a84601154610d3690919063ffffffff16565b6011819055505050505050565b6000809054906101000a900473ffffffffffffffffffffffffffffffffffffffff1681565b600c5481565b60066020528060005260406000206000915054906101000a900460ff1681565b60085481565b600260009054906101000a900473ffffffffffffffffffffffffffffffffffffffff1673ffffffffffffffffffffffffffffffffffffffff163373ffffffffffffffffffffffffffffffffffffffff1614806116a057506000809054906101000a900473ffffffffffffffffffffffffffffffffffffffff1673ffffffffffffffffffffffffffffffffffffffff163373ffffffffffffffffffffffffffffffffffffffff16145b15156116ab57600080fd5b600073ffffffffffffffffffffffffffffffffffffffff168173ffffffffffffffffffffffffffffffffffffffff16141515156116e757600080fd5b6116f081610762565b1515156116fc57600080fd5b6001600660008373ffffffffffffffffffffffffffffffffffffffff1673ffffffffffffffffffffffffffffffffffffffff16815260200190815260200160002060006101000a81548160ff021916908315150217905550600a600081548092919060010191905055507fb39b5f240c7440b58c1c6cfd328b09ff9aa18b3c8ef4b829774e4f5bad0394168142604051808373ffffffffffffffffffffffffffffffffffffffff1673ffffffffffffffffffffffffffffffffffffffff1681526020018281526020019250505060405180910390a150565b6000809054906101000a900473ffffffffffffffffffffffffffffffffffffffff1673ffffffffffffffffffffffffffffffffffffffff163373ffffffffffffffffffffffffffffffffffffffff1614151561182f57600080fd5b80600260006101000a81548173ffffffffffffffffffffffffffffffffffffffff021916908373ffffffffffffffffffffffffffffffffffffffff16021790555050565b6000809054906101000a900473ffffffffffffffffffffffffffffffffffffffff1673ffffffffffffffffffffffffffffffffffffffff163373ffffffffffffffffffffffffffffffffffffffff161415156118ce57600080fd5b8060088190555050565b600b5481565b6000600c54600b541080156118f4575060095442115b15156118ff57600080fd5b600760003373ffffffffffffffffffffffffffffffffffffffff1673ffffffffffffffffffffffffffffffffffffffff1681526020019081526020016000205490506000600760003373ffffffffffffffffffffffffffffffffffffffff1673ffffffffffffffffffffffffffffffffffffffff168152602001908152602001600020541015151561199057600080fd5b6000600760003373ffffffffffffffffffffffffffffffffffffffff1673ffffffffffffffffffffffffffffffffffffffff168152602001908152602001600020819055503373ffffffffffffffffffffffffffffffffffffffff166108fc829081150290604051600060405180830381858888f19350505050158015611a1b573d6000803e3d6000fd5b50611a3181600b54611b6590919063ffffffff16565b600b8190555050565b6000809054906101000a900473ffffffffffffffffffffffffffffffffffffffff1673ffffffffffffffffffffffffffffffffffffffff163373ffffffffffffffffffffffffffffffffffffffff16141515611a9557600080fd5b8060098190555050565b600f5481565b600160009054906101000a900473ffffffffffffffffffffffffffffffffffffffff1681565b600080831415611ade5760009050611afd565b8183029050818382811515611aef57fe5b04141515611af957fe5b8090505b92915050565b60008183811515611b1057fe5b04905092915050565b6000600c54600b54111515611b315760329050611b62565b600d54600b54111515611b475760149050611b62565b600e54600b54111515611b5d57600a9050611b62565b600090505b90565b6000828211151515611b7357fe5b8183039050929150505600a165627a7a72305820b40be865ade1b80ee7b32315383cca88bc5f0101050545b507501cfacfb572080029",
  "source": "pragma solidity ^0.4.23;\n\n/**\n * @title SafeMath\n * @dev https://github.com/OpenZeppelin/openzeppelin-solidity/blob/master/contracts/math/SafeMath.sol\n */\nlibrary SafeMath {\n\n    function mul(uint256 a, uint256 b) internal pure returns (uint256 c) {\n        if (a == 0) {\n            return 0;\n        }\n        c = a * b;\n        assert(c / a == b);\n        return c;\n    }\n\n    function div(uint256 a, uint256 b) internal pure returns (uint256) {\n        return a / b;\n    }\n\n    function sub(uint256 a, uint256 b) internal pure returns (uint256) {\n        assert(b <= a);\n        return a - b;\n    }\n\n    function add(uint256 a, uint256 b) internal pure returns (uint256 c) {\n        c = a + b;\n        assert(c >= a);\n        return c;\n    }\n}\n\ninterface ERC20 {\n    function transfer (address _beneficiary, uint256 _tokenAmount) external returns (bool);\n    function mintFromICO(address _to, uint256 _amount) external  returns(bool);\n}\n/**\n * @title Ownable\n * @dev https://github.com/OpenZeppelin/openzeppelin-solidity/blob/master/contracts/ownership/Ownable.sol\n */\ncontract Ownable {\n    address public owner;\n\n    constructor() public {\n        owner = msg.sender;\n    }\n\n    modifier onlyOwner() {\n        require(msg.sender == owner);\n        _;\n    }\n}\ncontract MarkSale is Ownable {\n\n    ERC20 public token;\n\n    using SafeMath for uint;\n\n    address public backEndOperator = msg.sender;\n    address team = 0x7eDE8260e573d3A3dDfc058f19309DF5a1f7397E; // 15% - основантели проекта\n    address bounty = 0x0cdb839B52404d49417C8Ded6c3E2157A06CdD37; // 5% - для баунти программы\n    address reserve = 0xCe66E79f59eafACaf4CaBaA317CaB4857487E3a1; // 5% - для резерва\n\n    mapping(address=>bool) public whitelist;\n    mapping(address => uint256) public investedEther;\n\n    uint256 public startSale = now; // Monday, 01-Oct-18 00:00:01 UTC\n    uint256 public endSale = 1535673600; // Friday, 31-Aug-18 00:00:00 UTC\n\n    uint256 public investors; // общее количество инвесторов\n    uint256 public weisRaised; // - общее количество эфира собранное в период сейла\n\n    uint256 public softCap = 3000*1e18; // 3,000 ETHER\n    uint256 step1 = 10000*1e18; // 10,000 ETHER\n    uint256 step2 = 20000*1e18; // 20,000 ETHER;\n    uint256 public hardCap = 40000*1e18; // 40,000 ETHER\n\n    uint256 public MainSalePrice = 231000000000000; // 0.000231 ETH - цена токена на основной распродаже\n\n    uint256 public soldTokens;\n\n    event Finalized();\n    event Authorized(address wlCandidate, uint timestamp);\n    event Revoked(address wlCandidate, uint timestamp);\n\n    modifier isUnderHardCap() {\n        require(weisRaised <= hardCap);\n        _;\n    }\n\n    modifier backEnd() {\n        require(msg.sender == backEndOperator || msg.sender == owner);\n        _;\n    }\n    // конструктор контракта\n    constructor() public {}\n\n    // авторизация токена/ или изменение адреса\n    function setToken (ERC20 _token) public onlyOwner {\n        token = _token;\n    }\n\n    // изменение даты начала основной распродажи\n    function setStartSale(uint256 newStartSale) public onlyOwner {\n        startSale = newStartSale;\n    }\n    // изменение даты окончания основной распродажи\n    function setEndSale(uint256 newEndSaled) public onlyOwner {\n        endSale = newEndSaled;\n    }\n    // Изменение адреса оператора бекэнда\n    function setBackEndAddress(address newBackEndOperator) public onlyOwner {\n        backEndOperator = newBackEndOperator;\n    }\n\n    /*******************************************************************************\n     * Whitelist's section\n     */\n    // с сайта backEndOperator авторизует инвестора\n    function authorize(address wlCandidate) public backEnd  {\n\n        require(wlCandidate != address(0x0));\n        require(!isWhitelisted(wlCandidate));\n        whitelist[wlCandidate] = true;\n        investors++;\n        emit Authorized(wlCandidate, now);\n    }\n    // отмена авторизации инвестора в WL(только владелец контракта)\n    function revoke(address wlCandidate) public  onlyOwner {\n        whitelist[wlCandidate] = false;\n        investors--;\n        emit Revoked(wlCandidate, now);\n    }\n    // проверка на нахождение адреса инвестора в WL\n    function isWhitelisted(address wlCandidate) internal view returns(bool) {\n        return whitelist[wlCandidate];\n    }\n    /*******************************************************************************\n     * Payable's section\n     */\n\n    function isMainSale() public constant returns(bool) {\n        return now >= startSale && now <= endSale;\n    }\n    // callback функция контракта\n    function () public payable isUnderHardCap\n    {\n        require(isWhitelisted(msg.sender));\n        require(isMainSale());\n        mainSale(msg.sender, msg.value);\n        investedEther[msg.sender] = investedEther[msg.sender].add(msg.value);\n    }\n\n    // выпуск токенов в период распродажи\n    function mainSale(address _investor, uint256 _value) internal {\n        uint256 tokens = _value.mul(1e6).div(MainSalePrice); // 1e18*1e18/\n        uint256 tokensCollect = tokens.mul(discountCollect()).div(100);\n        tokens = tokens.add(tokensCollect);\n\n        token.mintFromICO(_investor, tokens);\n\n        uint256 tokensTeam = tokens.div(5); // 1/5\n        token.mintFromICO(team, tokensTeam);\n\n        uint256 tokensBoynty = tokens.div(15); // 1/15\n        token.mintFromICO(bounty, tokensBoynty);\n\n        uint256 tokenReserve = tokens.div(15); // 1/15\n        token.mintFromICO(reserve, tokenReserve);\n\n        weisRaised = weisRaised.add(msg.value);\n        soldTokens = soldTokens.add(tokens);\n    }\n\n    function discountCollect() view private returns(uint256) {\n        // До 3000 eth 50%, от 3000 до 10000-20%, от 10000 до 20000-10%\n        // 50% скидка, если сумма сбора не привышает 3000 ETHER\n        if(weisRaised <= softCap) {\n            return 50;\n        } // 20% скидка, если сумма сбора не привышает 10000 ETHER\n        if(weisRaised <= step1) {\n            return 20;\n        } // 10% скидка, если сумма сбора не привышает 20000 ETHER\n        if(weisRaised <= step2) {\n            return 10;\n        }\n        return 0;\n    }\n\n    // Функция отправки токенов получателям в ручном режиме(только владелец контракта)\n    function mintManual(address _recipient, uint256 _value) public backEnd {\n        token.mintFromICO(_recipient, _value);\n\n        uint256 tokensTeam = _value.div(5); // 1/5\n        token.mintFromICO(team, tokensTeam);\n\n        uint256 tokensBoynty = _value.div(15); // 1/15\n        token.mintFromICO(bounty, tokensBoynty);\n\n        uint256 tokenReserve = _value.div(15); // 1/15\n        token.mintFromICO(reserve, tokenReserve);\n\n        soldTokens = soldTokens.add(_value);\n        //require(soldTokensPreSale <= hardCapPreSale);\n        //require(soldTokensSale <= hardCapSale);\n    }\n\n    // Отправка эфира с контракта\n    function transferEthFromContract(address _to, uint256 amount) public onlyOwner {\n        //require(weisRaised >= softCap);\n        _to.transfer(amount);\n    }\n\n    /*******************************************************************************\n     * Refundable\n     */\n    function refundICO() public {\n        require(weisRaised < softCap && now > endSale);\n        uint rate = investedEther[msg.sender];\n        require(investedEther[msg.sender] >= 0);\n        investedEther[msg.sender] = 0;\n        msg.sender.transfer(rate);\n        weisRaised = weisRaised.sub(rate);\n    }\n}",
  "sourcePath": "/Users/ivanborisov/Yandex.Disk.localized/IT/WorkProjects/Portfolio/7 seconds/contracts/Crowdsale.sol",
  "compiler": {
    "name": "solc",
    "version": "0.4.24+commit.e67f0147.Emscripten.clang"
  },
  "schemaVersion": "2.0.0",
  "updatedAt": "2018-06-19T11:30:47.601Z"
}