{
  "contractName": "MainICO",
  "abi": [
    {
      "constant": true,
      "inputs": [],
      "name": "backEndOperator",
      "outputs": [
        {
          "name": "",
          "type": "address"
        }
      ],
      "payable": false,
      "stateMutability": "view",
      "type": "function"
    },
    {
      "constant": true,
      "inputs": [],
      "name": "soldTokensMainSale",
      "outputs": [
        {
          "name": "",
          "type": "uint256"
        }
      ],
      "payable": false,
      "stateMutability": "view",
      "type": "function"
    },
    {
      "constant": true,
      "inputs": [
        {
          "name": "",
          "type": "address"
        }
      ],
      "name": "investedEther",
      "outputs": [
        {
          "name": "",
          "type": "uint256"
        }
      ],
      "payable": false,
      "stateMutability": "view",
      "type": "function"
    },
    {
      "constant": true,
      "inputs": [],
      "name": "dollarPrice",
      "outputs": [
        {
          "name": "",
          "type": "uint256"
        }
      ],
      "payable": false,
      "stateMutability": "view",
      "type": "function"
    },
    {
      "constant": true,
      "inputs": [],
      "name": "startMainSale",
      "outputs": [
        {
          "name": "",
          "type": "uint256"
        }
      ],
      "payable": false,
      "stateMutability": "view",
      "type": "function"
    },
    {
      "constant": true,
      "inputs": [],
      "name": "endMainSale",
      "outputs": [
        {
          "name": "",
          "type": "uint256"
        }
      ],
      "payable": false,
      "stateMutability": "view",
      "type": "function"
    },
    {
      "constant": true,
      "inputs": [],
      "name": "buyPrice",
      "outputs": [
        {
          "name": "",
          "type": "uint256"
        }
      ],
      "payable": false,
      "stateMutability": "view",
      "type": "function"
    },
    {
      "constant": true,
      "inputs": [],
      "name": "investors",
      "outputs": [
        {
          "name": "",
          "type": "uint256"
        }
      ],
      "payable": false,
      "stateMutability": "view",
      "type": "function"
    },
    {
      "constant": true,
      "inputs": [],
      "name": "owner",
      "outputs": [
        {
          "name": "",
          "type": "address"
        }
      ],
      "payable": false,
      "stateMutability": "view",
      "type": "function"
    },
    {
      "constant": true,
      "inputs": [
        {
          "name": "",
          "type": "address"
        }
      ],
      "name": "whitelist",
      "outputs": [
        {
          "name": "",
          "type": "bool"
        }
      ],
      "payable": false,
      "stateMutability": "view",
      "type": "function"
    },
    {
      "constant": true,
      "inputs": [],
      "name": "softCapMainSale",
      "outputs": [
        {
          "name": "",
          "type": "uint256"
        }
      ],
      "payable": false,
      "stateMutability": "view",
      "type": "function"
    },
    {
      "constant": true,
      "inputs": [],
      "name": "weisRaised",
      "outputs": [
        {
          "name": "",
          "type": "uint256"
        }
      ],
      "payable": false,
      "stateMutability": "view",
      "type": "function"
    },
    {
      "constant": true,
      "inputs": [],
      "name": "hardCapMainSale",
      "outputs": [
        {
          "name": "",
          "type": "uint256"
        }
      ],
      "payable": false,
      "stateMutability": "view",
      "type": "function"
    },
    {
      "constant": true,
      "inputs": [],
      "name": "token",
      "outputs": [
        {
          "name": "",
          "type": "address"
        }
      ],
      "payable": false,
      "stateMutability": "view",
      "type": "function"
    },
    {
      "inputs": [
        {
          "name": "_token",
          "type": "address"
        },
        {
          "name": "usdETH",
          "type": "uint256"
        }
      ],
      "payable": false,
      "stateMutability": "nonpayable",
      "type": "constructor"
    },
    {
      "payable": true,
      "stateMutability": "payable",
      "type": "fallback"
    },
    {
      "anonymous": false,
      "inputs": [
        {
          "indexed": false,
          "name": "wlCandidate",
          "type": "address"
        },
        {
          "indexed": false,
          "name": "timestamp",
          "type": "uint256"
        }
      ],
      "name": "Authorized",
      "type": "event"
    },
    {
      "anonymous": false,
      "inputs": [
        {
          "indexed": false,
          "name": "wlCandidate",
          "type": "address"
        },
        {
          "indexed": false,
          "name": "timestamp",
          "type": "uint256"
        }
      ],
      "name": "Revoked",
      "type": "event"
    },
    {
      "anonymous": false,
      "inputs": [
        {
          "indexed": false,
          "name": "time",
          "type": "uint256"
        },
        {
          "indexed": false,
          "name": "_rate",
          "type": "uint256"
        }
      ],
      "name": "UpdateDollar",
      "type": "event"
    },
    {
      "constant": false,
      "inputs": [
        {
          "name": "newStartMainSale",
          "type": "uint256"
        }
      ],
      "name": "setStartMainSale",
      "outputs": [],
      "payable": false,
      "stateMutability": "nonpayable",
      "type": "function"
    },
    {
      "constant": false,
      "inputs": [
        {
          "name": "newEndMainSale",
          "type": "uint256"
        }
      ],
      "name": "setEndMainSale",
      "outputs": [],
      "payable": false,
      "stateMutability": "nonpayable",
      "type": "function"
    },
    {
      "constant": false,
      "inputs": [
        {
          "name": "newBackEndOperator",
          "type": "address"
        }
      ],
      "name": "setBackEndAddress",
      "outputs": [],
      "payable": false,
      "stateMutability": "nonpayable",
      "type": "function"
    },
    {
      "constant": false,
      "inputs": [
        {
          "name": "_dollar",
          "type": "uint256"
        }
      ],
      "name": "setBuyPrice",
      "outputs": [],
      "payable": false,
      "stateMutability": "nonpayable",
      "type": "function"
    },
    {
      "constant": false,
      "inputs": [
        {
          "name": "wlCandidate",
          "type": "address"
        }
      ],
      "name": "authorize",
      "outputs": [],
      "payable": false,
      "stateMutability": "nonpayable",
      "type": "function"
    },
    {
      "constant": false,
      "inputs": [
        {
          "name": "wlCandidate",
          "type": "address"
        }
      ],
      "name": "revoke",
      "outputs": [],
      "payable": false,
      "stateMutability": "nonpayable",
      "type": "function"
    },
    {
      "constant": true,
      "inputs": [],
      "name": "isMainSale",
      "outputs": [
        {
          "name": "",
          "type": "bool"
        }
      ],
      "payable": false,
      "stateMutability": "view",
      "type": "function"
    },
    {
      "constant": false,
      "inputs": [
        {
          "name": "receiver",
          "type": "address"
        },
        {
          "name": "_tokens",
          "type": "uint256"
        }
      ],
      "name": "mintManual",
      "outputs": [],
      "payable": false,
      "stateMutability": "nonpayable",
      "type": "function"
    },
    {
      "constant": false,
      "inputs": [
        {
          "name": "_to",
          "type": "address"
        },
        {
          "name": "amount",
          "type": "uint256"
        }
      ],
      "name": "transferEthFromContract",
      "outputs": [],
      "payable": false,
      "stateMutability": "nonpayable",
      "type": "function"
    },
    {
      "constant": false,
      "inputs": [],
      "name": "refundICO",
      "outputs": [],
      "payable": false,
      "stateMutability": "nonpayable",
      "type": "function"
    }
  ],
  "bytecode": "0x608060405233600260006101000a81548173ffffffffffffffffffffffffffffffffffffffff021916908373ffffffffffffffffffffffffffffffffffffffff160217905550737ede8260e573d3a3ddfc058f19309df5a1f7397e600360006101000a81548173ffffffffffffffffffffffffffffffffffffffff021916908373ffffffffffffffffffffffffffffffffffffffff160217905550730cdb839b52404d49417c8ded6c3e2157a06cdd37600460006101000a81548173ffffffffffffffffffffffffffffffffffffffff021916908373ffffffffffffffffffffffffffffffffffffffff16021790555073c032d3fca001b73e8cc3be0b75772329395caa49600560006101000a81548173ffffffffffffffffffffffffffffffffffffffff021916908373ffffffffffffffffffffffffffffffffffffffff16021790555042600855624f1a00600854016009556211238060085401600a556223988060085401600b5562360d8060085401600c556a14048ca0f2f8dd05000000600f556a2d7eb3f96e070d9700000060105534801561019e57600080fd5b50604051604080611efc8339810180604052810190808051906020019092919080519060200190929190505050336000806101000a81548173ffffffffffffffffffffffffffffffffffffffff021916908373ffffffffffffffffffffffffffffffffffffffff16021790555081600160006101000a81548173ffffffffffffffffffffffffffffffffffffffff021916908373ffffffffffffffffffffffffffffffffffffffff16021790555080601281905550600460125467016345785d8a000081151561026a57fe5b04026011819055505050611c79806102836000396000f30060806040526004361061013e576000357c0100000000000000000000000000000000000000000000000000000000900463ffffffff168063050895ff146102195780630e407bdd14610270578063274448ff1461029b57806331198d19146102f257806340d7b7b81461033f5780634c7b1a791461036a578063580e77d41461039757806363ae8d6c146103c25780636ee64345146103ef57806374a8f1031461041a5780638620410b1461045d5780638ac27f5f146104885780638ca5da35146104b35780638da5cb5b146105005780639b19251a14610557578063b6a5d7de146105b2578063b701dc14146105f5578063bad4059714610638578063c4be00b814610665578063d1f2efd514610690578063da5f838d146106bf578063db32be98146106ea578063f307946d14610701578063fc0c546a1461072c575b61014733610783565b151561015257600080fd5b61015a6107d9565b151561016557600080fd5b61016f33346107f4565b6010546013541115151561018257600080fd5b6101d434600760003373ffffffffffffffffffffffffffffffffffffffff1673ffffffffffffffffffffffffffffffffffffffff16815260200190815260200160002054610d8290919063ffffffff16565b600760003373ffffffffffffffffffffffffffffffffffffffff1673ffffffffffffffffffffffffffffffffffffffff16815260200190815260200160002081905550005b34801561022557600080fd5b5061022e610d9e565b604051808273ffffffffffffffffffffffffffffffffffffffff1673ffffffffffffffffffffffffffffffffffffffff16815260200191505060405180910390f35b34801561027c57600080fd5b50610285610dc4565b6040518082815260200191505060405180910390f35b3480156102a757600080fd5b506102dc600480360381019080803573ffffffffffffffffffffffffffffffffffffffff169060200190929190505050610dca565b6040518082815260200191505060405180910390f35b3480156102fe57600080fd5b5061033d600480360381019080803573ffffffffffffffffffffffffffffffffffffffff16906020019092919080359060200190929190505050610de2565b005b34801561034b57600080fd5b50610354610e88565b6040518082815260200191505060405180910390f35b34801561037657600080fd5b5061039560048036038101908080359060200190929190505050610e8e565b005b3480156103a357600080fd5b506103ac610ef3565b6040518082815260200191505060405180910390f35b3480156103ce57600080fd5b506103ed60048036038101908080359060200190929190505050610ef9565b005b3480156103fb57600080fd5b50610404610fbe565b6040518082815260200191505060405180910390f35b34801561042657600080fd5b5061045b600480360381019080803573ffffffffffffffffffffffffffffffffffffffff169060200190929190505050610fc4565b005b34801561046957600080fd5b506104726110f8565b6040518082815260200191505060405180910390f35b34801561049457600080fd5b5061049d6110fe565b6040518082815260200191505060405180910390f35b3480156104bf57600080fd5b506104fe600480360381019080803573ffffffffffffffffffffffffffffffffffffffff16906020019092919080359060200190929190505050611104565b005b34801561050c57600080fd5b506105156116c3565b604051808273ffffffffffffffffffffffffffffffffffffffff1673ffffffffffffffffffffffffffffffffffffffff16815260200191505060405180910390f35b34801561056357600080fd5b50610598600480360381019080803573ffffffffffffffffffffffffffffffffffffffff1690602001909291905050506116e8565b604051808215151515815260200191505060405180910390f35b3480156105be57600080fd5b506105f3600480360381019080803573ffffffffffffffffffffffffffffffffffffffff169060200190929190505050611708565b005b34801561060157600080fd5b50610636600480360381019080803573ffffffffffffffffffffffffffffffffffffffff1690602001909291905050506118e4565b005b34801561064457600080fd5b5061066360048036038101908080359060200190929190505050611983565b005b34801561067157600080fd5b5061067a6119e8565b6040518082815260200191505060405180910390f35b34801561069c57600080fd5b506106a56107d9565b604051808215151515815260200191505060405180910390f35b3480156106cb57600080fd5b506106d46119ee565b6040518082815260200191505060405180910390f35b3480156106f657600080fd5b506106ff6119f4565b005b34801561070d57600080fd5b50610716611b50565b6040518082815260200191505060405180910390f35b34801561073857600080fd5b50610741611b56565b604051808273ffffffffffffffffffffffffffffffffffffffff1673ffffffffffffffffffffffffffffffffffffffff16815260200191505060405180910390f35b6000600660008373ffffffffffffffffffffffffffffffffffffffff1673ffffffffffffffffffffffffffffffffffffffff16815260200190815260200160002060009054906101000a900460ff169050919050565b600060085442101580156107ef57506009544211155b905090565b600080600080600061082b60115461081d670de0b6b3a764000089611b7c90919063ffffffff16565b611bb490919063ffffffff16565b945061085a606461084c61083d611bca565b88611b7c90919063ffffffff16565b611bb490919063ffffffff16565b935061086f8486610d8290919063ffffffff16565b9450600160009054906101000a900473ffffffffffffffffffffffffffffffffffffffff1673ffffffffffffffffffffffffffffffffffffffff16633aa0396a88876040518363ffffffff167c0100000000000000000000000000000000000000000000000000000000028152600401808373ffffffffffffffffffffffffffffffffffffffff1673ffffffffffffffffffffffffffffffffffffffff16815260200182815260200192505050602060405180830381600087803b15801561093657600080fd5b505af115801561094a573d6000803e3d6000fd5b505050506040513d602081101561096057600080fd5b81019080805190602001909291905050505061098785601354610d8290919063ffffffff16565b6013819055506109b4600e6109a6600488611b7c90919063ffffffff16565b611bb490919063ffffffff16565b9250600160009054906101000a900473ffffffffffffffffffffffffffffffffffffffff1673ffffffffffffffffffffffffffffffffffffffff16633aa0396a600360009054906101000a900473ffffffffffffffffffffffffffffffffffffffff16856040518363ffffffff167c0100000000000000000000000000000000000000000000000000000000028152600401808373ffffffffffffffffffffffffffffffffffffffff1673ffffffffffffffffffffffffffffffffffffffff16815260200182815260200192505050602060405180830381600087803b158015610a9d57600080fd5b505af1158015610ab1573d6000803e3d6000fd5b505050506040513d6020811015610ac757600080fd5b810190808051906020019092919050505050610b006046610af2600388611b7c90919063ffffffff16565b611bb490919063ffffffff16565b9150600160009054906101000a900473ffffffffffffffffffffffffffffffffffffffff1673ffffffffffffffffffffffffffffffffffffffff16633aa0396a600460009054906101000a900473ffffffffffffffffffffffffffffffffffffffff16846040518363ffffffff167c0100000000000000000000000000000000000000000000000000000000028152600401808373ffffffffffffffffffffffffffffffffffffffff1673ffffffffffffffffffffffffffffffffffffffff16815260200182815260200192505050602060405180830381600087803b158015610be957600080fd5b505af1158015610bfd573d6000803e3d6000fd5b505050506040513d6020811015610c1357600080fd5b810190808051906020019092919050505050610c39600a86611bb490919063ffffffff16565b9050600160009054906101000a900473ffffffffffffffffffffffffffffffffffffffff1673ffffffffffffffffffffffffffffffffffffffff16633aa0396a600560009054906101000a900473ffffffffffffffffffffffffffffffffffffffff16836040518363ffffffff167c0100000000000000000000000000000000000000000000000000000000028152600401808373ffffffffffffffffffffffffffffffffffffffff1673ffffffffffffffffffffffffffffffffffffffff16815260200182815260200192505050602060405180830381600087803b158015610d2257600080fd5b505af1158015610d36573d6000803e3d6000fd5b505050506040513d6020811015610d4c57600080fd5b810190808051906020019092919050505050610d7386600e54610d8290919063ffffffff16565b600e8190555050505050505050565b60008183019050828110151515610d9557fe5b80905092915050565b600260009054906101000a900473ffffffffffffffffffffffffffffffffffffffff1681565b60135481565b60076020528060005260406000206000915090505481565b6000809054906101000a900473ffffffffffffffffffffffffffffffffffffffff1673ffffffffffffffffffffffffffffffffffffffff163373ffffffffffffffffffffffffffffffffffffffff16141515610e3d57600080fd5b8173ffffffffffffffffffffffffffffffffffffffff166108fc829081150290604051600060405180830381858888f19350505050158015610e83573d6000803e3d6000fd5b505050565b60125481565b6000809054906101000a900473ffffffffffffffffffffffffffffffffffffffff1673ffffffffffffffffffffffffffffffffffffffff163373ffffffffffffffffffffffffffffffffffffffff16141515610ee957600080fd5b8060088190555050565b60085481565b6000809054906101000a900473ffffffffffffffffffffffffffffffffffffffff1673ffffffffffffffffffffffffffffffffffffffff163373ffffffffffffffffffffffffffffffffffffffff16141515610f5457600080fd5b80601281905550600460125467016345785d8a0000811515610f7257fe5b04026011819055507f8e5d322ef7050e99e3845ad9d8b2608b9512de19853d4215b71b7a4ee2993d4f42601254604051808381526020018281526020019250505060405180910390a150565b60095481565b6000809054906101000a900473ffffffffffffffffffffffffffffffffffffffff1673ffffffffffffffffffffffffffffffffffffffff163373ffffffffffffffffffffffffffffffffffffffff1614151561101f57600080fd5b6000600660008373ffffffffffffffffffffffffffffffffffffffff1673ffffffffffffffffffffffffffffffffffffffff16815260200190815260200160002060006101000a81548160ff021916908315150217905550600d60008154809291906001900391905055507f713b90881ad62c4fa8ab6bd9197fa86481fc0c11b2edba60026514281b2dbac48142604051808373ffffffffffffffffffffffffffffffffffffffff1673ffffffffffffffffffffffffffffffffffffffff1681526020018281526020019250505060405180910390a150565b60115481565b600d5481565b6000806000600260009054906101000a900473ffffffffffffffffffffffffffffffffffffffff1673ffffffffffffffffffffffffffffffffffffffff163373ffffffffffffffffffffffffffffffffffffffff1614806111b157506000809054906101000a900473ffffffffffffffffffffffffffffffffffffffff1673ffffffffffffffffffffffffffffffffffffffff163373ffffffffffffffffffffffffffffffffffffffff16145b15156111bc57600080fd5b600160009054906101000a900473ffffffffffffffffffffffffffffffffffffffff1673ffffffffffffffffffffffffffffffffffffffff16633aa0396a86866040518363ffffffff167c0100000000000000000000000000000000000000000000000000000000028152600401808373ffffffffffffffffffffffffffffffffffffffff1673ffffffffffffffffffffffffffffffffffffffff16815260200182815260200192505050602060405180830381600087803b15801561128157600080fd5b505af1158015611295573d6000803e3d6000fd5b505050506040513d60208110156112ab57600080fd5b8101908080519060200190929190505050506112d284601354610d8290919063ffffffff16565b601381905550601054601354111515156112eb57600080fd5b611312600e611304600487611b7c90919063ffffffff16565b611bb490919063ffffffff16565b9250600160009054906101000a900473ffffffffffffffffffffffffffffffffffffffff1673ffffffffffffffffffffffffffffffffffffffff16633aa0396a600360009054906101000a900473ffffffffffffffffffffffffffffffffffffffff16856040518363ffffffff167c0100000000000000000000000000000000000000000000000000000000028152600401808373ffffffffffffffffffffffffffffffffffffffff1673ffffffffffffffffffffffffffffffffffffffff16815260200182815260200192505050602060405180830381600087803b1580156113fb57600080fd5b505af115801561140f573d6000803e3d6000fd5b505050506040513d602081101561142557600080fd5b81019080805190602001909291905050505061145e6046611450600387611b7c90919063ffffffff16565b611bb490919063ffffffff16565b9150600160009054906101000a900473ffffffffffffffffffffffffffffffffffffffff1673ffffffffffffffffffffffffffffffffffffffff16633aa0396a600460009054906101000a900473ffffffffffffffffffffffffffffffffffffffff16846040518363ffffffff167c0100000000000000000000000000000000000000000000000000000000028152600401808373ffffffffffffffffffffffffffffffffffffffff1673ffffffffffffffffffffffffffffffffffffffff16815260200182815260200192505050602060405180830381600087803b15801561154757600080fd5b505af115801561155b573d6000803e3d6000fd5b505050506040513d602081101561157157600080fd5b810190808051906020019092919050505050611597600a85611bb490919063ffffffff16565b9050600160009054906101000a900473ffffffffffffffffffffffffffffffffffffffff1673ffffffffffffffffffffffffffffffffffffffff16633aa0396a600560009054906101000a900473ffffffffffffffffffffffffffffffffffffffff16836040518363ffffffff167c0100000000000000000000000000000000000000000000000000000000028152600401808373ffffffffffffffffffffffffffffffffffffffff1673ffffffffffffffffffffffffffffffffffffffff16815260200182815260200192505050602060405180830381600087803b15801561168057600080fd5b505af1158015611694573d6000803e3d6000fd5b505050506040513d60208110156116aa57600080fd5b8101908080519060200190929190505050505050505050565b6000809054906101000a900473ffffffffffffffffffffffffffffffffffffffff1681565b60066020528060005260406000206000915054906101000a900460ff1681565b600260009054906101000a900473ffffffffffffffffffffffffffffffffffffffff1673ffffffffffffffffffffffffffffffffffffffff163373ffffffffffffffffffffffffffffffffffffffff1614806117b057506000809054906101000a900473ffffffffffffffffffffffffffffffffffffffff1673ffffffffffffffffffffffffffffffffffffffff163373ffffffffffffffffffffffffffffffffffffffff16145b15156117bb57600080fd5b600073ffffffffffffffffffffffffffffffffffffffff168173ffffffffffffffffffffffffffffffffffffffff16141515156117f757600080fd5b61180081610783565b15151561180c57600080fd5b6001600660008373ffffffffffffffffffffffffffffffffffffffff1673ffffffffffffffffffffffffffffffffffffffff16815260200190815260200160002060006101000a81548160ff021916908315150217905550600d600081548092919060010191905055507fb39b5f240c7440b58c1c6cfd328b09ff9aa18b3c8ef4b829774e4f5bad0394168142604051808373ffffffffffffffffffffffffffffffffffffffff1673ffffffffffffffffffffffffffffffffffffffff1681526020018281526020019250505060405180910390a150565b6000809054906101000a900473ffffffffffffffffffffffffffffffffffffffff1673ffffffffffffffffffffffffffffffffffffffff163373ffffffffffffffffffffffffffffffffffffffff1614151561193f57600080fd5b80600260006101000a81548173ffffffffffffffffffffffffffffffffffffffff021916908373ffffffffffffffffffffffffffffffffffffffff16021790555050565b6000809054906101000a900473ffffffffffffffffffffffffffffffffffffffff1673ffffffffffffffffffffffffffffffffffffffff163373ffffffffffffffffffffffffffffffffffffffff161415156119de57600080fd5b8060098190555050565b600f5481565b600e5481565b6000600f54601354108015611a0a575060095442115b1515611a1557600080fd5b600760003373ffffffffffffffffffffffffffffffffffffffff1673ffffffffffffffffffffffffffffffffffffffff1681526020019081526020016000205490506000600760003373ffffffffffffffffffffffffffffffffffffffff1673ffffffffffffffffffffffffffffffffffffffff1681526020019081526020016000205410151515611aa657600080fd5b6000600760003373ffffffffffffffffffffffffffffffffffffffff1673ffffffffffffffffffffffffffffffffffffffff168152602001908152602001600020819055503373ffffffffffffffffffffffffffffffffffffffff166108fc829081150290604051600060405180830381858888f19350505050158015611b31573d6000803e3d6000fd5b50611b4781600e54611c3490919063ffffffff16565b600e8190555050565b60105481565b600160009054906101000a900473ffffffffffffffffffffffffffffffffffffffff1681565b600080831415611b8f5760009050611bae565b8183029050818382811515611ba057fe5b04141515611baa57fe5b8090505b92915050565b60008183811515611bc157fe5b04905092915050565b600060085442118015611bde5750600a5442105b15611bec5760079050611c31565b600a5442118015611bfe5750600b5442105b15611c0c5760049050611c31565b600b5442118015611c1e5750600c5442105b15611c2c5760029050611c31565b600090505b90565b6000828211151515611c4257fe5b8183039050929150505600a165627a7a723058208b61e176c1bcbdf669556dda31b4b59c67bf9599dd96295442b0e2b85af5485a0029",
  "source": "pragma solidity ^0.4.23;\n\n/*** @title SafeMath\n * @dev https://github.com/OpenZeppelin/openzeppelin-solidity/blob/master/contracts/math/SafeMath.sol */\nlibrary SafeMath {\n    \n    function mul(uint256 a, uint256 b) internal pure returns (uint256 c) {\n        if (a == 0) {\n            return 0;\n        }\n        c = a * b;\n        assert(c / a == b);\n        return c;\n    }\n    \n    function div(uint256 a, uint256 b) internal pure returns (uint256) {\n        return a / b;\n    }\n    \n    function sub(uint256 a, uint256 b) internal pure returns (uint256) {\n        assert(b <= a);\n        return a - b;\n    }\n    \n    function add(uint256 a, uint256 b) internal pure returns (uint256 c) {\n        c = a + b;\n        assert(c >= a);\n        return c;\n    }\n}\n\ninterface ERC20 {\n    function transfer (address _beneficiary, uint256 _tokenAmount) external returns (bool);\n    function mintFromICO(address _to, uint256 _amount) external  returns(bool);\n}\n\n/**\n * @title Ownable\n * @dev https://github.com/OpenZeppelin/openzeppelin-solidity/blob/master/contracts/ownership/Ownable.sol */\ncontract Ownable {\n    address public owner;\n    \n    constructor() public {\n        owner = msg.sender;\n    }\n    \n    modifier onlyOwner() {\n        require(msg.sender == owner);\n        _;\n    }\n}\n\n/**\n * @title CrowdSale\n * @dev https://github.com/elephant-marketing/FBway_smart/blob/master/Smart_contract/contracts/ICO.sol */\ncontract MainICO is Ownable {\n    \n    ERC20 public token;\n    \n    using SafeMath for uint;\n    \n    address public backEndOperator = msg.sender;\n    address founders = 0x7eDE8260e573d3A3dDfc058f19309DF5a1f7397E; // 20% - основантели проекта\n    address bounty = 0x0cdb839B52404d49417C8Ded6c3E2157A06CdD37; // 3% - для баунти программы\n    address consult = 0xC032D3fCA001b73e8cC3be0B75772329395caA49; // 7% - consult\n    \n    mapping(address=>bool) public whitelist;\n    \n    mapping(address => uint256) public investedEther;\n    \n    uint256 public startMainSale = now;\n    uint256 public endMainSale = startMainSale + 5184000; // 60 days\n    \n    uint256 stage1Sale = startMainSale + 1123200; // 13 day\n    uint256 stage2Sale = startMainSale + 2332800; // 27 day\n    uint256 stage3Sale = startMainSale + 3542400; // 41 day\n    \n    uint256 public investors;\n    uint256 public weisRaised;\n    \n    uint256 public softCapMainSale = 24200000*1e18; // 24,200,000 FBW\n    uint256 public hardCapMainSale = 55000000*1e18; // 55,000,000 FBW\n    \n    uint256 public buyPrice; // 0.4 USD\n    uint256 public dollarPrice;\n    \n    uint256 public soldTokensMainSale;\n    \n    event Authorized(address wlCandidate, uint timestamp);\n    event Revoked(address wlCandidate, uint timestamp);\n    event UpdateDollar(uint256 time, uint256 _rate);\n    \n    modifier backEnd() {\n        require(msg.sender == backEndOperator || msg.sender == owner);\n        _;\n    }\n    \n    constructor(ERC20 _token, uint256 usdETH) public {\n        token = _token;\n        dollarPrice = usdETH;\n        buyPrice = (1e17/dollarPrice)*4; // 0.4 usd\n    }\n    \n    function setStartMainSale(uint256 newStartMainSale) public onlyOwner {\n        startMainSale = newStartMainSale;\n    }\n    \n    function setEndMainSale(uint256 newEndMainSale) public onlyOwner {\n        endMainSale = newEndMainSale;\n    }\n    \n    function setBackEndAddress(address newBackEndOperator) public onlyOwner {\n        backEndOperator = newBackEndOperator;\n    }\n    \n    function setBuyPrice(uint256 _dollar) public onlyOwner {\n        dollarPrice = _dollar;\n        buyPrice = (1e17/dollarPrice)*4; // 0.4 usd\n        emit UpdateDollar(now, dollarPrice);\n    }\n    \n    /*******************************************************************************\n     * Whitelist's section */\n    \n    function authorize(address wlCandidate) public backEnd  {\n        require(wlCandidate != address(0x0));\n        require(!isWhitelisted(wlCandidate));\n        whitelist[wlCandidate] = true;\n        investors++;\n        emit Authorized(wlCandidate, now);\n    }\n    \n    function revoke(address wlCandidate) public  onlyOwner {\n        whitelist[wlCandidate] = false;\n        investors--;\n        emit Revoked(wlCandidate, now);\n    }\n    \n    function isWhitelisted(address wlCandidate) internal view returns(bool) {\n        return whitelist[wlCandidate];\n    }\n    \n    /*******************************************************************************\n     * Payable's section */\n    \n    function isMainSale() public constant returns(bool) {\n        return now >= startMainSale && now <= endMainSale;\n    }\n    \n    function () public payable {\n        require(isWhitelisted(msg.sender));\n        require(isMainSale());\n        mainSale(msg.sender, msg.value);\n        require(soldTokensMainSale<=hardCapMainSale);\n        investedEther[msg.sender] = investedEther[msg.sender].add(msg.value);\n    }\n    \n    function mainSale(address _investor, uint256 _value) internal {\n        uint256 tokens = _value.mul(1e18).div(buyPrice);\n        uint256 tokensByDate = tokens.mul(bonusDate()).div(100);\n        tokens = tokens.add(tokensByDate); // 70%\n        token.mintFromICO(_investor, tokens);\n        soldTokensMainSale = soldTokensMainSale.add(tokens);\n        \n        uint256 tokensFounders = tokens.mul(4).div(14); // 20 %\n        token.mintFromICO(founders, tokensFounders);\n        \n        uint256 tokensBoynty = tokens.mul(3).div(70); // 3 %\n        token.mintFromICO(bounty, tokensBoynty);\n        \n        uint256 tokensConsult = tokens.div(10);  // 7 %\n        token.mintFromICO(consult, tokensConsult);\n        \n        weisRaised = weisRaised.add(_value);\n    }\n    \n    function bonusDate() private view returns (uint256){\n        if (now > startMainSale && now < stage1Sale) {  // 0 - 13 days mainSale\n            return 7;\n        }\n        else if (now > stage1Sale && now < stage2Sale) { // 14 - 27 days mainSale\n            return 4;\n        }\n        else if (now > stage2Sale && now < stage3Sale) { // 28 - 41 days mainSale\n            return 2;\n        }\n        else {\n            return 0; // 42 - 60\n        }\n    }\n    \n    function mintManual(address receiver, uint256 _tokens) public backEnd {\n        token.mintFromICO(receiver, _tokens);\n        soldTokensMainSale = soldTokensMainSale.add(_tokens);\n        require(soldTokensMainSale<=hardCapMainSale);\n        uint256 tokensFounders = _tokens.mul(4).div(14); // 20 %\n        token.mintFromICO(founders, tokensFounders);\n        \n        uint256 tokensBoynty = _tokens.mul(3).div(70); // 3 %\n        token.mintFromICO(bounty, tokensBoynty);\n        \n        uint256 tokensConsult = _tokens.div(10);  // 7 %\n        token.mintFromICO(consult, tokensConsult);\n    }\n    \n    function transferEthFromContract(address _to, uint256 amount) public onlyOwner {\n        _to.transfer(amount);\n    }\n    \n    function refundICO() public {\n        require(soldTokensMainSale < softCapMainSale && now > endMainSale);\n        uint rate = investedEther[msg.sender];\n        require(investedEther[msg.sender] >= 0);\n        investedEther[msg.sender] = 0;\n        msg.sender.transfer(rate);\n        weisRaised = weisRaised.sub(rate);\n    }\n}",
  "sourcePath": "/Users/ivanborisov/Yandex.Disk.localized/IT/WorkProjects/Portfolio/FB Way/contracts/ICO.sol",
  "compiler": {
    "name": "solc",
    "version": "0.4.24+commit.e67f0147.Emscripten.clang"
  },
  "schemaVersion": "2.0.0",
  "updatedAt": "2018-06-19T11:56:25.600Z"
}