{
  "contractName": "Pausable",
  "abi": [
    {
      "constant": true,
      "inputs": [],
      "name": "paused",
      "outputs": [
        {
          "name": "",
          "type": "bool"
        }
      ],
      "payable": false,
      "stateMutability": "view",
      "type": "function"
    },
    {
      "constant": true,
      "inputs": [],
      "name": "owner",
      "outputs": [
        {
          "name": "",
          "type": "address"
        }
      ],
      "payable": false,
      "stateMutability": "view",
      "type": "function"
    },
    {
      "anonymous": false,
      "inputs": [],
      "name": "Pause",
      "type": "event"
    },
    {
      "anonymous": false,
      "inputs": [],
      "name": "Unpause",
      "type": "event"
    },
    {
      "constant": false,
      "inputs": [],
      "name": "pause",
      "outputs": [],
      "payable": false,
      "stateMutability": "nonpayable",
      "type": "function"
    },
    {
      "constant": false,
      "inputs": [],
      "name": "unpause",
      "outputs": [],
      "payable": false,
      "stateMutability": "nonpayable",
      "type": "function"
    }
  ],
  "bytecode": "0x608060405260008060146101000a81548160ff021916908315150217905550336000806101000a81548173ffffffffffffffffffffffffffffffffffffffff021916908373ffffffffffffffffffffffffffffffffffffffff1602179055506102fd8061006d6000396000f300608060405260043610610062576000357c0100000000000000000000000000000000000000000000000000000000900463ffffffff1680633f4ba83a146100675780635c975abb1461007e5780638456cb59146100ad5780638da5cb5b146100c4575b600080fd5b34801561007357600080fd5b5061007c61011b565b005b34801561008a57600080fd5b506100936101d9565b604051808215151515815260200191505060405180910390f35b3480156100b957600080fd5b506100c26101ec565b005b3480156100d057600080fd5b506100d96102ac565b604051808273ffffffffffffffffffffffffffffffffffffffff1673ffffffffffffffffffffffffffffffffffffffff16815260200191505060405180910390f35b6000809054906101000a900473ffffffffffffffffffffffffffffffffffffffff1673ffffffffffffffffffffffffffffffffffffffff163373ffffffffffffffffffffffffffffffffffffffff1614151561017657600080fd5b600060149054906101000a900460ff16151561019157600080fd5b60008060146101000a81548160ff0219169083151502179055507f7805862f689e2f13df9f062ff482ad3ad112aca9e0847911ed832e158c525b3360405160405180910390a1565b600060149054906101000a900460ff1681565b6000809054906101000a900473ffffffffffffffffffffffffffffffffffffffff1673ffffffffffffffffffffffffffffffffffffffff163373ffffffffffffffffffffffffffffffffffffffff1614151561024757600080fd5b600060149054906101000a900460ff1615151561026357600080fd5b6001600060146101000a81548160ff0219169083151502179055507f6985a02210a168e66602d3235cb6db0e70f92b3ba4d376a33c0f3d9434bff62560405160405180910390a1565b6000809054906101000a900473ffffffffffffffffffffffffffffffffffffffff16815600a165627a7a723058208c60dc95c2cd2cd25eb077c5b44d1054eb778686798a1033109dc8a28e29d3f90029",
  "source": "pragma solidity ^0.4.24;\n/**\n * @title SafeMath\n * @dev https://github.com/OpenZeppelin/openzeppelin-solidity/blob/master/contracts/math/SafeMath.sol\n */\nlibrary SafeMath {\n    function mul(uint256 a, uint256 b) internal pure returns (uint256 c) {\n        if (a == 0) {\n            return 0;\n        }\n        c = a * b;\n        assert(c / a == b);\n        return c;\n    }\n    \n    function div(uint256 a, uint256 b) internal pure returns (uint256) {\n        return a / b;\n    }\n    \n    function sub(uint256 a, uint256 b) internal pure returns (uint256) {\n        assert(b <= a);\n        return a - b;\n    }\n    \n    function add(uint256 a, uint256 b) internal pure returns (uint256 c) {\n        c = a + b;\n        assert(c >= a);\n        return c;\n    }\n}\n/**\n * @title Ownable\n * @dev https://github.com/OpenZeppelin/openzeppelin-solidity/blob/master/contracts/ownership/Ownable.sol\n */\ncontract Ownable {\n    address public owner;\n    \n    constructor() public {\n        owner = msg.sender;\n    }\n    \n    modifier onlyOwner() {\n        require(msg.sender == owner);\n        _;\n    }\n}\n/**\n * @title Pausable\n * @dev Base contract which allows children to implement an emergency stop mechanism.\n */\ncontract Pausable is Ownable {\n    event Pause();\n    event Unpause();\n    \n    bool public paused = false;\n    \n    modifier whenNotPaused() {\n        require(!paused);\n        _;\n    }\n    \n    modifier whenPaused() {\n        require(paused);\n        _;\n    }\n    \n    function pause() onlyOwner whenNotPaused public {\n        paused = true;\n        emit Pause();\n    }\n    \n    function unpause() onlyOwner whenPaused public {\n        paused = false;\n        emit Unpause();\n    }\n}\n/**\n * @title ERC20Basic\n * @dev https://github.com/OpenZeppelin/openzeppelin-solidity/blob/master/contracts/token/ERC20/ERC20Basic.sol\n */\ncontract ERC20Basic {\n    function totalSupply() public view returns (uint256);\n    function balanceOf(address who) public view returns (uint256);\n    function transfer(address to, uint256 value) public returns (bool);\n    event Transfer(address indexed from, address indexed to, uint256 value);\n}\n/**\n * @title Basic token\n * @dev https://github.com/OpenZeppelin/openzeppelin-solidity/blob/master/contracts/token/ERC20/BasicToken.sol\n */\ncontract BasicToken is ERC20Basic {\n    using SafeMath for uint256;\n    \n    mapping(address => uint256) balances;\n    \n    uint256 totalSupply_;\n    \n    function totalSupply() public view returns (uint256) {\n        return totalSupply_;\n    }\n    \n    function transfer(address _to, uint256 _value) public returns (bool) {\n        require(_to != address(0));\n        require(_value <= balances[msg.sender]);\n        \n        balances[msg.sender] = balances[msg.sender].sub(_value);\n        balances[_to] = balances[_to].add(_value);\n        emit Transfer(msg.sender, _to, _value);\n        return true;\n    }\n    \n    function balanceOf(address _owner) public view returns (uint256) {\n        return balances[_owner];\n    }\n}\n/**\n * @title ERC20 interface\n * @dev https://github.com/OpenZeppelin/openzeppelin-solidity/blob/master/contracts/token/ERC20/ERC20.sol\n */\ncontract ERC20 is ERC20Basic {\n    function allowance(address owner, address spender) public view returns (uint256);\n    function transferFrom(address from, address to, uint256 value) public returns (bool);\n    function approve(address spender, uint256 value) public returns (bool);\n    event Approval(address indexed owner, address indexed spender, uint256 value);\n}\n\n/**\n * @title Standard ERC20 token\n * @dev https://github.com/OpenZeppelin/openzeppelin-solidity/blob/master/contracts/token/ERC20/StandardToken.sol\n */\ncontract StandardToken is ERC20, BasicToken {\n    \n    mapping (address => mapping (address => uint256)) internal allowed;\n    \n    function transferFrom(address _from, address _to, uint256 _value) public returns (bool) {\n        require(_to != address(0));\n        require(_value <= balances[_from]);\n        require(_value <= allowed[_from][msg.sender]);\n        \n        balances[_from] = balances[_from].sub(_value);\n        balances[_to] = balances[_to].add(_value);\n        allowed[_from][msg.sender] = allowed[_from][msg.sender].sub(_value);\n        emit Transfer(_from, _to, _value);\n        return true;\n    }\n    \n    function approve(address _spender, uint256 _value) public returns (bool) {\n        allowed[msg.sender][_spender] = _value;\n        emit Approval(msg.sender, _spender, _value);\n        return true;\n    }\n    \n    function allowance(address _owner, address _spender) public view returns (uint256) {\n        return allowed[_owner][_spender];\n    }\n    \n    function increaseApproval(address _spender, uint _addedValue) public returns (bool) {\n        allowed[msg.sender][_spender] = allowed[msg.sender][_spender].add(_addedValue);\n        emit Approval(msg.sender, _spender, allowed[msg.sender][_spender]);\n        return true;\n    }\n    \n    function decreaseApproval(address _spender, uint _subtractedValue) public returns (bool) {\n        uint oldValue = allowed[msg.sender][_spender];\n        if (_subtractedValue > oldValue) {\n            allowed[msg.sender][_spender] = 0;\n        } else {\n            allowed[msg.sender][_spender] = oldValue.sub(_subtractedValue);\n        }\n        emit Approval(msg.sender, _spender, allowed[msg.sender][_spender]);\n        return true;\n    }\n}\n\n/**\n * @title Pausable token\n * @dev https://github.com/OpenZeppelin/openzeppelin-solidity/blob/master/contracts/token/ERC20/PausableToken.sol\n **/\ncontract PausableToken is StandardToken, Pausable {\n    \n    function transfer(\n        address _to,\n        uint256 _value\n    ) public  whenNotPaused returns (bool)\n    {\n        return super.transfer(_to, _value);\n    }\n    \n    function transferFrom(\n        address _from,\n        address _to,\n        uint256 _value\n    ) public whenNotPaused returns (bool)\n    {\n        return super.transferFrom(_from, _to, _value);\n    }\n    \n    function approve(\n        address _spender,\n        uint256 _value\n    ) public whenNotPaused returns (bool)\n    {\n        return super.approve(_spender, _value);\n    }\n    \n    function increaseApproval(\n        address _spender,\n        uint _addedValue\n    ) public whenNotPaused returns (bool success)\n    {\n        return super.increaseApproval(_spender, _addedValue);\n    }\n    \n    function decreaseApproval(\n        address _spender,\n        uint _subtractedValue\n    ) public whenNotPaused returns (bool success)\n    {\n        return super.decreaseApproval(_spender, _subtractedValue);\n    }\n}\n\n/**\n * @title Burnable Token\n * @dev https://github.com/OpenZeppelin/openzeppelin-solidity/blob/master/contracts/token/ERC20/BurnableToken.sol\n */\ncontract BurnableToken is BasicToken {\n    \n    event Burn(address indexed burner, uint256 value);\n    \n    function burn(uint256 _value) public {\n        _burn(msg.sender, _value);\n    }\n    \n    function _burn(address _who, uint256 _value) internal {\n        require(_value <= balances[_who]);\n        \n        balances[_who] = balances[_who].sub(_value);\n        totalSupply_ = totalSupply_.sub(_value);\n        emit Burn(_who, _value);\n        emit Transfer(_who, address(0), _value);\n    }\n}\n/**\n * @title Mintable token\n * @dev https://github.com/OpenZeppelin/openzeppelin-solidity/blob/master/contracts/token/ERC20/MintableToken.sol\n */\ncontract MintableToken is PausableToken {\n    event Mint(address indexed to, uint256 amount);\n    event MintFinished();\n    \n    bool public mintingFinished = false;\n    \n    modifier canMint() {\n        require(!mintingFinished);\n        _;\n    }\n    \n    modifier hasMintPermission() {\n        require(msg.sender == owner);\n        _;\n    }\n    \n    function finishMinting() onlyOwner canMint public returns (bool) {\n        mintingFinished = true;\n        emit MintFinished();\n        return true;\n    }\n}\n\n/**\n* @title GledChain\n*/\ncontract GledChainToken is MintableToken, BurnableToken {\n    \n    using SafeMath for uint256;\n    \n    string  public name = \"GledChain\";\n    string  public symbol = \"GLC\";\n    uint256 constant public decimals = 18;\n    uint256 constant dec = 10**decimals;\n    uint256 public constant initialSupply = 120000000*dec; // 120,000,000 GLC\n    address public crowdsaleAddress;\n    \n    modifier onlyICO() {\n        require(msg.sender == crowdsaleAddress);\n        _;\n    }\n    \n    constructor() public {\n        pause();\n    }\n    \n    function startCirculation() internal returns(bool) {\n        if (totalSupply_ <= initialSupply)\n            return false;\n        else\n            finishMinting();\n        unpause();\n    }\n    \n    function setSaleAddress(address _saleaddress) public onlyOwner{\n        crowdsaleAddress = _saleaddress;\n    }\n    \n    function mintFromICO(address _to, uint256 _amount) onlyICO canMint public returns (bool) {\n        require(balances[_to].add(_amount) != 0);\n        require(balances[_to].add(_amount) > balances[_to]);\n        totalSupply_ = totalSupply_.add(_amount);\n        require(!startCirculation());\n        require(totalSupply_ <= initialSupply);\n        balances[_to] = balances[_to].add(_amount);\n        emit Mint(_to, _amount);\n        emit Transfer(address(0), _to, _amount);\n        return true;\n    }\n}",
  "sourcePath": "/Users/ivanborisov/Yandex.Disk.localized/IT/WorkProjects/Portfolio/AMT/contracts/GledChainToken.sol",
  "compiler": {
    "name": "solc",
    "version": "0.4.24+commit.e67f0147.Emscripten.clang"
  },
  "schemaVersion": "2.0.0",
  "updatedAt": "2018-06-19T11:33:46.647Z"
}