{
  "contractName": "CloseSale",
  "abi": [
    {
      "constant": true,
      "inputs": [],
      "name": "backEndOperator",
      "outputs": [
        {
          "name": "",
          "type": "address"
        }
      ],
      "payable": false,
      "stateMutability": "view",
      "type": "function"
    },
    {
      "constant": true,
      "inputs": [
        {
          "name": "",
          "type": "address"
        }
      ],
      "name": "investedEther",
      "outputs": [
        {
          "name": "",
          "type": "uint256"
        }
      ],
      "payable": false,
      "stateMutability": "view",
      "type": "function"
    },
    {
      "constant": true,
      "inputs": [],
      "name": "soldTokensCloseSale",
      "outputs": [
        {
          "name": "",
          "type": "uint256"
        }
      ],
      "payable": false,
      "stateMutability": "view",
      "type": "function"
    },
    {
      "constant": true,
      "inputs": [],
      "name": "dollarPrice",
      "outputs": [
        {
          "name": "",
          "type": "uint256"
        }
      ],
      "payable": false,
      "stateMutability": "view",
      "type": "function"
    },
    {
      "constant": true,
      "inputs": [],
      "name": "buyPrice",
      "outputs": [
        {
          "name": "",
          "type": "uint256"
        }
      ],
      "payable": false,
      "stateMutability": "view",
      "type": "function"
    },
    {
      "constant": true,
      "inputs": [],
      "name": "investors",
      "outputs": [
        {
          "name": "",
          "type": "uint256"
        }
      ],
      "payable": false,
      "stateMutability": "view",
      "type": "function"
    },
    {
      "constant": true,
      "inputs": [],
      "name": "owner",
      "outputs": [
        {
          "name": "",
          "type": "address"
        }
      ],
      "payable": false,
      "stateMutability": "view",
      "type": "function"
    },
    {
      "constant": true,
      "inputs": [
        {
          "name": "",
          "type": "address"
        }
      ],
      "name": "whitelist",
      "outputs": [
        {
          "name": "",
          "type": "bool"
        }
      ],
      "payable": false,
      "stateMutability": "view",
      "type": "function"
    },
    {
      "constant": true,
      "inputs": [],
      "name": "weisRaised",
      "outputs": [
        {
          "name": "",
          "type": "uint256"
        }
      ],
      "payable": false,
      "stateMutability": "view",
      "type": "function"
    },
    {
      "constant": true,
      "inputs": [],
      "name": "endCloseSale",
      "outputs": [
        {
          "name": "",
          "type": "uint256"
        }
      ],
      "payable": false,
      "stateMutability": "view",
      "type": "function"
    },
    {
      "constant": true,
      "inputs": [],
      "name": "startCloseSale",
      "outputs": [
        {
          "name": "",
          "type": "uint256"
        }
      ],
      "payable": false,
      "stateMutability": "view",
      "type": "function"
    },
    {
      "constant": true,
      "inputs": [],
      "name": "softcap",
      "outputs": [
        {
          "name": "",
          "type": "uint256"
        }
      ],
      "payable": false,
      "stateMutability": "view",
      "type": "function"
    },
    {
      "constant": true,
      "inputs": [],
      "name": "hardCap",
      "outputs": [
        {
          "name": "",
          "type": "uint256"
        }
      ],
      "payable": false,
      "stateMutability": "view",
      "type": "function"
    },
    {
      "constant": true,
      "inputs": [],
      "name": "token",
      "outputs": [
        {
          "name": "",
          "type": "address"
        }
      ],
      "payable": false,
      "stateMutability": "view",
      "type": "function"
    },
    {
      "inputs": [
        {
          "name": "_token",
          "type": "address"
        },
        {
          "name": "usdETH",
          "type": "uint256"
        }
      ],
      "payable": false,
      "stateMutability": "nonpayable",
      "type": "constructor"
    },
    {
      "payable": true,
      "stateMutability": "payable",
      "type": "fallback"
    },
    {
      "anonymous": false,
      "inputs": [
        {
          "indexed": false,
          "name": "wlCandidate",
          "type": "address"
        },
        {
          "indexed": false,
          "name": "timestamp",
          "type": "uint256"
        }
      ],
      "name": "Authorized",
      "type": "event"
    },
    {
      "anonymous": false,
      "inputs": [
        {
          "indexed": false,
          "name": "wlCandidate",
          "type": "address"
        },
        {
          "indexed": false,
          "name": "timestamp",
          "type": "uint256"
        }
      ],
      "name": "Revoked",
      "type": "event"
    },
    {
      "anonymous": false,
      "inputs": [
        {
          "indexed": false,
          "name": "time",
          "type": "uint256"
        },
        {
          "indexed": false,
          "name": "_rate",
          "type": "uint256"
        }
      ],
      "name": "UpdateDollar",
      "type": "event"
    },
    {
      "anonymous": false,
      "inputs": [
        {
          "indexed": false,
          "name": "sum",
          "type": "uint256"
        },
        {
          "indexed": false,
          "name": "investor",
          "type": "address"
        }
      ],
      "name": "Refund",
      "type": "event"
    },
    {
      "constant": false,
      "inputs": [
        {
          "name": "newStartCloseSale",
          "type": "uint256"
        }
      ],
      "name": "setStartCloseSale",
      "outputs": [],
      "payable": false,
      "stateMutability": "nonpayable",
      "type": "function"
    },
    {
      "constant": false,
      "inputs": [
        {
          "name": "newEndCloseSale",
          "type": "uint256"
        }
      ],
      "name": "setEndCloseSale",
      "outputs": [],
      "payable": false,
      "stateMutability": "nonpayable",
      "type": "function"
    },
    {
      "constant": false,
      "inputs": [
        {
          "name": "newBackEndOperator",
          "type": "address"
        }
      ],
      "name": "setBackEndAddress",
      "outputs": [],
      "payable": false,
      "stateMutability": "nonpayable",
      "type": "function"
    },
    {
      "constant": false,
      "inputs": [
        {
          "name": "_dollar",
          "type": "uint256"
        }
      ],
      "name": "setBuyPrice",
      "outputs": [],
      "payable": false,
      "stateMutability": "nonpayable",
      "type": "function"
    },
    {
      "constant": false,
      "inputs": [
        {
          "name": "wlCandidate",
          "type": "address"
        }
      ],
      "name": "authorize",
      "outputs": [],
      "payable": false,
      "stateMutability": "nonpayable",
      "type": "function"
    },
    {
      "constant": false,
      "inputs": [
        {
          "name": "wlCandidate",
          "type": "address"
        }
      ],
      "name": "revoke",
      "outputs": [],
      "payable": false,
      "stateMutability": "nonpayable",
      "type": "function"
    },
    {
      "constant": true,
      "inputs": [],
      "name": "isCloseSale",
      "outputs": [
        {
          "name": "",
          "type": "bool"
        }
      ],
      "payable": false,
      "stateMutability": "view",
      "type": "function"
    },
    {
      "constant": false,
      "inputs": [
        {
          "name": "receiver",
          "type": "address"
        },
        {
          "name": "_tokens",
          "type": "uint256"
        }
      ],
      "name": "mintManual",
      "outputs": [],
      "payable": false,
      "stateMutability": "nonpayable",
      "type": "function"
    },
    {
      "constant": false,
      "inputs": [
        {
          "name": "_to",
          "type": "address"
        },
        {
          "name": "amount",
          "type": "uint256"
        }
      ],
      "name": "transferEthFromContract",
      "outputs": [],
      "payable": false,
      "stateMutability": "nonpayable",
      "type": "function"
    },
    {
      "constant": false,
      "inputs": [],
      "name": "refundSale",
      "outputs": [],
      "payable": false,
      "stateMutability": "nonpayable",
      "type": "function"
    }
  ],
  "bytecode": "0x608060405233600260006101000a81548173ffffffffffffffffffffffffffffffffffffffff021916908373ffffffffffffffffffffffffffffffffffffffff160217905550737ede8260e573d3a3ddfc058f19309df5a1f7397e600360006101000a81548173ffffffffffffffffffffffffffffffffffffffff021916908373ffffffffffffffffffffffffffffffffffffffff160217905550730cdb839b52404d49417c8ded6c3e2157a06cdd37600460006101000a81548173ffffffffffffffffffffffffffffffffffffffff021916908373ffffffffffffffffffffffffffffffffffffffff160217905550635b60f800600755635b89d67f6008556958f03ee118a13e800000600e556a01b656ecc31df621c00000600f5534801561012857600080fd5b50604051604080611bb78339810180604052810190808051906020019092919080519060200190929190505050336000806101000a81548173ffffffffffffffffffffffffffffffffffffffff021916908373ffffffffffffffffffffffffffffffffffffffff16021790555081600160006101000a81548173ffffffffffffffffffffffffffffffffffffffff021916908373ffffffffffffffffffffffffffffffffffffffff16021790555080600c81905550600c54670de0b6b3a76400008115156101f257fe5b04600b8190555050506119ad8061020a6000396000f30060806040526004361061013e576000357c0100000000000000000000000000000000000000000000000000000000900463ffffffff168063050895ff14610219578063274448ff1461027057806331198d19146102c75780633c059bb41461031457806340d7b7b81461033f57806363ae8d6c1461036a57806369a1bca91461039757806374a8f103146103ae5780638620410b146103f1578063892d31e81461041c5780638ac27f5f146104495780638ca5da35146104745780638da5cb5b146104c15780639b19251a14610518578063a867071114610573578063b6a5d7de146105a2578063b701dc14146105e5578063da5f838d14610628578063e1fa70ef14610653578063f27c24ed1461067e578063f3ca824c146106a9578063f89be593146106d6578063fb86a40414610701578063fc0c546a1461072c575b61014733610783565b151561015257600080fd5b61015a6107d9565b151561016557600080fd5b61016f33346107f4565b600f54600d541115151561018257600080fd5b6101d434600660003373ffffffffffffffffffffffffffffffffffffffff1673ffffffffffffffffffffffffffffffffffffffff16815260200190815260200160002054610c1a90919063ffffffff16565b600660003373ffffffffffffffffffffffffffffffffffffffff1673ffffffffffffffffffffffffffffffffffffffff16815260200190815260200160002081905550005b34801561022557600080fd5b5061022e610c36565b604051808273ffffffffffffffffffffffffffffffffffffffff1673ffffffffffffffffffffffffffffffffffffffff16815260200191505060405180910390f35b34801561027c57600080fd5b506102b1600480360381019080803573ffffffffffffffffffffffffffffffffffffffff169060200190929190505050610c5c565b6040518082815260200191505060405180910390f35b3480156102d357600080fd5b50610312600480360381019080803573ffffffffffffffffffffffffffffffffffffffff16906020019092919080359060200190929190505050610c74565b005b34801561032057600080fd5b50610329610d1a565b6040518082815260200191505060405180910390f35b34801561034b57600080fd5b50610354610d20565b6040518082815260200191505060405180910390f35b34801561037657600080fd5b5061039560048036038101908080359060200190929190505050610d26565b005b3480156103a357600080fd5b506103ac610de8565b005b3480156103ba57600080fd5b506103ef600480360381019080803573ffffffffffffffffffffffffffffffffffffffff169060200190929190505050610faf565b005b3480156103fd57600080fd5b506104066110e3565b6040518082815260200191505060405180910390f35b34801561042857600080fd5b50610447600480360381019080803590602001909291905050506110e9565b005b34801561045557600080fd5b5061045e61114e565b6040518082815260200191505060405180910390f35b34801561048057600080fd5b506104bf600480360381019080803573ffffffffffffffffffffffffffffffffffffffff16906020019092919080359060200190929190505050611154565b005b3480156104cd57600080fd5b506104d66115b1565b604051808273ffffffffffffffffffffffffffffffffffffffff1673ffffffffffffffffffffffffffffffffffffffff16815260200191505060405180910390f35b34801561052457600080fd5b50610559600480360381019080803573ffffffffffffffffffffffffffffffffffffffff1690602001909291905050506115d6565b604051808215151515815260200191505060405180910390f35b34801561057f57600080fd5b506105886107d9565b604051808215151515815260200191505060405180910390f35b3480156105ae57600080fd5b506105e3600480360381019080803573ffffffffffffffffffffffffffffffffffffffff1690602001909291905050506115f6565b005b3480156105f157600080fd5b50610626600480360381019080803573ffffffffffffffffffffffffffffffffffffffff1690602001909291905050506117d2565b005b34801561063457600080fd5b5061063d611871565b6040518082815260200191505060405180910390f35b34801561065f57600080fd5b50610668611877565b6040518082815260200191505060405180910390f35b34801561068a57600080fd5b5061069361187d565b6040518082815260200191505060405180910390f35b3480156106b557600080fd5b506106d460048036038101908080359060200190929190505050611883565b005b3480156106e257600080fd5b506106eb6118e8565b6040518082815260200191505060405180910390f35b34801561070d57600080fd5b506107166118ee565b6040518082815260200191505060405180910390f35b34801561073857600080fd5b506107416118f4565b604051808273ffffffffffffffffffffffffffffffffffffffff1673ffffffffffffffffffffffffffffffffffffffff16815260200191505060405180910390f35b6000600560008373ffffffffffffffffffffffffffffffffffffffff1673ffffffffffffffffffffffffffffffffffffffff16815260200190815260200160002060009054906101000a900460ff169050919050565b600060075442101580156107ef57506008544211155b905090565b600080600080610829600b5461081b670de0b6b3a76400008861191a90919063ffffffff16565b61195290919063ffffffff16565b935061083f60028561195290919063ffffffff16565b92506108548385610c1a90919063ffffffff16565b9350600160009054906101000a900473ffffffffffffffffffffffffffffffffffffffff1673ffffffffffffffffffffffffffffffffffffffff16633aa0396a87866040518363ffffffff167c0100000000000000000000000000000000000000000000000000000000028152600401808373ffffffffffffffffffffffffffffffffffffffff1673ffffffffffffffffffffffffffffffffffffffff16815260200182815260200192505050602060405180830381600087803b15801561091b57600080fd5b505af115801561092f573d6000803e3d6000fd5b505050506040513d602081101561094557600080fd5b81019080805190602001909291905050505061096c84600d54610c1a90919063ffffffff16565b600d81905550610999602c61098b60058761191a90919063ffffffff16565b61195290919063ffffffff16565b9150600160009054906101000a900473ffffffffffffffffffffffffffffffffffffffff1673ffffffffffffffffffffffffffffffffffffffff16633aa0396a600360009054906101000a900473ffffffffffffffffffffffffffffffffffffffff16846040518363ffffffff167c0100000000000000000000000000000000000000000000000000000000028152600401808373ffffffffffffffffffffffffffffffffffffffff1673ffffffffffffffffffffffffffffffffffffffff16815260200182815260200192505050602060405180830381600087803b158015610a8257600080fd5b505af1158015610a96573d6000803e3d6000fd5b505050506040513d6020811015610aac57600080fd5b810190808051906020019092919050505050610ad2602c8561195290919063ffffffff16565b9050600160009054906101000a900473ffffffffffffffffffffffffffffffffffffffff1673ffffffffffffffffffffffffffffffffffffffff16633aa0396a600460009054906101000a900473ffffffffffffffffffffffffffffffffffffffff16836040518363ffffffff167c0100000000000000000000000000000000000000000000000000000000028152600401808373ffffffffffffffffffffffffffffffffffffffff1673ffffffffffffffffffffffffffffffffffffffff16815260200182815260200192505050602060405180830381600087803b158015610bbb57600080fd5b505af1158015610bcf573d6000803e3d6000fd5b505050506040513d6020811015610be557600080fd5b810190808051906020019092919050505050610c0c85600a54610c1a90919063ffffffff16565b600a81905550505050505050565b60008183019050828110151515610c2d57fe5b80905092915050565b600260009054906101000a900473ffffffffffffffffffffffffffffffffffffffff1681565b60066020528060005260406000206000915090505481565b6000809054906101000a900473ffffffffffffffffffffffffffffffffffffffff1673ffffffffffffffffffffffffffffffffffffffff163373ffffffffffffffffffffffffffffffffffffffff16141515610ccf57600080fd5b8173ffffffffffffffffffffffffffffffffffffffff166108fc829081150290604051600060405180830381858888f19350505050158015610d15573d6000803e3d6000fd5b505050565b600d5481565b600c5481565b6000809054906101000a900473ffffffffffffffffffffffffffffffffffffffff1673ffffffffffffffffffffffffffffffffffffffff163373ffffffffffffffffffffffffffffffffffffffff16141515610d8157600080fd5b80600c81905550600c54670de0b6b3a7640000811515610d9d57fe5b04600b819055507f8e5d322ef7050e99e3845ad9d8b2608b9512de19853d4215b71b7a4ee2993d4f42600c54604051808381526020018281526020019250505060405180910390a150565b6000600e54600d54108015610dfe575060085442115b1515610e0957600080fd5b600660003373ffffffffffffffffffffffffffffffffffffffff1673ffffffffffffffffffffffffffffffffffffffff1681526020019081526020016000205490506000600660003373ffffffffffffffffffffffffffffffffffffffff1673ffffffffffffffffffffffffffffffffffffffff1681526020019081526020016000205410151515610e9a57600080fd5b6000600660003373ffffffffffffffffffffffffffffffffffffffff1673ffffffffffffffffffffffffffffffffffffffff168152602001908152602001600020819055503373ffffffffffffffffffffffffffffffffffffffff166108fc829081150290604051600060405180830381858888f19350505050158015610f25573d6000803e3d6000fd5b50610f3b81600a5461196890919063ffffffff16565b600a819055507f510b82fea70ff89a8cc73cd7f29db2d7b480134c160cb52a258797b42d1989ad8133604051808381526020018273ffffffffffffffffffffffffffffffffffffffff1673ffffffffffffffffffffffffffffffffffffffff1681526020019250505060405180910390a150565b6000809054906101000a900473ffffffffffffffffffffffffffffffffffffffff1673ffffffffffffffffffffffffffffffffffffffff163373ffffffffffffffffffffffffffffffffffffffff1614151561100a57600080fd5b6000600560008373ffffffffffffffffffffffffffffffffffffffff1673ffffffffffffffffffffffffffffffffffffffff16815260200190815260200160002060006101000a81548160ff021916908315150217905550600960008154809291906001900391905055507f713b90881ad62c4fa8ab6bd9197fa86481fc0c11b2edba60026514281b2dbac48142604051808373ffffffffffffffffffffffffffffffffffffffff1673ffffffffffffffffffffffffffffffffffffffff1681526020018281526020019250505060405180910390a150565b600b5481565b6000809054906101000a900473ffffffffffffffffffffffffffffffffffffffff1673ffffffffffffffffffffffffffffffffffffffff163373ffffffffffffffffffffffffffffffffffffffff1614151561114457600080fd5b8060088190555050565b60095481565b600080600260009054906101000a900473ffffffffffffffffffffffffffffffffffffffff1673ffffffffffffffffffffffffffffffffffffffff163373ffffffffffffffffffffffffffffffffffffffff1614806111ff57506000809054906101000a900473ffffffffffffffffffffffffffffffffffffffff1673ffffffffffffffffffffffffffffffffffffffff163373ffffffffffffffffffffffffffffffffffffffff16145b151561120a57600080fd5b600160009054906101000a900473ffffffffffffffffffffffffffffffffffffffff1673ffffffffffffffffffffffffffffffffffffffff16633aa0396a85856040518363ffffffff167c0100000000000000000000000000000000000000000000000000000000028152600401808373ffffffffffffffffffffffffffffffffffffffff1673ffffffffffffffffffffffffffffffffffffffff16815260200182815260200192505050602060405180830381600087803b1580156112cf57600080fd5b505af11580156112e3573d6000803e3d6000fd5b505050506040513d60208110156112f957600080fd5b81019080805190602001909291905050505061132083600d54610c1a90919063ffffffff16565b600d8190555061134d602c61133f60058661191a90919063ffffffff16565b61195290919063ffffffff16565b9150600160009054906101000a900473ffffffffffffffffffffffffffffffffffffffff1673ffffffffffffffffffffffffffffffffffffffff16633aa0396a600360009054906101000a900473ffffffffffffffffffffffffffffffffffffffff16846040518363ffffffff167c0100000000000000000000000000000000000000000000000000000000028152600401808373ffffffffffffffffffffffffffffffffffffffff1673ffffffffffffffffffffffffffffffffffffffff16815260200182815260200192505050602060405180830381600087803b15801561143657600080fd5b505af115801561144a573d6000803e3d6000fd5b505050506040513d602081101561146057600080fd5b810190808051906020019092919050505050611486602c8461195290919063ffffffff16565b9050600160009054906101000a900473ffffffffffffffffffffffffffffffffffffffff1673ffffffffffffffffffffffffffffffffffffffff16633aa0396a600460009054906101000a900473ffffffffffffffffffffffffffffffffffffffff16836040518363ffffffff167c0100000000000000000000000000000000000000000000000000000000028152600401808373ffffffffffffffffffffffffffffffffffffffff1673ffffffffffffffffffffffffffffffffffffffff16815260200182815260200192505050602060405180830381600087803b15801561156f57600080fd5b505af1158015611583573d6000803e3d6000fd5b505050506040513d602081101561159957600080fd5b81019080805190602001909291905050505050505050565b6000809054906101000a900473ffffffffffffffffffffffffffffffffffffffff1681565b60056020528060005260406000206000915054906101000a900460ff1681565b600260009054906101000a900473ffffffffffffffffffffffffffffffffffffffff1673ffffffffffffffffffffffffffffffffffffffff163373ffffffffffffffffffffffffffffffffffffffff16148061169e57506000809054906101000a900473ffffffffffffffffffffffffffffffffffffffff1673ffffffffffffffffffffffffffffffffffffffff163373ffffffffffffffffffffffffffffffffffffffff16145b15156116a957600080fd5b600073ffffffffffffffffffffffffffffffffffffffff168173ffffffffffffffffffffffffffffffffffffffff16141515156116e557600080fd5b6116ee81610783565b1515156116fa57600080fd5b6001600560008373ffffffffffffffffffffffffffffffffffffffff1673ffffffffffffffffffffffffffffffffffffffff16815260200190815260200160002060006101000a81548160ff0219169083151502179055506009600081548092919060010191905055507fb39b5f240c7440b58c1c6cfd328b09ff9aa18b3c8ef4b829774e4f5bad0394168142604051808373ffffffffffffffffffffffffffffffffffffffff1673ffffffffffffffffffffffffffffffffffffffff1681526020018281526020019250505060405180910390a150565b6000809054906101000a900473ffffffffffffffffffffffffffffffffffffffff1673ffffffffffffffffffffffffffffffffffffffff163373ffffffffffffffffffffffffffffffffffffffff1614151561182d57600080fd5b80600260006101000a81548173ffffffffffffffffffffffffffffffffffffffff021916908373ffffffffffffffffffffffffffffffffffffffff16021790555050565b600a5481565b60085481565b60075481565b6000809054906101000a900473ffffffffffffffffffffffffffffffffffffffff1673ffffffffffffffffffffffffffffffffffffffff163373ffffffffffffffffffffffffffffffffffffffff161415156118de57600080fd5b8060078190555050565b600e5481565b600f5481565b600160009054906101000a900473ffffffffffffffffffffffffffffffffffffffff1681565b60008083141561192d576000905061194c565b818302905081838281151561193e57fe5b0414151561194857fe5b8090505b92915050565b6000818381151561195f57fe5b04905092915050565b600082821115151561197657fe5b8183039050929150505600a165627a7a723058202cfe534e081c2c2c7893e9cfc993cb9fe61c640acaf900513a958b01802609b30029",
  "source": "pragma solidity ^0.4.24;\n\n/*** @title SafeMath\n * @dev https://github.com/OpenZeppelin/openzeppelin-solidity/blob/master/contracts/math/SafeMath.sol */\nlibrary SafeMath {\n  \n  function mul(uint256 a, uint256 b) internal pure returns (uint256 c) {\n    if (a == 0) {\n      return 0;\n    }\n    c = a * b;\n    assert(c / a == b);\n    return c;\n  }\n  \n  function div(uint256 a, uint256 b) internal pure returns (uint256) {\n    return a / b;\n  }\n  \n  function sub(uint256 a, uint256 b) internal pure returns (uint256) {\n    assert(b <= a);\n    return a - b;\n  }\n  \n  function add(uint256 a, uint256 b) internal pure returns (uint256 c) {\n    c = a + b;\n    assert(c >= a);\n    return c;\n  }\n}\n\ninterface ERC20 {\n  function transfer (address _beneficiary, uint256 _tokenAmount) external returns (bool);\n  function mintFromICO(address _to, uint256 _amount) external  returns(bool);\n}\n\n/**\n * @title Ownable\n * @dev https://github.com/OpenZeppelin/openzeppelin-solidity/blob/master/contracts/ownership/Ownable.sol */\ncontract Ownable {\n  address public owner;\n  \n  constructor() public {\n    owner = msg.sender;\n  }\n  \n  modifier onlyOwner() {\n    require(msg.sender == owner);\n    _;\n  }\n}\n\n/**\n * @title CrowdSale\n * @dev https://github.com/elephant-marketing/*/\n\ncontract CloseSale is Ownable {\n  \n  ERC20 public token;\n  \n  using SafeMath for uint;\n  \n  address public backEndOperator = msg.sender;\n  \n  address team = 0x7eDE8260e573d3A3dDfc058f19309DF5a1f7397E; // 10 % - founders\n  \n  address bounty = 0x0cdb839B52404d49417C8Ded6c3E2157A06CdD37; // 2 % - bounty\n  \n  \n  mapping(address=>bool) public whitelist;\n  \n  mapping(address => uint256) public investedEther;\n  \n  uint256 public startCloseSale = 1533081600; // Wednesday, 01-Aug-18 00:00:00 UTC\n  \n  uint256 public endCloseSale = 1535759999; // Friday, 31-Aug-18 23:59:59 UTC\n  \n  uint256 public investors;\n  \n  uint256 public weisRaised;\n  \n  uint256 public buyPrice; // 1 USD\n  \n  uint256 public dollarPrice;\n  \n  uint256 public soldTokensCloseSale;\n  \n  uint256 public softcap = 420000*1e18; // 420,000 ANG\n  \n  uint256 public hardCap = 2070000*1e18; // 2,070,000 ANG\n  \n  event Authorized(address wlCandidate, uint timestamp);\n  \n  event Revoked(address wlCandidate, uint timestamp);\n  \n  event UpdateDollar(uint256 time, uint256 _rate);\n  \n  event Refund(uint256 sum, address investor);\n  \n  \n  \n  modifier backEnd() {\n    require(msg.sender == backEndOperator || msg.sender == owner);\n    _;\n  }\n  \n  \n  constructor(ERC20 _token, uint256 usdETH) public {\n    token = _token;\n    dollarPrice = usdETH;\n    buyPrice = (1e18/dollarPrice); // 1 usd\n  }\n  \n  \n  function setStartCloseSale(uint256 newStartCloseSale) public onlyOwner {\n    startCloseSale = newStartCloseSale;\n  }\n  \n  function setEndCloseSale(uint256 newEndCloseSale) public onlyOwner {\n    endCloseSale = newEndCloseSale;\n  }\n  \n  function setBackEndAddress(address newBackEndOperator) public onlyOwner {\n    backEndOperator = newBackEndOperator;\n  }\n  \n  function setBuyPrice(uint256 _dollar) public onlyOwner {\n    dollarPrice = _dollar;\n    buyPrice = (1e18/dollarPrice); // 1 usd\n    emit UpdateDollar(now, dollarPrice);\n  }\n  \n  /*******************************************************************************\n   * Whitelist's section */\n  \n  function authorize(address wlCandidate) public backEnd  {\n    require(wlCandidate != address(0x0));\n    require(!isWhitelisted(wlCandidate));\n    whitelist[wlCandidate] = true;\n    investors++;\n    emit Authorized(wlCandidate, now);\n  }\n  \n  function revoke(address wlCandidate) public  onlyOwner {\n    whitelist[wlCandidate] = false;\n    investors--;\n    emit Revoked(wlCandidate, now);\n  }\n  \n  function isWhitelisted(address wlCandidate) internal view returns(bool) {\n    return whitelist[wlCandidate];\n  }\n  \n  /*******************************************************************************\n   * Payable's section */\n  \n  function isCloseSale() public constant returns(bool) {\n    return now >= startCloseSale && now <= endCloseSale;\n  }\n  \n  function () public payable {\n    require(isWhitelisted(msg.sender));\n    require(isCloseSale());\n    closeSale(msg.sender, msg.value);\n    require(soldTokensCloseSale<=hardCap);\n    investedEther[msg.sender] = investedEther[msg.sender].add(msg.value);\n  }\n  \n  function closeSale(address _investor, uint256 _value) internal {\n    uint256 tokens = _value.mul(1e18).div(buyPrice);\n    uint256 tokensByStage = tokens.div(2); // + 50% bonus\n    \n    tokens = tokens.add(tokensByStage); // 88%\n    token.mintFromICO(_investor, tokens);\n    soldTokensCloseSale = soldTokensCloseSale.add(tokens); // only sold\n    \n    uint256 tokensTeam = tokens.mul(5).div(44); // 10 %\n    token.mintFromICO(team, tokensTeam);\n    \n    uint256 tokensBoynty = tokens.div(44); // 2 %\n    token.mintFromICO(bounty, tokensBoynty);\n    \n    weisRaised = weisRaised.add(_value);\n  }\n  \n  function mintManual(address receiver, uint256 _tokens) public backEnd {\n    token.mintFromICO(receiver, _tokens);\n    soldTokensCloseSale = soldTokensCloseSale.add(_tokens);\n    \n    uint256 tokensTeam = _tokens.mul(5).div(44); // 10 %\n    token.mintFromICO(team, tokensTeam);\n    \n    uint256 tokensBoynty = _tokens.div(44); // 2 %\n    token.mintFromICO(bounty, tokensBoynty);\n  }\n  \n  function transferEthFromContract(address _to, uint256 amount) public onlyOwner {\n    _to.transfer(amount);\n  }\n  \n  function refundSale() public {\n    require(soldTokensCloseSale < softcap && now > endCloseSale);\n    uint256 rate = investedEther[msg.sender];\n    require(investedEther[msg.sender] >= 0);\n    investedEther[msg.sender] = 0;\n    msg.sender.transfer(rate);\n    weisRaised = weisRaised.sub(rate);\n    emit Refund(rate, msg.sender);\n  }\n}",
  "sourcePath": "/Users/ivanborisov/Yandex.Disk.localized/IT/WorkProjects/Portfolio/ANGENIUM/contracts/CloseSale.sol",
  "compiler": {
    "name": "solc",
    "version": "0.4.24+commit.e67f0147.Emscripten.clang"
  },
  "schemaVersion": "2.0.0",
  "updatedAt": "2018-06-19T12:06:50.054Z"
}