{
  "contractName": "MainSale",
  "abi": [
    {
      "constant": true,
      "inputs": [],
      "name": "backEndOperator",
      "outputs": [
        {
          "name": "",
          "type": "address"
        }
      ],
      "payable": false,
      "stateMutability": "view",
      "type": "function"
    },
    {
      "constant": true,
      "inputs": [],
      "name": "soldTokensMainSale",
      "outputs": [
        {
          "name": "",
          "type": "uint256"
        }
      ],
      "payable": false,
      "stateMutability": "view",
      "type": "function"
    },
    {
      "constant": true,
      "inputs": [
        {
          "name": "",
          "type": "address"
        }
      ],
      "name": "typeOfInvestors",
      "outputs": [
        {
          "name": "",
          "type": "uint8"
        }
      ],
      "payable": false,
      "stateMutability": "view",
      "type": "function"
    },
    {
      "constant": true,
      "inputs": [
        {
          "name": "",
          "type": "address"
        }
      ],
      "name": "investedEther",
      "outputs": [
        {
          "name": "",
          "type": "uint256"
        }
      ],
      "payable": false,
      "stateMutability": "view",
      "type": "function"
    },
    {
      "constant": true,
      "inputs": [],
      "name": "stage1Sale",
      "outputs": [
        {
          "name": "",
          "type": "uint256"
        }
      ],
      "payable": false,
      "stateMutability": "view",
      "type": "function"
    },
    {
      "constant": true,
      "inputs": [],
      "name": "dollarPrice",
      "outputs": [
        {
          "name": "",
          "type": "uint256"
        }
      ],
      "payable": false,
      "stateMutability": "view",
      "type": "function"
    },
    {
      "constant": true,
      "inputs": [],
      "name": "stage3Sale",
      "outputs": [
        {
          "name": "",
          "type": "uint256"
        }
      ],
      "payable": false,
      "stateMutability": "view",
      "type": "function"
    },
    {
      "constant": true,
      "inputs": [],
      "name": "startMainSale",
      "outputs": [
        {
          "name": "",
          "type": "uint256"
        }
      ],
      "payable": false,
      "stateMutability": "view",
      "type": "function"
    },
    {
      "constant": true,
      "inputs": [],
      "name": "endMainSale",
      "outputs": [
        {
          "name": "",
          "type": "uint256"
        }
      ],
      "payable": false,
      "stateMutability": "view",
      "type": "function"
    },
    {
      "constant": true,
      "inputs": [],
      "name": "buyPrice",
      "outputs": [
        {
          "name": "",
          "type": "uint256"
        }
      ],
      "payable": false,
      "stateMutability": "view",
      "type": "function"
    },
    {
      "constant": true,
      "inputs": [],
      "name": "investors",
      "outputs": [
        {
          "name": "",
          "type": "uint256"
        }
      ],
      "payable": false,
      "stateMutability": "view",
      "type": "function"
    },
    {
      "constant": true,
      "inputs": [],
      "name": "owner",
      "outputs": [
        {
          "name": "",
          "type": "address"
        }
      ],
      "payable": false,
      "stateMutability": "view",
      "type": "function"
    },
    {
      "constant": true,
      "inputs": [
        {
          "name": "",
          "type": "address"
        }
      ],
      "name": "whitelist",
      "outputs": [
        {
          "name": "",
          "type": "bool"
        }
      ],
      "payable": false,
      "stateMutability": "view",
      "type": "function"
    },
    {
      "constant": true,
      "inputs": [],
      "name": "softcapMainSale",
      "outputs": [
        {
          "name": "",
          "type": "uint256"
        }
      ],
      "payable": false,
      "stateMutability": "view",
      "type": "function"
    },
    {
      "constant": true,
      "inputs": [],
      "name": "stage2Sale",
      "outputs": [
        {
          "name": "",
          "type": "uint256"
        }
      ],
      "payable": false,
      "stateMutability": "view",
      "type": "function"
    },
    {
      "constant": true,
      "inputs": [],
      "name": "weisRaised",
      "outputs": [
        {
          "name": "",
          "type": "uint256"
        }
      ],
      "payable": false,
      "stateMutability": "view",
      "type": "function"
    },
    {
      "constant": true,
      "inputs": [],
      "name": "hardCapMainSale",
      "outputs": [
        {
          "name": "",
          "type": "uint256"
        }
      ],
      "payable": false,
      "stateMutability": "view",
      "type": "function"
    },
    {
      "constant": true,
      "inputs": [],
      "name": "token",
      "outputs": [
        {
          "name": "",
          "type": "address"
        }
      ],
      "payable": false,
      "stateMutability": "view",
      "type": "function"
    },
    {
      "inputs": [
        {
          "name": "_token",
          "type": "address"
        },
        {
          "name": "usdETH",
          "type": "uint256"
        }
      ],
      "payable": false,
      "stateMutability": "nonpayable",
      "type": "constructor"
    },
    {
      "payable": true,
      "stateMutability": "payable",
      "type": "fallback"
    },
    {
      "anonymous": false,
      "inputs": [
        {
          "indexed": false,
          "name": "wlCandidate",
          "type": "address"
        },
        {
          "indexed": false,
          "name": "timestamp",
          "type": "uint256"
        },
        {
          "indexed": false,
          "name": "investorType",
          "type": "uint8"
        }
      ],
      "name": "Authorized",
      "type": "event"
    },
    {
      "anonymous": false,
      "inputs": [
        {
          "indexed": false,
          "name": "wlCandidate",
          "type": "address"
        },
        {
          "indexed": false,
          "name": "timestamp",
          "type": "uint256"
        }
      ],
      "name": "Revoked",
      "type": "event"
    },
    {
      "anonymous": false,
      "inputs": [
        {
          "indexed": false,
          "name": "time",
          "type": "uint256"
        },
        {
          "indexed": false,
          "name": "_rate",
          "type": "uint256"
        }
      ],
      "name": "UpdateDollar",
      "type": "event"
    },
    {
      "anonymous": false,
      "inputs": [
        {
          "indexed": false,
          "name": "sum",
          "type": "uint256"
        },
        {
          "indexed": false,
          "name": "investor",
          "type": "address"
        }
      ],
      "name": "Refund",
      "type": "event"
    },
    {
      "constant": false,
      "inputs": [
        {
          "name": "newStartMainSale",
          "type": "uint256"
        }
      ],
      "name": "setStartMainSale",
      "outputs": [],
      "payable": false,
      "stateMutability": "nonpayable",
      "type": "function"
    },
    {
      "constant": false,
      "inputs": [
        {
          "name": "newEndMainSale",
          "type": "uint256"
        }
      ],
      "name": "setEndMainSale",
      "outputs": [],
      "payable": false,
      "stateMutability": "nonpayable",
      "type": "function"
    },
    {
      "constant": false,
      "inputs": [
        {
          "name": "newBackEndOperator",
          "type": "address"
        }
      ],
      "name": "setBackEndAddress",
      "outputs": [],
      "payable": false,
      "stateMutability": "nonpayable",
      "type": "function"
    },
    {
      "constant": false,
      "inputs": [
        {
          "name": "_dollar",
          "type": "uint256"
        }
      ],
      "name": "setBuyPrice",
      "outputs": [],
      "payable": false,
      "stateMutability": "nonpayable",
      "type": "function"
    },
    {
      "constant": false,
      "inputs": [
        {
          "name": "wlCandidate",
          "type": "address"
        },
        {
          "name": "investorType",
          "type": "uint8"
        }
      ],
      "name": "authorize",
      "outputs": [],
      "payable": false,
      "stateMutability": "nonpayable",
      "type": "function"
    },
    {
      "constant": false,
      "inputs": [
        {
          "name": "wlCandidate",
          "type": "address"
        }
      ],
      "name": "revoke",
      "outputs": [],
      "payable": false,
      "stateMutability": "nonpayable",
      "type": "function"
    },
    {
      "constant": true,
      "inputs": [],
      "name": "isMainSale",
      "outputs": [
        {
          "name": "",
          "type": "bool"
        }
      ],
      "payable": false,
      "stateMutability": "view",
      "type": "function"
    },
    {
      "constant": false,
      "inputs": [
        {
          "name": "receiver",
          "type": "address"
        },
        {
          "name": "_tokens",
          "type": "uint256"
        }
      ],
      "name": "mintManual",
      "outputs": [],
      "payable": false,
      "stateMutability": "nonpayable",
      "type": "function"
    },
    {
      "constant": false,
      "inputs": [
        {
          "name": "_to",
          "type": "address"
        },
        {
          "name": "amount",
          "type": "uint256"
        }
      ],
      "name": "transferEthFromContract",
      "outputs": [],
      "payable": false,
      "stateMutability": "nonpayable",
      "type": "function"
    },
    {
      "constant": false,
      "inputs": [],
      "name": "refundPreSale",
      "outputs": [],
      "payable": false,
      "stateMutability": "nonpayable",
      "type": "function"
    }
  ],
  "bytecode": "0x608060405233600260006101000a81548173ffffffffffffffffffffffffffffffffffffffff021916908373ffffffffffffffffffffffffffffffffffffffff160217905550737ede8260e573d3a3ddfc058f19309df5a1f7397e600360006101000a81548173ffffffffffffffffffffffffffffffffffffffff021916908373ffffffffffffffffffffffffffffffffffffffff160217905550730cdb839b52404d49417c8ded6c3e2157a06cdd37600460006101000a81548173ffffffffffffffffffffffffffffffffffffffff021916908373ffffffffffffffffffffffffffffffffffffffff160217905550635bc3d880600855635c1443ff6009556212750060085401600a556224ea0060085401600b5562375f0060085401600c556a0f4d870271cf2c228000006012556a559cfa3e1bda129780000060135534801561014a57600080fd5b50604051604080611eb78339810180604052810190808051906020019092919080519060200190929190505050336000806101000a81548173ffffffffffffffffffffffffffffffffffffffff021916908373ffffffffffffffffffffffffffffffffffffffff16021790555081600160006101000a81548173ffffffffffffffffffffffffffffffffffffffff021916908373ffffffffffffffffffffffffffffffffffffffff16021790555080601081905550601054670de0b6b3a764000081151561021457fe5b04600f819055505050611c8b8061022c6000396000f30060806040526004361061016a576000357c0100000000000000000000000000000000000000000000000000000000900463ffffffff168063050895ff146102455780630e407bdd1461029c5780631c232194146102c75780631dae56e5146102de578063274448ff1461033b57806331198d1914610392578063311bcda6146103df57806340d7b7b81461040a5780634c7b1a79146104355780635431dfb814610462578063580e77d41461048d57806363ae8d6c146104b85780636ee64345146104e557806374a8f103146105105780638620410b146105535780638ac27f5f1461057e5780638ca5da35146105a95780638da5cb5b146105f65780639b19251a1461064d5780639fb03244146106a8578063aef35e6a146106d3578063b701dc14146106fe578063bad4059714610741578063d1f2efd51461076e578063da5f838d1461079d578063ded64939146107c8578063f307946d14610818578063fc0c546a14610843575b6101733361089a565b151561017e57600080fd5b6101866108f0565b151561019157600080fd5b61019b333461090b565b601354601154111515156101ae57600080fd5b61020034600660003373ffffffffffffffffffffffffffffffffffffffff1673ffffffffffffffffffffffffffffffffffffffff16815260200190815260200160002054610d4a90919063ffffffff16565b600660003373ffffffffffffffffffffffffffffffffffffffff1673ffffffffffffffffffffffffffffffffffffffff16815260200190815260200160002081905550005b34801561025157600080fd5b5061025a610d66565b604051808273ffffffffffffffffffffffffffffffffffffffff1673ffffffffffffffffffffffffffffffffffffffff16815260200191505060405180910390f35b3480156102a857600080fd5b506102b1610d8c565b6040518082815260200191505060405180910390f35b3480156102d357600080fd5b506102dc610d92565b005b3480156102ea57600080fd5b5061031f600480360381019080803573ffffffffffffffffffffffffffffffffffffffff169060200190929190505050610f59565b604051808260ff1660ff16815260200191505060405180910390f35b34801561034757600080fd5b5061037c600480360381019080803573ffffffffffffffffffffffffffffffffffffffff169060200190929190505050610f79565b6040518082815260200191505060405180910390f35b34801561039e57600080fd5b506103dd600480360381019080803573ffffffffffffffffffffffffffffffffffffffff16906020019092919080359060200190929190505050610f91565b005b3480156103eb57600080fd5b506103f4611037565b6040518082815260200191505060405180910390f35b34801561041657600080fd5b5061041f61103d565b6040518082815260200191505060405180910390f35b34801561044157600080fd5b5061046060048036038101908080359060200190929190505050611043565b005b34801561046e57600080fd5b506104776110a8565b6040518082815260200191505060405180910390f35b34801561049957600080fd5b506104a26110ae565b6040518082815260200191505060405180910390f35b3480156104c457600080fd5b506104e3600480360381019080803590602001909291905050506110b4565b005b3480156104f157600080fd5b506104fa611176565b6040518082815260200191505060405180910390f35b34801561051c57600080fd5b50610551600480360381019080803573ffffffffffffffffffffffffffffffffffffffff16906020019092919050505061117c565b005b34801561055f57600080fd5b506105686112b0565b6040518082815260200191505060405180910390f35b34801561058a57600080fd5b506105936112b6565b6040518082815260200191505060405180910390f35b3480156105b557600080fd5b506105f4600480360381019080803573ffffffffffffffffffffffffffffffffffffffff169060200190929190803590602001909291905050506112bc565b005b34801561060257600080fd5b5061060b611719565b604051808273ffffffffffffffffffffffffffffffffffffffff1673ffffffffffffffffffffffffffffffffffffffff16815260200191505060405180910390f35b34801561065957600080fd5b5061068e600480360381019080803573ffffffffffffffffffffffffffffffffffffffff16906020019092919050505061173e565b604051808215151515815260200191505060405180910390f35b3480156106b457600080fd5b506106bd61175e565b6040518082815260200191505060405180910390f35b3480156106df57600080fd5b506106e8611764565b6040518082815260200191505060405180910390f35b34801561070a57600080fd5b5061073f600480360381019080803573ffffffffffffffffffffffffffffffffffffffff16906020019092919050505061176a565b005b34801561074d57600080fd5b5061076c60048036038101908080359060200190929190505050611809565b005b34801561077a57600080fd5b506107836108f0565b604051808215151515815260200191505060405180910390f35b3480156107a957600080fd5b506107b261186e565b6040518082815260200191505060405180910390f35b3480156107d457600080fd5b50610816600480360381019080803573ffffffffffffffffffffffffffffffffffffffff169060200190929190803560ff169060200190929190505050611874565b005b34801561082457600080fd5b5061082d611b42565b6040518082815260200191505060405180910390f35b34801561084f57600080fd5b50610858611b48565b604051808273ffffffffffffffffffffffffffffffffffffffff1673ffffffffffffffffffffffffffffffffffffffff16815260200191505060405180910390f35b6000600560008373ffffffffffffffffffffffffffffffffffffffff1673ffffffffffffffffffffffffffffffffffffffff16815260200190815260200160002060009054906101000a900460ff169050919050565b6000600854421015801561090657506009544211155b905090565b600080600080610940600f54610932670de0b6b3a764000088611b6e90919063ffffffff16565b611ba690919063ffffffff16565b935061096f6064610961610952611bbc565b87611b6e90919063ffffffff16565b611ba690919063ffffffff16565b92506109848385610d4a90919063ffffffff16565b9350600160009054906101000a900473ffffffffffffffffffffffffffffffffffffffff1673ffffffffffffffffffffffffffffffffffffffff16633aa0396a87866040518363ffffffff167c0100000000000000000000000000000000000000000000000000000000028152600401808373ffffffffffffffffffffffffffffffffffffffff1673ffffffffffffffffffffffffffffffffffffffff16815260200182815260200192505050602060405180830381600087803b158015610a4b57600080fd5b505af1158015610a5f573d6000803e3d6000fd5b505050506040513d6020811015610a7557600080fd5b810190808051906020019092919050505050610a9c84601154610d4a90919063ffffffff16565b601181905550610ac9602c610abb600587611b6e90919063ffffffff16565b611ba690919063ffffffff16565b9150600160009054906101000a900473ffffffffffffffffffffffffffffffffffffffff1673ffffffffffffffffffffffffffffffffffffffff16633aa0396a600360009054906101000a900473ffffffffffffffffffffffffffffffffffffffff16846040518363ffffffff167c0100000000000000000000000000000000000000000000000000000000028152600401808373ffffffffffffffffffffffffffffffffffffffff1673ffffffffffffffffffffffffffffffffffffffff16815260200182815260200192505050602060405180830381600087803b158015610bb257600080fd5b505af1158015610bc6573d6000803e3d6000fd5b505050506040513d6020811015610bdc57600080fd5b810190808051906020019092919050505050610c02602c85611ba690919063ffffffff16565b9050600160009054906101000a900473ffffffffffffffffffffffffffffffffffffffff1673ffffffffffffffffffffffffffffffffffffffff16633aa0396a600460009054906101000a900473ffffffffffffffffffffffffffffffffffffffff16836040518363ffffffff167c0100000000000000000000000000000000000000000000000000000000028152600401808373ffffffffffffffffffffffffffffffffffffffff1673ffffffffffffffffffffffffffffffffffffffff16815260200182815260200192505050602060405180830381600087803b158015610ceb57600080fd5b505af1158015610cff573d6000803e3d6000fd5b505050506040513d6020811015610d1557600080fd5b810190808051906020019092919050505050610d3c85600e54610d4a90919063ffffffff16565b600e81905550505050505050565b60008183019050828110151515610d5d57fe5b80905092915050565b600260009054906101000a900473ffffffffffffffffffffffffffffffffffffffff1681565b60115481565b6000601154601154108015610da8575060095442115b1515610db357600080fd5b600660003373ffffffffffffffffffffffffffffffffffffffff1673ffffffffffffffffffffffffffffffffffffffff1681526020019081526020016000205490506000600660003373ffffffffffffffffffffffffffffffffffffffff1673ffffffffffffffffffffffffffffffffffffffff1681526020019081526020016000205410151515610e4457600080fd5b6000600660003373ffffffffffffffffffffffffffffffffffffffff1673ffffffffffffffffffffffffffffffffffffffff168152602001908152602001600020819055503373ffffffffffffffffffffffffffffffffffffffff166108fc829081150290604051600060405180830381858888f19350505050158015610ecf573d6000803e3d6000fd5b50610ee581600e54611c4690919063ffffffff16565b600e819055507f510b82fea70ff89a8cc73cd7f29db2d7b480134c160cb52a258797b42d1989ad8133604051808381526020018273ffffffffffffffffffffffffffffffffffffffff1673ffffffffffffffffffffffffffffffffffffffff1681526020019250505060405180910390a150565b60076020528060005260406000206000915054906101000a900460ff1681565b60066020528060005260406000206000915090505481565b6000809054906101000a900473ffffffffffffffffffffffffffffffffffffffff1673ffffffffffffffffffffffffffffffffffffffff163373ffffffffffffffffffffffffffffffffffffffff16141515610fec57600080fd5b8173ffffffffffffffffffffffffffffffffffffffff166108fc829081150290604051600060405180830381858888f19350505050158015611032573d6000803e3d6000fd5b505050565b600a5481565b60105481565b6000809054906101000a900473ffffffffffffffffffffffffffffffffffffffff1673ffffffffffffffffffffffffffffffffffffffff163373ffffffffffffffffffffffffffffffffffffffff1614151561109e57600080fd5b8060088190555050565b600c5481565b60085481565b6000809054906101000a900473ffffffffffffffffffffffffffffffffffffffff1673ffffffffffffffffffffffffffffffffffffffff163373ffffffffffffffffffffffffffffffffffffffff1614151561110f57600080fd5b80601081905550601054670de0b6b3a764000081151561112b57fe5b04600f819055507f8e5d322ef7050e99e3845ad9d8b2608b9512de19853d4215b71b7a4ee2993d4f42601054604051808381526020018281526020019250505060405180910390a150565b60095481565b6000809054906101000a900473ffffffffffffffffffffffffffffffffffffffff1673ffffffffffffffffffffffffffffffffffffffff163373ffffffffffffffffffffffffffffffffffffffff161415156111d757600080fd5b6000600560008373ffffffffffffffffffffffffffffffffffffffff1673ffffffffffffffffffffffffffffffffffffffff16815260200190815260200160002060006101000a81548160ff021916908315150217905550600d60008154809291906001900391905055507f713b90881ad62c4fa8ab6bd9197fa86481fc0c11b2edba60026514281b2dbac48142604051808373ffffffffffffffffffffffffffffffffffffffff1673ffffffffffffffffffffffffffffffffffffffff1681526020018281526020019250505060405180910390a150565b600f5481565b600d5481565b600080600260009054906101000a900473ffffffffffffffffffffffffffffffffffffffff1673ffffffffffffffffffffffffffffffffffffffff163373ffffffffffffffffffffffffffffffffffffffff16148061136757506000809054906101000a900473ffffffffffffffffffffffffffffffffffffffff1673ffffffffffffffffffffffffffffffffffffffff163373ffffffffffffffffffffffffffffffffffffffff16145b151561137257600080fd5b600160009054906101000a900473ffffffffffffffffffffffffffffffffffffffff1673ffffffffffffffffffffffffffffffffffffffff16633aa0396a85856040518363ffffffff167c0100000000000000000000000000000000000000000000000000000000028152600401808373ffffffffffffffffffffffffffffffffffffffff1673ffffffffffffffffffffffffffffffffffffffff16815260200182815260200192505050602060405180830381600087803b15801561143757600080fd5b505af115801561144b573d6000803e3d6000fd5b505050506040513d602081101561146157600080fd5b81019080805190602001909291905050505061148883601154610d4a90919063ffffffff16565b6011819055506114b5602c6114a7600586611b6e90919063ffffffff16565b611ba690919063ffffffff16565b9150600160009054906101000a900473ffffffffffffffffffffffffffffffffffffffff1673ffffffffffffffffffffffffffffffffffffffff16633aa0396a600360009054906101000a900473ffffffffffffffffffffffffffffffffffffffff16846040518363ffffffff167c0100000000000000000000000000000000000000000000000000000000028152600401808373ffffffffffffffffffffffffffffffffffffffff1673ffffffffffffffffffffffffffffffffffffffff16815260200182815260200192505050602060405180830381600087803b15801561159e57600080fd5b505af11580156115b2573d6000803e3d6000fd5b505050506040513d60208110156115c857600080fd5b8101908080519060200190929190505050506115ee602c84611ba690919063ffffffff16565b9050600160009054906101000a900473ffffffffffffffffffffffffffffffffffffffff1673ffffffffffffffffffffffffffffffffffffffff16633aa0396a600460009054906101000a900473ffffffffffffffffffffffffffffffffffffffff16836040518363ffffffff167c0100000000000000000000000000000000000000000000000000000000028152600401808373ffffffffffffffffffffffffffffffffffffffff1673ffffffffffffffffffffffffffffffffffffffff16815260200182815260200192505050602060405180830381600087803b1580156116d757600080fd5b505af11580156116eb573d6000803e3d6000fd5b505050506040513d602081101561170157600080fd5b81019080805190602001909291905050505050505050565b6000809054906101000a900473ffffffffffffffffffffffffffffffffffffffff1681565b60056020528060005260406000206000915054906101000a900460ff1681565b60125481565b600b5481565b6000809054906101000a900473ffffffffffffffffffffffffffffffffffffffff1673ffffffffffffffffffffffffffffffffffffffff163373ffffffffffffffffffffffffffffffffffffffff161415156117c557600080fd5b80600260006101000a81548173ffffffffffffffffffffffffffffffffffffffff021916908373ffffffffffffffffffffffffffffffffffffffff16021790555050565b6000809054906101000a900473ffffffffffffffffffffffffffffffffffffffff1673ffffffffffffffffffffffffffffffffffffffff163373ffffffffffffffffffffffffffffffffffffffff1614151561186457600080fd5b8060098190555050565b600e5481565b600260009054906101000a900473ffffffffffffffffffffffffffffffffffffffff1673ffffffffffffffffffffffffffffffffffffffff163373ffffffffffffffffffffffffffffffffffffffff16148061191c57506000809054906101000a900473ffffffffffffffffffffffffffffffffffffffff1673ffffffffffffffffffffffffffffffffffffffff163373ffffffffffffffffffffffffffffffffffffffff16145b151561192757600080fd5b600073ffffffffffffffffffffffffffffffffffffffff168273ffffffffffffffffffffffffffffffffffffffff161415151561196357600080fd5b61196c8261089a565b15151561197857600080fd5b6001600d54148061198c575060028160ff16145b151561199757600080fd5b6001600560008473ffffffffffffffffffffffffffffffffffffffff1673ffffffffffffffffffffffffffffffffffffffff16815260200190815260200160002060006101000a81548160ff021916908315150217905550600d6000815480929190600101919050555060018160ff161415611a6b576001600760008473ffffffffffffffffffffffffffffffffffffffff1673ffffffffffffffffffffffffffffffffffffffff16815260200190815260200160002060006101000a81548160ff021916908360ff160217905550611ac5565b6002600760008473ffffffffffffffffffffffffffffffffffffffff1673ffffffffffffffffffffffffffffffffffffffff16815260200190815260200160002060006101000a81548160ff021916908360ff1602179055505b7f497051178d9934c1c260c734853f4b88f7910141a0e6f3ac1a402cb1de9ac337824283604051808473ffffffffffffffffffffffffffffffffffffffff1673ffffffffffffffffffffffffffffffffffffffff1681526020018381526020018260ff1660ff168152602001935050505060405180910390a15050565b60135481565b600160009054906101000a900473ffffffffffffffffffffffffffffffffffffffff1681565b600080831415611b815760009050611ba0565b8183029050818382811515611b9257fe5b04141515611b9c57fe5b8090505b92915050565b60008183811515611bb357fe5b04905092915050565b600060085442118015611bd05750600a5442105b15611bde57600f9050611c43565b600a5442118015611bf05750600b5442105b15611bfe57600a9050611c43565b600b5442118015611c105750600c5442105b15611c1e5760059050611c43565b600c5442118015611c30575060095442105b15611c3e5760039050611c43565b600090505b90565b6000828211151515611c5457fe5b8183039050929150505600a165627a7a72305820f71e39c677438f8aba37886c08d98d6f1c3d7c9362415a06e9871a0eefce51520029",
  "source": "pragma solidity ^0.4.24;\n\n/*** @title SafeMath\n * @dev https://github.com/OpenZeppelin/openzeppelin-solidity/blob/master/contracts/math/SafeMath.sol */\nlibrary SafeMath {\n  \n  function mul(uint256 a, uint256 b) internal pure returns (uint256 c) {\n    if (a == 0) {\n      return 0;\n    }\n    c = a * b;\n    assert(c / a == b);\n    return c;\n  }\n  \n  function div(uint256 a, uint256 b) internal pure returns (uint256) {\n    return a / b;\n  }\n  \n  function sub(uint256 a, uint256 b) internal pure returns (uint256) {\n    assert(b <= a);\n    return a - b;\n  }\n  \n  function add(uint256 a, uint256 b) internal pure returns (uint256 c) {\n    c = a + b;\n    assert(c >= a);\n    return c;\n  }\n}\n\ninterface ERC20 {\n  function transfer (address _beneficiary, uint256 _tokenAmount) external returns (bool);\n  function mintFromICO(address _to, uint256 _amount) external  returns(bool);\n}\n\n/**\n * @title Ownable\n * @dev https://github.com/OpenZeppelin/openzeppelin-solidity/blob/master/contracts/ownership/Ownable.sol */\ncontract Ownable {\n  address public owner;\n  \n  constructor() public {\n    owner = msg.sender;\n  }\n  \n  modifier onlyOwner() {\n    require(msg.sender == owner);\n    _;\n  }\n}\n\n/**\n * @title MainCrowdSale\n * @dev https://github.com/elephant-marketing/*/\n\ncontract MainSale is Ownable {\n  \n  ERC20 public token;\n  \n  using SafeMath for uint;\n  \n  address public backEndOperator = msg.sender;\n  \n  address team = 0x7eDE8260e573d3A3dDfc058f19309DF5a1f7397E; // 10 % - founders\n  \n  address bounty = 0x0cdb839B52404d49417C8Ded6c3E2157A06CdD37; // 2 % - bounty\n  \n  \n  mapping(address=>bool) public whitelist;\n  \n  mapping(address => uint256) public investedEther;\n  \n  mapping(address => uint8) public typeOfInvestors;\n  \n  \n  uint256 public startMainSale = 1539561600; // Monday, 15-Oct-18 00:00:00 UTC\n  \n  uint256 public endMainSale = 1544831999; // Friday, 14-Dec-18 23:59:59 UTC\n  \n  \n  uint256 public stage1Sale = startMainSale + 14 days; // 0- 7  days\n  \n  uint256 public stage2Sale = startMainSale + 28 days; // 8 - 14 days\n  \n  uint256 public stage3Sale = startMainSale + 42 days; // 15 - 21  days\n  \n  \n  uint256 public investors;\n  \n  uint256 public weisRaised;\n  \n  uint256 public buyPrice; // 1 USD\n  \n  uint256 public dollarPrice;\n  \n  uint256 public soldTokensMainSale;\n  \n  uint256 public softcapMainSale = 18500000*1e18; // 18,500,000 ANG - !!!    \n  \n  uint256 public hardCapMainSale = 103500000*1e18; // 103,500,000 ANG - !!!    \n  \n  \n  event Authorized(address wlCandidate, uint timestamp, uint8 investorType);\n  \n  event Revoked(address wlCandidate, uint timestamp);\n  \n  event UpdateDollar(uint256 time, uint256 _rate);\n  \n  event Refund(uint256 sum, address investor);\n  \n  \n  \n  modifier backEnd() {\n    require(msg.sender == backEndOperator || msg.sender == owner);\n    _;\n  }\n  \n  \n  constructor(ERC20 _token, uint256 usdETH) public {\n    token = _token;\n    dollarPrice = usdETH;\n    buyPrice = (1e18/dollarPrice); // 1 usd\n  }\n  \n  \n  function setStartMainSale(uint256 newStartMainSale) public onlyOwner {\n    startMainSale = newStartMainSale;\n  }\n  \n  function setEndMainSale(uint256 newEndMainSale) public onlyOwner {\n    endMainSale = newEndMainSale;\n  }\n  \n  function setBackEndAddress(address newBackEndOperator) public onlyOwner {\n    backEndOperator = newBackEndOperator;\n  }\n  \n  function setBuyPrice(uint256 _dollar) public onlyOwner {\n    dollarPrice = _dollar;\n    buyPrice = (1e18/dollarPrice); // 1 usd\n    emit UpdateDollar(now, dollarPrice);\n  }\n  \n  /*******************************************************************************\n   * Whitelist's section */\n  \n  function authorize(address wlCandidate, uint8 investorType) public backEnd  {\n    require(wlCandidate != address(0x0));\n    require(!isWhitelisted(wlCandidate));\n    require(investors == 1 || investorType == 2);\n    \n    whitelist[wlCandidate] = true;\n    investors++;\n    \n    if (investorType == 1) {\n      typeOfInvestors[wlCandidate] = 1;\n    } else {\n      typeOfInvestors[wlCandidate] = 2;\n    }\n    emit Authorized(wlCandidate, now, investorType);\n  }\n  \n  \n  function revoke(address wlCandidate) public  onlyOwner {\n    whitelist[wlCandidate] = false;\n    investors--;\n    emit Revoked(wlCandidate, now);\n  }\n  \n  \n  function isWhitelisted(address wlCandidate) internal view returns(bool) {\n    return whitelist[wlCandidate];\n  }\n  \n  \n  /*******************************************************************************\n   * Payable's section */\n  \n  function isMainSale() public constant returns(bool) {\n    return now >= startMainSale && now <= endMainSale;\n  }\n  \n  \n  function () public payable {\n    require(isWhitelisted(msg.sender));\n    require(isMainSale());\n    mainSale(msg.sender, msg.value);\n    require(soldTokensMainSale<=hardCapMainSale);\n    investedEther[msg.sender] = investedEther[msg.sender].add(msg.value);\n  }\n  \n  \n  function mainSale(address _investor, uint256 _value) internal {\n    uint256 tokens = _value.mul(1e18).div(buyPrice);\n    uint256 tokensByDate = tokens.mul(bonusDate()).div(100);\n    tokens = tokens.add(tokensByDate);\n    token.mintFromICO(_investor, tokens);\n    soldTokensMainSale = soldTokensMainSale.add(tokens); // only sold\n    \n    uint256 tokensTeam = tokens.mul(5).div(44); // 10 %\n    token.mintFromICO(team, tokensTeam);\n    \n    uint256 tokensBoynty = tokens.div(44); // 2 %\n    token.mintFromICO(bounty, tokensBoynty);\n    \n    weisRaised = weisRaised.add(_value);\n  }\n  \n  \n  function bonusDate() private view returns (uint256){\n    if (now > startMainSale && now < stage1Sale) {  // 0 - 14 days preSale\n      return 15;\n    }\n    else if (now > stage1Sale && now < stage2Sale) { // 15 - 28 days preSale\n      return 10;\n    }\n    else if (now > stage2Sale && now < stage3Sale) { // 29 - 42 days preSale\n      return 5;\n    }\n    else if (now > stage3Sale && now < endMainSale) { // 43 - endSale\n      return 3;\n    }\n    \n    else {\n      return 0;\n    }\n  }\n  \n  \n  function mintManual(address receiver, uint256 _tokens) public backEnd {\n    token.mintFromICO(receiver, _tokens);\n    soldTokensMainSale = soldTokensMainSale.add(_tokens);\n    \n    uint256 tokensTeam = _tokens.mul(5).div(44); // 10 %\n    token.mintFromICO(team, tokensTeam);\n    \n    uint256 tokensBoynty = _tokens.div(44); // 2 %\n    token.mintFromICO(bounty, tokensBoynty);\n  }\n  \n  \n  function transferEthFromContract(address _to, uint256 amount) public onlyOwner {\n    _to.transfer(amount);\n  }\n  \n  \n  function refundPreSale() public {\n    require(soldTokensMainSale < soldTokensMainSale && now > endMainSale);\n    uint256 rate = investedEther[msg.sender];\n    require(investedEther[msg.sender] >= 0);\n    investedEther[msg.sender] = 0;\n    msg.sender.transfer(rate);\n    weisRaised = weisRaised.sub(rate);\n    emit Refund(rate, msg.sender);\n  }\n}",
  "sourcePath": "/Users/ivanborisov/Yandex.Disk.localized/IT/WorkProjects/Portfolio/ANGENIUM/contracts/MainSale.sol",
  "compiler": {
    "name": "solc",
    "version": "0.4.24+commit.e67f0147.Emscripten.clang"
  },
  "schemaVersion": "2.0.0",
  "updatedAt": "2018-06-19T12:06:50.057Z"
}