{
  "contractName": "PausableToken",
  "abi": [
    {
      "constant": true,
      "inputs": [],
      "name": "totalSupply",
      "outputs": [
        {
          "name": "",
          "type": "uint256"
        }
      ],
      "payable": false,
      "stateMutability": "view",
      "type": "function"
    },
    {
      "constant": false,
      "inputs": [],
      "name": "unpause",
      "outputs": [],
      "payable": false,
      "stateMutability": "nonpayable",
      "type": "function"
    },
    {
      "constant": true,
      "inputs": [],
      "name": "paused",
      "outputs": [
        {
          "name": "",
          "type": "bool"
        }
      ],
      "payable": false,
      "stateMutability": "view",
      "type": "function"
    },
    {
      "constant": true,
      "inputs": [
        {
          "name": "_owner",
          "type": "address"
        }
      ],
      "name": "balanceOf",
      "outputs": [
        {
          "name": "",
          "type": "uint256"
        }
      ],
      "payable": false,
      "stateMutability": "view",
      "type": "function"
    },
    {
      "constant": false,
      "inputs": [],
      "name": "pause",
      "outputs": [],
      "payable": false,
      "stateMutability": "nonpayable",
      "type": "function"
    },
    {
      "constant": true,
      "inputs": [],
      "name": "owner",
      "outputs": [
        {
          "name": "",
          "type": "address"
        }
      ],
      "payable": false,
      "stateMutability": "view",
      "type": "function"
    },
    {
      "constant": true,
      "inputs": [
        {
          "name": "_owner",
          "type": "address"
        },
        {
          "name": "_spender",
          "type": "address"
        }
      ],
      "name": "allowance",
      "outputs": [
        {
          "name": "",
          "type": "uint256"
        }
      ],
      "payable": false,
      "stateMutability": "view",
      "type": "function"
    },
    {
      "anonymous": false,
      "inputs": [],
      "name": "Pause",
      "type": "event"
    },
    {
      "anonymous": false,
      "inputs": [],
      "name": "Unpause",
      "type": "event"
    },
    {
      "anonymous": false,
      "inputs": [
        {
          "indexed": true,
          "name": "owner",
          "type": "address"
        },
        {
          "indexed": true,
          "name": "spender",
          "type": "address"
        },
        {
          "indexed": false,
          "name": "value",
          "type": "uint256"
        }
      ],
      "name": "Approval",
      "type": "event"
    },
    {
      "anonymous": false,
      "inputs": [
        {
          "indexed": true,
          "name": "from",
          "type": "address"
        },
        {
          "indexed": true,
          "name": "to",
          "type": "address"
        },
        {
          "indexed": false,
          "name": "value",
          "type": "uint256"
        }
      ],
      "name": "Transfer",
      "type": "event"
    },
    {
      "constant": false,
      "inputs": [
        {
          "name": "_to",
          "type": "address"
        },
        {
          "name": "_value",
          "type": "uint256"
        }
      ],
      "name": "transfer",
      "outputs": [
        {
          "name": "",
          "type": "bool"
        }
      ],
      "payable": false,
      "stateMutability": "nonpayable",
      "type": "function"
    },
    {
      "constant": false,
      "inputs": [
        {
          "name": "_from",
          "type": "address"
        },
        {
          "name": "_to",
          "type": "address"
        },
        {
          "name": "_value",
          "type": "uint256"
        }
      ],
      "name": "transferFrom",
      "outputs": [
        {
          "name": "",
          "type": "bool"
        }
      ],
      "payable": false,
      "stateMutability": "nonpayable",
      "type": "function"
    },
    {
      "constant": false,
      "inputs": [
        {
          "name": "_spender",
          "type": "address"
        },
        {
          "name": "_value",
          "type": "uint256"
        }
      ],
      "name": "approve",
      "outputs": [
        {
          "name": "",
          "type": "bool"
        }
      ],
      "payable": false,
      "stateMutability": "nonpayable",
      "type": "function"
    },
    {
      "constant": false,
      "inputs": [
        {
          "name": "_spender",
          "type": "address"
        },
        {
          "name": "_addedValue",
          "type": "uint256"
        }
      ],
      "name": "increaseApproval",
      "outputs": [
        {
          "name": "success",
          "type": "bool"
        }
      ],
      "payable": false,
      "stateMutability": "nonpayable",
      "type": "function"
    },
    {
      "constant": false,
      "inputs": [
        {
          "name": "_spender",
          "type": "address"
        },
        {
          "name": "_subtractedValue",
          "type": "uint256"
        }
      ],
      "name": "decreaseApproval",
      "outputs": [
        {
          "name": "success",
          "type": "bool"
        }
      ],
      "payable": false,
      "stateMutability": "nonpayable",
      "type": "function"
    }
  ],
  "bytecode": "0x60806040526000600360146101000a81548160ff02191690831515021790555033600360006101000a81548173ffffffffffffffffffffffffffffffffffffffff021916908373ffffffffffffffffffffffffffffffffffffffff1602179055506113c38061006f6000396000f3006080604052600436106100ba576000357c0100000000000000000000000000000000000000000000000000000000900463ffffffff168063095ea7b3146100bf57806318160ddd1461012457806323b872dd1461014f5780633f4ba83a146101d45780635c975abb146101eb578063661884631461021a57806370a082311461027f5780638456cb59146102d65780638da5cb5b146102ed578063a9059cbb14610344578063d73dd623146103a9578063dd62ed3e1461040e575b600080fd5b3480156100cb57600080fd5b5061010a600480360381019080803573ffffffffffffffffffffffffffffffffffffffff16906020019092919080359060200190929190505050610485565b604051808215151515815260200191505060405180910390f35b34801561013057600080fd5b506101396104b5565b6040518082815260200191505060405180910390f35b34801561015b57600080fd5b506101ba600480360381019080803573ffffffffffffffffffffffffffffffffffffffff169060200190929190803573ffffffffffffffffffffffffffffffffffffffff169060200190929190803590602001909291905050506104bf565b604051808215151515815260200191505060405180910390f35b3480156101e057600080fd5b506101e96104f1565b005b3480156101f757600080fd5b506102006105b1565b604051808215151515815260200191505060405180910390f35b34801561022657600080fd5b50610265600480360381019080803573ffffffffffffffffffffffffffffffffffffffff169060200190929190803590602001909291905050506105c4565b604051808215151515815260200191505060405180910390f35b34801561028b57600080fd5b506102c0600480360381019080803573ffffffffffffffffffffffffffffffffffffffff1690602001909291905050506105f4565b6040518082815260200191505060405180910390f35b3480156102e257600080fd5b506102eb61063c565b005b3480156102f957600080fd5b506103026106fd565b604051808273ffffffffffffffffffffffffffffffffffffffff1673ffffffffffffffffffffffffffffffffffffffff16815260200191505060405180910390f35b34801561035057600080fd5b5061038f600480360381019080803573ffffffffffffffffffffffffffffffffffffffff16906020019092919080359060200190929190505050610723565b604051808215151515815260200191505060405180910390f35b3480156103b557600080fd5b506103f4600480360381019080803573ffffffffffffffffffffffffffffffffffffffff16906020019092919080359060200190929190505050610753565b604051808215151515815260200191505060405180910390f35b34801561041a57600080fd5b5061046f600480360381019080803573ffffffffffffffffffffffffffffffffffffffff169060200190929190803573ffffffffffffffffffffffffffffffffffffffff169060200190929190505050610783565b6040518082815260200191505060405180910390f35b6000600360149054906101000a900460ff161515156104a357600080fd5b6104ad838361080a565b905092915050565b6000600154905090565b6000600360149054906101000a900460ff161515156104dd57600080fd5b6104e88484846108fc565b90509392505050565b600360009054906101000a900473ffffffffffffffffffffffffffffffffffffffff1673ffffffffffffffffffffffffffffffffffffffff163373ffffffffffffffffffffffffffffffffffffffff1614151561054d57600080fd5b600360149054906101000a900460ff16151561056857600080fd5b6000600360146101000a81548160ff0219169083151502179055507f7805862f689e2f13df9f062ff482ad3ad112aca9e0847911ed832e158c525b3360405160405180910390a1565b600360149054906101000a900460ff1681565b6000600360149054906101000a900460ff161515156105e257600080fd5b6105ec8383610cb6565b905092915050565b60008060008373ffffffffffffffffffffffffffffffffffffffff1673ffffffffffffffffffffffffffffffffffffffff168152602001908152602001600020549050919050565b600360009054906101000a900473ffffffffffffffffffffffffffffffffffffffff1673ffffffffffffffffffffffffffffffffffffffff163373ffffffffffffffffffffffffffffffffffffffff1614151561069857600080fd5b600360149054906101000a900460ff161515156106b457600080fd5b6001600360146101000a81548160ff0219169083151502179055507f6985a02210a168e66602d3235cb6db0e70f92b3ba4d376a33c0f3d9434bff62560405160405180910390a1565b600360009054906101000a900473ffffffffffffffffffffffffffffffffffffffff1681565b6000600360149054906101000a900460ff1615151561074157600080fd5b61074b8383610f47565b905092915050565b6000600360149054906101000a900460ff1615151561077157600080fd5b61077b8383611166565b905092915050565b6000600260008473ffffffffffffffffffffffffffffffffffffffff1673ffffffffffffffffffffffffffffffffffffffff16815260200190815260200160002060008373ffffffffffffffffffffffffffffffffffffffff1673ffffffffffffffffffffffffffffffffffffffff16815260200190815260200160002054905092915050565b600081600260003373ffffffffffffffffffffffffffffffffffffffff1673ffffffffffffffffffffffffffffffffffffffff16815260200190815260200160002060008573ffffffffffffffffffffffffffffffffffffffff1673ffffffffffffffffffffffffffffffffffffffff168152602001908152602001600020819055508273ffffffffffffffffffffffffffffffffffffffff163373ffffffffffffffffffffffffffffffffffffffff167f8c5be1e5ebec7d5bd14f71427d1e84f3dd0314c0f7b2291e5b200ac8c7c3b925846040518082815260200191505060405180910390a36001905092915050565b60008073ffffffffffffffffffffffffffffffffffffffff168373ffffffffffffffffffffffffffffffffffffffff161415151561093957600080fd5b6000808573ffffffffffffffffffffffffffffffffffffffff1673ffffffffffffffffffffffffffffffffffffffff16815260200190815260200160002054821115151561098657600080fd5b600260008573ffffffffffffffffffffffffffffffffffffffff1673ffffffffffffffffffffffffffffffffffffffff16815260200190815260200160002060003373ffffffffffffffffffffffffffffffffffffffff1673ffffffffffffffffffffffffffffffffffffffff168152602001908152602001600020548211151515610a1157600080fd5b610a62826000808773ffffffffffffffffffffffffffffffffffffffff1673ffffffffffffffffffffffffffffffffffffffff1681526020019081526020016000205461136290919063ffffffff16565b6000808673ffffffffffffffffffffffffffffffffffffffff1673ffffffffffffffffffffffffffffffffffffffff16815260200190815260200160002081905550610af5826000808673ffffffffffffffffffffffffffffffffffffffff1673ffffffffffffffffffffffffffffffffffffffff1681526020019081526020016000205461137b90919063ffffffff16565b6000808573ffffffffffffffffffffffffffffffffffffffff1673ffffffffffffffffffffffffffffffffffffffff16815260200190815260200160002081905550610bc682600260008773ffffffffffffffffffffffffffffffffffffffff1673ffffffffffffffffffffffffffffffffffffffff16815260200190815260200160002060003373ffffffffffffffffffffffffffffffffffffffff1673ffffffffffffffffffffffffffffffffffffffff1681526020019081526020016000205461136290919063ffffffff16565b600260008673ffffffffffffffffffffffffffffffffffffffff1673ffffffffffffffffffffffffffffffffffffffff16815260200190815260200160002060003373ffffffffffffffffffffffffffffffffffffffff1673ffffffffffffffffffffffffffffffffffffffff168152602001908152602001600020819055508273ffffffffffffffffffffffffffffffffffffffff168473ffffffffffffffffffffffffffffffffffffffff167fddf252ad1be2c89b69c2b068fc378daa952ba7f163c4a11628f55a4df523b3ef846040518082815260200191505060405180910390a3600190509392505050565b600080600260003373ffffffffffffffffffffffffffffffffffffffff1673ffffffffffffffffffffffffffffffffffffffff16815260200190815260200160002060008573ffffffffffffffffffffffffffffffffffffffff1673ffffffffffffffffffffffffffffffffffffffff16815260200190815260200160002054905080831115610dc7576000600260003373ffffffffffffffffffffffffffffffffffffffff1673ffffffffffffffffffffffffffffffffffffffff16815260200190815260200160002060008673ffffffffffffffffffffffffffffffffffffffff1673ffffffffffffffffffffffffffffffffffffffff16815260200190815260200160002081905550610e5b565b610dda838261136290919063ffffffff16565b600260003373ffffffffffffffffffffffffffffffffffffffff1673ffffffffffffffffffffffffffffffffffffffff16815260200190815260200160002060008673ffffffffffffffffffffffffffffffffffffffff1673ffffffffffffffffffffffffffffffffffffffff168152602001908152602001600020819055505b8373ffffffffffffffffffffffffffffffffffffffff163373ffffffffffffffffffffffffffffffffffffffff167f8c5be1e5ebec7d5bd14f71427d1e84f3dd0314c0f7b2291e5b200ac8c7c3b925600260003373ffffffffffffffffffffffffffffffffffffffff1673ffffffffffffffffffffffffffffffffffffffff16815260200190815260200160002060008873ffffffffffffffffffffffffffffffffffffffff1673ffffffffffffffffffffffffffffffffffffffff168152602001908152602001600020546040518082815260200191505060405180910390a3600191505092915050565b60008073ffffffffffffffffffffffffffffffffffffffff168373ffffffffffffffffffffffffffffffffffffffff1614151515610f8457600080fd5b6000803373ffffffffffffffffffffffffffffffffffffffff1673ffffffffffffffffffffffffffffffffffffffff168152602001908152602001600020548211151515610fd157600080fd5b611022826000803373ffffffffffffffffffffffffffffffffffffffff1673ffffffffffffffffffffffffffffffffffffffff1681526020019081526020016000205461136290919063ffffffff16565b6000803373ffffffffffffffffffffffffffffffffffffffff1673ffffffffffffffffffffffffffffffffffffffff168152602001908152602001600020819055506110b5826000808673ffffffffffffffffffffffffffffffffffffffff1673ffffffffffffffffffffffffffffffffffffffff1681526020019081526020016000205461137b90919063ffffffff16565b6000808573ffffffffffffffffffffffffffffffffffffffff1673ffffffffffffffffffffffffffffffffffffffff168152602001908152602001600020819055508273ffffffffffffffffffffffffffffffffffffffff163373ffffffffffffffffffffffffffffffffffffffff167fddf252ad1be2c89b69c2b068fc378daa952ba7f163c4a11628f55a4df523b3ef846040518082815260200191505060405180910390a36001905092915050565b60006111f782600260003373ffffffffffffffffffffffffffffffffffffffff1673ffffffffffffffffffffffffffffffffffffffff16815260200190815260200160002060008673ffffffffffffffffffffffffffffffffffffffff1673ffffffffffffffffffffffffffffffffffffffff1681526020019081526020016000205461137b90919063ffffffff16565b600260003373ffffffffffffffffffffffffffffffffffffffff1673ffffffffffffffffffffffffffffffffffffffff16815260200190815260200160002060008573ffffffffffffffffffffffffffffffffffffffff1673ffffffffffffffffffffffffffffffffffffffff168152602001908152602001600020819055508273ffffffffffffffffffffffffffffffffffffffff163373ffffffffffffffffffffffffffffffffffffffff167f8c5be1e5ebec7d5bd14f71427d1e84f3dd0314c0f7b2291e5b200ac8c7c3b925600260003373ffffffffffffffffffffffffffffffffffffffff1673ffffffffffffffffffffffffffffffffffffffff16815260200190815260200160002060008773ffffffffffffffffffffffffffffffffffffffff1673ffffffffffffffffffffffffffffffffffffffff168152602001908152602001600020546040518082815260200191505060405180910390a36001905092915050565b600082821115151561137057fe5b818303905092915050565b6000818301905082811015151561138e57fe5b809050929150505600a165627a7a72305820b6e4aa0afe5fd187dcefe036e5e067147ff2d99bdc091665f9478171dc2d76b10029",
  "source": "pragma solidity 0.4.24;\n\n/**\n * @title SafeMath\n * @dev https://github.com/OpenZeppelin/openzeppelin-solidity/blob/master/contracts/math/SafeMath.sol\n */\n\nlibrary SafeMath {\n\tfunction mul(uint256 a, uint256 b) internal pure returns (uint256 c) {\n\t\tif (a == 0) {\n\t\t\treturn 0;\n\t\t}\n\t\tc = a * b;\n\t\tassert(c / a == b);\n\t\treturn c;\n\t}\n\t\n\tfunction div(uint256 a, uint256 b) internal pure returns (uint256) {\n\t\treturn a / b;\n\t}\n\t\n\tfunction sub(uint256 a, uint256 b) internal pure returns (uint256) {\n\t\tassert(b <= a);\n\t\treturn a - b;\n\t}\n\t\n\tfunction add(uint256 a, uint256 b) internal pure returns (uint256 c) {\n\t\tc = a + b;\n\t\tassert(c >= a);\n\t\treturn c;\n\t}\n}\n\n/**\n * @title Ownable\n * @dev https://github.com/OpenZeppelin/openzeppelin-solidity/blob/master/contracts/ownership/Ownable.sol */\ncontract Ownable {\n\taddress public owner;\n\t\n\tconstructor() public {\n\t\towner = msg.sender;\n\t}\n\t\n\tmodifier onlyOwner() {\n\t\trequire(msg.sender == owner);\n\t\t_;\n\t}\n}\n\n/**\n * @title Pausable\n * @dev Base contract which allows children to implement an emergency stop mechanism. */\ncontract Pausable is Ownable {\n\tevent Pause();\n\tevent Unpause();\n\t\n\tbool public paused = false;\n\t\n\tmodifier whenNotPaused() {\n\t\trequire(!paused);\n\t\t_;\n\t}\n\t\n\tmodifier whenPaused() {\n\t\trequire(paused);\n\t\t_;\n\t}\n\t\n\tfunction pause() onlyOwner whenNotPaused public {\n\t\tpaused = true;\n\t\temit Pause();\n\t}\n\t\n\tfunction unpause() onlyOwner whenPaused public {\n\t\tpaused = false;\n\t\temit Unpause();\n\t}\n}\n/**\n * @title ERC20Basic\n * @dev https://github.com/OpenZeppelin/openzeppelin-solidity/blob/master/contracts/token/ERC20/ERC20Basic.sol\n */\ncontract ERC20Basic {\n\tfunction totalSupply() public view returns (uint256);\n\tfunction balanceOf(address who) public view returns (uint256);\n\tfunction transfer(address to, uint256 value) public returns (bool);\n\tevent Transfer(address indexed from, address indexed to, uint256 value);\n}\n/**\n * @title Basic token\n * @dev https://github.com/OpenZeppelin/openzeppelin-solidity/blob/master/contracts/token/ERC20/BasicToken.sol\n */\ncontract BasicToken is ERC20Basic {\n\tusing SafeMath for uint256;\n\t\n\tmapping(address => uint256) balances;\n\t\n\tuint256 totalSupply_;\n\t\n\tfunction totalSupply() public view returns (uint256) {\n\t\treturn totalSupply_;\n\t}\n\t\n\tfunction transfer(address _to, uint256 _value) public returns (bool) {\n\t\trequire(_to != address(0));\n\t\trequire(_value <= balances[msg.sender]);\n\t\t\n\t\tbalances[msg.sender] = balances[msg.sender].sub(_value);\n\t\tbalances[_to] = balances[_to].add(_value);\n\t\temit Transfer(msg.sender, _to, _value);\n\t\treturn true;\n\t}\n\t\n\tfunction balanceOf(address _owner) public view returns (uint256) {\n\t\treturn balances[_owner];\n\t}\n}\n/**\n * @title ERC20 interface\n * @dev https://github.com/OpenZeppelin/openzeppelin-solidity/blob/master/contracts/token/ERC20/ERC20.sol\n */\ncontract ERC20 is ERC20Basic {\n\tfunction allowance(address owner, address spender) public view returns (uint256);\n\tfunction transferFrom(address from, address to, uint256 value) public returns (bool);\n\tfunction approve(address spender, uint256 value) public returns (bool);\n\tevent Approval(address indexed owner, address indexed spender, uint256 value);\n}\n\n/**\n * @title Standard ERC20 token\n * @dev https://github.com/OpenZeppelin/openzeppelin-solidity/blob/master/contracts/token/ERC20/StandardToken.sol\n */\ncontract StandardToken is ERC20, BasicToken {\n\t\n\tmapping (address => mapping (address => uint256)) internal allowed;\n\t\n\tfunction transferFrom(address _from, address _to, uint256 _value) public returns (bool) {\n\t\trequire(_to != address(0));\n\t\trequire(_value <= balances[_from]);\n\t\trequire(_value <= allowed[_from][msg.sender]);\n\t\t\n\t\tbalances[_from] = balances[_from].sub(_value);\n\t\tbalances[_to] = balances[_to].add(_value);\n\t\tallowed[_from][msg.sender] = allowed[_from][msg.sender].sub(_value);\n\t\temit Transfer(_from, _to, _value);\n\t\treturn true;\n\t}\n\t\n\tfunction approve(address _spender, uint256 _value) public returns (bool) {\n\t\tallowed[msg.sender][_spender] = _value;\n\t\temit Approval(msg.sender, _spender, _value);\n\t\treturn true;\n\t}\n\t\n\tfunction allowance(address _owner, address _spender) public view returns (uint256) {\n\t\treturn allowed[_owner][_spender];\n\t}\n\t\n\tfunction increaseApproval(address _spender, uint _addedValue) public returns (bool) {\n\t\tallowed[msg.sender][_spender] = allowed[msg.sender][_spender].add(_addedValue);\n\t\temit Approval(msg.sender, _spender, allowed[msg.sender][_spender]);\n\t\treturn true;\n\t}\n\t\n\tfunction decreaseApproval(address _spender, uint _subtractedValue) public returns (bool) {\n\t\tuint oldValue = allowed[msg.sender][_spender];\n\t\tif (_subtractedValue > oldValue) {\n\t\t\tallowed[msg.sender][_spender] = 0;\n\t\t} else {\n\t\t\tallowed[msg.sender][_spender] = oldValue.sub(_subtractedValue);\n\t\t}\n\t\temit Approval(msg.sender, _spender, allowed[msg.sender][_spender]);\n\t\treturn true;\n\t}\n}\n\n/**\n * @title Pausable token\n * @dev https://github.com/OpenZeppelin/openzeppelin-solidity/blob/master/contracts/token/ERC20/PausableToken.sol\n **/\ncontract PausableToken is StandardToken, Pausable {\n\t\n\tfunction transfer(\n\t\taddress _to,\n\t\tuint256 _value\n\t) public  whenNotPaused returns (bool)\n\t{\n\t\treturn super.transfer(_to, _value);\n\t}\n\t\n\tfunction transferFrom(\n\t\taddress _from,\n\t\taddress _to,\n\t\tuint256 _value\n\t) public whenNotPaused returns (bool)\n\t{\n\t\treturn super.transferFrom(_from, _to, _value);\n\t}\n\t\n\tfunction approve(\n\t\taddress _spender,\n\t\tuint256 _value\n\t) public whenNotPaused returns (bool)\n\t{\n\t\treturn super.approve(_spender, _value);\n\t}\n\t\n\tfunction increaseApproval(\n\t\taddress _spender,\n\t\tuint _addedValue\n\t) public whenNotPaused returns (bool success)\n\t{\n\t\treturn super.increaseApproval(_spender, _addedValue);\n\t}\n\t\n\tfunction decreaseApproval(\n\t\taddress _spender,\n\t\tuint _subtractedValue\n\t) public whenNotPaused returns (bool success)\n\t{\n\t\treturn super.decreaseApproval(_spender, _subtractedValue);\n\t}\n}\n\n/**\n * @title Burnable Token\n * @dev https://github.com/OpenZeppelin/openzeppelin-solidity/blob/master/contracts/token/ERC20/BurnableToken.sol\n */\ncontract BurnableToken is BasicToken {\n\t\n\tevent Burn(address indexed burner, uint256 value);\n\t\n\tfunction burn(uint256 _value) public {\n\t\t_burn(msg.sender, _value);\n\t}\n\t\n\tfunction _burn(address _who, uint256 _value) internal {\n\t\trequire(_value <= balances[_who]);\n\t\t\n\t\tbalances[_who] = balances[_who].sub(_value);\n\t\ttotalSupply_ = totalSupply_.sub(_value);\n\t\temit Burn(_who, _value);\n\t\temit Transfer(_who, address(0), _value);\n\t}\n}\n/**\n * @title Mintable token\n * @dev https://github.com/OpenZeppelin/openzeppelin-solidity/blob/master/contracts/token/ERC20/MintableToken.sol\n */\ncontract MintableToken is PausableToken {\n\tevent Mint(address indexed to, uint256 amount);\n\tevent MintFinished();\n\t\n\tbool public mintingFinished = false;\n\t\n\tmodifier canMint() {\n\t\trequire(!mintingFinished);\n\t\t_;\n\t}\n\t\n\tmodifier hasMintPermission() {\n\t\trequire(msg.sender == owner);\n\t\t_;\n\t}\n\t\n\tfunction finishMinting() onlyOwner canMint public returns (bool) {\n\t\tmintingFinished = true;\n\t\temit MintFinished();\n\t\treturn true;\n\t}\n}\n\n/**\n* @title AngeniumToken\n*/\ncontract AngeniumToken is MintableToken, BurnableToken {\n\t\n\tusing SafeMath for uint256;\n\t\n\tstring  public name = \"Angenium Coin\";\n\tstring  public symbol = \"ANG\";\n\tuint256 constant public decimals = 18;\n\tuint256 constant dec = 10**decimals;\n\tuint256 public constant initialSupply = 138000000*dec; // 138,000,000 ANG\n\taddress public crowdsaleAddress;\n\t\n\tmodifier onlyICO() {\n\t\trequire(msg.sender == crowdsaleAddress);\n\t\t_;\n\t}\n\t\n\tconstructor() public {\n\t\tpause();\n\t}\n\t\n\tfunction startCirculation() internal returns(bool) {\n\t\tif (totalSupply_ <= initialSupply)\n\t\t\treturn false;\n\t\telse\n\t\t\tfinishMinting();\n\t\tunpause();\n\t}\n\t\n\tfunction setSaleAddress(address _saleaddress) public onlyOwner{\n\t\tcrowdsaleAddress = _saleaddress;\n\t}\n\t\n\tfunction mintFromICO(address _to, uint256 _amount) onlyICO canMint public returns (bool) {\n\t\trequire(balances[_to].add(_amount) != 0);\n\t\trequire(balances[_to].add(_amount) > balances[_to]);\n\t\ttotalSupply_ = totalSupply_.add(_amount);\n\t\trequire(!startCirculation());\n\t\trequire(totalSupply_ <= initialSupply);\n\t\tbalances[_to] = balances[_to].add(_amount);\n\t\temit Mint(_to, _amount);\n\t\temit Transfer(address(0), _to, _amount);\n\t\treturn true;\n\t}\n}",
  "sourcePath": "/Users/ivanborisov/Yandex.Disk.localized/IT/WorkProjects/Portfolio/ANGENIUM/contracts/AngeniumToken.sol",
  "compiler": {
    "name": "solc",
    "version": "0.4.24+commit.e67f0147.Emscripten.clang"
  },
  "schemaVersion": "2.0.0",
  "updatedAt": "2018-06-19T12:06:50.042Z"
}