{
  "contractName": "PreSale",
  "abi": [
    {
      "constant": true,
      "inputs": [],
      "name": "backEndOperator",
      "outputs": [
        {
          "name": "",
          "type": "address"
        }
      ],
      "payable": false,
      "stateMutability": "view",
      "type": "function"
    },
    {
      "constant": true,
      "inputs": [
        {
          "name": "",
          "type": "address"
        }
      ],
      "name": "investedEther",
      "outputs": [
        {
          "name": "",
          "type": "uint256"
        }
      ],
      "payable": false,
      "stateMutability": "view",
      "type": "function"
    },
    {
      "constant": true,
      "inputs": [],
      "name": "dollarPrice",
      "outputs": [
        {
          "name": "",
          "type": "uint256"
        }
      ],
      "payable": false,
      "stateMutability": "view",
      "type": "function"
    },
    {
      "constant": true,
      "inputs": [],
      "name": "softcapPreSale",
      "outputs": [
        {
          "name": "",
          "type": "uint256"
        }
      ],
      "payable": false,
      "stateMutability": "view",
      "type": "function"
    },
    {
      "constant": true,
      "inputs": [],
      "name": "startPreSale",
      "outputs": [
        {
          "name": "",
          "type": "uint256"
        }
      ],
      "payable": false,
      "stateMutability": "view",
      "type": "function"
    },
    {
      "constant": true,
      "inputs": [],
      "name": "buyPrice",
      "outputs": [
        {
          "name": "",
          "type": "uint256"
        }
      ],
      "payable": false,
      "stateMutability": "view",
      "type": "function"
    },
    {
      "constant": true,
      "inputs": [],
      "name": "investors",
      "outputs": [
        {
          "name": "",
          "type": "uint256"
        }
      ],
      "payable": false,
      "stateMutability": "view",
      "type": "function"
    },
    {
      "constant": true,
      "inputs": [],
      "name": "owner",
      "outputs": [
        {
          "name": "",
          "type": "address"
        }
      ],
      "payable": false,
      "stateMutability": "view",
      "type": "function"
    },
    {
      "constant": true,
      "inputs": [
        {
          "name": "",
          "type": "address"
        }
      ],
      "name": "whitelist",
      "outputs": [
        {
          "name": "",
          "type": "bool"
        }
      ],
      "payable": false,
      "stateMutability": "view",
      "type": "function"
    },
    {
      "constant": true,
      "inputs": [],
      "name": "soldTokensPreSale",
      "outputs": [
        {
          "name": "",
          "type": "uint256"
        }
      ],
      "payable": false,
      "stateMutability": "view",
      "type": "function"
    },
    {
      "constant": true,
      "inputs": [],
      "name": "weisRaised",
      "outputs": [
        {
          "name": "",
          "type": "uint256"
        }
      ],
      "payable": false,
      "stateMutability": "view",
      "type": "function"
    },
    {
      "constant": true,
      "inputs": [],
      "name": "endPreSale",
      "outputs": [
        {
          "name": "",
          "type": "uint256"
        }
      ],
      "payable": false,
      "stateMutability": "view",
      "type": "function"
    },
    {
      "constant": true,
      "inputs": [],
      "name": "hardCapPreSale",
      "outputs": [
        {
          "name": "",
          "type": "uint256"
        }
      ],
      "payable": false,
      "stateMutability": "view",
      "type": "function"
    },
    {
      "constant": true,
      "inputs": [],
      "name": "token",
      "outputs": [
        {
          "name": "",
          "type": "address"
        }
      ],
      "payable": false,
      "stateMutability": "view",
      "type": "function"
    },
    {
      "inputs": [
        {
          "name": "_token",
          "type": "address"
        },
        {
          "name": "usdETH",
          "type": "uint256"
        }
      ],
      "payable": false,
      "stateMutability": "nonpayable",
      "type": "constructor"
    },
    {
      "payable": true,
      "stateMutability": "payable",
      "type": "fallback"
    },
    {
      "anonymous": false,
      "inputs": [
        {
          "indexed": false,
          "name": "wlCandidate",
          "type": "address"
        },
        {
          "indexed": false,
          "name": "timestamp",
          "type": "uint256"
        }
      ],
      "name": "Authorized",
      "type": "event"
    },
    {
      "anonymous": false,
      "inputs": [
        {
          "indexed": false,
          "name": "wlCandidate",
          "type": "address"
        },
        {
          "indexed": false,
          "name": "timestamp",
          "type": "uint256"
        }
      ],
      "name": "Revoked",
      "type": "event"
    },
    {
      "anonymous": false,
      "inputs": [
        {
          "indexed": false,
          "name": "time",
          "type": "uint256"
        },
        {
          "indexed": false,
          "name": "_rate",
          "type": "uint256"
        }
      ],
      "name": "UpdateDollar",
      "type": "event"
    },
    {
      "anonymous": false,
      "inputs": [
        {
          "indexed": false,
          "name": "sum",
          "type": "uint256"
        },
        {
          "indexed": false,
          "name": "investor",
          "type": "address"
        }
      ],
      "name": "Refund",
      "type": "event"
    },
    {
      "constant": false,
      "inputs": [
        {
          "name": "newStartPreSale",
          "type": "uint256"
        }
      ],
      "name": "setStartPreSale",
      "outputs": [],
      "payable": false,
      "stateMutability": "nonpayable",
      "type": "function"
    },
    {
      "constant": false,
      "inputs": [
        {
          "name": "newEndPreSale",
          "type": "uint256"
        }
      ],
      "name": "setEndPreSale",
      "outputs": [],
      "payable": false,
      "stateMutability": "nonpayable",
      "type": "function"
    },
    {
      "constant": false,
      "inputs": [
        {
          "name": "newBackEndOperator",
          "type": "address"
        }
      ],
      "name": "setBackEndAddress",
      "outputs": [],
      "payable": false,
      "stateMutability": "nonpayable",
      "type": "function"
    },
    {
      "constant": false,
      "inputs": [
        {
          "name": "_dollar",
          "type": "uint256"
        }
      ],
      "name": "setBuyPrice",
      "outputs": [],
      "payable": false,
      "stateMutability": "nonpayable",
      "type": "function"
    },
    {
      "constant": false,
      "inputs": [
        {
          "name": "wlCandidate",
          "type": "address"
        }
      ],
      "name": "authorize",
      "outputs": [],
      "payable": false,
      "stateMutability": "nonpayable",
      "type": "function"
    },
    {
      "constant": false,
      "inputs": [
        {
          "name": "wlCandidate",
          "type": "address"
        }
      ],
      "name": "revoke",
      "outputs": [],
      "payable": false,
      "stateMutability": "nonpayable",
      "type": "function"
    },
    {
      "constant": true,
      "inputs": [],
      "name": "isPreSale",
      "outputs": [
        {
          "name": "",
          "type": "bool"
        }
      ],
      "payable": false,
      "stateMutability": "view",
      "type": "function"
    },
    {
      "constant": false,
      "inputs": [
        {
          "name": "receiver",
          "type": "address"
        },
        {
          "name": "_tokens",
          "type": "uint256"
        }
      ],
      "name": "mintManual",
      "outputs": [],
      "payable": false,
      "stateMutability": "nonpayable",
      "type": "function"
    },
    {
      "constant": false,
      "inputs": [
        {
          "name": "_to",
          "type": "address"
        },
        {
          "name": "amount",
          "type": "uint256"
        }
      ],
      "name": "transferEthFromContract",
      "outputs": [],
      "payable": false,
      "stateMutability": "nonpayable",
      "type": "function"
    },
    {
      "constant": false,
      "inputs": [],
      "name": "refundPreSale",
      "outputs": [],
      "payable": false,
      "stateMutability": "nonpayable",
      "type": "function"
    }
  ],
  "bytecode": "0x608060405233600260006101000a81548173ffffffffffffffffffffffffffffffffffffffff021916908373ffffffffffffffffffffffffffffffffffffffff160217905550737ede8260e573d3a3ddfc058f19309df5a1f7397e600360006101000a81548173ffffffffffffffffffffffffffffffffffffffff021916908373ffffffffffffffffffffffffffffffffffffffff160217905550730cdb839b52404d49417c8ded6c3e2157a06cdd37600460006101000a81548173ffffffffffffffffffffffffffffffffffffffff021916908373ffffffffffffffffffffffffffffffffffffffff160217905550635b8c7981600755635bb4067f60085562093a80600754016009556212750060075401600a55621baf8060075401600b556a01a784379d99db420000006011556a0b6a437fbf7268e100000060125534801561014a57600080fd5b50604051604080611c7c8339810180604052810190808051906020019092919080519060200190929190505050336000806101000a81548173ffffffffffffffffffffffffffffffffffffffff021916908373ffffffffffffffffffffffffffffffffffffffff16021790555081600160006101000a81548173ffffffffffffffffffffffffffffffffffffffff021916908373ffffffffffffffffffffffffffffffffffffffff16021790555080600f81905550600f54670de0b6b3a764000081151561021457fe5b04600e819055505050611a508061022c6000396000f30060806040526004361061013e576000357c0100000000000000000000000000000000000000000000000000000000900463ffffffff168063050895ff146102195780631c23219414610270578063274448ff1461028757806331198d19146102de578063384a64941461032b57806340d7b7b8146103585780634b63189c146103835780634ced4734146103ae57806355dd574c146103dd57806363ae8d6c1461040857806374a8f103146104355780638620410b146104785780638ac27f5f146104a35780638ca5da35146104ce5780638da5cb5b1461051b5780639b19251a14610572578063b6a5d7de146105cd578063b701dc1414610610578063d893b9f114610653578063da5f838d1461067e578063e0462547146106a9578063ee889ed0146106d6578063f7e4a4a914610701578063fc0c546a1461072c575b61014733610783565b151561015257600080fd5b61015a6107d9565b151561016557600080fd5b61016f33346107f4565b6012546010541115151561018257600080fd5b6101d434600660003373ffffffffffffffffffffffffffffffffffffffff1673ffffffffffffffffffffffffffffffffffffffff16815260200190815260200160002054610c3390919063ffffffff16565b600660003373ffffffffffffffffffffffffffffffffffffffff1673ffffffffffffffffffffffffffffffffffffffff16815260200190815260200160002081905550005b34801561022557600080fd5b5061022e610c4f565b604051808273ffffffffffffffffffffffffffffffffffffffff1673ffffffffffffffffffffffffffffffffffffffff16815260200191505060405180910390f35b34801561027c57600080fd5b50610285610c75565b005b34801561029357600080fd5b506102c8600480360381019080803573ffffffffffffffffffffffffffffffffffffffff169060200190929190505050610e3c565b6040518082815260200191505060405180910390f35b3480156102ea57600080fd5b50610329600480360381019080803573ffffffffffffffffffffffffffffffffffffffff16906020019092919080359060200190929190505050610e54565b005b34801561033757600080fd5b5061035660048036038101908080359060200190929190505050610efa565b005b34801561036457600080fd5b5061036d610f5f565b6040518082815260200191505060405180910390f35b34801561038f57600080fd5b50610398610f65565b6040518082815260200191505060405180910390f35b3480156103ba57600080fd5b506103c36107d9565b604051808215151515815260200191505060405180910390f35b3480156103e957600080fd5b506103f2610f6b565b6040518082815260200191505060405180910390f35b34801561041457600080fd5b5061043360048036038101908080359060200190929190505050610f71565b005b34801561044157600080fd5b50610476600480360381019080803573ffffffffffffffffffffffffffffffffffffffff169060200190929190505050611033565b005b34801561048457600080fd5b5061048d611167565b6040518082815260200191505060405180910390f35b3480156104af57600080fd5b506104b861116d565b6040518082815260200191505060405180910390f35b3480156104da57600080fd5b50610519600480360381019080803573ffffffffffffffffffffffffffffffffffffffff16906020019092919080359060200190929190505050611173565b005b34801561052757600080fd5b506105306115d0565b604051808273ffffffffffffffffffffffffffffffffffffffff1673ffffffffffffffffffffffffffffffffffffffff16815260200191505060405180910390f35b34801561057e57600080fd5b506105b3600480360381019080803573ffffffffffffffffffffffffffffffffffffffff1690602001909291905050506115f5565b604051808215151515815260200191505060405180910390f35b3480156105d957600080fd5b5061060e600480360381019080803573ffffffffffffffffffffffffffffffffffffffff169060200190929190505050611615565b005b34801561061c57600080fd5b50610651600480360381019080803573ffffffffffffffffffffffffffffffffffffffff1690602001909291905050506117f1565b005b34801561065f57600080fd5b50610668611890565b6040518082815260200191505060405180910390f35b34801561068a57600080fd5b50610693611896565b6040518082815260200191505060405180910390f35b3480156106b557600080fd5b506106d46004803603810190808035906020019092919050505061189c565b005b3480156106e257600080fd5b506106eb611901565b6040518082815260200191505060405180910390f35b34801561070d57600080fd5b50610716611907565b6040518082815260200191505060405180910390f35b34801561073857600080fd5b5061074161190d565b604051808273ffffffffffffffffffffffffffffffffffffffff1673ffffffffffffffffffffffffffffffffffffffff16815260200191505060405180910390f35b6000600560008373ffffffffffffffffffffffffffffffffffffffff1673ffffffffffffffffffffffffffffffffffffffff16815260200190815260200160002060009054906101000a900460ff169050919050565b600060075442101580156107ef57506008544211155b905090565b600080600080610829600e5461081b670de0b6b3a76400008861193390919063ffffffff16565b61196b90919063ffffffff16565b9350610858606461084a61083b611981565b8761193390919063ffffffff16565b61196b90919063ffffffff16565b925061086d8385610c3390919063ffffffff16565b9350600160009054906101000a900473ffffffffffffffffffffffffffffffffffffffff1673ffffffffffffffffffffffffffffffffffffffff16633aa0396a87866040518363ffffffff167c0100000000000000000000000000000000000000000000000000000000028152600401808373ffffffffffffffffffffffffffffffffffffffff1673ffffffffffffffffffffffffffffffffffffffff16815260200182815260200192505050602060405180830381600087803b15801561093457600080fd5b505af1158015610948573d6000803e3d6000fd5b505050506040513d602081101561095e57600080fd5b81019080805190602001909291905050505061098584601054610c3390919063ffffffff16565b6010819055506109b2602c6109a460058761193390919063ffffffff16565b61196b90919063ffffffff16565b9150600160009054906101000a900473ffffffffffffffffffffffffffffffffffffffff1673ffffffffffffffffffffffffffffffffffffffff16633aa0396a600360009054906101000a900473ffffffffffffffffffffffffffffffffffffffff16846040518363ffffffff167c0100000000000000000000000000000000000000000000000000000000028152600401808373ffffffffffffffffffffffffffffffffffffffff1673ffffffffffffffffffffffffffffffffffffffff16815260200182815260200192505050602060405180830381600087803b158015610a9b57600080fd5b505af1158015610aaf573d6000803e3d6000fd5b505050506040513d6020811015610ac557600080fd5b810190808051906020019092919050505050610aeb602c8561196b90919063ffffffff16565b9050600160009054906101000a900473ffffffffffffffffffffffffffffffffffffffff1673ffffffffffffffffffffffffffffffffffffffff16633aa0396a600460009054906101000a900473ffffffffffffffffffffffffffffffffffffffff16836040518363ffffffff167c0100000000000000000000000000000000000000000000000000000000028152600401808373ffffffffffffffffffffffffffffffffffffffff1673ffffffffffffffffffffffffffffffffffffffff16815260200182815260200192505050602060405180830381600087803b158015610bd457600080fd5b505af1158015610be8573d6000803e3d6000fd5b505050506040513d6020811015610bfe57600080fd5b810190808051906020019092919050505050610c2585600d54610c3390919063ffffffff16565b600d81905550505050505050565b60008183019050828110151515610c4657fe5b80905092915050565b600260009054906101000a900473ffffffffffffffffffffffffffffffffffffffff1681565b6000601154601054108015610c8b575060085442115b1515610c9657600080fd5b600660003373ffffffffffffffffffffffffffffffffffffffff1673ffffffffffffffffffffffffffffffffffffffff1681526020019081526020016000205490506000600660003373ffffffffffffffffffffffffffffffffffffffff1673ffffffffffffffffffffffffffffffffffffffff1681526020019081526020016000205410151515610d2757600080fd5b6000600660003373ffffffffffffffffffffffffffffffffffffffff1673ffffffffffffffffffffffffffffffffffffffff168152602001908152602001600020819055503373ffffffffffffffffffffffffffffffffffffffff166108fc829081150290604051600060405180830381858888f19350505050158015610db2573d6000803e3d6000fd5b50610dc881600d54611a0b90919063ffffffff16565b600d819055507f510b82fea70ff89a8cc73cd7f29db2d7b480134c160cb52a258797b42d1989ad8133604051808381526020018273ffffffffffffffffffffffffffffffffffffffff1673ffffffffffffffffffffffffffffffffffffffff1681526020019250505060405180910390a150565b60066020528060005260406000206000915090505481565b6000809054906101000a900473ffffffffffffffffffffffffffffffffffffffff1673ffffffffffffffffffffffffffffffffffffffff163373ffffffffffffffffffffffffffffffffffffffff16141515610eaf57600080fd5b8173ffffffffffffffffffffffffffffffffffffffff166108fc829081150290604051600060405180830381858888f19350505050158015610ef5573d6000803e3d6000fd5b505050565b6000809054906101000a900473ffffffffffffffffffffffffffffffffffffffff1673ffffffffffffffffffffffffffffffffffffffff163373ffffffffffffffffffffffffffffffffffffffff16141515610f5557600080fd5b8060078190555050565b600f5481565b60115481565b60075481565b6000809054906101000a900473ffffffffffffffffffffffffffffffffffffffff1673ffffffffffffffffffffffffffffffffffffffff163373ffffffffffffffffffffffffffffffffffffffff16141515610fcc57600080fd5b80600f81905550600f54670de0b6b3a7640000811515610fe857fe5b04600e819055507f8e5d322ef7050e99e3845ad9d8b2608b9512de19853d4215b71b7a4ee2993d4f42600f54604051808381526020018281526020019250505060405180910390a150565b6000809054906101000a900473ffffffffffffffffffffffffffffffffffffffff1673ffffffffffffffffffffffffffffffffffffffff163373ffffffffffffffffffffffffffffffffffffffff1614151561108e57600080fd5b6000600560008373ffffffffffffffffffffffffffffffffffffffff1673ffffffffffffffffffffffffffffffffffffffff16815260200190815260200160002060006101000a81548160ff021916908315150217905550600c60008154809291906001900391905055507f713b90881ad62c4fa8ab6bd9197fa86481fc0c11b2edba60026514281b2dbac48142604051808373ffffffffffffffffffffffffffffffffffffffff1673ffffffffffffffffffffffffffffffffffffffff1681526020018281526020019250505060405180910390a150565b600e5481565b600c5481565b600080600260009054906101000a900473ffffffffffffffffffffffffffffffffffffffff1673ffffffffffffffffffffffffffffffffffffffff163373ffffffffffffffffffffffffffffffffffffffff16148061121e57506000809054906101000a900473ffffffffffffffffffffffffffffffffffffffff1673ffffffffffffffffffffffffffffffffffffffff163373ffffffffffffffffffffffffffffffffffffffff16145b151561122957600080fd5b600160009054906101000a900473ffffffffffffffffffffffffffffffffffffffff1673ffffffffffffffffffffffffffffffffffffffff16633aa0396a85856040518363ffffffff167c0100000000000000000000000000000000000000000000000000000000028152600401808373ffffffffffffffffffffffffffffffffffffffff1673ffffffffffffffffffffffffffffffffffffffff16815260200182815260200192505050602060405180830381600087803b1580156112ee57600080fd5b505af1158015611302573d6000803e3d6000fd5b505050506040513d602081101561131857600080fd5b81019080805190602001909291905050505061133f83601054610c3390919063ffffffff16565b60108190555061136c602c61135e60058661193390919063ffffffff16565b61196b90919063ffffffff16565b9150600160009054906101000a900473ffffffffffffffffffffffffffffffffffffffff1673ffffffffffffffffffffffffffffffffffffffff16633aa0396a600360009054906101000a900473ffffffffffffffffffffffffffffffffffffffff16846040518363ffffffff167c0100000000000000000000000000000000000000000000000000000000028152600401808373ffffffffffffffffffffffffffffffffffffffff1673ffffffffffffffffffffffffffffffffffffffff16815260200182815260200192505050602060405180830381600087803b15801561145557600080fd5b505af1158015611469573d6000803e3d6000fd5b505050506040513d602081101561147f57600080fd5b8101908080519060200190929190505050506114a5602c8461196b90919063ffffffff16565b9050600160009054906101000a900473ffffffffffffffffffffffffffffffffffffffff1673ffffffffffffffffffffffffffffffffffffffff16633aa0396a600460009054906101000a900473ffffffffffffffffffffffffffffffffffffffff16836040518363ffffffff167c0100000000000000000000000000000000000000000000000000000000028152600401808373ffffffffffffffffffffffffffffffffffffffff1673ffffffffffffffffffffffffffffffffffffffff16815260200182815260200192505050602060405180830381600087803b15801561158e57600080fd5b505af11580156115a2573d6000803e3d6000fd5b505050506040513d60208110156115b857600080fd5b81019080805190602001909291905050505050505050565b6000809054906101000a900473ffffffffffffffffffffffffffffffffffffffff1681565b60056020528060005260406000206000915054906101000a900460ff1681565b600260009054906101000a900473ffffffffffffffffffffffffffffffffffffffff1673ffffffffffffffffffffffffffffffffffffffff163373ffffffffffffffffffffffffffffffffffffffff1614806116bd57506000809054906101000a900473ffffffffffffffffffffffffffffffffffffffff1673ffffffffffffffffffffffffffffffffffffffff163373ffffffffffffffffffffffffffffffffffffffff16145b15156116c857600080fd5b600073ffffffffffffffffffffffffffffffffffffffff168173ffffffffffffffffffffffffffffffffffffffff161415151561170457600080fd5b61170d81610783565b15151561171957600080fd5b6001600560008373ffffffffffffffffffffffffffffffffffffffff1673ffffffffffffffffffffffffffffffffffffffff16815260200190815260200160002060006101000a81548160ff021916908315150217905550600c600081548092919060010191905055507fb39b5f240c7440b58c1c6cfd328b09ff9aa18b3c8ef4b829774e4f5bad0394168142604051808373ffffffffffffffffffffffffffffffffffffffff1673ffffffffffffffffffffffffffffffffffffffff1681526020018281526020019250505060405180910390a150565b6000809054906101000a900473ffffffffffffffffffffffffffffffffffffffff1673ffffffffffffffffffffffffffffffffffffffff163373ffffffffffffffffffffffffffffffffffffffff1614151561184c57600080fd5b80600260006101000a81548173ffffffffffffffffffffffffffffffffffffffff021916908373ffffffffffffffffffffffffffffffffffffffff16021790555050565b60105481565b600d5481565b6000809054906101000a900473ffffffffffffffffffffffffffffffffffffffff1673ffffffffffffffffffffffffffffffffffffffff163373ffffffffffffffffffffffffffffffffffffffff161415156118f757600080fd5b8060088190555050565b60085481565b60125481565b600160009054906101000a900473ffffffffffffffffffffffffffffffffffffffff1681565b6000808314156119465760009050611965565b818302905081838281151561195757fe5b0414151561196157fe5b8090505b92915050565b6000818381151561197857fe5b04905092915050565b600060075442118015611995575060095442105b156119a35760249050611a08565b600954421180156119b55750600a5442105b156119c357601e9050611a08565b600a54421180156119d55750600b5442105b156119e35760199050611a08565b600b54421180156119f5575060085442105b15611a035760149050611a08565b600090505b90565b6000828211151515611a1957fe5b8183039050929150505600a165627a7a723058205d079c3dd393a66cf7429500075b5d77671c5e53907d4b38b404afaeecdfcbd20029",
  "source": "pragma solidity ^0.4.24;\n\n/*** @title SafeMath\n * @dev https://github.com/OpenZeppelin/openzeppelin-solidity/blob/master/contracts/math/SafeMath.sol */\nlibrary SafeMath {\n  \n  function mul(uint256 a, uint256 b) internal pure returns (uint256 c) {\n    if (a == 0) {\n      return 0;\n    }\n    c = a * b;\n    assert(c / a == b);\n    return c;\n  }\n  \n  function div(uint256 a, uint256 b) internal pure returns (uint256) {\n    return a / b;\n  }\n  \n  function sub(uint256 a, uint256 b) internal pure returns (uint256) {\n    assert(b <= a);\n    return a - b;\n  }\n  \n  function add(uint256 a, uint256 b) internal pure returns (uint256 c) {\n    c = a + b;\n    assert(c >= a);\n    return c;\n  }\n}\n\ninterface ERC20 {\n  function transfer (address _beneficiary, uint256 _tokenAmount) external returns (bool);\n  function mintFromICO(address _to, uint256 _amount) external  returns(bool);\n}\n\n/**\n * @title Ownable\n * @dev https://github.com/OpenZeppelin/openzeppelin-solidity/blob/master/contracts/ownership/Ownable.sol */\ncontract Ownable {\n  address public owner;\n  \n  constructor() public {\n    owner = msg.sender;\n  }\n  \n  modifier onlyOwner() {\n    require(msg.sender == owner);\n    _;\n  }\n}\n\n/**\n * @title PreCrowdSale\n * @dev https://github.com/elephant-marketing/*/\n\ncontract PreSale is Ownable {\n  \n  ERC20 public token;\n  \n  using SafeMath for uint;\n  \n  address public backEndOperator = msg.sender;\n  \n  address team = 0x7eDE8260e573d3A3dDfc058f19309DF5a1f7397E; // 10 % - founders\n  \n  address bounty = 0x0cdb839B52404d49417C8Ded6c3E2157A06CdD37; // 2 % - bounty\n  \n  \n  mapping(address=>bool) public whitelist;\n  \n  mapping(address => uint256) public investedEther;\n  \n  \n  uint256 public startPreSale = 1535932801; // Monday, 03-Sep-18 00:00:01 UTC\n  \n  uint256 public endPreSale = 1538524799; // Tuesday, 02-Oct-18 23:59:59 UTC\n  \n  \n  uint256 stage1Sale = startPreSale + 7 days; // 0- 7  days\n  \n  uint256 stage2Sale = startPreSale + 14 days; // 8 - 14 days\n  \n  uint256 stage3Sale = startPreSale + 21 days; // 15 - 21  days\n  \n  \n  uint256 public investors;\n  \n  uint256 public weisRaised;\n  \n  uint256 public buyPrice; // 1 USD\n  \n  uint256 public dollarPrice;\n  \n  uint256 public soldTokensPreSale;\n  \n  uint256 public softcapPreSale = 2000000*1e18; // 2,000,000 ANG - !!! в зачет пойдут бонусные\n  \n  uint256 public hardCapPreSale = 13800000*1e18; // 13,800,000 ANG - !!! в зачет пойдут бонусные\n  \n  \n  event Authorized(address wlCandidate, uint timestamp);\n  \n  event Revoked(address wlCandidate, uint timestamp);\n  \n  event UpdateDollar(uint256 time, uint256 _rate);\n  \n  event Refund(uint256 sum, address investor);\n  \n  \n  \n  modifier backEnd() {\n    require(msg.sender == backEndOperator || msg.sender == owner);\n    _;\n  }\n  \n  \n  constructor(ERC20 _token, uint256 usdETH) public {\n    token = _token;\n    dollarPrice = usdETH;\n    buyPrice = (1e18/dollarPrice); // 1 usd\n  }\n  \n  \n  function setStartPreSale(uint256 newStartPreSale) public onlyOwner {\n    startPreSale = newStartPreSale;\n  }\n  \n  function setEndPreSale(uint256 newEndPreSale) public onlyOwner {\n    endPreSale = newEndPreSale;\n  }\n  \n  function setBackEndAddress(address newBackEndOperator) public onlyOwner {\n    backEndOperator = newBackEndOperator;\n  }\n  \n  function setBuyPrice(uint256 _dollar) public onlyOwner {\n    dollarPrice = _dollar;\n    buyPrice = (1e18/dollarPrice); // 1 usd\n    emit UpdateDollar(now, dollarPrice);\n  }\n  \n  /*******************************************************************************\n   * Whitelist's section */\n  \n  function authorize(address wlCandidate) public backEnd  {\n    require(wlCandidate != address(0x0));\n    require(!isWhitelisted(wlCandidate));\n    whitelist[wlCandidate] = true;\n    investors++;\n    emit Authorized(wlCandidate, now);\n  }\n  \n  function revoke(address wlCandidate) public  onlyOwner {\n    whitelist[wlCandidate] = false;\n    investors--;\n    emit Revoked(wlCandidate, now);\n  }\n  \n  function isWhitelisted(address wlCandidate) internal view returns(bool) {\n    return whitelist[wlCandidate];\n  }\n  \n  /*******************************************************************************\n   * Payable's section */\n  \n  function isPreSale() public constant returns(bool) {\n    return now >= startPreSale && now <= endPreSale;\n  }\n  \n  \n  function () public payable {\n    require(isWhitelisted(msg.sender));\n    require(isPreSale());\n    preSale(msg.sender, msg.value);\n    require(soldTokensPreSale<=hardCapPreSale);\n    investedEther[msg.sender] = investedEther[msg.sender].add(msg.value);\n  }\n  \n  \n  function preSale(address _investor, uint256 _value) internal {\n    uint256 tokens = _value.mul(1e18).div(buyPrice);\n    uint256 tokensByDate = tokens.mul(bonusDate()).div(100);\n    tokens = tokens.add(tokensByDate);\n    token.mintFromICO(_investor, tokens);\n    soldTokensPreSale = soldTokensPreSale.add(tokens); // only sold\n    \n    uint256 tokensTeam = tokens.mul(5).div(44); // 10 %\n    token.mintFromICO(team, tokensTeam);\n    \n    uint256 tokensBoynty = tokens.div(44); // 2 %\n    token.mintFromICO(bounty, tokensBoynty);\n    \n    weisRaised = weisRaised.add(_value);\n  }\n  \n  \n  function bonusDate() private view returns (uint256){\n    if (now > startPreSale && now < stage1Sale) {  // 0 - 7 days preSale\n      return 36;\n    }\n    else if (now > stage1Sale && now < stage2Sale) { // 8 - 14 days preSale\n      return 30;\n    }\n    else if (now > stage2Sale && now < stage3Sale) { // 15 - 21 days preSale\n      return 25;\n    }\n    else if (now > stage3Sale && now < endPreSale) { // 22 - endSale\n      return 20;\n    }\n    \n    else {\n      return 0;\n    }\n  }\n  \n  function mintManual(address receiver, uint256 _tokens) public backEnd {\n    token.mintFromICO(receiver, _tokens);\n    soldTokensPreSale = soldTokensPreSale.add(_tokens);\n    \n    uint256 tokensTeam = _tokens.mul(5).div(44); // 10 %\n    token.mintFromICO(team, tokensTeam);\n    \n    uint256 tokensBoynty = _tokens.div(44); // 2 %\n    token.mintFromICO(bounty, tokensBoynty);\n  }\n  \n  \n  function transferEthFromContract(address _to, uint256 amount) public onlyOwner {\n    _to.transfer(amount);\n  }\n  \n  \n  function refundPreSale() public {\n    require(soldTokensPreSale < softcapPreSale && now > endPreSale);\n    uint256 rate = investedEther[msg.sender];\n    require(investedEther[msg.sender] >= 0);\n    investedEther[msg.sender] = 0;\n    msg.sender.transfer(rate);\n    weisRaised = weisRaised.sub(rate);\n    emit Refund(rate, msg.sender);\n  }\n}",
  "sourcePath": "/Users/ivanborisov/Yandex.Disk.localized/IT/WorkProjects/Portfolio/ANGENIUM/contracts/PreSale.sol",
  "compiler": {
    "name": "solc",
    "version": "0.4.24+commit.e67f0147.Emscripten.clang"
  },
  "schemaVersion": "2.0.0",
  "updatedAt": "2018-06-19T12:06:50.062Z"
}