{
  "contractName": "MoviesToken",
  "abi": [
    {
      "constant": true,
      "inputs": [],
      "name": "mintingFinished",
      "outputs": [
        {
          "name": "",
          "type": "bool"
        }
      ],
      "payable": false,
      "stateMutability": "view",
      "type": "function"
    },
    {
      "constant": true,
      "inputs": [],
      "name": "name",
      "outputs": [
        {
          "name": "",
          "type": "string"
        }
      ],
      "payable": false,
      "stateMutability": "view",
      "type": "function"
    },
    {
      "constant": true,
      "inputs": [],
      "name": "totalSupply",
      "outputs": [
        {
          "name": "",
          "type": "uint256"
        }
      ],
      "payable": false,
      "stateMutability": "view",
      "type": "function"
    },
    {
      "constant": true,
      "inputs": [],
      "name": "decimals",
      "outputs": [
        {
          "name": "",
          "type": "uint256"
        }
      ],
      "payable": false,
      "stateMutability": "view",
      "type": "function"
    },
    {
      "constant": true,
      "inputs": [],
      "name": "crowdsaleAddress",
      "outputs": [
        {
          "name": "",
          "type": "address"
        }
      ],
      "payable": false,
      "stateMutability": "view",
      "type": "function"
    },
    {
      "constant": true,
      "inputs": [],
      "name": "initialSupply",
      "outputs": [
        {
          "name": "",
          "type": "uint256"
        }
      ],
      "payable": false,
      "stateMutability": "view",
      "type": "function"
    },
    {
      "constant": false,
      "inputs": [],
      "name": "unpause",
      "outputs": [],
      "payable": false,
      "stateMutability": "nonpayable",
      "type": "function"
    },
    {
      "constant": false,
      "inputs": [
        {
          "name": "_to",
          "type": "address"
        },
        {
          "name": "_amount",
          "type": "uint256"
        }
      ],
      "name": "mint",
      "outputs": [
        {
          "name": "",
          "type": "bool"
        }
      ],
      "payable": false,
      "stateMutability": "nonpayable",
      "type": "function"
    },
    {
      "constant": false,
      "inputs": [
        {
          "name": "_value",
          "type": "uint256"
        }
      ],
      "name": "burn",
      "outputs": [],
      "payable": false,
      "stateMutability": "nonpayable",
      "type": "function"
    },
    {
      "constant": true,
      "inputs": [],
      "name": "paused",
      "outputs": [
        {
          "name": "",
          "type": "bool"
        }
      ],
      "payable": false,
      "stateMutability": "view",
      "type": "function"
    },
    {
      "constant": true,
      "inputs": [
        {
          "name": "_owner",
          "type": "address"
        }
      ],
      "name": "balanceOf",
      "outputs": [
        {
          "name": "",
          "type": "uint256"
        }
      ],
      "payable": false,
      "stateMutability": "view",
      "type": "function"
    },
    {
      "constant": false,
      "inputs": [],
      "name": "finishMinting",
      "outputs": [
        {
          "name": "",
          "type": "bool"
        }
      ],
      "payable": false,
      "stateMutability": "nonpayable",
      "type": "function"
    },
    {
      "constant": true,
      "inputs": [],
      "name": "availableSupply",
      "outputs": [
        {
          "name": "",
          "type": "uint256"
        }
      ],
      "payable": false,
      "stateMutability": "view",
      "type": "function"
    },
    {
      "constant": false,
      "inputs": [],
      "name": "pause",
      "outputs": [],
      "payable": false,
      "stateMutability": "nonpayable",
      "type": "function"
    },
    {
      "constant": true,
      "inputs": [],
      "name": "owner",
      "outputs": [
        {
          "name": "",
          "type": "address"
        }
      ],
      "payable": false,
      "stateMutability": "view",
      "type": "function"
    },
    {
      "constant": true,
      "inputs": [],
      "name": "symbol",
      "outputs": [
        {
          "name": "",
          "type": "string"
        }
      ],
      "payable": false,
      "stateMutability": "view",
      "type": "function"
    },
    {
      "constant": true,
      "inputs": [
        {
          "name": "_owner",
          "type": "address"
        },
        {
          "name": "_spender",
          "type": "address"
        }
      ],
      "name": "allowance",
      "outputs": [
        {
          "name": "",
          "type": "uint256"
        }
      ],
      "payable": false,
      "stateMutability": "view",
      "type": "function"
    },
    {
      "inputs": [],
      "payable": false,
      "stateMutability": "nonpayable",
      "type": "constructor"
    },
    {
      "anonymous": false,
      "inputs": [],
      "name": "Pause",
      "type": "event"
    },
    {
      "anonymous": false,
      "inputs": [],
      "name": "Unpause",
      "type": "event"
    },
    {
      "anonymous": false,
      "inputs": [
        {
          "indexed": true,
          "name": "burner",
          "type": "address"
        },
        {
          "indexed": false,
          "name": "value",
          "type": "uint256"
        }
      ],
      "name": "Burn",
      "type": "event"
    },
    {
      "anonymous": false,
      "inputs": [
        {
          "indexed": true,
          "name": "to",
          "type": "address"
        },
        {
          "indexed": false,
          "name": "amount",
          "type": "uint256"
        }
      ],
      "name": "Mint",
      "type": "event"
    },
    {
      "anonymous": false,
      "inputs": [],
      "name": "MintFinished",
      "type": "event"
    },
    {
      "anonymous": false,
      "inputs": [
        {
          "indexed": true,
          "name": "owner",
          "type": "address"
        },
        {
          "indexed": true,
          "name": "spender",
          "type": "address"
        },
        {
          "indexed": false,
          "name": "value",
          "type": "uint256"
        }
      ],
      "name": "Approval",
      "type": "event"
    },
    {
      "anonymous": false,
      "inputs": [
        {
          "indexed": true,
          "name": "from",
          "type": "address"
        },
        {
          "indexed": true,
          "name": "to",
          "type": "address"
        },
        {
          "indexed": false,
          "name": "value",
          "type": "uint256"
        }
      ],
      "name": "Transfer",
      "type": "event"
    },
    {
      "constant": false,
      "inputs": [
        {
          "name": "_saleaddress",
          "type": "address"
        }
      ],
      "name": "setSaleAddress",
      "outputs": [],
      "payable": false,
      "stateMutability": "nonpayable",
      "type": "function"
    },
    {
      "constant": false,
      "inputs": [
        {
          "name": "_to",
          "type": "address"
        },
        {
          "name": "_value",
          "type": "uint256"
        }
      ],
      "name": "transferFromICO",
      "outputs": [
        {
          "name": "",
          "type": "bool"
        }
      ],
      "payable": false,
      "stateMutability": "nonpayable",
      "type": "function"
    },
    {
      "constant": false,
      "inputs": [
        {
          "name": "_to",
          "type": "address"
        },
        {
          "name": "_value",
          "type": "uint256"
        }
      ],
      "name": "transfer",
      "outputs": [
        {
          "name": "",
          "type": "bool"
        }
      ],
      "payable": false,
      "stateMutability": "nonpayable",
      "type": "function"
    },
    {
      "constant": false,
      "inputs": [
        {
          "name": "_from",
          "type": "address"
        },
        {
          "name": "_to",
          "type": "address"
        },
        {
          "name": "_value",
          "type": "uint256"
        }
      ],
      "name": "transferFrom",
      "outputs": [
        {
          "name": "",
          "type": "bool"
        }
      ],
      "payable": false,
      "stateMutability": "nonpayable",
      "type": "function"
    },
    {
      "constant": false,
      "inputs": [
        {
          "name": "_spender",
          "type": "address"
        },
        {
          "name": "_value",
          "type": "uint256"
        }
      ],
      "name": "approve",
      "outputs": [
        {
          "name": "",
          "type": "bool"
        }
      ],
      "payable": false,
      "stateMutability": "nonpayable",
      "type": "function"
    },
    {
      "constant": false,
      "inputs": [
        {
          "name": "_spender",
          "type": "address"
        },
        {
          "name": "_addedValue",
          "type": "uint256"
        }
      ],
      "name": "increaseApproval",
      "outputs": [
        {
          "name": "success",
          "type": "bool"
        }
      ],
      "payable": false,
      "stateMutability": "nonpayable",
      "type": "function"
    },
    {
      "constant": false,
      "inputs": [
        {
          "name": "_spender",
          "type": "address"
        },
        {
          "name": "_subtractedValue",
          "type": "uint256"
        }
      ],
      "name": "decreaseApproval",
      "outputs": [
        {
          "name": "success",
          "type": "bool"
        }
      ],
      "payable": false,
      "stateMutability": "nonpayable",
      "type": "function"
    }
  ],
  "bytecode": "0x60806040526000600360146101000a81548160ff0219169083151502179055506000600360156101000a81548160ff0219169083151502179055506040805190810160405280600681526020017f54567a61767200000000000000000000000000000000000000000000000000008152506004908051906020019062000087929190620002dd565b506040805190810160405280600381526020017f5a5652000000000000000000000000000000000000000000000000000000000081525060059080519060200190620000d5929190620002dd565b506012600a0a6305f5e10002600655348015620000f157600080fd5b5033600360006101000a81548173ffffffffffffffffffffffffffffffffffffffff021916908373ffffffffffffffffffffffffffffffffffffffff1602179055506200015a600654600154620002c06401000000000262001657179091906401000000009004565b600181905550620001e5600654600080600360009054906101000a900473ffffffffffffffffffffffffffffffffffffffff1673ffffffffffffffffffffffffffffffffffffffff1673ffffffffffffffffffffffffffffffffffffffff16815260200190815260200160002054620002c06401000000000262001657179091906401000000009004565b600080600360009054906101000a900473ffffffffffffffffffffffffffffffffffffffff1673ffffffffffffffffffffffffffffffffffffffff1673ffffffffffffffffffffffffffffffffffffffff168152602001908152602001600020819055506001546007819055503073ffffffffffffffffffffffffffffffffffffffff16600073ffffffffffffffffffffffffffffffffffffffff167fddf252ad1be2c89b69c2b068fc378daa952ba7f163c4a11628f55a4df523b3ef6006546040518082815260200191505060405180910390a36200038c565b60008183019050828110151515620002d457fe5b80905092915050565b828054600181600116156101000203166002900490600052602060002090601f016020900481019282601f106200032057805160ff191683800117855562000351565b8280016001018555821562000351579182015b828111156200035057825182559160200191906001019062000333565b5b50905062000360919062000364565b5090565b6200038991905b80821115620003855760008160009055506001016200036b565b5090565b90565b611f17806200039c6000396000f30060806040526004361061013e576000357c0100000000000000000000000000000000000000000000000000000000900463ffffffff16806305d2035b1461014357806306fdde0314610172578063095ea7b31461020257806318160ddd1461026757806323b872dd14610292578063313ce5671461031757806331d2f89114610342578063378dc3dc146103995780633f4ba83a146103c457806340c10f19146103db57806342966c68146104405780635c975abb1461046d578063661884631461049c57806370a08231146105015780637d64bcb4146105585780637ecc2b56146105875780638456cb59146105b25780638da5cb5b146105c957806395d89b4114610620578063a9059cbb146106b0578063d73dd62314610715578063dd62ed3e1461077a578063f501d8b8146107f1578063f8fb491f14610856575b600080fd5b34801561014f57600080fd5b50610158610899565b604051808215151515815260200191505060405180910390f35b34801561017e57600080fd5b506101876108ac565b6040518080602001828103825283818151815260200191508051906020019080838360005b838110156101c75780820151818401526020810190506101ac565b50505050905090810190601f1680156101f45780820380516001836020036101000a031916815260200191505b509250505060405180910390f35b34801561020e57600080fd5b5061024d600480360381019080803573ffffffffffffffffffffffffffffffffffffffff1690602001909291908035906020019092919050505061094a565b604051808215151515815260200191505060405180910390f35b34801561027357600080fd5b5061027c61097a565b6040518082815260200191505060405180910390f35b34801561029e57600080fd5b506102fd600480360381019080803573ffffffffffffffffffffffffffffffffffffffff169060200190929190803573ffffffffffffffffffffffffffffffffffffffff16906020019092919080359060200190929190505050610984565b604051808215151515815260200191505060405180910390f35b34801561032357600080fd5b5061032c6109b6565b6040518082815260200191505060405180910390f35b34801561034e57600080fd5b506103576109bb565b604051808273ffffffffffffffffffffffffffffffffffffffff1673ffffffffffffffffffffffffffffffffffffffff16815260200191505060405180910390f35b3480156103a557600080fd5b506103ae6109e1565b6040518082815260200191505060405180910390f35b3480156103d057600080fd5b506103d96109e7565b005b3480156103e757600080fd5b50610426600480360381019080803573ffffffffffffffffffffffffffffffffffffffff16906020019092919080359060200190929190505050610aa7565b604051808215151515815260200191505060405180910390f35b34801561044c57600080fd5b5061046b60048036038101908080359060200190929190505050610c8d565b005b34801561047957600080fd5b50610482610c9a565b604051808215151515815260200191505060405180910390f35b3480156104a857600080fd5b506104e7600480360381019080803573ffffffffffffffffffffffffffffffffffffffff16906020019092919080359060200190929190505050610cad565b604051808215151515815260200191505060405180910390f35b34801561050d57600080fd5b50610542600480360381019080803573ffffffffffffffffffffffffffffffffffffffff169060200190929190505050610cdd565b6040518082815260200191505060405180910390f35b34801561056457600080fd5b5061056d610d25565b604051808215151515815260200191505060405180910390f35b34801561059357600080fd5b5061059c610ded565b6040518082815260200191505060405180910390f35b3480156105be57600080fd5b506105c7610df3565b005b3480156105d557600080fd5b506105de610eb4565b604051808273ffffffffffffffffffffffffffffffffffffffff1673ffffffffffffffffffffffffffffffffffffffff16815260200191505060405180910390f35b34801561062c57600080fd5b50610635610eda565b6040518080602001828103825283818151815260200191508051906020019080838360005b8381101561067557808201518184015260208101905061065a565b50505050905090810190601f1680156106a25780820380516001836020036101000a031916815260200191505b509250505060405180910390f35b3480156106bc57600080fd5b506106fb600480360381019080803573ffffffffffffffffffffffffffffffffffffffff16906020019092919080359060200190929190505050610f78565b604051808215151515815260200191505060405180910390f35b34801561072157600080fd5b50610760600480360381019080803573ffffffffffffffffffffffffffffffffffffffff16906020019092919080359060200190929190505050610fa8565b604051808215151515815260200191505060405180910390f35b34801561078657600080fd5b506107db600480360381019080803573ffffffffffffffffffffffffffffffffffffffff169060200190929190803573ffffffffffffffffffffffffffffffffffffffff169060200190929190505050610fd8565b6040518082815260200191505060405180910390f35b3480156107fd57600080fd5b5061083c600480360381019080803573ffffffffffffffffffffffffffffffffffffffff1690602001909291908035906020019092919050505061105f565b604051808215151515815260200191505060405180910390f35b34801561086257600080fd5b50610897600480360381019080803573ffffffffffffffffffffffffffffffffffffffff16906020019092919050505061110b565b005b600360149054906101000a900460ff1681565b60048054600181600116156101000203166002900480601f0160208091040260200160405190810160405280929190818152602001828054600181600116156101000203166002900480156109425780601f1061091757610100808354040283529160200191610942565b820191906000526020600020905b81548152906001019060200180831161092557829003601f168201915b505050505081565b6000600360159054906101000a900460ff1615151561096857600080fd5b61097283836111ab565b905092915050565b6000600154905090565b6000600360159054906101000a900460ff161515156109a257600080fd5b6109ad84848461129d565b90509392505050565b601281565b600860009054906101000a900473ffffffffffffffffffffffffffffffffffffffff1681565b60065481565b600360009054906101000a900473ffffffffffffffffffffffffffffffffffffffff1673ffffffffffffffffffffffffffffffffffffffff163373ffffffffffffffffffffffffffffffffffffffff16141515610a4357600080fd5b600360159054906101000a900460ff161515610a5e57600080fd5b6000600360156101000a81548160ff0219169083151502179055507f7805862f689e2f13df9f062ff482ad3ad112aca9e0847911ed832e158c525b3360405160405180910390a1565b6000600360009054906101000a900473ffffffffffffffffffffffffffffffffffffffff1673ffffffffffffffffffffffffffffffffffffffff163373ffffffffffffffffffffffffffffffffffffffff16141515610b0557600080fd5b600360149054906101000a900460ff16151515610b2157600080fd5b610b368260015461165790919063ffffffff16565b600181905550610b8d826000808673ffffffffffffffffffffffffffffffffffffffff1673ffffffffffffffffffffffffffffffffffffffff1681526020019081526020016000205461165790919063ffffffff16565b6000808573ffffffffffffffffffffffffffffffffffffffff1673ffffffffffffffffffffffffffffffffffffffff168152602001908152602001600020819055508273ffffffffffffffffffffffffffffffffffffffff167f0f6798a560793a54c3bcfe86a93cde1e73087d944c0ea20544137d4121396885836040518082815260200191505060405180910390a28273ffffffffffffffffffffffffffffffffffffffff16600073ffffffffffffffffffffffffffffffffffffffff167fddf252ad1be2c89b69c2b068fc378daa952ba7f163c4a11628f55a4df523b3ef846040518082815260200191505060405180910390a36001905092915050565b610c973382611673565b50565b600360159054906101000a900460ff1681565b6000600360159054906101000a900460ff16151515610ccb57600080fd5b610cd58383611826565b905092915050565b60008060008373ffffffffffffffffffffffffffffffffffffffff1673ffffffffffffffffffffffffffffffffffffffff168152602001908152602001600020549050919050565b6000600360009054906101000a900473ffffffffffffffffffffffffffffffffffffffff1673ffffffffffffffffffffffffffffffffffffffff163373ffffffffffffffffffffffffffffffffffffffff16141515610d8357600080fd5b600360149054906101000a900460ff16151515610d9f57600080fd5b6001600360146101000a81548160ff0219169083151502179055507fae5184fba832cb2b1f702aca6117b8d265eaf03ad33eb133f19dde0f5920fa0860405160405180910390a16001905090565b60075481565b600360009054906101000a900473ffffffffffffffffffffffffffffffffffffffff1673ffffffffffffffffffffffffffffffffffffffff163373ffffffffffffffffffffffffffffffffffffffff16141515610e4f57600080fd5b600360159054906101000a900460ff16151515610e6b57600080fd5b6001600360156101000a81548160ff0219169083151502179055507f6985a02210a168e66602d3235cb6db0e70f92b3ba4d376a33c0f3d9434bff62560405160405180910390a1565b600360009054906101000a900473ffffffffffffffffffffffffffffffffffffffff1681565b60058054600181600116156101000203166002900480601f016020809104026020016040519081016040528092919081815260200182805460018160011615610100020316600290048015610f705780601f10610f4557610100808354040283529160200191610f70565b820191906000526020600020905b815481529060010190602001808311610f5357829003601f168201915b505050505081565b6000600360159054906101000a900460ff16151515610f9657600080fd5b610fa08383611ab7565b905092915050565b6000600360159054906101000a900460ff16151515610fc657600080fd5b610fd08383611cd6565b905092915050565b6000600260008473ffffffffffffffffffffffffffffffffffffffff1673ffffffffffffffffffffffffffffffffffffffff16815260200190815260200160002060008373ffffffffffffffffffffffffffffffffffffffff1673ffffffffffffffffffffffffffffffffffffffff16815260200190815260200160002054905092915050565b6000600860009054906101000a900473ffffffffffffffffffffffffffffffffffffffff1673ffffffffffffffffffffffffffffffffffffffff163373ffffffffffffffffffffffffffffffffffffffff161415156110bd57600080fd5b600073ffffffffffffffffffffffffffffffffffffffff168373ffffffffffffffffffffffffffffffffffffffff16141515156110f957600080fd5b6111038383611ab7565b905092915050565b600360009054906101000a900473ffffffffffffffffffffffffffffffffffffffff1673ffffffffffffffffffffffffffffffffffffffff163373ffffffffffffffffffffffffffffffffffffffff1614151561116757600080fd5b80600860006101000a81548173ffffffffffffffffffffffffffffffffffffffff021916908373ffffffffffffffffffffffffffffffffffffffff16021790555050565b600081600260003373ffffffffffffffffffffffffffffffffffffffff1673ffffffffffffffffffffffffffffffffffffffff16815260200190815260200160002060008573ffffffffffffffffffffffffffffffffffffffff1673ffffffffffffffffffffffffffffffffffffffff168152602001908152602001600020819055508273ffffffffffffffffffffffffffffffffffffffff163373ffffffffffffffffffffffffffffffffffffffff167f8c5be1e5ebec7d5bd14f71427d1e84f3dd0314c0f7b2291e5b200ac8c7c3b925846040518082815260200191505060405180910390a36001905092915050565b60008073ffffffffffffffffffffffffffffffffffffffff168373ffffffffffffffffffffffffffffffffffffffff16141515156112da57600080fd5b6000808573ffffffffffffffffffffffffffffffffffffffff1673ffffffffffffffffffffffffffffffffffffffff16815260200190815260200160002054821115151561132757600080fd5b600260008573ffffffffffffffffffffffffffffffffffffffff1673ffffffffffffffffffffffffffffffffffffffff16815260200190815260200160002060003373ffffffffffffffffffffffffffffffffffffffff1673ffffffffffffffffffffffffffffffffffffffff1681526020019081526020016000205482111515156113b257600080fd5b611403826000808773ffffffffffffffffffffffffffffffffffffffff1673ffffffffffffffffffffffffffffffffffffffff16815260200190815260200160002054611ed290919063ffffffff16565b6000808673ffffffffffffffffffffffffffffffffffffffff1673ffffffffffffffffffffffffffffffffffffffff16815260200190815260200160002081905550611496826000808673ffffffffffffffffffffffffffffffffffffffff1673ffffffffffffffffffffffffffffffffffffffff1681526020019081526020016000205461165790919063ffffffff16565b6000808573ffffffffffffffffffffffffffffffffffffffff1673ffffffffffffffffffffffffffffffffffffffff1681526020019081526020016000208190555061156782600260008773ffffffffffffffffffffffffffffffffffffffff1673ffffffffffffffffffffffffffffffffffffffff16815260200190815260200160002060003373ffffffffffffffffffffffffffffffffffffffff1673ffffffffffffffffffffffffffffffffffffffff16815260200190815260200160002054611ed290919063ffffffff16565b600260008673ffffffffffffffffffffffffffffffffffffffff1673ffffffffffffffffffffffffffffffffffffffff16815260200190815260200160002060003373ffffffffffffffffffffffffffffffffffffffff1673ffffffffffffffffffffffffffffffffffffffff168152602001908152602001600020819055508273ffffffffffffffffffffffffffffffffffffffff168473ffffffffffffffffffffffffffffffffffffffff167fddf252ad1be2c89b69c2b068fc378daa952ba7f163c4a11628f55a4df523b3ef846040518082815260200191505060405180910390a3600190509392505050565b6000818301905082811015151561166a57fe5b80905092915050565b6000808373ffffffffffffffffffffffffffffffffffffffff1673ffffffffffffffffffffffffffffffffffffffff1681526020019081526020016000205481111515156116c057600080fd5b611711816000808573ffffffffffffffffffffffffffffffffffffffff1673ffffffffffffffffffffffffffffffffffffffff16815260200190815260200160002054611ed290919063ffffffff16565b6000808473ffffffffffffffffffffffffffffffffffffffff1673ffffffffffffffffffffffffffffffffffffffff1681526020019081526020016000208190555061176881600154611ed290919063ffffffff16565b6001819055508173ffffffffffffffffffffffffffffffffffffffff167fcc16f5dbb4873280815c1ee09dbd06736cffcc184412cf7a71a0fdb75d397ca5826040518082815260200191505060405180910390a2600073ffffffffffffffffffffffffffffffffffffffff168273ffffffffffffffffffffffffffffffffffffffff167fddf252ad1be2c89b69c2b068fc378daa952ba7f163c4a11628f55a4df523b3ef836040518082815260200191505060405180910390a35050565b600080600260003373ffffffffffffffffffffffffffffffffffffffff1673ffffffffffffffffffffffffffffffffffffffff16815260200190815260200160002060008573ffffffffffffffffffffffffffffffffffffffff1673ffffffffffffffffffffffffffffffffffffffff16815260200190815260200160002054905080831115611937576000600260003373ffffffffffffffffffffffffffffffffffffffff1673ffffffffffffffffffffffffffffffffffffffff16815260200190815260200160002060008673ffffffffffffffffffffffffffffffffffffffff1673ffffffffffffffffffffffffffffffffffffffff168152602001908152602001600020819055506119cb565b61194a8382611ed290919063ffffffff16565b600260003373ffffffffffffffffffffffffffffffffffffffff1673ffffffffffffffffffffffffffffffffffffffff16815260200190815260200160002060008673ffffffffffffffffffffffffffffffffffffffff1673ffffffffffffffffffffffffffffffffffffffff168152602001908152602001600020819055505b8373ffffffffffffffffffffffffffffffffffffffff163373ffffffffffffffffffffffffffffffffffffffff167f8c5be1e5ebec7d5bd14f71427d1e84f3dd0314c0f7b2291e5b200ac8c7c3b925600260003373ffffffffffffffffffffffffffffffffffffffff1673ffffffffffffffffffffffffffffffffffffffff16815260200190815260200160002060008873ffffffffffffffffffffffffffffffffffffffff1673ffffffffffffffffffffffffffffffffffffffff168152602001908152602001600020546040518082815260200191505060405180910390a3600191505092915050565b60008073ffffffffffffffffffffffffffffffffffffffff168373ffffffffffffffffffffffffffffffffffffffff1614151515611af457600080fd5b6000803373ffffffffffffffffffffffffffffffffffffffff1673ffffffffffffffffffffffffffffffffffffffff168152602001908152602001600020548211151515611b4157600080fd5b611b92826000803373ffffffffffffffffffffffffffffffffffffffff1673ffffffffffffffffffffffffffffffffffffffff16815260200190815260200160002054611ed290919063ffffffff16565b6000803373ffffffffffffffffffffffffffffffffffffffff1673ffffffffffffffffffffffffffffffffffffffff16815260200190815260200160002081905550611c25826000808673ffffffffffffffffffffffffffffffffffffffff1673ffffffffffffffffffffffffffffffffffffffff1681526020019081526020016000205461165790919063ffffffff16565b6000808573ffffffffffffffffffffffffffffffffffffffff1673ffffffffffffffffffffffffffffffffffffffff168152602001908152602001600020819055508273ffffffffffffffffffffffffffffffffffffffff163373ffffffffffffffffffffffffffffffffffffffff167fddf252ad1be2c89b69c2b068fc378daa952ba7f163c4a11628f55a4df523b3ef846040518082815260200191505060405180910390a36001905092915050565b6000611d6782600260003373ffffffffffffffffffffffffffffffffffffffff1673ffffffffffffffffffffffffffffffffffffffff16815260200190815260200160002060008673ffffffffffffffffffffffffffffffffffffffff1673ffffffffffffffffffffffffffffffffffffffff1681526020019081526020016000205461165790919063ffffffff16565b600260003373ffffffffffffffffffffffffffffffffffffffff1673ffffffffffffffffffffffffffffffffffffffff16815260200190815260200160002060008573ffffffffffffffffffffffffffffffffffffffff1673ffffffffffffffffffffffffffffffffffffffff168152602001908152602001600020819055508273ffffffffffffffffffffffffffffffffffffffff163373ffffffffffffffffffffffffffffffffffffffff167f8c5be1e5ebec7d5bd14f71427d1e84f3dd0314c0f7b2291e5b200ac8c7c3b925600260003373ffffffffffffffffffffffffffffffffffffffff1673ffffffffffffffffffffffffffffffffffffffff16815260200190815260200160002060008773ffffffffffffffffffffffffffffffffffffffff1673ffffffffffffffffffffffffffffffffffffffff168152602001908152602001600020546040518082815260200191505060405180910390a36001905092915050565b6000828211151515611ee057fe5b8183039050929150505600a165627a7a7230582068c33336cff5cf2d666fc6330d1e0589df47d16b90d208523122e26c07eb2cb30029",
  "source": "pragma solidity ^0.4.23;\n\nlibrary SafeMath {\n\n    function mul(uint256 a, uint256 b) internal pure returns (uint256 c) {\n        if (a == 0) {\n            return 0;\n        }\n        c = a * b;\n        assert(c / a == b);\n        return c;\n    }\n\n    function div(uint256 a, uint256 b) internal pure returns (uint256) {\n        // assert(b > 0); // Solidity automatically throws when dividing by 0\n        // uint256 c = a / b;\n        // assert(a == b * c + a % b); // There is no case in which this doesn't hold\n        return a / b;\n    }\n\n    function sub(uint256 a, uint256 b) internal pure returns (uint256) {\n        assert(b <= a);\n        return a - b;\n    }\n\n    function add(uint256 a, uint256 b) internal pure returns (uint256 c) {\n        c = a + b;\n        assert(c >= a);\n        return c;\n    }\n}\n\ncontract Ownable {\n    address public owner;\n\n    constructor() public {\n        owner = msg.sender;\n    }\n\n    modifier onlyOwner() {\n        require(msg.sender == owner);\n        _;\n    }\n}\n\ncontract Pausable is Ownable {\n\n    event Pause();\n    event Unpause();\n\n    bool public paused = false;\n\n    modifier whenNotPaused() {\n        require(!paused);\n        _;\n    }\n\n    modifier whenPaused() {\n        require(paused);\n        _;\n    }\n\n    function pause() onlyOwner whenNotPaused public {\n        paused = true;\n        emit Pause();\n    }\n\n    function unpause() onlyOwner whenPaused public {\n        paused = false;\n        emit Unpause();\n    }\n}\n\ncontract ERC20Basic {\n    function totalSupply() public view returns (uint256);\n    // function totalSupply() view returns (uint256 totalSupply) EIP\n    function balanceOf(address who) public view returns (uint256);\n    // function balanceOf(address _owner) view returns (uint256 balance) EIP\n    function transfer(address to, uint256 value) public returns (bool);\n    // function transfer(address _to, uint256 _value) returns (bool success) EIP\n    event Transfer(address indexed from, address indexed to, uint256 value);\n}\n\ncontract BasicToken is ERC20Basic {\n    using SafeMath for uint256;\n\n    mapping(address => uint256) balances;\n\n    uint256 totalSupply_;\n\n    function totalSupply() public view returns (uint256) {\n        // function totalSupply() view returns (uint256 totalSupply) EIP\n        return totalSupply_;\n    }\n\n    function transfer(address _to, uint256 _value) public returns (bool) {\n        // function transfer(address _to, uint256 _value) returns (bool success) EIP\n        require(_to != address(0));\n        require(_value <= balances[msg.sender]);\n\n        balances[msg.sender] = balances[msg.sender].sub(_value);\n        balances[_to] = balances[_to].add(_value);\n        emit Transfer(msg.sender, _to, _value);\n        return true;\n    }\n\n    function balanceOf(address _owner) public view returns (uint256) {\n        // function balanceOf(address _owner) view returns (uint256 balance) EIP\n        return balances[_owner];\n    }\n}\n\ncontract ERC20 is ERC20Basic {\n    function allowance(address owner, address spender)\n    public view returns (uint256);\n\n    function transferFrom(address from, address to, uint256 value)\n    public returns (bool);\n\n    function approve(address spender, uint256 value) public returns (bool);\n    event Approval(\n        address indexed owner,\n        address indexed spender,\n        uint256 value\n    );\n}\n\ncontract StandardToken is ERC20, BasicToken {\n\n    mapping (address => mapping (address => uint256)) internal allowed;\n\n    function transferFrom(\n        address _from,\n        address _to,\n        uint256 _value\n    )\n    public\n    returns (bool)\n    {\n        require(_to != address(0));\n        require(_value <= balances[_from]);\n        require(_value <= allowed[_from][msg.sender]);\n\n        balances[_from] = balances[_from].sub(_value);\n        balances[_to] = balances[_to].add(_value);\n        allowed[_from][msg.sender] = allowed[_from][msg.sender].sub(_value);\n        emit Transfer(_from, _to, _value);\n        return true;\n    }\n\n    function approve(address _spender, uint256 _value) public returns (bool) {\n        allowed[msg.sender][_spender] = _value;\n        emit Approval(msg.sender, _spender, _value);\n        return true;\n    }\n\n    function allowance(\n        address _owner,\n        address _spender\n    )\n    public\n    view\n    returns (uint256)\n    {\n        return allowed[_owner][_spender];\n    }\n\n    function increaseApproval(\n        address _spender,\n        uint _addedValue\n    )\n    public\n    returns (bool)\n    {\n        allowed[msg.sender][_spender] = (\n        allowed[msg.sender][_spender].add(_addedValue));\n        emit Approval(msg.sender, _spender, allowed[msg.sender][_spender]);\n        return true;\n    }\n\n    function decreaseApproval(\n        address _spender,\n        uint _subtractedValue\n    )\n    public\n    returns (bool)\n    {\n        uint oldValue = allowed[msg.sender][_spender];\n        if (_subtractedValue > oldValue) {\n            allowed[msg.sender][_spender] = 0;\n        } else {\n            allowed[msg.sender][_spender] = oldValue.sub(_subtractedValue);\n        }\n        emit Approval(msg.sender, _spender, allowed[msg.sender][_spender]);\n        return true;\n    }\n}\n\ncontract BurnableToken is BasicToken {\n\n    event Burn(address indexed burner, uint256 value);\n\n    function burn(uint256 _value) public {\n        _burn(msg.sender, _value);\n    }\n\n    function _burn(address _who, uint256 _value) internal {\n        require(_value <= balances[_who]);\n\n        balances[_who] = balances[_who].sub(_value);\n        totalSupply_ = totalSupply_.sub(_value);\n        emit Burn(_who, _value);\n        emit Transfer(_who, address(0), _value);\n    }\n}\n\ncontract MintableToken is StandardToken, Ownable {\n\n    event Mint(address indexed to, uint256 amount);\n    event MintFinished();\n\n    bool public mintingFinished = false;\n\n\n    modifier canMint() {\n        require(!mintingFinished);\n        _;\n    }\n\n    modifier hasMintPermission() {\n        require(msg.sender == owner);\n        _;\n    }\n    function mint(\n        address _to,\n        uint256 _amount\n    )\n    hasMintPermission\n    canMint\n    public\n    returns (bool)\n    {\n        totalSupply_ = totalSupply_.add(_amount);\n        balances[_to] = balances[_to].add(_amount);\n        emit Mint(_to, _amount);\n        emit Transfer(address(0), _to, _amount);\n        return true;\n    }\n\n    function finishMinting() onlyOwner canMint public returns (bool) {\n        mintingFinished = true;\n        emit MintFinished();\n        return true;\n    }\n}\n\ncontract MoviesToken is MintableToken, BurnableToken, Pausable {\n\n    using SafeMath for uint256;\n\n    string  public name = \"TVzavr\";\n    string  public symbol = \"ZVR\";\n    uint256 constant public decimals = 18;\n    uint256 constant dec = 10**decimals;\n    uint256 public initialSupply = 100000000*dec;\n    uint256 public availableSupply;\n    address public crowdsaleAddress;\n\n    modifier onlyICO() {\n        require(msg.sender == crowdsaleAddress);\n        _;\n    }\n\n    constructor() public {\n        totalSupply_ = totalSupply_.add(initialSupply);\n        balances[owner] = balances[owner].add(initialSupply);\n        availableSupply = totalSupply_;\n        emit Transfer(address(0x0), this, initialSupply);\n    }\n\n    function setSaleAddress(address _saleaddress) public onlyOwner{\n        crowdsaleAddress = _saleaddress;\n    }\n\n    function transferFromICO(address _to, uint256 _value) public onlyICO returns(bool) {\n        require(_to != address(0x0));\n        return super.transfer(_to, _value);\n    }\n\n    function transfer(address _to, uint256 _value) public whenNotPaused returns (bool) {\n        return super.transfer(_to, _value);\n    }\n\n    function transferFrom(address _from, address _to, uint256 _value) public whenNotPaused returns (bool) {\n        return super.transferFrom(_from, _to, _value);\n    }\n\n    function approve(address _spender, uint256 _value) public whenNotPaused returns (bool) {\n        return super.approve(_spender, _value);\n    }\n\n    function increaseApproval(address _spender, uint _addedValue) public whenNotPaused returns (bool success) {\n        return super.increaseApproval(_spender, _addedValue);\n    }\n\n    function decreaseApproval(address _spender, uint _subtractedValue) public whenNotPaused returns (bool success) {\n        return super.decreaseApproval(_spender, _subtractedValue);\n    }\n}",
  "sourcePath": "/Users/ivanborisov/Yandex.Disk.localized/IT/WorkProjects/Portfolio/Movies TVZavr/contracts/SimpleToken.sol",
  "compiler": {
    "name": "solc",
    "version": "0.4.24+commit.e67f0147.Emscripten.clang"
  },
  "schemaVersion": "2.0.0",
  "updatedAt": "2018-06-19T11:50:14.632Z"
}