{
  "contractName": "SuperSafeSale",
  "abi": [
    {
      "constant": true,
      "inputs": [],
      "name": "backEndOperator",
      "outputs": [
        {
          "name": "",
          "type": "address"
        }
      ],
      "payable": false,
      "stateMutability": "view",
      "type": "function"
    },
    {
      "constant": true,
      "inputs": [],
      "name": "soldTokensMainSale",
      "outputs": [
        {
          "name": "",
          "type": "uint256"
        }
      ],
      "payable": false,
      "stateMutability": "view",
      "type": "function"
    },
    {
      "constant": true,
      "inputs": [
        {
          "name": "",
          "type": "address"
        }
      ],
      "name": "investedEther",
      "outputs": [
        {
          "name": "",
          "type": "uint256"
        }
      ],
      "payable": false,
      "stateMutability": "view",
      "type": "function"
    },
    {
      "constant": true,
      "inputs": [],
      "name": "endSale",
      "outputs": [
        {
          "name": "",
          "type": "uint256"
        }
      ],
      "payable": false,
      "stateMutability": "view",
      "type": "function"
    },
    {
      "constant": true,
      "inputs": [],
      "name": "dollarPrice",
      "outputs": [
        {
          "name": "",
          "type": "uint256"
        }
      ],
      "payable": false,
      "stateMutability": "view",
      "type": "function"
    },
    {
      "constant": true,
      "inputs": [],
      "name": "startPreSale",
      "outputs": [
        {
          "name": "",
          "type": "uint256"
        }
      ],
      "payable": false,
      "stateMutability": "view",
      "type": "function"
    },
    {
      "constant": true,
      "inputs": [],
      "name": "buyPrice",
      "outputs": [
        {
          "name": "",
          "type": "uint256"
        }
      ],
      "payable": false,
      "stateMutability": "view",
      "type": "function"
    },
    {
      "constant": true,
      "inputs": [],
      "name": "investors",
      "outputs": [
        {
          "name": "",
          "type": "uint256"
        }
      ],
      "payable": false,
      "stateMutability": "view",
      "type": "function"
    },
    {
      "constant": true,
      "inputs": [],
      "name": "owner",
      "outputs": [
        {
          "name": "",
          "type": "address"
        }
      ],
      "payable": false,
      "stateMutability": "view",
      "type": "function"
    },
    {
      "constant": true,
      "inputs": [
        {
          "name": "",
          "type": "address"
        }
      ],
      "name": "whitelist",
      "outputs": [
        {
          "name": "",
          "type": "bool"
        }
      ],
      "payable": false,
      "stateMutability": "view",
      "type": "function"
    },
    {
      "constant": true,
      "inputs": [],
      "name": "startSale",
      "outputs": [
        {
          "name": "",
          "type": "uint256"
        }
      ],
      "payable": false,
      "stateMutability": "view",
      "type": "function"
    },
    {
      "constant": true,
      "inputs": [],
      "name": "softCapMainSale",
      "outputs": [
        {
          "name": "",
          "type": "uint256"
        }
      ],
      "payable": false,
      "stateMutability": "view",
      "type": "function"
    },
    {
      "constant": true,
      "inputs": [],
      "name": "soldTokensPreSale",
      "outputs": [
        {
          "name": "",
          "type": "uint256"
        }
      ],
      "payable": false,
      "stateMutability": "view",
      "type": "function"
    },
    {
      "constant": true,
      "inputs": [],
      "name": "weisRaised",
      "outputs": [
        {
          "name": "",
          "type": "uint256"
        }
      ],
      "payable": false,
      "stateMutability": "view",
      "type": "function"
    },
    {
      "constant": true,
      "inputs": [],
      "name": "softCapPreSale",
      "outputs": [
        {
          "name": "",
          "type": "uint256"
        }
      ],
      "payable": false,
      "stateMutability": "view",
      "type": "function"
    },
    {
      "constant": true,
      "inputs": [],
      "name": "endPreSale",
      "outputs": [
        {
          "name": "",
          "type": "uint256"
        }
      ],
      "payable": false,
      "stateMutability": "view",
      "type": "function"
    },
    {
      "constant": true,
      "inputs": [],
      "name": "hardCapMainSale",
      "outputs": [
        {
          "name": "",
          "type": "uint256"
        }
      ],
      "payable": false,
      "stateMutability": "view",
      "type": "function"
    },
    {
      "constant": true,
      "inputs": [],
      "name": "hardCapPreSale",
      "outputs": [
        {
          "name": "",
          "type": "uint256"
        }
      ],
      "payable": false,
      "stateMutability": "view",
      "type": "function"
    },
    {
      "constant": true,
      "inputs": [],
      "name": "token",
      "outputs": [
        {
          "name": "",
          "type": "address"
        }
      ],
      "payable": false,
      "stateMutability": "view",
      "type": "function"
    },
    {
      "inputs": [
        {
          "name": "_token",
          "type": "address"
        },
        {
          "name": "usdETH",
          "type": "uint256"
        }
      ],
      "payable": false,
      "stateMutability": "nonpayable",
      "type": "constructor"
    },
    {
      "payable": true,
      "stateMutability": "payable",
      "type": "fallback"
    },
    {
      "anonymous": false,
      "inputs": [
        {
          "indexed": false,
          "name": "wlCandidate",
          "type": "address"
        },
        {
          "indexed": false,
          "name": "timestamp",
          "type": "uint256"
        }
      ],
      "name": "Authorized",
      "type": "event"
    },
    {
      "anonymous": false,
      "inputs": [
        {
          "indexed": false,
          "name": "wlCandidate",
          "type": "address"
        },
        {
          "indexed": false,
          "name": "timestamp",
          "type": "uint256"
        }
      ],
      "name": "Revoked",
      "type": "event"
    },
    {
      "anonymous": false,
      "inputs": [
        {
          "indexed": false,
          "name": "time",
          "type": "uint256"
        },
        {
          "indexed": false,
          "name": "_rate",
          "type": "uint256"
        }
      ],
      "name": "UpdateDollar",
      "type": "event"
    },
    {
      "constant": false,
      "inputs": [
        {
          "name": "newStartPreSale",
          "type": "uint256"
        }
      ],
      "name": "setStartPreSale",
      "outputs": [],
      "payable": false,
      "stateMutability": "nonpayable",
      "type": "function"
    },
    {
      "constant": false,
      "inputs": [
        {
          "name": "newEndPreSale",
          "type": "uint256"
        }
      ],
      "name": "setEndPreSale",
      "outputs": [],
      "payable": false,
      "stateMutability": "nonpayable",
      "type": "function"
    },
    {
      "constant": false,
      "inputs": [
        {
          "name": "newStartSale",
          "type": "uint256"
        }
      ],
      "name": "setStartSale",
      "outputs": [],
      "payable": false,
      "stateMutability": "nonpayable",
      "type": "function"
    },
    {
      "constant": false,
      "inputs": [
        {
          "name": "newEndSaled",
          "type": "uint256"
        }
      ],
      "name": "setEndSale",
      "outputs": [],
      "payable": false,
      "stateMutability": "nonpayable",
      "type": "function"
    },
    {
      "constant": false,
      "inputs": [
        {
          "name": "newBackEndOperator",
          "type": "address"
        }
      ],
      "name": "setBackEndAddress",
      "outputs": [],
      "payable": false,
      "stateMutability": "nonpayable",
      "type": "function"
    },
    {
      "constant": false,
      "inputs": [
        {
          "name": "_dollar",
          "type": "uint256"
        }
      ],
      "name": "setBuyPrice",
      "outputs": [],
      "payable": false,
      "stateMutability": "nonpayable",
      "type": "function"
    },
    {
      "constant": false,
      "inputs": [
        {
          "name": "wlCandidate",
          "type": "address"
        }
      ],
      "name": "authorize",
      "outputs": [],
      "payable": false,
      "stateMutability": "nonpayable",
      "type": "function"
    },
    {
      "constant": false,
      "inputs": [
        {
          "name": "wlCandidate",
          "type": "address"
        }
      ],
      "name": "revoke",
      "outputs": [],
      "payable": false,
      "stateMutability": "nonpayable",
      "type": "function"
    },
    {
      "constant": true,
      "inputs": [],
      "name": "isPreSale",
      "outputs": [
        {
          "name": "",
          "type": "bool"
        }
      ],
      "payable": false,
      "stateMutability": "view",
      "type": "function"
    },
    {
      "constant": true,
      "inputs": [],
      "name": "isMainSale",
      "outputs": [
        {
          "name": "",
          "type": "bool"
        }
      ],
      "payable": false,
      "stateMutability": "view",
      "type": "function"
    },
    {
      "constant": false,
      "inputs": [
        {
          "name": "_to",
          "type": "address"
        },
        {
          "name": "amount",
          "type": "uint256"
        }
      ],
      "name": "transferEthFromContract",
      "outputs": [],
      "payable": false,
      "stateMutability": "nonpayable",
      "type": "function"
    },
    {
      "constant": false,
      "inputs": [],
      "name": "refundPreICO",
      "outputs": [],
      "payable": false,
      "stateMutability": "nonpayable",
      "type": "function"
    },
    {
      "constant": false,
      "inputs": [],
      "name": "refundMainICO",
      "outputs": [],
      "payable": false,
      "stateMutability": "nonpayable",
      "type": "function"
    }
  ],
  "bytecode": "0x608060405233600260006101000a81548173ffffffffffffffffffffffffffffffffffffffff021916908373ffffffffffffffffffffffffffffffffffffffff160217905550737ede8260e573d3a3ddfc058f19309df5a1f7397e600360006101000a81548173ffffffffffffffffffffffffffffffffffffffff021916908373ffffffffffffffffffffffffffffffffffffffff160217905550730cdb839b52404d49417c8ded6c3e2157a06cdd37600460006101000a81548173ffffffffffffffffffffffffffffffffffffffff021916908373ffffffffffffffffffffffffffffffffffffffff160217905550635b4a8e81600755635b74be7f600855620151806008540160095562093a8060095401600a5562093a80600a5401600b5562093a80600b5401600c55624f1a00600c5401600d556a023bbf4b14c2e7ff8000006010556a0c685fa11e01ec6f0000006011556a0b2abc7767ce87fd8000006012556a3e09de2596099e2b00000060135534801561017e57600080fd5b506040516040806121428339810180604052810190808051906020019092919080519060200190929190505050336000806101000a81548173ffffffffffffffffffffffffffffffffffffffff021916908373ffffffffffffffffffffffffffffffffffffffff16021790555081600160006101000a81548173ffffffffffffffffffffffffffffffffffffffff021916908373ffffffffffffffffffffffffffffffffffffffff16021790555080601581905550600e601554662386f26fc1000081151561024957fe5b04026014819055505050611ee0806102626000396000f300608060405260043610610196576000357c0100000000000000000000000000000000000000000000000000000000900463ffffffff168063050895ff1461033a5780630e407bdd14610391578063274448ff146103bc57806331198d1914610413578063380d831b14610460578063384a64941461048b57806340d7b7b8146104b85780634ced4734146104e357806355dd574c146105125780635dbbaf881461053d57806363ae8d6c1461055457806374a8f103146105815780638620410b146105c45780638ac27f5f146105ef5780638da5cb5b1461061a5780639b19251a14610671578063b66a0e5d146106cc578063b6a5d7de146106f7578063b701dc141461073a578063ba8029bb1461077d578063c4be00b8146107aa578063d1f2efd5146107d5578063d893b9f114610804578063da5f838d1461082f578063e04625471461085a578063e591253c14610887578063eb2ff2d21461089e578063ee889ed0146108c9578063f307946d146108f4578063f7e4a4a91461091f578063fb3ab12b1461094a578063fc0c546a14610977575b61019f336109ce565b15156101aa57600080fd5b6101b2610a24565b1561026e576101c13334610a3f565b601154601754111515156101d457600080fd5b61022634600660003373ffffffffffffffffffffffffffffffffffffffff1673ffffffffffffffffffffffffffffffffffffffff16815260200190815260200160002054610ea590919063ffffffff16565b600660003373ffffffffffffffffffffffffffffffffffffffff1673ffffffffffffffffffffffffffffffffffffffff16815260200190815260200160002081905550610338565b610276610ec1565b15610332576102853334610edc565b6013546016541115151561029857600080fd5b6102ea34600660003373ffffffffffffffffffffffffffffffffffffffff1673ffffffffffffffffffffffffffffffffffffffff16815260200190815260200160002054610ea590919063ffffffff16565b600660003373ffffffffffffffffffffffffffffffffffffffff1673ffffffffffffffffffffffffffffffffffffffff16815260200190815260200160002081905550610337565b600080fd5b5b005b34801561034657600080fd5b5061034f611342565b604051808273ffffffffffffffffffffffffffffffffffffffff1673ffffffffffffffffffffffffffffffffffffffff16815260200191505060405180910390f35b34801561039d57600080fd5b506103a6611368565b6040518082815260200191505060405180910390f35b3480156103c857600080fd5b506103fd600480360381019080803573ffffffffffffffffffffffffffffffffffffffff16906020019092919050505061136e565b6040518082815260200191505060405180910390f35b34801561041f57600080fd5b5061045e600480360381019080803573ffffffffffffffffffffffffffffffffffffffff16906020019092919080359060200190929190505050611386565b005b34801561046c57600080fd5b5061047561142c565b6040518082815260200191505060405180910390f35b34801561049757600080fd5b506104b660048036038101908080359060200190929190505050611432565b005b3480156104c457600080fd5b506104cd611497565b6040518082815260200191505060405180910390f35b3480156104ef57600080fd5b506104f8610a24565b604051808215151515815260200191505060405180910390f35b34801561051e57600080fd5b5061052761149d565b6040518082815260200191505060405180910390f35b34801561054957600080fd5b506105526114a3565b005b34801561056057600080fd5b5061057f600480360381019080803590602001909291905050506115fe565b005b34801561058d57600080fd5b506105c2600480360381019080803573ffffffffffffffffffffffffffffffffffffffff1690602001909291905050506116c2565b005b3480156105d057600080fd5b506105d96117f6565b6040518082815260200191505060405180910390f35b3480156105fb57600080fd5b506106046117fc565b6040518082815260200191505060405180910390f35b34801561062657600080fd5b5061062f611802565b604051808273ffffffffffffffffffffffffffffffffffffffff1673ffffffffffffffffffffffffffffffffffffffff16815260200191505060405180910390f35b34801561067d57600080fd5b506106b2600480360381019080803573ffffffffffffffffffffffffffffffffffffffff169060200190929190505050611827565b604051808215151515815260200191505060405180910390f35b3480156106d857600080fd5b506106e1611847565b6040518082815260200191505060405180910390f35b34801561070357600080fd5b50610738600480360381019080803573ffffffffffffffffffffffffffffffffffffffff16906020019092919050505061184d565b005b34801561074657600080fd5b5061077b600480360381019080803573ffffffffffffffffffffffffffffffffffffffff169060200190929190505050611a29565b005b34801561078957600080fd5b506107a860048036038101908080359060200190929190505050611ac8565b005b3480156107b657600080fd5b506107bf611b2d565b6040518082815260200191505060405180910390f35b3480156107e157600080fd5b506107ea610ec1565b604051808215151515815260200191505060405180910390f35b34801561081057600080fd5b50610819611b33565b6040518082815260200191505060405180910390f35b34801561083b57600080fd5b50610844611b39565b6040518082815260200191505060405180910390f35b34801561086657600080fd5b5061088560048036038101908080359060200190929190505050611b3f565b005b34801561089357600080fd5b5061089c611ba4565b005b3480156108aa57600080fd5b506108b3611d00565b6040518082815260200191505060405180910390f35b3480156108d557600080fd5b506108de611d06565b6040518082815260200191505060405180910390f35b34801561090057600080fd5b50610909611d0c565b6040518082815260200191505060405180910390f35b34801561092b57600080fd5b50610934611d12565b6040518082815260200191505060405180910390f35b34801561095657600080fd5b5061097560048036038101908080359060200190929190505050611d18565b005b34801561098357600080fd5b5061098c611d7d565b604051808273ffffffffffffffffffffffffffffffffffffffff1673ffffffffffffffffffffffffffffffffffffffff16815260200191505060405180910390f35b6000600560008373ffffffffffffffffffffffffffffffffffffffff1673ffffffffffffffffffffffffffffffffffffffff16815260200190815260200160002060009054906101000a900460ff169050919050565b60006007544210158015610a3a57506008544211155b905090565b600080600080610a74601454610a66670de0b6b3a764000088611da390919063ffffffff16565b611ddb90919063ffffffff16565b9350610aa36064610a95610a86611df1565b87611da390919063ffffffff16565b611ddb90919063ffffffff16565b9250610ab88385610ea590919063ffffffff16565b9350600160009054906101000a900473ffffffffffffffffffffffffffffffffffffffff1673ffffffffffffffffffffffffffffffffffffffff16633aa0396a87866040518363ffffffff167c0100000000000000000000000000000000000000000000000000000000028152600401808373ffffffffffffffffffffffffffffffffffffffff1673ffffffffffffffffffffffffffffffffffffffff16815260200182815260200192505050602060405180830381600087803b158015610b7f57600080fd5b505af1158015610b93573d6000803e3d6000fd5b505050506040513d6020811015610ba957600080fd5b810190808051906020019092919050505050610be260b1610bd4601487611da390919063ffffffff16565b611ddb90919063ffffffff16565b9150600160009054906101000a900473ffffffffffffffffffffffffffffffffffffffff1673ffffffffffffffffffffffffffffffffffffffff16633aa0396a600360009054906101000a900473ffffffffffffffffffffffffffffffffffffffff16846040518363ffffffff167c0100000000000000000000000000000000000000000000000000000000028152600401808373ffffffffffffffffffffffffffffffffffffffff1673ffffffffffffffffffffffffffffffffffffffff16815260200182815260200192505050602060405180830381600087803b158015610ccb57600080fd5b505af1158015610cdf573d6000803e3d6000fd5b505050506040513d6020811015610cf557600080fd5b810190808051906020019092919050505050610d1b603b85611ddb90919063ffffffff16565b9050600160009054906101000a900473ffffffffffffffffffffffffffffffffffffffff1673ffffffffffffffffffffffffffffffffffffffff16633aa0396a600460009054906101000a900473ffffffffffffffffffffffffffffffffffffffff16836040518363ffffffff167c0100000000000000000000000000000000000000000000000000000000028152600401808373ffffffffffffffffffffffffffffffffffffffff1673ffffffffffffffffffffffffffffffffffffffff16815260200182815260200192505050602060405180830381600087803b158015610e0457600080fd5b505af1158015610e18573d6000803e3d6000fd5b505050506040513d6020811015610e2e57600080fd5b810190808051906020019092919050505050610e5534600f54610ea590919063ffffffff16565b600f81905550610e8081610e728487610ea590919063ffffffff16565b610ea590919063ffffffff16565b9350610e9784601754610ea590919063ffffffff16565b601781905550505050505050565b60008183019050828110151515610eb857fe5b80905092915050565b60006009544210158015610ed75750600d544211155b905090565b600080600080610f11601454610f03670de0b6b3a764000088611da390919063ffffffff16565b611ddb90919063ffffffff16565b9350610f406064610f32610f23611df1565b87611da390919063ffffffff16565b611ddb90919063ffffffff16565b9250610f558385610ea590919063ffffffff16565b9350600160009054906101000a900473ffffffffffffffffffffffffffffffffffffffff1673ffffffffffffffffffffffffffffffffffffffff16633aa0396a87866040518363ffffffff167c0100000000000000000000000000000000000000000000000000000000028152600401808373ffffffffffffffffffffffffffffffffffffffff1673ffffffffffffffffffffffffffffffffffffffff16815260200182815260200192505050602060405180830381600087803b15801561101c57600080fd5b505af1158015611030573d6000803e3d6000fd5b505050506040513d602081101561104657600080fd5b81019080805190602001909291905050505061107f60b1611071601487611da390919063ffffffff16565b611ddb90919063ffffffff16565b9150600160009054906101000a900473ffffffffffffffffffffffffffffffffffffffff1673ffffffffffffffffffffffffffffffffffffffff16633aa0396a600360009054906101000a900473ffffffffffffffffffffffffffffffffffffffff16846040518363ffffffff167c0100000000000000000000000000000000000000000000000000000000028152600401808373ffffffffffffffffffffffffffffffffffffffff1673ffffffffffffffffffffffffffffffffffffffff16815260200182815260200192505050602060405180830381600087803b15801561116857600080fd5b505af115801561117c573d6000803e3d6000fd5b505050506040513d602081101561119257600080fd5b8101908080519060200190929190505050506111b8603b85611ddb90919063ffffffff16565b9050600160009054906101000a900473ffffffffffffffffffffffffffffffffffffffff1673ffffffffffffffffffffffffffffffffffffffff16633aa0396a600460009054906101000a900473ffffffffffffffffffffffffffffffffffffffff16836040518363ffffffff167c0100000000000000000000000000000000000000000000000000000000028152600401808373ffffffffffffffffffffffffffffffffffffffff1673ffffffffffffffffffffffffffffffffffffffff16815260200182815260200192505050602060405180830381600087803b1580156112a157600080fd5b505af11580156112b5573d6000803e3d6000fd5b505050506040513d60208110156112cb57600080fd5b8101908080519060200190929190505050506112f234600f54610ea590919063ffffffff16565b600f8190555061131d8161130f8487610ea590919063ffffffff16565b610ea590919063ffffffff16565b935061133484601654610ea590919063ffffffff16565b601681905550505050505050565b600260009054906101000a900473ffffffffffffffffffffffffffffffffffffffff1681565b60165481565b60066020528060005260406000206000915090505481565b6000809054906101000a900473ffffffffffffffffffffffffffffffffffffffff1673ffffffffffffffffffffffffffffffffffffffff163373ffffffffffffffffffffffffffffffffffffffff161415156113e157600080fd5b8173ffffffffffffffffffffffffffffffffffffffff166108fc829081150290604051600060405180830381858888f19350505050158015611427573d6000803e3d6000fd5b505050565b600d5481565b6000809054906101000a900473ffffffffffffffffffffffffffffffffffffffff1673ffffffffffffffffffffffffffffffffffffffff163373ffffffffffffffffffffffffffffffffffffffff1614151561148d57600080fd5b8060078190555050565b60155481565b60075481565b6000601254600f541080156114b95750600d5442115b15156114c457600080fd5b600660003373ffffffffffffffffffffffffffffffffffffffff1673ffffffffffffffffffffffffffffffffffffffff1681526020019081526020016000205490506000600660003373ffffffffffffffffffffffffffffffffffffffff1673ffffffffffffffffffffffffffffffffffffffff1681526020019081526020016000205411151561155457600080fd5b6000600660003373ffffffffffffffffffffffffffffffffffffffff1673ffffffffffffffffffffffffffffffffffffffff168152602001908152602001600020819055503373ffffffffffffffffffffffffffffffffffffffff166108fc829081150290604051600060405180830381858888f193505050501580156115df573d6000803e3d6000fd5b506115f581600f54611e9b90919063ffffffff16565b600f8190555050565b6000809054906101000a900473ffffffffffffffffffffffffffffffffffffffff1673ffffffffffffffffffffffffffffffffffffffff163373ffffffffffffffffffffffffffffffffffffffff1614151561165957600080fd5b80601581905550600e601554662386f26fc1000081151561167657fe5b04026014819055507f8e5d322ef7050e99e3845ad9d8b2608b9512de19853d4215b71b7a4ee2993d4f42601554604051808381526020018281526020019250505060405180910390a150565b6000809054906101000a900473ffffffffffffffffffffffffffffffffffffffff1673ffffffffffffffffffffffffffffffffffffffff163373ffffffffffffffffffffffffffffffffffffffff1614151561171d57600080fd5b6000600560008373ffffffffffffffffffffffffffffffffffffffff1673ffffffffffffffffffffffffffffffffffffffff16815260200190815260200160002060006101000a81548160ff021916908315150217905550600e60008154809291906001900391905055507f713b90881ad62c4fa8ab6bd9197fa86481fc0c11b2edba60026514281b2dbac48142604051808373ffffffffffffffffffffffffffffffffffffffff1673ffffffffffffffffffffffffffffffffffffffff1681526020018281526020019250505060405180910390a150565b60145481565b600e5481565b6000809054906101000a900473ffffffffffffffffffffffffffffffffffffffff1681565b60056020528060005260406000206000915054906101000a900460ff1681565b60095481565b600260009054906101000a900473ffffffffffffffffffffffffffffffffffffffff1673ffffffffffffffffffffffffffffffffffffffff163373ffffffffffffffffffffffffffffffffffffffff1614806118f557506000809054906101000a900473ffffffffffffffffffffffffffffffffffffffff1673ffffffffffffffffffffffffffffffffffffffff163373ffffffffffffffffffffffffffffffffffffffff16145b151561190057600080fd5b600073ffffffffffffffffffffffffffffffffffffffff168173ffffffffffffffffffffffffffffffffffffffff161415151561193c57600080fd5b611945816109ce565b15151561195157600080fd5b6001600560008373ffffffffffffffffffffffffffffffffffffffff1673ffffffffffffffffffffffffffffffffffffffff16815260200190815260200160002060006101000a81548160ff021916908315150217905550600e600081548092919060010191905055507fb39b5f240c7440b58c1c6cfd328b09ff9aa18b3c8ef4b829774e4f5bad0394168142604051808373ffffffffffffffffffffffffffffffffffffffff1673ffffffffffffffffffffffffffffffffffffffff1681526020018281526020019250505060405180910390a150565b6000809054906101000a900473ffffffffffffffffffffffffffffffffffffffff1673ffffffffffffffffffffffffffffffffffffffff163373ffffffffffffffffffffffffffffffffffffffff16141515611a8457600080fd5b80600260006101000a81548173ffffffffffffffffffffffffffffffffffffffff021916908373ffffffffffffffffffffffffffffffffffffffff16021790555050565b6000809054906101000a900473ffffffffffffffffffffffffffffffffffffffff1673ffffffffffffffffffffffffffffffffffffffff163373ffffffffffffffffffffffffffffffffffffffff16141515611b2357600080fd5b8060098190555050565b60125481565b60175481565b600f5481565b6000809054906101000a900473ffffffffffffffffffffffffffffffffffffffff1673ffffffffffffffffffffffffffffffffffffffff163373ffffffffffffffffffffffffffffffffffffffff16141515611b9a57600080fd5b8060088190555050565b6000601054601754108015611bba575060085442115b1515611bc557600080fd5b600660003373ffffffffffffffffffffffffffffffffffffffff1673ffffffffffffffffffffffffffffffffffffffff1681526020019081526020016000205490506000600660003373ffffffffffffffffffffffffffffffffffffffff1673ffffffffffffffffffffffffffffffffffffffff1681526020019081526020016000205410151515611c5657600080fd5b6000600660003373ffffffffffffffffffffffffffffffffffffffff1673ffffffffffffffffffffffffffffffffffffffff168152602001908152602001600020819055503373ffffffffffffffffffffffffffffffffffffffff166108fc829081150290604051600060405180830381858888f19350505050158015611ce1573d6000803e3d6000fd5b50611cf781600f54611e9b90919063ffffffff16565b600f8190555050565b60105481565b60085481565b60135481565b60115481565b6000809054906101000a900473ffffffffffffffffffffffffffffffffffffffff1673ffffffffffffffffffffffffffffffffffffffff163373ffffffffffffffffffffffffffffffffffffffff16141515611d7357600080fd5b80600d8190555050565b600160009054906101000a900473ffffffffffffffffffffffffffffffffffffffff1681565b600080831415611db65760009050611dd5565b8183029050818382811515611dc757fe5b04141515611dd157fe5b8090505b92915050565b60008183811515611de857fe5b04905092915050565b600060075442118015611e05575060085442105b15611e1357601e9050611e98565b60095442118015611e255750600a5442105b15611e3357600f9050611e98565b600a5442118015611e455750600b5442105b15611e5357600a9050611e98565b600b5442118015611e655750600c5442105b15611e735760059050611e98565b600c5442118015611e855750600d5442105b15611e935760039050611e98565b600090505b90565b6000828211151515611ea957fe5b8183039050929150505600a165627a7a72305820467cd91fa13cf9d2f8ea116465498d57bfc3ddb6d629ea65053fc65dc84559be0029",
  "source": "pragma solidity ^0.4.23;\n\n/*** @title SafeMath\n * @dev https://github.com/OpenZeppelin/openzeppelin-solidity/blob/master/contracts/math/SafeMath.sol */\nlibrary SafeMath {\n\n    function mul(uint256 a, uint256 b) internal pure returns (uint256 c) {\n        if (a == 0) {\n            return 0;\n        }\n        c = a * b;\n        assert(c / a == b);\n        return c;\n    }\n\n    function div(uint256 a, uint256 b) internal pure returns (uint256) {\n        return a / b;\n    }\n\n    function sub(uint256 a, uint256 b) internal pure returns (uint256) {\n        assert(b <= a);\n        return a - b;\n    }\n\n    function add(uint256 a, uint256 b) internal pure returns (uint256 c) {\n        c = a + b;\n        assert(c >= a);\n        return c;\n    }\n}\n\ninterface ERC20 {\n    function transfer (address _beneficiary, uint256 _tokenAmount) external returns (bool);\n    function mintFromICO(address _to, uint256 _amount) external  returns(bool);\n}\n/**\n * @title Ownable\n * @dev https://github.com/OpenZeppelin/openzeppelin-solidity/blob/master/contracts/ownership/Ownable.sol\n */\ncontract Ownable {\n    address public owner;\n\n    constructor() public {\n        owner = msg.sender;\n    }\n\n    modifier onlyOwner() {\n        require(msg.sender == owner);\n        _;\n    }\n}\n\n/**\n * @title CrowdSale\n * @dev https://github.com/\n */\ncontract SuperSafeSale is Ownable {\n\n    ERC20 public token;\n\n    using SafeMath for uint;\n\n    address public backEndOperator = msg.sender;\n    address founders = 0x7eDE8260e573d3A3dDfc058f19309DF5a1f7397E; // 10% -  \n    address bounty = 0x0cdb839B52404d49417C8Ded6c3E2157A06CdD37; // 1,5% -   \n\n    mapping(address=>bool) public whitelist;\n\n    mapping(address => uint256) public investedEther;\n\n\n    uint256 public startPreSale = 1531612801; // Sunday, 15-Jul-18 00:00:01 UTC\n\n    uint256 public endPreSale = 1534377599; // Wednesday, 15-Aug-18 23:59:59 UTC i\n\n    uint256 public startSale = endPreSale+86400; // + 1 days after end preSale ~ 1 - 7 days mainSale\n\n    uint256 stage1Sale = startSale + 604800; // 8 - 14 days mainSale\n\n    uint256 stage2Sale = stage1Sale + 604800; // 15 -21 days mainSale\n\n    uint256 stage3Sale = stage2Sale + 604800; // 22 -30 days mainSale\n\n    uint256 public endSale = stage3Sale + 5184000; // + 60 days after start mainSale\n\n    uint256 public investors; //   \n    uint256 public weisRaised;\n\n    uint256 public softCapPreSale = 2700000*1e18; //   \n    uint256 public hardCapPreSale = 15000000*1e18; //    \n    uint256 public softCapMainSale = 13500000 *1e18; //   \n    uint256 public hardCapMainSale = 75000000*1e18; //    \n\n    uint256 public buyPrice; // 0.14 USD\n    uint256 public dollarPrice;\n\n    uint256 public soldTokensMainSale;\n    uint256 public soldTokensPreSale;\n\n    event Authorized(address wlCandidate, uint timestamp);\n    event Revoked(address wlCandidate, uint timestamp);\n    event UpdateDollar(uint256 time, uint256 _rate);\n\n    modifier backEnd() {\n        require(msg.sender == backEndOperator || msg.sender == owner);\n        _;\n    }\n\n    //  \n    constructor(ERC20 _token, uint256 usdETH) public {\n        token = _token;\n        dollarPrice = usdETH;\n        buyPrice = (1e16/dollarPrice)*14; // 0.14 usd\n    }\n\n    //     \n    function setStartPreSale(uint256 newStartPreSale) public onlyOwner {\n        startPreSale = newStartPreSale;\n    }\n\n    //     \n    function setEndPreSale(uint256 newEndPreSale) public onlyOwner {\n        endPreSale = newEndPreSale;\n    }\n\n    //     \n    function setStartSale(uint256 newStartSale) public onlyOwner {\n        startSale = newStartSale;\n    }\n\n    //     \n    function setEndSale(uint256 newEndSaled) public onlyOwner {\n        endSale = newEndSaled;\n    }\n\n    //    \n    function setBackEndAddress(address newBackEndOperator) public onlyOwner {\n        backEndOperator = newBackEndOperator;\n    }\n\n    //     \n    function setBuyPrice(uint256 _dollar) public onlyOwner {\n        dollarPrice = _dollar;\n        buyPrice = (1e16/dollarPrice)*14; // 0.14 usd\n        emit UpdateDollar(now, dollarPrice);\n    }\n\n    /*******************************************************************************\n     * Whitelist's section\n     */\n    //   backEndOperator  \n    function authorize(address wlCandidate) public backEnd  {\n        require(wlCandidate != address(0x0));\n        require(!isWhitelisted(wlCandidate));\n        whitelist[wlCandidate] = true;\n        investors++;\n        emit Authorized(wlCandidate, now);\n    }\n\n    //     WL(  )\n    function revoke(address wlCandidate) public  onlyOwner {\n        whitelist[wlCandidate] = false;\n        investors--;\n        emit Revoked(wlCandidate, now);\n    }\n\n    //       WL\n    function isWhitelisted(address wlCandidate) internal view returns(bool) {\n        return whitelist[wlCandidate];\n    }\n\n    /*******************************************************************************\n     * Payable's section\n     */\n\n    function isPreSale() public constant returns(bool) {\n        return now >= startPreSale && now <= endPreSale;\n    }\n\n    function isMainSale() public constant returns(bool) {\n        return now >= startSale && now <= endSale;\n    }\n\n    // callback  \n    function () public payable {\n        require(isWhitelisted(msg.sender));\n        if (isPreSale()) {\n            preSale(msg.sender, msg.value);\n            require(soldTokensPreSale<=hardCapPreSale);\n            investedEther[msg.sender] = investedEther[msg.sender].add(msg.value);\n        } else if(isMainSale()) {\n            mainSale(msg.sender, msg.value);\n            require(soldTokensMainSale<=hardCapMainSale);\n            investedEther[msg.sender] = investedEther[msg.sender].add(msg.value);\n        } else {\n            revert();\n        }\n    }\n\n    //      \n    function preSale(address _investor, uint256 _value) internal {\n        uint256 tokens = _value.mul(1e18).div(buyPrice);\n        uint256 bonusDateTokens = tokens.mul(bonusDate()).div(100);\n        tokens = tokens.add(bonusDateTokens); // 88,5%\n        token.mintFromICO(_investor, tokens);\n\n        uint256 tokensFounders = tokens.mul(20).div(177); // 10% -   \n        token.mintFromICO(founders, tokensFounders);\n\n        uint256 tokensBoynty = tokens.div(59); // 15/885  = 1,5%  -  -   \n        token.mintFromICO(bounty, tokensBoynty);\n\n        weisRaised = weisRaised.add(msg.value);\n        tokens = tokens.add(tokensFounders).add(tokensBoynty); //    \n        soldTokensPreSale = soldTokensPreSale.add(tokens);\n    }\n\n    //      \n    function mainSale(address _investor, uint256 _value) internal {\n        uint256 tokens = _value.mul(1e18).div(buyPrice);\n        uint256 bonusDateTokens = tokens.mul(bonusDate()).div(100);\n        tokens = tokens.add(bonusDateTokens); // 88,5%\n        token.mintFromICO(_investor, tokens);\n\n        uint256 tokensFounders = tokens.mul(20).div(177); // 10% -   \n        token.mintFromICO(founders, tokensFounders);\n\n        uint256 tokensBoynty = tokens.div(59); // 15/885  = 1,5%  -  -   \n        token.mintFromICO(bounty, tokensBoynty);\n\n        weisRaised = weisRaised.add(msg.value);\n        tokens = tokens.add(tokensFounders).add(tokensBoynty);\n        soldTokensMainSale = soldTokensMainSale.add(tokens);\n    }\n\n    function bonusDate() private view returns (uint256){\n        if ( now > startPreSale && now < endPreSale ) { // 1 - 30 days PreSale\n            return 30;\n        }\n        else if (now > startSale && now < stage1Sale) {  // 1 - 7 days mainSale\n            return 15;\n        }\n        else if (now > stage1Sale && now < stage2Sale) { // 8-14 days mainSale\n            return 10;\n        }\n        else if (now > stage2Sale && now < stage3Sale) { // 15 - 21 days mainSale\n            return 5;\n        }\n        else if (now > stage3Sale && now < endSale) { // 22 - 28 days mainSale\n            return 3;\n        }\n        else {\n            return 0;\n        }\n    }\n\n    //    \n    function transferEthFromContract(address _to, uint256 amount) public onlyOwner {\n        //require(weisRaised >= softCap);\n        _to.transfer(amount);\n    }\n\n    /*******************************************************************************\n     * Refundable\n     */\n    function refundPreICO() public {\n        require(soldTokensPreSale < softCapPreSale && now > endPreSale);\n        uint rate = investedEther[msg.sender];\n        require(investedEther[msg.sender] >= 0);\n        investedEther[msg.sender] = 0;\n        msg.sender.transfer(rate);\n        weisRaised = weisRaised.sub(rate);\n    }\n\n    function refundMainICO() public {\n        require(weisRaised < softCapMainSale && now > endSale);\n        uint rate = investedEther[msg.sender];\n        require(investedEther[msg.sender] > 0);\n        investedEther[msg.sender] = 0;\n        msg.sender.transfer(rate);\n        weisRaised = weisRaised.sub(rate);\n    }\n}",
  "sourcePath": "/Users/ivanborisov/Yandex.Disk.localized/IT/WorkProjects/Portfolio/SUPERSAFE/contracts/superSafeSale.sol",
  "compiler": {
    "name": "solc",
    "version": "0.4.24+commit.e67f0147.Emscripten.clang"
  },
  "schemaVersion": "2.0.0",
  "updatedAt": "2018-06-19T12:13:13.655Z"
}